{"contracts/ModernTensor.sol":{"ModernTensor":{"abi":[{"inputs":[{"internalType":"address","name":"_coreToken","type":"address"},{"internalType":"address","name":"_btcToken","type":"address"},{"internalType":"uint256","name":"_minMinerStake","type":"uint256"},{"internalType":"uint256","name":"_minValidatorStake","type":"uint256"}],"stateMutability":"nonpayable","type":"constructor"},{"anonymous":false,"inputs":[{"indexed":true,"internalType":"address","name":"staker","type":"address"},{"indexed":false,"internalType":"uint256","name":"amount","type":"uint256"},{"indexed":false,"internalType":"bytes32","name":"proofHash","type":"bytes32"}],"name":"BitcoinStakeRegistered","type":"event"},{"anonymous":false,"inputs":[{"indexed":true,"internalType":"uint64","name":"subnetId","type":"uint64"},{"indexed":false,"internalType":"uint64","name":"epoch","type":"uint64"},{"indexed":false,"internalType":"bytes32","name":"consensusHash","type":"bytes32"}],"name":"ConsensusReached","type":"event"},{"anonymous":false,"inputs":[{"indexed":true,"internalType":"uint64","name":"roundId","type":"uint64"},{"indexed":false,"internalType":"bytes32","name":"consensusHash","type":"bytes32"}],"name":"ConsensusRoundFinalized","type":"event"},{"anonymous":false,"inputs":[{"indexed":true,"internalType":"uint64","name":"roundId","type":"uint64"},{"indexed":true,"internalType":"uint64","name":"epoch","type":"uint64"}],"name":"ConsensusRoundStarted","type":"event"},{"anonymous":false,"inputs":[{"indexed":true,"internalType":"address","name":"entity","type":"address"},{"indexed":false,"internalType":"string","name":"newEndpoint","type":"string"}],"name":"EndpointUpdated","type":"event"},{"anonymous":false,"inputs":[{"indexed":true,"internalType":"uint64","name":"subnetId","type":"uint64"},{"indexed":true,"internalType":"address","name":"recipient","type":"address"},{"indexed":false,"internalType":"uint256","name":"amount","type":"uint256"}],"name":"IncentiveDistributed","type":"event"},{"anonymous":false,"inputs":[{"indexed":true,"internalType":"address","name":"miner","type":"address"},{"indexed":true,"internalType":"uint64","name":"subnetId","type":"uint64"},{"indexed":false,"internalType":"bytes32","name":"uid","type":"bytes32"}],"name":"MinerRegistered","type":"event"},{"anonymous":false,"inputs":[{"indexed":true,"internalType":"address","name":"miner","type":"address"},{"indexed":true,"internalType":"bytes32","name":"uid","type":"bytes32"},{"indexed":false,"internalType":"uint64","name":"newPerformance","type":"uint64"},{"indexed":false,"internalType":"uint64","name":"newTrustScore","type":"uint64"}],"name":"MinerScoreUpdated","type":"event"},{"anonymous":false,"inputs":[{"indexed":true,"internalType":"bytes32","name":"role","type":"bytes32"},{"indexed":true,"internalType":"bytes32","name":"previousAdminRole","type":"bytes32"},{"indexed":true,"internalType":"bytes32","name":"newAdminRole","type":"bytes32"}],"name":"RoleAdminChanged","type":"event"},{"anonymous":false,"inputs":[{"indexed":true,"internalType":"bytes32","name":"role","type":"bytes32"},{"indexed":true,"internalType":"address","name":"account","type":"address"},{"indexed":true,"internalType":"address","name":"sender","type":"address"}],"name":"RoleGranted","type":"event"},{"anonymous":false,"inputs":[{"indexed":true,"internalType":"bytes32","name":"role","type":"bytes32"},{"indexed":true,"internalType":"address","name":"account","type":"address"},{"indexed":true,"internalType":"address","name":"sender","type":"address"}],"name":"RoleRevoked","type":"event"},{"anonymous":false,"inputs":[{"indexed":true,"internalType":"uint64","name":"subnetId","type":"uint64"},{"indexed":false,"internalType":"string","name":"name","type":"string"},{"indexed":false,"internalType":"address","name":"owner","type":"address"}],"name":"SubnetCreated","type":"event"},{"anonymous":false,"inputs":[{"indexed":true,"internalType":"uint64","name":"subnetId","type":"uint64"},{"indexed":true,"internalType":"address","name":"miner","type":"address"},{"indexed":false,"internalType":"uint64","name":"newScore","type":"uint64"}],"name":"TrustScoreUpdated","type":"event"},{"anonymous":false,"inputs":[{"indexed":true,"internalType":"address","name":"validator","type":"address"},{"indexed":true,"internalType":"uint64","name":"subnetId","type":"uint64"},{"indexed":false,"internalType":"bytes32","name":"uid","type":"bytes32"}],"name":"ValidatorRegistered","type":"event"},{"anonymous":false,"inputs":[{"indexed":true,"internalType":"address","name":"validator","type":"address"},{"indexed":true,"internalType":"bytes32","name":"uid","type":"bytes32"},{"indexed":false,"internalType":"uint64","name":"newPerformance","type":"uint64"},{"indexed":false,"internalType":"uint64","name":"newTrustScore","type":"uint64"}],"name":"ValidatorScoreUpdated","type":"event"},{"inputs":[],"name":"BASE_TIER_MULTIPLIER","outputs":[{"internalType":"uint256","name":"","type":"uint256"}],"stateMutability":"view","type":"function"},{"inputs":[],"name":"BOOST_TIER_MULTIPLIER","outputs":[{"internalType":"uint256","name":"","type":"uint256"}],"stateMutability":"view","type":"function"},{"inputs":[],"name":"CONSENSUS_ROLE","outputs":[{"internalType":"bytes32","name":"","type":"bytes32"}],"stateMutability":"view","type":"function"},{"inputs":[],"name":"DEFAULT_ADMIN_ROLE","outputs":[{"internalType":"bytes32","name":"","type":"bytes32"}],"stateMutability":"view","type":"function"},{"inputs":[],"name":"DIVISOR","outputs":[{"internalType":"uint256","name":"","type":"uint256"}],"stateMutability":"view","type":"function"},{"inputs":[],"name":"DIVISOR_64","outputs":[{"internalType":"uint64","name":"","type":"uint64"}],"stateMutability":"view","type":"function"},{"inputs":[],"name":"GOVERNANCE_ROLE","outputs":[{"internalType":"bytes32","name":"","type":"bytes32"}],"stateMutability":"view","type":"function"},{"inputs":[],"name":"IMMUNITY_PERIOD","outputs":[{"internalType":"uint32","name":"","type":"uint32"}],"stateMutability":"view","type":"function"},{"inputs":[],"name":"MAX_REPUTATION","outputs":[{"internalType":"uint16","name":"","type":"uint16"}],"stateMutability":"view","type":"function"},{"inputs":[],"name":"MAX_SUBNET_UID","outputs":[{"internalType":"uint64","name":"","type":"uint64"}],"stateMutability":"view","type":"function"},{"inputs":[],"name":"SATOSHI_TIER_MULTIPLIER","outputs":[{"internalType":"uint256","name":"","type":"uint256"}],"stateMutability":"view","type":"function"},{"inputs":[],"name":"STATUS_ACTIVE","outputs":[{"internalType":"uint8","name":"","type":"uint8"}],"stateMutability":"view","type":"function"},{"inputs":[],"name":"STATUS_INACTIVE","outputs":[{"internalType":"uint8","name":"","type":"uint8"}],"stateMutability":"view","type":"function"},{"inputs":[],"name":"STATUS_JAILED","outputs":[{"internalType":"uint8","name":"","type":"uint8"}],"stateMutability":"view","type":"function"},{"inputs":[],"name":"SUBNET_OWNER_ROLE","outputs":[{"internalType":"bytes32","name":"","type":"bytes32"}],"stateMutability":"view","type":"function"},{"inputs":[],"name":"SUPER_TIER_MULTIPLIER","outputs":[{"internalType":"uint256","name":"","type":"uint256"}],"stateMutability":"view","type":"function"},{"inputs":[],"name":"VALIDATOR_ROLE","outputs":[{"internalType":"bytes32","name":"","type":"bytes32"}],"stateMutability":"view","type":"function"},{"inputs":[{"internalType":"address","name":"","type":"address"}],"name":"bitcoinStakeProofs","outputs":[{"internalType":"bytes32","name":"","type":"bytes32"}],"stateMutability":"view","type":"function"},{"inputs":[],"name":"btcToken","outputs":[{"internalType":"contract IERC20","name":"","type":"address"}],"stateMutability":"view","type":"function"},{"inputs":[{"internalType":"uint64","name":"","type":"uint64"}],"name":"consensusRounds","outputs":[{"internalType":"uint64","name":"round_id","type":"uint64"},{"internalType":"uint64","name":"epoch","type":"uint64"},{"internalType":"bytes32","name":"consensus_hash","type":"bytes32"},{"internalType":"uint64","name":"timestamp","type":"uint64"},{"internalType":"bool","name":"finalized","type":"bool"}],"stateMutability":"view","type":"function"},{"inputs":[],"name":"coreToken","outputs":[{"internalType":"contract IERC20","name":"","type":"address"}],"stateMutability":"view","type":"function"},{"inputs":[{"internalType":"string","name":"name","type":"string"},{"internalType":"string","name":"description","type":"string"},{"internalType":"uint32","name":"maxMiners","type":"uint32"},{"internalType":"uint32","name":"maxValidators","type":"uint32"},{"internalType":"uint256","name":"minStakeMiner","type":"uint256"},{"internalType":"uint256","name":"minStakeValidator","type":"uint256"}],"name":"createSubnet","outputs":[{"internalType":"uint64","name":"subnetId","type":"uint64"}],"stateMutability":"nonpayable","type":"function"},{"inputs":[],"name":"currentConsensusRound","outputs":[{"internalType":"uint64","name":"","type":"uint64"}],"stateMutability":"view","type":"function"},{"inputs":[],"name":"currentEpoch","outputs":[{"internalType":"uint64","name":"","type":"uint64"}],"stateMutability":"view","type":"function"},{"inputs":[{"internalType":"uint64","name":"","type":"uint64"}],"name":"emissionRates","outputs":[{"internalType":"uint256","name":"","type":"uint256"}],"stateMutability":"view","type":"function"},{"inputs":[{"internalType":"uint64","name":"roundId","type":"uint64"},{"internalType":"bytes32","name":"consensusHash","type":"bytes32"}],"name":"finalizeConsensusRound","outputs":[],"stateMutability":"nonpayable","type":"function"},{"inputs":[],"name":"getActiveMinerUids","outputs":[{"internalType":"uint256[]","name":"","type":"uint256[]"}],"stateMutability":"view","type":"function"},{"inputs":[],"name":"getActiveValidatorUids","outputs":[{"internalType":"uint256[]","name":"","type":"uint256[]"}],"stateMutability":"view","type":"function"},{"inputs":[{"internalType":"uint256","name":"uid","type":"uint256"}],"name":"getMinerData","outputs":[{"internalType":"bytes32","name":"minerUid","type":"bytes32"},{"internalType":"uint64","name":"subnetUid","type":"uint64"},{"internalType":"uint256","name":"stake","type":"uint256"},{"internalType":"uint256","name":"bitcoinStake","type":"uint256"},{"internalType":"uint64","name":"performance","type":"uint64"},{"internalType":"uint64","name":"trustScore","type":"uint64"},{"internalType":"uint256","name":"rewards","type":"uint256"},{"internalType":"uint64","name":"lastUpdate","type":"uint64"},{"internalType":"bytes32","name":"perfHash","type":"bytes32"},{"internalType":"uint8","name":"status","type":"uint8"},{"internalType":"uint64","name":"regTime","type":"uint64"},{"internalType":"string","name":"endpoint","type":"string"},{"internalType":"address","name":"owner","type":"address"}],"stateMutability":"view","type":"function"},{"inputs":[{"internalType":"address","name":"minerAddress","type":"address"}],"name":"getMinerInfo","outputs":[{"components":[{"internalType":"bytes32","name":"uid","type":"bytes32"},{"internalType":"uint64","name":"subnet_uid","type":"uint64"},{"internalType":"uint256","name":"stake","type":"uint256"},{"internalType":"uint256","name":"bitcoin_stake","type":"uint256"},{"internalType":"uint64","name":"scaled_last_performance","type":"uint64"},{"internalType":"uint64","name":"scaled_trust_score","type":"uint64"},{"internalType":"uint256","name":"accumulated_rewards","type":"uint256"},{"internalType":"uint64","name":"last_update_time","type":"uint64"},{"internalType":"bytes32","name":"performance_history_hash","type":"bytes32"},{"internalType":"bytes32","name":"wallet_addr_hash","type":"bytes32"},{"internalType":"uint8","name":"status","type":"uint8"},{"internalType":"uint64","name":"registration_time","type":"uint64"},{"internalType":"string","name":"api_endpoint","type":"string"},{"internalType":"address","name":"owner","type":"address"}],"internalType":"struct ModernTensor.MinerData","name":"","type":"tuple"}],"stateMutability":"view","type":"function"},{"inputs":[],"name":"getNetworkStats","outputs":[{"internalType":"uint256","name":"totalMiners","type":"uint256"},{"internalType":"uint256","name":"totalValidators","type":"uint256"},{"internalType":"uint256","name":"totalStaked","type":"uint256"},{"internalType":"uint256","name":"totalRewards","type":"uint256"}],"stateMutability":"view","type":"function"},{"inputs":[{"internalType":"bytes32","name":"role","type":"bytes32"}],"name":"getRoleAdmin","outputs":[{"internalType":"bytes32","name":"","type":"bytes32"}],"stateMutability":"view","type":"function"},{"inputs":[{"internalType":"uint64","name":"subnetId","type":"uint64"}],"name":"getSubnetMiners","outputs":[{"internalType":"address[]","name":"","type":"address[]"}],"stateMutability":"view","type":"function"},{"inputs":[{"internalType":"uint64","name":"subnetId","type":"uint64"}],"name":"getSubnetValidators","outputs":[{"internalType":"address[]","name":"","type":"address[]"}],"stateMutability":"view","type":"function"},{"inputs":[{"internalType":"uint64","name":"subnetId","type":"uint64"}],"name":"getTrustScores","outputs":[{"internalType":"uint64[]","name":"scores","type":"uint64[]"}],"stateMutability":"view","type":"function"},{"inputs":[{"internalType":"uint256","name":"uid","type":"uint256"}],"name":"getValidatorData","outputs":[{"internalType":"bytes32","name":"validatorUid","type":"bytes32"},{"internalType":"uint64","name":"subnetUid","type":"uint64"},{"internalType":"uint256","name":"stake","type":"uint256"},{"internalType":"uint256","name":"bitcoinStake","type":"uint256"},{"internalType":"uint64","name":"performance","type":"uint64"},{"internalType":"uint64","name":"trustScore","type":"uint64"},{"internalType":"uint256","name":"rewards","type":"uint256"},{"internalType":"uint64","name":"lastUpdate","type":"uint64"},{"internalType":"bytes32","name":"perfHash","type":"bytes32"},{"internalType":"uint8","name":"status","type":"uint8"},{"internalType":"uint64","name":"regTime","type":"uint64"},{"internalType":"string","name":"endpoint","type":"string"},{"internalType":"address","name":"owner","type":"address"}],"stateMutability":"view","type":"function"},{"inputs":[{"internalType":"address","name":"validatorAddress","type":"address"}],"name":"getValidatorInfo","outputs":[{"components":[{"internalType":"bytes32","name":"uid","type":"bytes32"},{"internalType":"uint64","name":"subnet_uid","type":"uint64"},{"internalType":"uint256","name":"stake","type":"uint256"},{"internalType":"uint256","name":"bitcoin_stake","type":"uint256"},{"internalType":"uint64","name":"scaled_last_performance","type":"uint64"},{"internalType":"uint64","name":"scaled_trust_score","type":"uint64"},{"internalType":"uint256","name":"accumulated_rewards","type":"uint256"},{"internalType":"uint64","name":"last_update_time","type":"uint64"},{"internalType":"bytes32","name":"performance_history_hash","type":"bytes32"},{"internalType":"bytes32","name":"wallet_addr_hash","type":"bytes32"},{"internalType":"uint8","name":"status","type":"uint8"},{"internalType":"uint64","name":"registration_time","type":"uint64"},{"internalType":"string","name":"api_endpoint","type":"string"},{"internalType":"address","name":"owner","type":"address"}],"internalType":"struct ModernTensor.ValidatorData","name":"","type":"tuple"}],"stateMutability":"view","type":"function"},{"inputs":[{"internalType":"bytes32","name":"role","type":"bytes32"},{"internalType":"address","name":"account","type":"address"}],"name":"grantRole","outputs":[],"stateMutability":"nonpayable","type":"function"},{"inputs":[{"internalType":"address","name":"","type":"address"}],"name":"hasBitcoinStake","outputs":[{"internalType":"bool","name":"","type":"bool"}],"stateMutability":"view","type":"function"},{"inputs":[{"internalType":"bytes32","name":"role","type":"bytes32"},{"internalType":"address","name":"account","type":"address"}],"name":"hasRole","outputs":[{"internalType":"bool","name":"","type":"bool"}],"stateMutability":"view","type":"function"},{"inputs":[{"internalType":"uint64","name":"","type":"uint64"},{"internalType":"address","name":"","type":"address"}],"name":"incentiveWeights","outputs":[{"internalType":"uint64","name":"","type":"uint64"}],"stateMutability":"view","type":"function"},{"inputs":[{"internalType":"address","name":"","type":"address"}],"name":"minerEndpoints","outputs":[{"internalType":"string","name":"","type":"string"}],"stateMutability":"view","type":"function"},{"inputs":[{"internalType":"address","name":"","type":"address"}],"name":"minerToSubnet","outputs":[{"internalType":"uint64","name":"","type":"uint64"}],"stateMutability":"view","type":"function"},{"inputs":[{"internalType":"address","name":"","type":"address"}],"name":"miners","outputs":[{"internalType":"bytes32","name":"uid","type":"bytes32"},{"internalType":"uint64","name":"subnet_uid","type":"uint64"},{"internalType":"uint256","name":"stake","type":"uint256"},{"internalType":"uint256","name":"bitcoin_stake","type":"uint256"},{"internalType":"uint64","name":"scaled_last_performance","type":"uint64"},{"internalType":"uint64","name":"scaled_trust_score","type":"uint64"},{"internalType":"uint256","name":"accumulated_rewards","type":"uint256"},{"internalType":"uint64","name":"last_update_time","type":"uint64"},{"internalType":"bytes32","name":"performance_history_hash","type":"bytes32"},{"internalType":"bytes32","name":"wallet_addr_hash","type":"bytes32"},{"internalType":"uint8","name":"status","type":"uint8"},{"internalType":"uint64","name":"registration_time","type":"uint64"},{"internalType":"string","name":"api_endpoint","type":"string"},{"internalType":"address","name":"owner","type":"address"}],"stateMutability":"view","type":"function"},{"inputs":[],"name":"nextSubnetId","outputs":[{"internalType":"uint64","name":"","type":"uint64"}],"stateMutability":"view","type":"function"},{"inputs":[{"internalType":"uint256","name":"amount","type":"uint256"},{"internalType":"bytes32","name":"proofHash","type":"bytes32"},{"internalType":"bytes","name":"","type":"bytes"}],"name":"registerBitcoinStake","outputs":[],"stateMutability":"nonpayable","type":"function"},{"inputs":[{"internalType":"uint64","name":"subnetId","type":"uint64"},{"internalType":"uint256","name":"coreStake","type":"uint256"},{"internalType":"uint256","name":"btcStake","type":"uint256"},{"internalType":"string","name":"apiEndpoint","type":"string"}],"name":"registerMiner","outputs":[],"stateMutability":"nonpayable","type":"function"},{"inputs":[{"internalType":"uint64","name":"subnetId","type":"uint64"},{"internalType":"uint256","name":"coreStake","type":"uint256"},{"internalType":"uint256","name":"btcStake","type":"uint256"},{"internalType":"string","name":"apiEndpoint","type":"string"}],"name":"registerValidator","outputs":[],"stateMutability":"nonpayable","type":"function"},{"inputs":[{"internalType":"bytes32","name":"role","type":"bytes32"},{"internalType":"address","name":"account","type":"address"}],"name":"renounceRole","outputs":[],"stateMutability":"nonpayable","type":"function"},{"inputs":[{"internalType":"bytes32","name":"role","type":"bytes32"},{"internalType":"address","name":"account","type":"address"}],"name":"revokeRole","outputs":[],"stateMutability":"nonpayable","type":"function"},{"inputs":[{"internalType":"address","name":"","type":"address"}],"name":"stakingTierMultipliers","outputs":[{"internalType":"uint256","name":"","type":"uint256"}],"stateMutability":"view","type":"function"},{"inputs":[{"internalType":"uint64","name":"","type":"uint64"}],"name":"startConsensusRound","outputs":[{"internalType":"uint64","name":"roundId","type":"uint64"}],"stateMutability":"nonpayable","type":"function"},{"inputs":[{"internalType":"uint64","name":"roundId","type":"uint64"},{"internalType":"address[]","name":"participantAddresses","type":"address[]"},{"internalType":"uint64[]","name":"weights","type":"uint64[]"},{"internalType":"uint64[]","name":"scores","type":"uint64[]"},{"internalType":"uint256[]","name":"rewards","type":"uint256[]"}],"name":"submitConsensusResults","outputs":[],"stateMutability":"nonpayable","type":"function"},{"inputs":[{"internalType":"uint64","name":"","type":"uint64"}],"name":"subnetDynamic","outputs":[{"internalType":"uint64","name":"net_uid","type":"uint64"},{"internalType":"uint64","name":"scaled_weight","type":"uint64"},{"internalType":"uint64","name":"scaled_performance","type":"uint64"},{"internalType":"uint64","name":"current_epoch","type":"uint64"},{"internalType":"uint8","name":"registration_open","type":"uint8"},{"internalType":"uint256","name":"reg_cost","type":"uint256"},{"internalType":"uint64","name":"scaled_incentive_ratio","type":"uint64"},{"internalType":"uint64","name":"last_update_time","type":"uint64"},{"internalType":"uint256","name":"total_stake","type":"uint256"},{"internalType":"uint256","name":"total_bitcoin_stake","type":"uint256"},{"internalType":"uint32","name":"validator_count","type":"uint32"},{"internalType":"uint32","name":"miner_count","type":"uint32"}],"stateMutability":"view","type":"function"},{"inputs":[{"internalType":"uint64","name":"","type":"uint64"},{"internalType":"uint256","name":"","type":"uint256"}],"name":"subnetMiners","outputs":[{"internalType":"address","name":"","type":"address"}],"stateMutability":"view","type":"function"},{"inputs":[{"internalType":"uint64","name":"","type":"uint64"}],"name":"subnetStatic","outputs":[{"internalType":"uint64","name":"net_uid","type":"uint64"},{"internalType":"string","name":"name","type":"string"},{"internalType":"address","name":"owner_addr","type":"address"},{"internalType":"uint32","name":"max_miners","type":"uint32"},{"internalType":"uint32","name":"max_validators","type":"uint32"},{"internalType":"uint64","name":"immunity_period","type":"uint64"},{"internalType":"uint64","name":"creation_time","type":"uint64"},{"internalType":"string","name":"description","type":"string"},{"internalType":"uint32","name":"version","type":"uint32"},{"internalType":"uint256","name":"min_stake_miner","type":"uint256"},{"internalType":"uint256","name":"min_stake_validator","type":"uint256"}],"stateMutability":"view","type":"function"},{"inputs":[{"internalType":"uint64","name":"","type":"uint64"},{"internalType":"uint256","name":"","type":"uint256"}],"name":"subnetValidators","outputs":[{"internalType":"address","name":"","type":"address"}],"stateMutability":"view","type":"function"},{"inputs":[{"internalType":"bytes4","name":"interfaceId","type":"bytes4"}],"name":"supportsInterface","outputs":[{"internalType":"bool","name":"","type":"bool"}],"stateMutability":"view","type":"function"},{"inputs":[],"name":"totalBitcoinStake","outputs":[{"internalType":"uint256","name":"","type":"uint256"}],"stateMutability":"view","type":"function"},{"inputs":[],"name":"totalNetworkStake","outputs":[{"internalType":"uint256","name":"","type":"uint256"}],"stateMutability":"view","type":"function"},{"inputs":[{"internalType":"uint64","name":"","type":"uint64"},{"internalType":"address","name":"","type":"address"}],"name":"trustScores","outputs":[{"internalType":"uint64","name":"","type":"uint64"}],"stateMutability":"view","type":"function"},{"inputs":[{"internalType":"string","name":"newEndpoint","type":"string"}],"name":"updateMinerEndpoint","outputs":[],"stateMutability":"nonpayable","type":"function"},{"inputs":[{"internalType":"uint256","name":"minerUid","type":"uint256"},{"internalType":"uint64","name":"newPerformance","type":"uint64"},{"internalType":"uint64","name":"newTrustScore","type":"uint64"}],"name":"updateMinerPerformance","outputs":[],"stateMutability":"nonpayable","type":"function"},{"inputs":[{"internalType":"address","name":"minerAddr","type":"address"},{"internalType":"uint64","name":"newPerformance","type":"uint64"},{"internalType":"uint64","name":"newTrustScore","type":"uint64"}],"name":"updateMinerScores","outputs":[],"stateMutability":"nonpayable","type":"function"},{"inputs":[{"internalType":"string","name":"newEndpoint","type":"string"}],"name":"updateValidatorEndpoint","outputs":[],"stateMutability":"nonpayable","type":"function"},{"inputs":[{"internalType":"address","name":"validatorAddr","type":"address"},{"internalType":"uint64","name":"newPerformance","type":"uint64"},{"internalType":"uint64","name":"newTrustScore","type":"uint64"}],"name":"updateValidatorScores","outputs":[],"stateMutability":"nonpayable","type":"function"},{"inputs":[{"internalType":"address","name":"","type":"address"}],"name":"validatorEndpoints","outputs":[{"internalType":"string","name":"","type":"string"}],"stateMutability":"view","type":"function"},{"inputs":[{"internalType":"address","name":"","type":"address"}],"name":"validatorToSubnet","outputs":[{"internalType":"uint64","name":"","type":"uint64"}],"stateMutability":"view","type":"function"},{"inputs":[{"internalType":"address","name":"","type":"address"}],"name":"validators","outputs":[{"internalType":"bytes32","name":"uid","type":"bytes32"},{"internalType":"uint64","name":"subnet_uid","type":"uint64"},{"internalType":"uint256","name":"stake","type":"uint256"},{"internalType":"uint256","name":"bitcoin_stake","type":"uint256"},{"internalType":"uint64","name":"scaled_last_performance","type":"uint64"},{"internalType":"uint64","name":"scaled_trust_score","type":"uint64"},{"internalType":"uint256","name":"accumulated_rewards","type":"uint256"},{"internalType":"uint64","name":"last_update_time","type":"uint64"},{"internalType":"bytes32","name":"performance_history_hash","type":"bytes32"},{"internalType":"bytes32","name":"wallet_addr_hash","type":"bytes32"},{"internalType":"uint8","name":"status","type":"uint8"},{"internalType":"uint64","name":"registration_time","type":"uint64"},{"internalType":"string","name":"api_endpoint","type":"string"},{"internalType":"address","name":"owner","type":"address"}],"stateMutability":"view","type":"function"}],"evm":{"bytecode":{"linkReferences":{},"object":"60c034620008ce57601f6200583238819003918201601f19168301916001600160401b038311848410176200062357808492608094604052833981010312620008ce576200004d81620008f3565b6200005b60208301620008f3565b60408381015160609094015160016000818155600280546001600160c01b031916909217909155600381905560048190556001600160a01b039485166080529290931660a0523382526000805160206200581283398151915260205290205460ff16156200088b575b3360009081527faf2b352d373f61cd7c00141c5d498de35abbffd9743307be56c20cef1cd5da4c60205260409020547f71840dc4906352362b0cdaf79870196c8e42acafade72d5d5a6d59291253ceb19060ff161562000847575b503360009081527feb08ee940d1ac9662e9a9716182c59a5990cef3b0e0128641fc5bdd20ac78a5260205260409020547f36fd43ede163045b10e1f0abd16f62f165fce3fa7b6cde217bcea3bc47663acc9060ff161562000803575b5062000186620008d3565b6007815266111959985d5b1d60ca1b602082015260405192906001600160401b03610160850190811190851117620006235761016084016040526000845260208401523360408401526103e8606084015260646080840152611c2060a084015260018060401b03421660c0840152620001fe620008d3565b601f81527f44656661756c74207375626e657420666f72204d6f6465726e54656e736f7200602082015260e08401526001610100840152610120830152610140820152600080526007602052604060002060018060401b0382511660018060401b0319825416178155602082015191825160018060401b03811162000623576001830154600181811c91168015620007f8575b60208210146200070c57601f8111620007ac575b506020601f82116001146200073957819293946000926200072d575b50508160011b916000199060031b1c19161760018301555b604081810151600284018054606085015160808601516001600160e01b03199092166001600160a01b03949094169390931760a093841b63ffffffff60a01b161760c091821b63ffffffff60c01b161790915590830151600385018054928501516001600160801b03199093166001600160401b0392909216919091179190921b6fffffffffffffffff00000000000000001617905560e08101518051906001600160401b03821162000623576004840154600181811c9116801562000722575b60208210146200070c57601f8111620006c0575b50602090601f831160011462000645579180600794926101409460009262000639575b50508160011b916000199060031b1c19161760048501555b63ffffffff61010082015116600585019063ffffffff19825416179055610120810151600685015501519101556040518061018081011060018060401b03610180830111176200062357610180810160409081526000808352620f42406020808501828152848601849052606086018490526001608087015260a0860184905260c08601929092526001600160401b0342811660e087015261010086018490526101208601849052610140860184905261016086018490529280526008905283517f5eff886ea0ce6ca488a3d6e336d6c0f75f46d19b42c06ce5ee98e42c96d256c7805492516fffffffffffffffff0000000000000000951b9490941692166001600160801b031990911617178155600690604083810151825460608601516001600160801b03909116608092831b600160801b600160c01b03161760c091821b6001600160c01b0319161784559085015160018401805460ff191660ff9290921691909117905560a0850151600284015584015160038301805460e08701516001600160801b03199091166001600160401b0393909316929092179190921b6fffffffffffffffff00000000000000001617905561010083015160048201556101208301516005820155019063ffffffff6101408201511667ffffffff00000000610160845493015160201b169160018060401b03191617179055604051614ee9908162000909823960805181818161153f0152818161213d01526137d1015260a05181818161146e0152818161208801526138580152f35b634e487b7160e01b600052604160045260246000fd5b015190503880620003d1565b906004850160005260206000209160005b601f1985168110620006a7575092600794926001926101409583601f198116106200068d575b505050811b016004850155620003e9565b015160001960f88460031b161c191690553880806200067c565b9192602060018192868501518155019401920162000656565b600485016000526020600020601f840160051c81016020851062000704575b601f830160051c82018110620006f7575050620003ae565b60008155600101620006df565b5080620006df565b634e487b7160e01b600052602260045260246000fd5b90607f16906200039a565b015190503880620002c1565b6001840160005260206000209060005b601f1984168110620007935750600193949583601f1981161062000779575b505050811b016001830155620002d9565b015160001960f88460031b161c1916905538808062000768565b9091602060018192858a01518155019301910162000749565b600184016000526020600020601f830160051c810160208410620007f0575b601f830160051c82018110620007e3575050620002a5565b60008155600101620007cb565b5080620007cb565b90607f169062000291565b8060005260016020526040600020336000526020526040600020600160ff1982541617905533903390600080516020620057f2833981519152600080a4386200017b565b8060005260016020526040600020336000526020526040600020600160ff1982541617905533903390600080516020620057f2833981519152600080a4386200011f565b3360008181526000805160206200581283398151915260205260408120805460ff191660011790558190600080516020620057f28339815191528180a4620000c4565b600080fd5b60408051919082016001600160401b038111838210176200062357604052565b51906001600160a01b0382168203620008ce5756fe608080604052600436101561001357600080fd5b60003560e01c90816301ffc9a714613887575080630242974214610bf8578063074bc101146138425780630b34d553146138005780630c2b72e9146137bb5780630f71d74d14613781578063155aef5f1461369557806319cd66f314612f4b57806320857e1c14612f08578063248a9ca314612ed957806326c97eae14612e965780632ac9fcf914612e7a5780632b8c394d14612d7a5780632c0db47114612c5e5780632ccd0e3e14612c235780632f2ff15d14612b705780633410fe6e14612ac057806336568abe14612ade57806337a9d4fb14612ac05780633843bc2214612aa35780633869944314612a795780633c0f86e114612a3f5780633fb6dcb314612a055780634389cc22146129e95780634419dd10146129685780634a662f481461284557806351c95e73146127d75780635a2a5b9a146127b957806363cc5ef21461277a57806364856c7714612511578063648ec7b9146124875780636888f0c7146124395780636ba56725146121975780636f9e03b414611c4e5780637667180814611c24578063823753bf146119e5578063854ee3b81461198e5780638a11d7c9146119385780638a536346146117fd57806391d14854146117b057806392cc068d146115dd57806392e58c75146115c057806392ef70da146115a357806396fd4a1e14610f225780639996eb8f14610c315780639d14455414610c14578063a217fddf14610bf8578063a754702214610b6b578063a81a7c8b14610b14578063b01c4bcd14610a0a578063b8046aaf1461091c578063bff4eb25146108d4578063c0951451146108b5578063c322365614610893578063c49baebe14610858578063cf616c931461083b578063d213c0f21461081e578063d547741f146107dd578063d929ff05146107b6578063df65676314610755578063ebfd4af014610690578063f36c8f5c14610655578063f44df8a81461061b578063f4916cc9146105fd578063f538f7f3146105c2578063f8ce3dd9146104c0578063fa2dabad14610485578063fa52c7d8146103c25763fb20817a1461031657600080fd5b346103bd5760403660031901126103bd5761032f613a0d565b7f60a0745e31ef991fc15438d3b23a71ccf62c0b903c71558aa999b10cb4e0c67860206001600160401b0360243593610366614094565b1692836000526010825261038860ff60056040600020015460401c16156148b1565b83600052601082526005604060002082600482015501600160401b68ff000000000000000019825416179055604051908152a2005b600080fd5b346103bd5760203660031901126103bd576001600160a01b03806103e46138da565b1660005260066020526040600020906104818254926001600160401b0360018201541690600281015493600382015495600483015460058401546001600160401b03600686015416600786015491600887015493600988015496600b61044c600a8b01613afc565b99015416986040519c8d9c8d9260ff6001600160401b038c60081c169b16996001600160401b03808760401c16961694613ccf565b0390f35b346103bd5760003660031901126103bd5760206040517f36fd43ede163045b10e1f0abd16f62f165fce3fa7b6cde217bcea3bc47663acc8152f35b346103bd5760003660031901126103bd57600960209081526040517fec8156718a8372b1db44bb411437d0870f3e3790d4a08526d024ce1b0b668f6b805480835260009182527f067ef11c6b6e72bed28df18c3c4b2e4babb6f289abc7d1edc03515deafa274ce918391828601915b868282106105a3578461054481860382613adb565b61054e8151614d4c565b9160005b825181101561059557610590906001600160a01b03610571828661494a565b51166000526005835260406000205461058a828761494a565b5261493b565b610552565b604051806104818682613d9d565b85546001600160a01b031684526001958601958795509301920161052f565b346103bd5760203660031901126103bd576104816105e1600435614a85565b9960409d9b9d999199989298979397969496519d8e9d8e613e06565b346103bd5760003660031901126103bd576020600454604051908152f35b346103bd5760203660031901126103bd576001600160a01b0361063c6138da565b1660005260146020526020604060002054604051908152f35b346103bd5760003660031901126103bd5760206040517f71840dc4906352362b0cdaf79870196c8e42acafade72d5d5a6d59291253ceb18152f35b346103bd5760203660031901126103bd576101806001600160401b03806106b5613a0d565b16600052600860205260406000209081549160ff6001820154169160028201549060038301546004840154926006600586015495015495604051978481168952848160401c1660208a0152848160801c1660408a015260c01c6060890152608088015260a087015281811660c087015260401c1660e085015261010084015261012083015263ffffffff9081811661014084015260201c16610160820152f35b346103bd5760403660031901126103bd5761076e613a0d565b6001600160401b0360243591166000526009602052604060002080548210156103bd5760209161079d91613dd8565b905460405160039290921b1c6001600160a01b03168152f35b346103bd5760003660031901126103bd5760206001600160401b0360025416604051908152f35b346103bd5760403660031901126103bd5761081c6004356107fc6138f0565b908060005260016020526108176001604060002001546141d9565b6142e2565b005b346103bd5760003660031901126103bd57602060405161ffff8152f35b346103bd5760003660031901126103bd5760206040516103e88152f35b346103bd5760003660031901126103bd5760206040517f21702c8af46127c7fa207f89d0b0a8441bb32959a0ac7df790e9ab1a25c989268152f35b346103bd5760003660031901126103bd5760206040516001600160401b038152f35b346103bd5760203660031901126103bd576104816105e1600435614c2e565b346103bd5760403660031901126103bd576108ed613a0d565b6001600160401b036024359116600052600a602052604060002080548210156103bd5760209161079d91613dd8565b346103bd5760003660031901126103bd57600a60209081526040517f13da86008ba1c6922daee3e07db95305ef49ebced9f5467a0b8613fcc6b343e3805480835260009182527fe53a0b972c470f18f842c35c712f9b9beaac1e8e838c1ba491d0d478900e81ca918391828601915b868282106109eb57846109a081860382613adb565b6109aa8151614d4c565b9160005b8251811015610595576109e6906001600160a01b036109cd828661494a565b51166000526006835260406000205461058a828761494a565b6109ae565b85546001600160a01b031684526001958601958795509301920161098b565b346103bd5760603660031901126103bd57610a236138da565b610a2b613a23565b907f5a24b67363d3a8ec85a2acbd037e1606bf9847e9a87308d2af106336e4bd09c4610a55613a39565b91610a5e613e7d565b60018060a01b031691826000526005602052610a806040600020541515614d7e565b6001600160401b0380851690610aa9620f4240610a9f81851115614dbc565b8285161115614dfe565b846000526005602052604060002091610ad684600485016001600160401b031993848254161781556144b2565b60068301914216908254161790555493610b0f604051928392839060209093929360408301946001600160401b03809216845216910152565b0390a3005b346103bd5760403660031901126103bd576020610b2f613a0d565b610b376138f0565b6001600160401b03809216600052600e835260406000209060018060a01b0316600052825260406000205416604051908152f35b346103bd576020806003193601126103bd576001600160401b03610b8d613a0d565b1660005260098152604060002090604051908181845491828152019360005281600020916000905b828210610bd85761048185610bcc81890382613adb565b60405191829182613c06565b83546001600160a01b031686529485019460019384019390910190610bb5565b346103bd5760003660031901126103bd57602060405160008152f35b346103bd5760003660031901126103bd576020604051611c208152f35b346103bd576020806003193601126103bd576001600160401b036004358181116103bd57610c63903690600401613be8565b336000526006835260406000205415610edd573360005260068352600a60406000200191815192818411610e1657610c9b8154613a4f565b93601f94858111610e9a575b508086868211600114610e3757600091610e2c575b508160011b916000199060031b1c19161790555b33600052601284526040600020908251908111610e1657610cf18254613a4f565b848111610dd3575b5084938111600114610d5b579081610d4b9392600080516020614e9483398151915295600091610d50575b508160011b916000199060031b1c19161790555b6040519182918583523395830190613929565b0390a2005b905083015187610d24565b601f1981169382600052856000209460005b87828210610dbd57505091600080516020614e948339815191529560019282610d4b97969510610da4575b5050811b019055610d38565b85015160001960f88460031b161c191690558780610d98565b8387015188556001909701969283019201610d6d565b82600052856000208580840160051c820192888510610e0d575b0160051c01905b818110610e015750610cf9565b60008155600101610df4565b92508192610ded565b634e487b7160e01b600052604160045260246000fd5b905084015187610cbc565b60008481528881209250601f198416905b89828210610e845750509083600194939210610e6b575b5050811b019055610cd0565b86015160001960f88460031b161c191690558780610e5f565b600184958293958b015181550194019201610e48565b82600052866000208680840160051c820192898510610ed4575b0160051c01905b818110610ec85750610ca7565b60008155600101610ebb565b92508192610eb4565b60405162461bcd60e51b815260048101849052601a60248201527f4e6f74206120726567697374657265642076616c696461746f720000000000006044820152606490fd5b346103bd57610f3036613d5d565b919092610f3b61485b565b6001600160401b0381166000526007602052610f666001600160401b036040600020541615156144da565b6001600160401b0381166000526008602052610f8e600160ff81604060002001541614614519565b6001600160401b0381166000526007602052610fb460076040600020015483101561455b565b336000526006602052610fcc604060002054156145a7565b60405192602084013360601b81526001600160401b0360c01b8360c01b16603486015242603c86015243605c860152683b30b634b230ba37b960b91b607c860152606585528460a08101106001600160401b0360a087011117610e165760a0850160405284519020938361150b575b50841515928361143b575b80611054876111e993614e40565b3360005260136020526040600020556111146001600160401b03421660405160208101903360601b82526014815261108b81613aa5565b519020906040519161109c83613a89565b8983526001600160401b03881660208401528460408401528a606084015260006080840152620f424060a0840152600060c08401528160e08401526000610100840152610120830152600161014083015261016082015284610180820152336101a08201523360005260066020526040600020614600565b6001600160401b038416600052600a60205261113433604060002061480b565b33600052600c60205260406000206001600160401b0385166001600160401b03198254161790556001600160401b03841660005260086020526006604060002001805463ffffffff611187818316614846565b169063ffffffff19161790556001600160401b038416600052600860205260046040600020016111b8828254614358565b90556001600160401b038416600052600860205260056040600020016111df888254614358565b9055600354614358565b6003553360005260126020526040600020908051906001600160401b038211610e165781906112188454613a4f565b601f81116113e8575b50602090601f831160011461138257600092611377575b50508160011b916000199060031b1c19161790555b3360009081527f54fa744d02e0cd6feb2b438b7701c241f85ef8aa84993c058c9ed46b60f00edc60205260409020547f21702c8af46127c7fa207f89d0b0a8441bb32959a0ac7df790e9ab1a25c989269060ff1615611323575b506001600160401b036040519184835216907f338e3ebe1c2ba26a4d625509a131c0851bef421c36c85148374933e3d161020760203392a36112eb575b6001600055005b60405191825260208201527f01ea4411ab96cb263f76479de6158313581d59dd7a739466723e1b180aafdd4e60403392a280806112e4565b8060005260016020526040600020336000526020526040600020600160ff19825416179055339033907f2f8788117e7eff1d82e926ec794901d17c78024a50270940304540a733656f0d600080a4846112a7565b015190508780611238565b6000858152602081209350601f198516905b8181106113d057509084600195949392106113b7575b505050811b01905561124d565b015160001960f88460031b161c191690558780806113aa565b92936020600181928786015181550195019301611394565b909150836000526020600020601f840160051c81019160208510611431575b90601f859493920160051c01905b8181106114225750611221565b60008155849350600101611415565b9091508190611407565b6040516323b872dd60e01b8152336004820152306024820152604481018790529060208260648160006001600160a01b037f0000000000000000000000000000000000000000000000000000000000000000165af19182156114ff576111e9926114d0575b503360005260156020526040600020600160ff198254161790556114c687600454614358565b6004559050611046565b6114f19060203d6020116114f8575b6114e98183613adb565b8101906145e8565b50876114a0565b503d6114df565b6040513d6000823e3d90fd5b6323b872dd60e01b60a082019081523360a48301523060c483015260e4820185905260209060648160006001600160a01b037f0000000000000000000000000000000000000000000000000000000000000000165af180156114ff571561103b576115959060203d60201161159c575b60a08161158b8293838601613adb565b83010191016145e8565b508561103b565b503d61157b565b346103bd5760003660031901126103bd5760206040516104b08152f35b346103bd5760003660031901126103bd5760206040516107d08152f35b346103bd5760603660031901126103bd576004356115f9613a23565b90611602613a39565b61160a613e7d565b600960209081526040517fec8156718a8372b1db44bb411437d0870f3e3790d4a08526d024ce1b0b668f6b805480835260009182529194929392917f067ef11c6b6e72bed28df18c3c4b2e4babb6f289abc7d1edc03515deafa274ce918691828701915b878282106117915750505061168592500385613adb565b60009360005b8151811015611766576001600160a01b03806116a7838561494a565b51166000526005865283604060002054146116cb57506116c69061493b565b61168b565b92507f5a24b67363d3a8ec85a2acbd037e1606bf9847e9a87308d2af106336e4bd09c49495506116fa9161494a565b51165b6001600160a01b031692611712841515614d7e565b6001600160401b0360058187169261173d620f424061173381871115614dbc565b8487161115614dfe565b8660005252604060002091610ad684600485016001600160401b031993848254161781556144b2565b5050507f5a24b67363d3a8ec85a2acbd037e1606bf9847e9a87308d2af106336e4bd09c491926116fd565b85546001600160a01b031684526001958601958a95509301920161166e565b346103bd5760403660031901126103bd576117c96138f0565b600435600052600160205260406000209060018060a01b0316600052602052602060ff604060002054166040519015158152f35b346103bd576020806003193601126103bd576001600160401b039081611821613a0d565b1660005260098152604060002090604051808383829554938481520190600052836000209260005b858282106119195750505061186092500383613adb565b81519061188561186f83613c4a565b9261187d6040519485613adb565b808452613c4a565b8282019390601f190136853760005b81518110156118d9576118d4906001600160a01b036118b3828561494a565b5116600052600584528660046040600020015460401c1661058a828761494a565b611894565b505091909160405192818401908285525180915260408401929160005b8281106119035785850386f35b83518716855293810193928101926001016118f6565b85546001600160a01b0316845260019586019588955093019201611849565b346103bd5760203660031901126103bd576119516138da565b61195961495e565b5060018060a01b0316600052600660205261048161197a60406000206149c7565b60405191829160208352602083019061394e565b346103bd5760403660031901126103bd5760206119a9613a0d565b6119b16138f0565b6001600160401b03809216600052600d835260406000209060018060a01b0316600052825260406000205416604051908152f35b346103bd5760603660031901126103bd576004356024356001600160401b036044358181116103bd57366023820112156103bd57611a2d903690602481600401359101613ba2565b5033600052600560209181835260406000205415801590611c12575b15611bdc578315611ba75733600090815260148452604080822086905560158552808220805460ff1916600117905583855290205415611b5c57336000528183526003604060002001611a9d868254614358565b905533600052818352600160406000200154166000526008825280604060002001611ac9858254614358565b90555b611ad884600454614358565b600455336000908152818352604090205415611b4557336000528152611b0683600260406000200154614e40565b33600052601382526040600020556040519283528201527f01ea4411ab96cb263f76479de6158313581d59dd7a739466723e1b180aafdd4e60403392a2005b5060068152611b0683600260406000200154614e40565b600683526003604060002001611b73868254614358565b90553360005260068352600160406000200154166000526008825280604060002001611ba0858254614358565b9055611acc565b60405162461bcd60e51b815260048101849052600d60248201526c24b73b30b634b210383937b7b360991b6044820152606490fd5b60405162461bcd60e51b815260048101849052600e60248201526d139bdd081c9959da5cdd195c995960921b6044820152606490fd5b50600683526040600020541515611a49565b346103bd5760003660031901126103bd5760206001600160401b0360025460401c16604051908152f35b346103bd57611c5c36613d5d565b919092611c6761485b565b6001600160401b0381166000526007602052611c926001600160401b036040600020541615156144da565b6001600160401b0381166000526008602052611cba600160ff81604060002001541614614519565b6001600160401b0381166000526007602052611ce060066040600020015483101561455b565b336000526005602052611cf8604060002054156145a7565b60405192602084013360601b81526001600160401b0360c01b8360c01b16603486015242603c86015243605c860152605c85528460808101106001600160401b03608087011117610e165760808501604052845190209383612109575b508415159283612055575b80611d6e87611eeb93614e40565b336000526013602052604060002055611e2e6001600160401b03421660405160208101903360601b825260148152611da581613aa5565b5190209060405191611db683613a89565b8983526001600160401b03881660208401528460408401528a6060840152600060808401526207a12060a0840152600060c08401528160e08401526000610100840152610120830152600161014083015261016082015284610180820152336101a08201523360005260056020526040600020614600565b6001600160401b0384166000526009602052611e4e33604060002061480b565b33600052600b60205260406000206001600160401b0385166001600160401b03198254161790556001600160401b0384166000526008602052611ec66006604060002001611ea563ffffffff825460201c16614846565b67ffffffff0000000082549160201b169067ffffffff000000001916179055565b6001600160401b038416600052600860205260046040600020016111b8828254614358565b6003553360005260116020526040600020908051906001600160401b038211610e16578190611f1a8454613a4f565b601f8111612002575b50602090601f8311600114611f9c57600092611f91575b50508160011b916000199060031b1c19161790555b6001600160401b036040519184835216907f529e56400f4728c5a98a3efc79e8094d1dfe08248021c690f9f393e7353c84ef60203392a36112eb576001600055005b015190508780611f3a565b6000858152602081209350601f198516905b818110611fea5750908460019594939210611fd1575b505050811b019055611f4f565b015160001960f88460031b161c19169055878080611fc4565b92936020600181928786015181550195019301611fae565b909150836000526020600020601f840160051c8101916020851061204b575b90601f859493920160051c01905b81811061203c5750611f23565b6000815584935060010161202f565b9091508190612021565b6040516323b872dd60e01b8152336004820152306024820152604481018790529060208260648160006001600160a01b037f0000000000000000000000000000000000000000000000000000000000000000165af19182156114ff57611eeb926120ea575b503360005260156020526040600020600160ff198254161790556120e087600454614358565b6004559050611d60565b6121029060203d6020116114f8576114e98183613adb565b50876120ba565b6323b872dd60e01b608082019081523360848301523060a483015260c4820185905260209060648160006001600160a01b037f0000000000000000000000000000000000000000000000000000000000000000165af180156114ff5715611d55576121899060203d602011612190575b60808161158b8293838601613adb565b5085611d55565b503d612179565b346103bd576020806003193601126103bd576001600160401b036004358181116103bd576121c9903690600401613be8565b336000526005808452604060002054156123fb5733600052808452600a60406000200192825193818511610e16576122018154613a4f565b94601f958681116123ba575b5080878782116001146123575760009161234c575b508160011b916000199060031b1c19161790555b33600052601185526040600020918351918211610e16576122578354613a4f565b9085821161230f575b5050849381116001146122b1579081610d4b9392600080516020614e9483398151915295600091610d5057508160011b916000199060031b1c19161790556040519182918583523395830190613929565b601f1981169382600052856000209460005b878282106122f957505091600080516020614e948339815191529560019282610d4b97969510610da4575050811b019055610d38565b83870151885560019097019692830192016122c3565b83600052866000209086808501821c830193898610612343575b01901c01905b81811015612260576000815560010161232f565b93508293612329565b905085015188612222565b60008481528981209250601f198416905b8a8282106123a4575050908360019493921061238b575b5050811b019055612236565b87015160001960f88460031b161c19169055888061237f565b600184958293958c015181550194019201612368565b826000528760002087808401871c8201928a85106123f2575b01861c01905b8181106123e6575061220d565b600081556001016123d9565b925081926123d3565b60405162461bcd60e51b81526004810185905260166024820152752737ba1030903932b3b4b9ba32b932b21036b4b732b960511b6044820152606490fd5b346103bd5760203660031901126103bd576001600160a01b0361245a6138da565b1660005260116020526104816124736040600020613afc565b604051918291602083526020830190613929565b346103bd5760203660031901126103bd576001600160a01b03806124a96138da565b1660005260056020526040600020906104818254926001600160401b0360018201541690600281015493600382015495600483015460058401546001600160401b03600686015416600786015491600887015493600988015496600b61044c600a8b01613afc565b346103bd5760a03660031901126103bd5761252a613a0d565b6024356001600160401b038082116103bd57366023830112156103bd5781600401359161255683613c4a565b906125646040519283613adb565b83825260209360248584019160051b830101913683116103bd57602401905b82821061275b575050506044358281116103bd576125a5903690600401613c61565b926064358381116103bd576125be903690600401613c61565b608435958487116103bd57366023880112156103bd578660040135966125e388613c4a565b976125f1604051998a613adb565b8089526024858a019160051b830101913683116103bd57908560248995949301915b8383106127485750505050612626614094565b16938460005260109081845261264a60ff60056040600020015460401c16156148b1565b61265785518851146148fd565b61266485518451146148fd565b61267185518951146148fd565b60005b855181101561081c57808261268c612743938b61494a565b5160008a8152868952604090206001600160a01b039290911690600101826126b4858c61494a565b5116600052885260406000206001600160401b03199182825416179055846126dc848961494a565b51168a6000528689526002604060002001836126f8868d61494a565b51166000528952604060002091825416179055612715828c61494a565b519089600052858852600360406000200190612731848b61494a565b5116600052875260406000205561493b565b612674565b8235815289955091810191879101612613565b81356001600160a01b03811681036103bd578152908501908501612583565b346103bd5760203660031901126103bd576001600160a01b0361279b6138da565b166000526015602052602060ff604060002054166040519015158152f35b346103bd5760003660031901126103bd576020600354604051908152f35b346103bd5760203660031901126103bd5760a06001600160401b03806127fb613a0d565b16600052601060205260ff604060002080549260056004830154920154918160405195818116875260401c16602086015260408501528116606084015260401c1615156080820152f35b346103bd5760003660031901126103bd576002546000906001600160401b03168180805b836001600160401b038216101561293c576001600160401b03811660005260076020526001600160401b03604060002054166128ae575b6128a99061449a565b612869565b9091936129346129036128db6128a993600860205263ffffffff60066040600020015460201c1690614358565b966001600160401b038516600052600860205263ffffffff6006604060002001541690614358565b936001600160401b038416600052600860205261292e60406000206005600482015491015490614358565b90614358565b9190506128a0565b608085848461295060035460045490614358565b91604051938452602084015260408301526060820152f35b346103bd576020806003193601126103bd576001600160401b0361298a613a0d565b16600052600a8152604060002090604051908181845491828152019360005281600020916000905b8282106129c95761048185610bcc81890382613adb565b83546001600160a01b0316865294850194600193840193909101906129b2565b346103bd5760003660031901126103bd57602060405160018152f35b346103bd5760203660031901126103bd576001600160401b03612a26613a0d565b16600052600f6020526020604060002054604051908152f35b346103bd5760203660031901126103bd576001600160a01b03612a606138da565b1660005260126020526104816124736040600020613afc565b346103bd5760003660031901126103bd5760206001600160401b0360025460801c16604051908152f35b346103bd5760003660031901126103bd5760206040516105dc8152f35b346103bd5760003660031901126103bd576020604051620f42408152f35b346103bd5760403660031901126103bd57612af76138f0565b336001600160a01b03821603612b135761081c906004356142e2565b60405162461bcd60e51b815260206004820152602f60248201527f416363657373436f6e74726f6c3a2063616e206f6e6c792072656e6f756e636560448201526e103937b632b9903337b91039b2b63360891b6064820152608490fd5b346103bd5760403660031901126103bd57600435612b8c6138f0565b816000526001602052612ba66001604060002001546141d9565b81600052600160205260406000209060018060a01b0316908160005260205260ff6040600020541615612bd557005b8160005260016020526040600020816000526020526040600020600160ff1982541617905533917f2f8788117e7eff1d82e926ec794901d17c78024a50270940304540a733656f0d600080a4005b346103bd5760003660031901126103bd5760206040517fdea1430c130e6626c2aa0a1a7a664882ab62c2e44eba35c994dbd707c7b70ab98152f35b346103bd5760203660031901126103bd57612c77613a0d565b50612c80614094565b60206002546001600160401b03612c9b818360801c1661449a565b818116929060801b67ffffffffffffffff60801b1667ffffffffffffffff60401b612cda67ffffffffffffffff60801b198416831760401c851661449a565b60401b169177ffffffffffffffffffffffffffffffff000000000000000019161717600255816000526010835260056040600020836001600160401b0319825416178155612d2f8360025460401c16826144b2565b0181421668ffffffffffffffffff1982541617905560025460401c169060405191817f2f5155a3a89e1a88be3e86b95125ce62efbbb8c8b3136d65342347c46848d2bb600080a38152f35b346103bd5760603660031901126103bd57612d936138da565b612d9b613a23565b90612da4613a39565b90612dad613e7d565b6001600160a01b031660008181526006602052604090205490919015612e3b577f5c6e2770eaf2bf15b68801ee9c69b373fc1b89f11b20c683f8bfccb369b0bc25906001600160401b0380851690612e0e620f4240610a9f81851115614dbc565b846000526006602052604060002091610ad684600485016001600160401b031993848254161781556144b2565b60405162461bcd60e51b815260206004820152601360248201527215985b1a59185d1bdc881b9bdd08199bdd5b99606a1b6044820152606490fd5b0390fd5b346103bd5760003660031901126103bd57602060405160028152f35b346103bd5760203660031901126103bd576001600160a01b03612eb76138da565b16600052600c60205260206001600160401b0360406000205416604051908152f35b346103bd5760203660031901126103bd5760043560005260016020526020600160406000200154604051908152f35b346103bd5760203660031901126103bd576001600160a01b03612f296138da565b16600052600b60205260206001600160401b0360406000205416604051908152f35b346103bd5760c03660031901126103bd576004356001600160401b0381116103bd57612f7b903690600401613be8565b6024356001600160401b0381116103bd57612f9a903690600401613be8565b6044359063ffffffff821682036103bd576064359063ffffffff821682036103bd5783511561366057600254926001600160401b03612fda81861661449a565b166001600160401b03198516176002556040519261016084018481106001600160401b03821117610e165763ffffffff9283916040526001600160401b0387168652876020870152336040870152166060850152166080830152611c2060a08301526001600160401b03421660c083015260e0820152600161010082015260843561012082015260a4356101408201526001600160401b03821660005260076020526040600020906001600160401b038151166001600160401b031983541617825560208101518051906001600160401b038211610e165781906130c16001860154613a4f565b601f811161360d575b50602090601f831160011461359b57600092613590575b50508160011b916000199060031b1c19161760018301555b6002820160018060a01b0360408301511681549063ffffffff60a01b606085015160a01b169063ffffffff60c01b608086015160c01b169263ffffffff60e01b161717179055613177600383016001600160401b0360a0840151166001600160401b03198254161781556001600160401b0360c084015116906144b2565b60e08101518051906001600160401b038211610e165761319a6004850154613a4f565b601f8111613549575b50602090601f83116001146134d357918060079492610140946000926134c8575b50508160011b916000199060031b1c19161760048501555b63ffffffff6101008201511663ffffffff196005860154161760058501556101208101516006850155015191015560405191826101808101106001600160401b0361018085011117610e16576133d683610180602095016040526001600160401b0384168152620f424085820152600060408201526000606082015260016080820152600060a0820152620f424060c08201526001600160401b03421660e082015260006101008201526000610120820152600061014082015260006101608201526001600160401b0384166000526008855263ffffffff610160600660406000206001600160401b038551166001600160401b03198254161781556132ee6001600160401b038a87015116826144b2565b604085015181546fffffffffffffffffffffffffffffffff6001600160401b0360c01b606089015160c01b16926001600160401b0360801b9060801b1691161717815560ff60808601511660ff1960018301541617600182015560a0850151600282015561338a600382016001600160401b0360c0880151166001600160401b03198254161781556001600160401b0360e088015116906144b2565b6101008501516004820155610120850151600582015501928261014082015116831985541617845501511667ffffffff0000000082549160201b169067ffffffff000000001916179055565b7fdea1430c130e6626c2aa0a1a7a664882ab62c2e44eba35c994dbd707c7b70ab98060005260018452604060002033600052845260ff6040600020541615613476575b507f5d6943eed6b28b798177bcb465658cca4e137e72861014a967333bf23ab2846b61345060405192604084526040840190613929565b913385820152806001600160401b038516930390a26001600160401b0360405191168152f35b806000526001845260406000203360005284526040600020600160ff19825416179055339033907f2f8788117e7eff1d82e926ec794901d17c78024a50270940304540a733656f0d600080a483613419565b0151905088806131c4565b906004850160005260206000209160005b601f1985168110613531575092600794926001926101409583601f19811610613518575b505050811b0160048501556131dc565b015160001960f88460031b161c19169055888080613508565b919260206001819286850151815501940192016134e4565b600485016000526020600020601f840160051c810160208510613589575b601f830160051c8201811061357d5750506131a3565b60008155600101613567565b5080613567565b0151905086806130e1565b9250600185016000526020600020906000935b601f19841685106135f2576001945083601f198116106135d9575b505050811b0160018301556130f9565b015160001960f88460031b161c191690558680806135c9565b818101518355602094850194600190930192909101906135ae565b909150600185016000526020600020601f840160051c810160208510613659575b90849392915b601f830160051c8201811061364a5750506130ca565b60008155859450600101613634565b508061362e565b60405162461bcd60e51b815260206004820152600d60248201526c13985b59481c995c5d5a5c9959609a1b6044820152606490fd5b346103bd5760203660031901126103bd576001600160401b03806136b7613a0d565b166000526007602052604060002081815416906136d660018201613afc565b9260028201549161376a6003820154936136f260048401613afc565b63ffffffff94856005860154169660076006870154960154966137296040519b8c9b8c5260208c61016091829101528c0190613929565b9460018060a01b03811660408c0152818160a01c1660608c015260c01c1660808a015281811660a08a015260401c1660c088015286820360e0880152613929565b926101008501526101208401526101408301520390f35b346103bd5760203660031901126103bd576001600160a01b036137a26138da565b1660005260136020526020604060002054604051908152f35b346103bd5760003660031901126103bd576040517f00000000000000000000000000000000000000000000000000000000000000006001600160a01b03168152602090f35b346103bd5760203660031901126103bd576138196138da565b61382161495e565b5060018060a01b0316600052600560205261048161197a60406000206149c7565b346103bd5760003660031901126103bd576040517f00000000000000000000000000000000000000000000000000000000000000006001600160a01b03168152602090f35b346103bd5760203660031901126103bd576004359063ffffffff60e01b82168092036103bd57602091637965db0b60e01b81149081156138c9575b5015158152f35b6301ffc9a760e01b149050836138c2565b600435906001600160a01b03821682036103bd57565b602435906001600160a01b03821682036103bd57565b60005b8381106139195750506000910152565b8181015183820152602001613909565b9060209161394281518092818552858086019101613906565b601f01601f1916010190565b90815181526001600160401b0380602084015116602083015260408301516040830152606083015160608301528060808401511660808301528060a08401511660a083015260c083015160c08301528060e08401511660e08301526101008084015190830152610120808401519083015261014060ff818501511690830152610160908184015116908201526139f561018080840151906101c08091850152830190613929565b6101a0928301516001600160a01b0316919092015290565b600435906001600160401b03821682036103bd57565b602435906001600160401b03821682036103bd57565b604435906001600160401b03821682036103bd57565b90600182811c92168015613a7f575b6020831014613a6957565b634e487b7160e01b600052602260045260246000fd5b91607f1691613a5e565b6101c081019081106001600160401b03821117610e1657604052565b604081019081106001600160401b03821117610e1657604052565b608081019081106001600160401b03821117610e1657604052565b90601f801991011681019081106001600160401b03821117610e1657604052565b9060405191826000825492613b1084613a4f565b908184526001948581169081600014613b7f5750600114613b3c575b5050613b3a92500383613adb565b565b9093915060005260209081600020936000915b818310613b67575050613b3a93508201013880613b2c565b85548884018501529485019487945091830191613b4f565b915050613b3a94506020925060ff191682840152151560051b8201013880613b2c565b9291926001600160401b038211610e165760405191613bcb601f8201601f191660200184613adb565b8294818452818301116103bd578281602093846000960137010152565b9080601f830112156103bd57816020613c0393359101613ba2565b90565b6020908160408183019282815285518094520193019160005b828110613c2d575050505090565b83516001600160a01b031685529381019392810192600101613c1f565b6001600160401b038111610e165760051b60200190565b81601f820112156103bd57803591613c7883613c4a565b92613c866040519485613adb565b808452602092838086019260051b8201019283116103bd578301905b828210613cb0575050505090565b81356001600160401b03811681036103bd578152908301908301613ca2565b9d9e9d60a0819e9b969a9594613d4d9d986101a09f9b9560ff9b9585526001600160401b039d8e988994858094166020890152604088015260608701521660808501521691015260c08d01521660e08b01526101008a015261012089015216610140870152166101608501526101c080610180860152840190613929565b6001600160a01b03909416910152565b60806003198201126103bd576001600160401b039060043582811681036103bd579260243592604435926064359182116103bd57613c0391600401613be8565b6020908160408183019282815285518094520193019160005b828110613dc4575050505090565b835185529381019392810192600101613db6565b8054821015613df05760005260206000200190600090565b634e487b7160e01b600052603260045260246000fd5b9b98939260ff969d9e9d8d6080613d4d9d989b956101809f9b9583526001600160401b039c8d98899687809416602087015260408601526060850152169101521660a08d015260c08c01521660e08a015261010089015216610120870152166101408501526101a080610160860152840190613929565b3360009081527f54fa744d02e0cd6feb2b438b7701c241f85ef8aa84993c058c9ed46b60f00edc602090815260408083205490927f21702c8af46127c7fa207f89d0b0a8441bb32959a0ac7df790e9ab1a25c989269160019060ff1615613ee5575050505050565b613eee3361438c565b92855191613efb83613ac0565b60428352858301936060368637835115614080576030855383518210156140805790607860218501536041915b81831161401257505050613fd0576048612e76938693613fb493613fa5985198899376020b1b1b2b9b9a1b7b73a3937b61d1030b1b1b7bab73a1604d1b8a860152613f7c815180928c603789019101613906565b8401917001034b99036b4b9b9b4b733903937b6329607d1b603784015251809386840190613906565b01036028810187520185613adb565b5192839262461bcd60e51b845260048401526024830190613929565b60648486519062461bcd60e51b825280600483015260248201527f537472696e67733a20686578206c656e67746820696e73756666696369656e746044820152fd5b909192600f8116601081101561406c576f181899199a1a9b1b9c1cb0b131b232b360811b901a614042858761437b565b5360041c92801561405857600019019190613f28565b634e487b7160e01b82526011600452602482fd5b634e487b7160e01b83526032600452602483fd5b634e487b7160e01b81526032600452602490fd5b3360009081527feb08ee940d1ac9662e9a9716182c59a5990cef3b0e0128641fc5bdd20ac78a52602090815260408083205490927f36fd43ede163045b10e1f0abd16f62f165fce3fa7b6cde217bcea3bc47663acc9160019060ff16156140fc575050505050565b6141053361438c565b9285519161411283613ac0565b60428352858301936060368637835115614080576030855383518210156140805790607860218501536041915b81831161419357505050613fd0576048612e76938693613fb493613fa5985198899376020b1b1b2b9b9a1b7b73a3937b61d1030b1b1b7bab73a1604d1b8a860152613f7c815180928c603789019101613906565b909192600f8116601081101561406c576f181899199a1a9b1b9c1cb0b131b232b360811b901a6141c3858761437b565b5360041c9280156140585760001901919061413f565b6000818152600191602091838352604093848220338352845260ff858320541615614205575050505050565b61420e3361438c565b9285519161421b83613ac0565b60428352858301936060368637835115614080576030855383518210156140805790607860218501536041915b81831161429c57505050613fd0576048612e76938693613fb493613fa5985198899376020b1b1b2b9b9a1b7b73a3937b61d1030b1b1b7bab73a1604d1b8a860152613f7c815180928c603789019101613906565b909192600f8116601081101561406c576f181899199a1a9b1b9c1cb0b131b232b360811b901a6142cc858761437b565b5360041c92801561405857600019019190614248565b906000918083526001602052604083209160018060a01b03169182845260205260ff60408420541661431357505050565b8083526001602052604083208284526020526040832060ff1981541690557ff6391f5c32d9c69d2a47ea670b442974b53935d1edc7fd64eb21e047a839171b339380a4565b9190820180921161436557565b634e487b7160e01b600052601160045260246000fd5b908151811015613df0570160200190565b60405190606082018281106001600160401b03821117610e1657604052602a8252602082016040368237825115613df057603090538151600190811015613df057607860218401536029905b80821161442c5750506143e85790565b606460405162461bcd60e51b815260206004820152602060248201527f537472696e67733a20686578206c656e67746820696e73756666696369656e746044820152fd5b9091600f81166010811015614485576f181899199a1a9b1b9c1cb0b131b232b360811b901a61445b848661437b565b5360041c9180156144705760001901906143d8565b60246000634e487b7160e01b81526011600452fd5b60246000634e487b7160e01b81526032600452fd5b6001600160401b038091169081146143655760010190565b9067ffffffffffffffff60401b82549160401b169067ffffffffffffffff60401b1916179055565b156144e157565b60405162461bcd60e51b815260206004820152601060248201526f14dd589b995d081b9bdd08199bdd5b9960821b6044820152606490fd5b1561452057565b60405162461bcd60e51b8152602060048201526013602482015272149959da5cdd1c985d1a5bdb8818db1bdcd959606a1b6044820152606490fd5b1561456257565b60405162461bcd60e51b815260206004820152601760248201527f496e73756666696369656e7420434f5245207374616b650000000000000000006044820152606490fd5b156145ae57565b60405162461bcd60e51b8152602060048201526012602482015271105b1c9958591e481c9959da5cdd195c995960721b6044820152606490fd5b908160209103126103bd575180151581036103bd5790565b9190805183556001928381016001600160401b0394602091868386015116906001600160401b0319918282541617905560408501516002850155606085015160038501556146666004850188608088015116838254161781558860a088015116906144b2565b60c0850151600585015560068401908760e08701511690825416179055610100840151600784015561012084015160088401556009830160ff6101408601511681549068ffffffffffffffff0061016088015160081b169168ffffffffffffffffff191617179055600a8301916101808501518051978811610e16576146ec8454613a4f565b601f81116147c2575b5081601f891160011461475a57509680928192600b97989960009461474f575b50501b916000199060031b1c19161790555b01906101a060018060a01b03910151166bffffffffffffffffffffffff60a01b825416179055565b015192503880614715565b909791601f198316988560005282600020926000905b8b82106147ab57505083600b98999a10614792575b505050811b019055614727565b015160001960f88460031b161c19169055388080614785565b808785968294968601518155019501930190614770565b6000858152838120601f8b0160051c810192858c10614801575b601f0160051c019185905b8381106147f6575050506146f5565b8281550185906147e7565b90925082906147dc565b8054600160401b811015610e165761482891600182018155613dd8565b819291549060031b9160018060a01b03809116831b921b1916179055565b63ffffffff8091169081146143655760010190565b60026000541461486c576002600055565b60405162461bcd60e51b815260206004820152601f60248201527f5265656e7472616e637947756172643a207265656e7472616e742063616c6c006044820152606490fd5b156148b857565b60405162461bcd60e51b815260206004820152601760248201527f526f756e6420616c72656164792066696e616c697a65640000000000000000006044820152606490fd5b1561490457565b60405162461bcd60e51b815260206004820152600f60248201526e098cadccee8d040dad2e6dac2e8c6d608b1b6044820152606490fd5b60001981146143655760010190565b8051821015613df05760209160051b010190565b6040519061496b82613a89565b816101a06000918281528260208201528260408201528260608201528260808201528260a08201528260c08201528260e08201528261010082015282610120820152826101408201528261016082015260606101808201520152565b906040516149d481613a89565b6101a08193805483526001600160401b038060018301541660208501526002820154604085015260038201546060850152806004830154818116608087015260401c1660a0850152600582015460c08501528060068301541660e085015260078201546101008501526008820154610120850152600982015460ff811661014086015260081c16610160840152614a6d600a8201613afc565b610180840152600b01546001600160a01b0316910152565b60096020908152604080517fec8156718a8372b1db44bb411437d0870f3e3790d4a08526d024ce1b0b668f6b8054808352600091825292956060949093909291907f067ef11c6b6e72bed28df18c3c4b2e4babb6f289abc7d1edc03515deafa274ce90839081860190845b87828210614c0f57505050614b0792500383613adb565b805b8251811015614bd9576001600160a01b0380614b25838661494a565b51168352886005808752898286205414614b4a57505050614b459061493b565b614b09565b9195969798509291614b608691614b6c9661494a565b511682528552206149c7565b80516001600160401b0380948301511696820151958201519484608084015116948060a0850151169460c0850151948260e082015116946101008201519460ff610140840151169461016084015116936101a061018085015194015116919c9b9a99989796959493929190565b875162461bcd60e51b815260206004820152600f60248201526e135a5b995c881b9bdd08199bdd5b99608a1b6044820152606490fd5b85546001600160a01b0316845260019586019588955093019201614af0565b600a6020908152604080517f13da86008ba1c6922daee3e07db95305ef49ebced9f5467a0b8613fcc6b343e38054808352600091825292956060949093909291907fe53a0b972c470f18f842c35c712f9b9beaac1e8e838c1ba491d0d478900e81ca90839081860190845b87828210614d2d57505050614cb092500383613adb565b805b8251811015614cf3576001600160a01b0380614cce838661494a565b51168352886006808752898286205414614b4a57505050614cee9061493b565b614cb2565b875162461bcd60e51b815260206004820152601360248201527215985b1a59185d1bdc881b9bdd08199bdd5b99606a1b6044820152606490fd5b85546001600160a01b0316845260019586019588955093019201614c99565b90614d5682613c4a565b614d636040519182613adb565b8281528092614d74601f1991613c4a565b0190602036910137565b15614d8557565b60405162461bcd60e51b815260206004820152600f60248201526e135a5b995c881b9bdd08199bdd5b99608a1b6044820152606490fd5b15614dc357565b60405162461bcd60e51b8152602060048201526013602482015272496e76616c696420706572666f726d616e636560681b6044820152606490fd5b15614e0557565b60405162461bcd60e51b8152602060048201526013602482015272496e76616c69642074727573742073636f726560681b6044820152606490fd5b908015614e8b576103e891828102908082048414901517156143655704818110614e6c5750506107d090565b6101f48110614e7d5750506105dc90565b606411613c0357506104b090565b50506103e89056fe060a16d12d0dfc76a33a2d280e8544990981e010744db7750feb63a17041c571a26469706673582212204310cb21634cb2b6deee26f012e64d4b9659bd22080a9c24a3fccaef414b756364736f6c634300081300332f8788117e7eff1d82e926ec794901d17c78024a50270940304540a733656f0da6eef7e35abe7026729641147f7915573c7e97b47efa546f5f6e3230263bcb49","opcodes":"PUSH1 0xC0 CALLVALUE PUSH3 0x8CE JUMPI PUSH1 0x1F PUSH3 0x5832 CODESIZE DUP2 SWAP1 SUB SWAP2 DUP3 ADD PUSH1 0x1F NOT AND DUP4 ADD SWAP2 PUSH1 0x1 PUSH1 0x1 PUSH1 0x40 SHL SUB DUP4 GT DUP5 DUP5 LT OR PUSH3 0x623 JUMPI DUP1 DUP5 SWAP3 PUSH1 0x80 SWAP5 PUSH1 0x40 MSTORE DUP4 CODECOPY DUP2 ADD SUB SLT PUSH3 0x8CE JUMPI PUSH3 0x4D DUP2 PUSH3 0x8F3 JUMP JUMPDEST PUSH3 0x5B PUSH1 0x20 DUP4 ADD PUSH3 0x8F3 JUMP JUMPDEST PUSH1 0x40 DUP4 DUP2 ADD MLOAD PUSH1 0x60 SWAP1 SWAP5 ADD MLOAD PUSH1 0x1 PUSH1 0x0 DUP2 DUP2 SSTORE PUSH1 0x2 DUP1 SLOAD PUSH1 0x1 PUSH1 0x1 PUSH1 0xC0 SHL SUB NOT AND SWAP1 SWAP3 OR SWAP1 SWAP2 SSTORE PUSH1 0x3 DUP2 SWAP1 SSTORE PUSH1 0x4 DUP2 SWAP1 SSTORE PUSH1 0x1 PUSH1 0x1 PUSH1 0xA0 SHL SUB SWAP5 DUP6 AND PUSH1 0x80 MSTORE SWAP3 SWAP1 SWAP4 AND PUSH1 0xA0 MSTORE CALLER DUP3 MSTORE PUSH1 0x0 DUP1 MLOAD PUSH1 0x20 PUSH3 0x5812 DUP4 CODECOPY DUP2 MLOAD SWAP2 MSTORE PUSH1 0x20 MSTORE SWAP1 KECCAK256 SLOAD PUSH1 0xFF AND ISZERO PUSH3 0x88B JUMPI JUMPDEST CALLER PUSH1 0x0 SWAP1 DUP2 MSTORE PUSH32 0xAF2B352D373F61CD7C00141C5D498DE35ABBFFD9743307BE56C20CEF1CD5DA4C PUSH1 0x20 MSTORE PUSH1 0x40 SWAP1 KECCAK256 SLOAD PUSH32 0x71840DC4906352362B0CDAF79870196C8E42ACAFADE72D5D5A6D59291253CEB1 SWAP1 PUSH1 0xFF AND ISZERO PUSH3 0x847 JUMPI JUMPDEST POP CALLER PUSH1 0x0 SWAP1 DUP2 MSTORE PUSH32 0xEB08EE940D1AC9662E9A9716182C59A5990CEF3B0E0128641FC5BDD20AC78A52 PUSH1 0x20 MSTORE PUSH1 0x40 SWAP1 KECCAK256 SLOAD PUSH32 0x36FD43EDE163045B10E1F0ABD16F62F165FCE3FA7B6CDE217BCEA3BC47663ACC SWAP1 PUSH1 0xFF AND ISZERO PUSH3 0x803 JUMPI JUMPDEST POP PUSH3 0x186 PUSH3 0x8D3 JUMP JUMPDEST PUSH1 0x7 DUP2 MSTORE PUSH7 0x111959985D5B1D PUSH1 0xCA SHL PUSH1 0x20 DUP3 ADD MSTORE PUSH1 0x40 MLOAD SWAP3 SWAP1 PUSH1 0x1 PUSH1 0x1 PUSH1 0x40 SHL SUB PUSH2 0x160 DUP6 ADD SWAP1 DUP2 GT SWAP1 DUP6 GT OR PUSH3 0x623 JUMPI PUSH2 0x160 DUP5 ADD PUSH1 0x40 MSTORE PUSH1 0x0 DUP5 MSTORE PUSH1 0x20 DUP5 ADD MSTORE CALLER PUSH1 0x40 DUP5 ADD MSTORE PUSH2 0x3E8 PUSH1 0x60 DUP5 ADD MSTORE PUSH1 0x64 PUSH1 0x80 DUP5 ADD MSTORE PUSH2 0x1C20 PUSH1 0xA0 DUP5 ADD MSTORE PUSH1 0x1 DUP1 PUSH1 0x40 SHL SUB TIMESTAMP AND PUSH1 0xC0 DUP5 ADD MSTORE PUSH3 0x1FE PUSH3 0x8D3 JUMP JUMPDEST PUSH1 0x1F DUP2 MSTORE PUSH32 0x44656661756C74207375626E657420666F72204D6F6465726E54656E736F7200 PUSH1 0x20 DUP3 ADD MSTORE PUSH1 0xE0 DUP5 ADD MSTORE PUSH1 0x1 PUSH2 0x100 DUP5 ADD MSTORE PUSH2 0x120 DUP4 ADD MSTORE PUSH2 0x140 DUP3 ADD MSTORE PUSH1 0x0 DUP1 MSTORE PUSH1 0x7 PUSH1 0x20 MSTORE PUSH1 0x40 PUSH1 0x0 KECCAK256 PUSH1 0x1 DUP1 PUSH1 0x40 SHL SUB DUP3 MLOAD AND PUSH1 0x1 DUP1 PUSH1 0x40 SHL SUB NOT DUP3 SLOAD AND OR DUP2 SSTORE PUSH1 0x20 DUP3 ADD MLOAD SWAP2 DUP3 MLOAD PUSH1 0x1 DUP1 PUSH1 0x40 SHL SUB DUP2 GT PUSH3 0x623 JUMPI PUSH1 0x1 DUP4 ADD SLOAD PUSH1 0x1 DUP2 DUP2 SHR SWAP2 AND DUP1 ISZERO PUSH3 0x7F8 JUMPI JUMPDEST PUSH1 0x20 DUP3 LT EQ PUSH3 0x70C JUMPI PUSH1 0x1F DUP2 GT PUSH3 0x7AC JUMPI JUMPDEST POP PUSH1 0x20 PUSH1 0x1F DUP3 GT PUSH1 0x1 EQ PUSH3 0x739 JUMPI DUP2 SWAP3 SWAP4 SWAP5 PUSH1 0x0 SWAP3 PUSH3 0x72D JUMPI JUMPDEST POP POP DUP2 PUSH1 0x1 SHL SWAP2 PUSH1 0x0 NOT SWAP1 PUSH1 0x3 SHL SHR NOT AND OR PUSH1 0x1 DUP4 ADD SSTORE JUMPDEST PUSH1 0x40 DUP2 DUP2 ADD MLOAD PUSH1 0x2 DUP5 ADD DUP1 SLOAD PUSH1 0x60 DUP6 ADD MLOAD PUSH1 0x80 DUP7 ADD MLOAD PUSH1 0x1 PUSH1 0x1 PUSH1 0xE0 SHL SUB NOT SWAP1 SWAP3 AND PUSH1 0x1 PUSH1 0x1 PUSH1 0xA0 SHL SUB SWAP5 SWAP1 SWAP5 AND SWAP4 SWAP1 SWAP4 OR PUSH1 0xA0 SWAP4 DUP5 SHL PUSH4 0xFFFFFFFF PUSH1 0xA0 SHL AND OR PUSH1 0xC0 SWAP2 DUP3 SHL PUSH4 0xFFFFFFFF PUSH1 0xC0 SHL AND OR SWAP1 SWAP2 SSTORE SWAP1 DUP4 ADD MLOAD PUSH1 0x3 DUP6 ADD DUP1 SLOAD SWAP3 DUP6 ADD MLOAD PUSH1 0x1 PUSH1 0x1 PUSH1 0x80 SHL SUB NOT SWAP1 SWAP4 AND PUSH1 0x1 PUSH1 0x1 PUSH1 0x40 SHL SUB SWAP3 SWAP1 SWAP3 AND SWAP2 SWAP1 SWAP2 OR SWAP2 SWAP1 SWAP3 SHL PUSH16 0xFFFFFFFFFFFFFFFF0000000000000000 AND OR SWAP1 SSTORE PUSH1 0xE0 DUP2 ADD MLOAD DUP1 MLOAD SWAP1 PUSH1 0x1 PUSH1 0x1 PUSH1 0x40 SHL SUB DUP3 GT PUSH3 0x623 JUMPI PUSH1 0x4 DUP5 ADD SLOAD PUSH1 0x1 DUP2 DUP2 SHR SWAP2 AND DUP1 ISZERO PUSH3 0x722 JUMPI JUMPDEST PUSH1 0x20 DUP3 LT EQ PUSH3 0x70C JUMPI PUSH1 0x1F DUP2 GT PUSH3 0x6C0 JUMPI JUMPDEST POP PUSH1 0x20 SWAP1 PUSH1 0x1F DUP4 GT PUSH1 0x1 EQ PUSH3 0x645 JUMPI SWAP2 DUP1 PUSH1 0x7 SWAP5 SWAP3 PUSH2 0x140 SWAP5 PUSH1 0x0 SWAP3 PUSH3 0x639 JUMPI JUMPDEST POP POP DUP2 PUSH1 0x1 SHL SWAP2 PUSH1 0x0 NOT SWAP1 PUSH1 0x3 SHL SHR NOT AND OR PUSH1 0x4 DUP6 ADD SSTORE JUMPDEST PUSH4 0xFFFFFFFF PUSH2 0x100 DUP3 ADD MLOAD AND PUSH1 0x5 DUP6 ADD SWAP1 PUSH4 0xFFFFFFFF NOT DUP3 SLOAD AND OR SWAP1 SSTORE PUSH2 0x120 DUP2 ADD MLOAD PUSH1 0x6 DUP6 ADD SSTORE ADD MLOAD SWAP2 ADD SSTORE PUSH1 0x40 MLOAD DUP1 PUSH2 0x180 DUP2 ADD LT PUSH1 0x1 DUP1 PUSH1 0x40 SHL SUB PUSH2 0x180 DUP4 ADD GT OR PUSH3 0x623 JUMPI PUSH2 0x180 DUP2 ADD PUSH1 0x40 SWAP1 DUP2 MSTORE PUSH1 0x0 DUP1 DUP4 MSTORE PUSH3 0xF4240 PUSH1 0x20 DUP1 DUP6 ADD DUP3 DUP2 MSTORE DUP5 DUP7 ADD DUP5 SWAP1 MSTORE PUSH1 0x60 DUP7 ADD DUP5 SWAP1 MSTORE PUSH1 0x1 PUSH1 0x80 DUP8 ADD MSTORE PUSH1 0xA0 DUP7 ADD DUP5 SWAP1 MSTORE PUSH1 0xC0 DUP7 ADD SWAP3 SWAP1 SWAP3 MSTORE PUSH1 0x1 PUSH1 0x1 PUSH1 0x40 SHL SUB TIMESTAMP DUP2 AND PUSH1 0xE0 DUP8 ADD MSTORE PUSH2 0x100 DUP7 ADD DUP5 SWAP1 MSTORE PUSH2 0x120 DUP7 ADD DUP5 SWAP1 MSTORE PUSH2 0x140 DUP7 ADD DUP5 SWAP1 MSTORE PUSH2 0x160 DUP7 ADD DUP5 SWAP1 MSTORE SWAP3 DUP1 MSTORE PUSH1 0x8 SWAP1 MSTORE DUP4 MLOAD PUSH32 0x5EFF886EA0CE6CA488A3D6E336D6C0F75F46D19B42C06CE5EE98E42C96D256C7 DUP1 SLOAD SWAP3 MLOAD PUSH16 0xFFFFFFFFFFFFFFFF0000000000000000 SWAP6 SHL SWAP5 SWAP1 SWAP5 AND SWAP3 AND PUSH1 0x1 PUSH1 0x1 PUSH1 0x80 SHL SUB NOT SWAP1 SWAP2 AND OR OR DUP2 SSTORE PUSH1 0x6 SWAP1 PUSH1 0x40 DUP4 DUP2 ADD MLOAD DUP3 SLOAD PUSH1 0x60 DUP7 ADD MLOAD PUSH1 0x1 PUSH1 0x1 PUSH1 0x80 SHL SUB SWAP1 SWAP2 AND PUSH1 0x80 SWAP3 DUP4 SHL PUSH1 0x1 PUSH1 0x80 SHL PUSH1 0x1 PUSH1 0xC0 SHL SUB AND OR PUSH1 0xC0 SWAP2 DUP3 SHL PUSH1 0x1 PUSH1 0x1 PUSH1 0xC0 SHL SUB NOT AND OR DUP5 SSTORE SWAP1 DUP6 ADD MLOAD PUSH1 0x1 DUP5 ADD DUP1 SLOAD PUSH1 0xFF NOT AND PUSH1 0xFF SWAP3 SWAP1 SWAP3 AND SWAP2 SWAP1 SWAP2 OR SWAP1 SSTORE PUSH1 0xA0 DUP6 ADD MLOAD PUSH1 0x2 DUP5 ADD SSTORE DUP5 ADD MLOAD PUSH1 0x3 DUP4 ADD DUP1 SLOAD PUSH1 0xE0 DUP8 ADD MLOAD PUSH1 0x1 PUSH1 0x1 PUSH1 0x80 SHL SUB NOT SWAP1 SWAP2 AND PUSH1 0x1 PUSH1 0x1 PUSH1 0x40 SHL SUB SWAP4 SWAP1 SWAP4 AND SWAP3 SWAP1 SWAP3 OR SWAP2 SWAP1 SWAP3 SHL PUSH16 0xFFFFFFFFFFFFFFFF0000000000000000 AND OR SWAP1 SSTORE PUSH2 0x100 DUP4 ADD MLOAD PUSH1 0x4 DUP3 ADD SSTORE PUSH2 0x120 DUP4 ADD MLOAD PUSH1 0x5 DUP3 ADD SSTORE ADD SWAP1 PUSH4 0xFFFFFFFF PUSH2 0x140 DUP3 ADD MLOAD AND PUSH8 0xFFFFFFFF00000000 PUSH2 0x160 DUP5 SLOAD SWAP4 ADD MLOAD PUSH1 0x20 SHL AND SWAP2 PUSH1 0x1 DUP1 PUSH1 0x40 SHL SUB NOT AND OR OR SWAP1 SSTORE PUSH1 0x40 MLOAD PUSH2 0x4EE9 SWAP1 DUP2 PUSH3 0x909 DUP3 CODECOPY PUSH1 0x80 MLOAD DUP2 DUP2 DUP2 PUSH2 0x153F ADD MSTORE DUP2 DUP2 PUSH2 0x213D ADD MSTORE PUSH2 0x37D1 ADD MSTORE PUSH1 0xA0 MLOAD DUP2 DUP2 DUP2 PUSH2 0x146E ADD MSTORE DUP2 DUP2 PUSH2 0x2088 ADD MSTORE PUSH2 0x3858 ADD MSTORE RETURN JUMPDEST PUSH4 0x4E487B71 PUSH1 0xE0 SHL PUSH1 0x0 MSTORE PUSH1 0x41 PUSH1 0x4 MSTORE PUSH1 0x24 PUSH1 0x0 REVERT JUMPDEST ADD MLOAD SWAP1 POP CODESIZE DUP1 PUSH3 0x3D1 JUMP JUMPDEST SWAP1 PUSH1 0x4 DUP6 ADD PUSH1 0x0 MSTORE PUSH1 0x20 PUSH1 0x0 KECCAK256 SWAP2 PUSH1 0x0 JUMPDEST PUSH1 0x1F NOT DUP6 AND DUP2 LT PUSH3 0x6A7 JUMPI POP SWAP3 PUSH1 0x7 SWAP5 SWAP3 PUSH1 0x1 SWAP3 PUSH2 0x140 SWAP6 DUP4 PUSH1 0x1F NOT DUP2 AND LT PUSH3 0x68D JUMPI JUMPDEST POP POP POP DUP2 SHL ADD PUSH1 0x4 DUP6 ADD SSTORE PUSH3 0x3E9 JUMP JUMPDEST ADD MLOAD PUSH1 0x0 NOT PUSH1 0xF8 DUP5 PUSH1 0x3 SHL AND SHR NOT AND SWAP1 SSTORE CODESIZE DUP1 DUP1 PUSH3 0x67C JUMP JUMPDEST SWAP2 SWAP3 PUSH1 0x20 PUSH1 0x1 DUP2 SWAP3 DUP7 DUP6 ADD MLOAD DUP2 SSTORE ADD SWAP5 ADD SWAP3 ADD PUSH3 0x656 JUMP JUMPDEST PUSH1 0x4 DUP6 ADD PUSH1 0x0 MSTORE PUSH1 0x20 PUSH1 0x0 KECCAK256 PUSH1 0x1F DUP5 ADD PUSH1 0x5 SHR DUP2 ADD PUSH1 0x20 DUP6 LT PUSH3 0x704 JUMPI JUMPDEST PUSH1 0x1F DUP4 ADD PUSH1 0x5 SHR DUP3 ADD DUP2 LT PUSH3 0x6F7 JUMPI POP POP PUSH3 0x3AE JUMP JUMPDEST PUSH1 0x0 DUP2 SSTORE PUSH1 0x1 ADD PUSH3 0x6DF JUMP JUMPDEST POP DUP1 PUSH3 0x6DF JUMP JUMPDEST PUSH4 0x4E487B71 PUSH1 0xE0 SHL PUSH1 0x0 MSTORE PUSH1 0x22 PUSH1 0x4 MSTORE PUSH1 0x24 PUSH1 0x0 REVERT JUMPDEST SWAP1 PUSH1 0x7F AND SWAP1 PUSH3 0x39A JUMP JUMPDEST ADD MLOAD SWAP1 POP CODESIZE DUP1 PUSH3 0x2C1 JUMP JUMPDEST PUSH1 0x1 DUP5 ADD PUSH1 0x0 MSTORE PUSH1 0x20 PUSH1 0x0 KECCAK256 SWAP1 PUSH1 0x0 JUMPDEST PUSH1 0x1F NOT DUP5 AND DUP2 LT PUSH3 0x793 JUMPI POP PUSH1 0x1 SWAP4 SWAP5 SWAP6 DUP4 PUSH1 0x1F NOT DUP2 AND LT PUSH3 0x779 JUMPI JUMPDEST POP POP POP DUP2 SHL ADD PUSH1 0x1 DUP4 ADD SSTORE PUSH3 0x2D9 JUMP JUMPDEST ADD MLOAD PUSH1 0x0 NOT PUSH1 0xF8 DUP5 PUSH1 0x3 SHL AND SHR NOT AND SWAP1 SSTORE CODESIZE DUP1 DUP1 PUSH3 0x768 JUMP JUMPDEST SWAP1 SWAP2 PUSH1 0x20 PUSH1 0x1 DUP2 SWAP3 DUP6 DUP11 ADD MLOAD DUP2 SSTORE ADD SWAP4 ADD SWAP2 ADD PUSH3 0x749 JUMP JUMPDEST PUSH1 0x1 DUP5 ADD PUSH1 0x0 MSTORE PUSH1 0x20 PUSH1 0x0 KECCAK256 PUSH1 0x1F DUP4 ADD PUSH1 0x5 SHR DUP2 ADD PUSH1 0x20 DUP5 LT PUSH3 0x7F0 JUMPI JUMPDEST PUSH1 0x1F DUP4 ADD PUSH1 0x5 SHR DUP3 ADD DUP2 LT PUSH3 0x7E3 JUMPI POP POP PUSH3 0x2A5 JUMP JUMPDEST PUSH1 0x0 DUP2 SSTORE PUSH1 0x1 ADD PUSH3 0x7CB JUMP JUMPDEST POP DUP1 PUSH3 0x7CB JUMP JUMPDEST SWAP1 PUSH1 0x7F AND SWAP1 PUSH3 0x291 JUMP JUMPDEST DUP1 PUSH1 0x0 MSTORE PUSH1 0x1 PUSH1 0x20 MSTORE PUSH1 0x40 PUSH1 0x0 KECCAK256 CALLER PUSH1 0x0 MSTORE PUSH1 0x20 MSTORE PUSH1 0x40 PUSH1 0x0 KECCAK256 PUSH1 0x1 PUSH1 0xFF NOT DUP3 SLOAD AND OR SWAP1 SSTORE CALLER SWAP1 CALLER SWAP1 PUSH1 0x0 DUP1 MLOAD PUSH1 0x20 PUSH3 0x57F2 DUP4 CODECOPY DUP2 MLOAD SWAP2 MSTORE PUSH1 0x0 DUP1 LOG4 CODESIZE PUSH3 0x17B JUMP JUMPDEST DUP1 PUSH1 0x0 MSTORE PUSH1 0x1 PUSH1 0x20 MSTORE PUSH1 0x40 PUSH1 0x0 KECCAK256 CALLER PUSH1 0x0 MSTORE PUSH1 0x20 MSTORE PUSH1 0x40 PUSH1 0x0 KECCAK256 PUSH1 0x1 PUSH1 0xFF NOT DUP3 SLOAD AND OR SWAP1 SSTORE CALLER SWAP1 CALLER SWAP1 PUSH1 0x0 DUP1 MLOAD PUSH1 0x20 PUSH3 0x57F2 DUP4 CODECOPY DUP2 MLOAD SWAP2 MSTORE PUSH1 0x0 DUP1 LOG4 CODESIZE PUSH3 0x11F JUMP JUMPDEST CALLER PUSH1 0x0 DUP2 DUP2 MSTORE PUSH1 0x0 DUP1 MLOAD PUSH1 0x20 PUSH3 0x5812 DUP4 CODECOPY DUP2 MLOAD SWAP2 MSTORE PUSH1 0x20 MSTORE PUSH1 0x40 DUP2 KECCAK256 DUP1 SLOAD PUSH1 0xFF NOT AND PUSH1 0x1 OR SWAP1 SSTORE DUP2 SWAP1 PUSH1 0x0 DUP1 MLOAD PUSH1 0x20 PUSH3 0x57F2 DUP4 CODECOPY DUP2 MLOAD SWAP2 MSTORE DUP2 DUP1 LOG4 PUSH3 0xC4 JUMP JUMPDEST PUSH1 0x0 DUP1 REVERT JUMPDEST PUSH1 0x40 DUP1 MLOAD SWAP2 SWAP1 DUP3 ADD PUSH1 0x1 PUSH1 0x1 PUSH1 0x40 SHL SUB DUP2 GT DUP4 DUP3 LT OR PUSH3 0x623 JUMPI PUSH1 0x40 MSTORE JUMP JUMPDEST MLOAD SWAP1 PUSH1 0x1 PUSH1 0x1 PUSH1 0xA0 SHL SUB DUP3 AND DUP3 SUB PUSH3 0x8CE JUMPI JUMP INVALID PUSH1 0x80 DUP1 PUSH1 0x40 MSTORE PUSH1 0x4 CALLDATASIZE LT ISZERO PUSH2 0x13 JUMPI PUSH1 0x0 DUP1 REVERT JUMPDEST PUSH1 0x0 CALLDATALOAD PUSH1 0xE0 SHR SWAP1 DUP2 PUSH4 0x1FFC9A7 EQ PUSH2 0x3887 JUMPI POP DUP1 PUSH4 0x2429742 EQ PUSH2 0xBF8 JUMPI DUP1 PUSH4 0x74BC101 EQ PUSH2 0x3842 JUMPI DUP1 PUSH4 0xB34D553 EQ PUSH2 0x3800 JUMPI DUP1 PUSH4 0xC2B72E9 EQ PUSH2 0x37BB JUMPI DUP1 PUSH4 0xF71D74D EQ PUSH2 0x3781 JUMPI DUP1 PUSH4 0x155AEF5F EQ PUSH2 0x3695 JUMPI DUP1 PUSH4 0x19CD66F3 EQ PUSH2 0x2F4B JUMPI DUP1 PUSH4 0x20857E1C EQ PUSH2 0x2F08 JUMPI DUP1 PUSH4 0x248A9CA3 EQ PUSH2 0x2ED9 JUMPI DUP1 PUSH4 0x26C97EAE EQ PUSH2 0x2E96 JUMPI DUP1 PUSH4 0x2AC9FCF9 EQ PUSH2 0x2E7A JUMPI DUP1 PUSH4 0x2B8C394D EQ PUSH2 0x2D7A JUMPI DUP1 PUSH4 0x2C0DB471 EQ PUSH2 0x2C5E JUMPI DUP1 PUSH4 0x2CCD0E3E EQ PUSH2 0x2C23 JUMPI DUP1 PUSH4 0x2F2FF15D EQ PUSH2 0x2B70 JUMPI DUP1 PUSH4 0x3410FE6E EQ PUSH2 0x2AC0 JUMPI DUP1 PUSH4 0x36568ABE EQ PUSH2 0x2ADE JUMPI DUP1 PUSH4 0x37A9D4FB EQ PUSH2 0x2AC0 JUMPI DUP1 PUSH4 0x3843BC22 EQ PUSH2 0x2AA3 JUMPI DUP1 PUSH4 0x38699443 EQ PUSH2 0x2A79 JUMPI DUP1 PUSH4 0x3C0F86E1 EQ PUSH2 0x2A3F JUMPI DUP1 PUSH4 0x3FB6DCB3 EQ PUSH2 0x2A05 JUMPI DUP1 PUSH4 0x4389CC22 EQ PUSH2 0x29E9 JUMPI DUP1 PUSH4 0x4419DD10 EQ PUSH2 0x2968 JUMPI DUP1 PUSH4 0x4A662F48 EQ PUSH2 0x2845 JUMPI DUP1 PUSH4 0x51C95E73 EQ PUSH2 0x27D7 JUMPI DUP1 PUSH4 0x5A2A5B9A EQ PUSH2 0x27B9 JUMPI DUP1 PUSH4 0x63CC5EF2 EQ PUSH2 0x277A JUMPI DUP1 PUSH4 0x64856C77 EQ PUSH2 0x2511 JUMPI DUP1 PUSH4 0x648EC7B9 EQ PUSH2 0x2487 JUMPI DUP1 PUSH4 0x6888F0C7 EQ PUSH2 0x2439 JUMPI DUP1 PUSH4 0x6BA56725 EQ PUSH2 0x2197 JUMPI DUP1 PUSH4 0x6F9E03B4 EQ PUSH2 0x1C4E JUMPI DUP1 PUSH4 0x76671808 EQ PUSH2 0x1C24 JUMPI DUP1 PUSH4 0x823753BF EQ PUSH2 0x19E5 JUMPI DUP1 PUSH4 0x854EE3B8 EQ PUSH2 0x198E JUMPI DUP1 PUSH4 0x8A11D7C9 EQ PUSH2 0x1938 JUMPI DUP1 PUSH4 0x8A536346 EQ PUSH2 0x17FD JUMPI DUP1 PUSH4 0x91D14854 EQ PUSH2 0x17B0 JUMPI DUP1 PUSH4 0x92CC068D EQ PUSH2 0x15DD JUMPI DUP1 PUSH4 0x92E58C75 EQ PUSH2 0x15C0 JUMPI DUP1 PUSH4 0x92EF70DA EQ PUSH2 0x15A3 JUMPI DUP1 PUSH4 0x96FD4A1E EQ PUSH2 0xF22 JUMPI DUP1 PUSH4 0x9996EB8F EQ PUSH2 0xC31 JUMPI DUP1 PUSH4 0x9D144554 EQ PUSH2 0xC14 JUMPI DUP1 PUSH4 0xA217FDDF EQ PUSH2 0xBF8 JUMPI DUP1 PUSH4 0xA7547022 EQ PUSH2 0xB6B JUMPI DUP1 PUSH4 0xA81A7C8B EQ PUSH2 0xB14 JUMPI DUP1 PUSH4 0xB01C4BCD EQ PUSH2 0xA0A JUMPI DUP1 PUSH4 0xB8046AAF EQ PUSH2 0x91C JUMPI DUP1 PUSH4 0xBFF4EB25 EQ PUSH2 0x8D4 JUMPI DUP1 PUSH4 0xC0951451 EQ PUSH2 0x8B5 JUMPI DUP1 PUSH4 0xC3223656 EQ PUSH2 0x893 JUMPI DUP1 PUSH4 0xC49BAEBE EQ PUSH2 0x858 JUMPI DUP1 PUSH4 0xCF616C93 EQ PUSH2 0x83B JUMPI DUP1 PUSH4 0xD213C0F2 EQ PUSH2 0x81E JUMPI DUP1 PUSH4 0xD547741F EQ PUSH2 0x7DD JUMPI DUP1 PUSH4 0xD929FF05 EQ PUSH2 0x7B6 JUMPI DUP1 PUSH4 0xDF656763 EQ PUSH2 0x755 JUMPI DUP1 PUSH4 0xEBFD4AF0 EQ PUSH2 0x690 JUMPI DUP1 PUSH4 0xF36C8F5C EQ PUSH2 0x655 JUMPI DUP1 PUSH4 0xF44DF8A8 EQ PUSH2 0x61B JUMPI DUP1 PUSH4 0xF4916CC9 EQ PUSH2 0x5FD JUMPI DUP1 PUSH4 0xF538F7F3 EQ PUSH2 0x5C2 JUMPI DUP1 PUSH4 0xF8CE3DD9 EQ PUSH2 0x4C0 JUMPI DUP1 PUSH4 0xFA2DABAD EQ PUSH2 0x485 JUMPI DUP1 PUSH4 0xFA52C7D8 EQ PUSH2 0x3C2 JUMPI PUSH4 0xFB20817A EQ PUSH2 0x316 JUMPI PUSH1 0x0 DUP1 REVERT JUMPDEST CALLVALUE PUSH2 0x3BD JUMPI PUSH1 0x40 CALLDATASIZE PUSH1 0x3 NOT ADD SLT PUSH2 0x3BD JUMPI PUSH2 0x32F PUSH2 0x3A0D JUMP JUMPDEST PUSH32 0x60A0745E31EF991FC15438D3B23A71CCF62C0B903C71558AA999B10CB4E0C678 PUSH1 0x20 PUSH1 0x1 PUSH1 0x1 PUSH1 0x40 SHL SUB PUSH1 0x24 CALLDATALOAD SWAP4 PUSH2 0x366 PUSH2 0x4094 JUMP JUMPDEST AND SWAP3 DUP4 PUSH1 0x0 MSTORE PUSH1 0x10 DUP3 MSTORE PUSH2 0x388 PUSH1 0xFF PUSH1 0x5 PUSH1 0x40 PUSH1 0x0 KECCAK256 ADD SLOAD PUSH1 0x40 SHR AND ISZERO PUSH2 0x48B1 JUMP JUMPDEST DUP4 PUSH1 0x0 MSTORE PUSH1 0x10 DUP3 MSTORE PUSH1 0x5 PUSH1 0x40 PUSH1 0x0 KECCAK256 DUP3 PUSH1 0x4 DUP3 ADD SSTORE ADD PUSH1 0x1 PUSH1 0x40 SHL PUSH9 0xFF0000000000000000 NOT DUP3 SLOAD AND OR SWAP1 SSTORE PUSH1 0x40 MLOAD SWAP1 DUP2 MSTORE LOG2 STOP JUMPDEST PUSH1 0x0 DUP1 REVERT JUMPDEST CALLVALUE PUSH2 0x3BD JUMPI PUSH1 0x20 CALLDATASIZE PUSH1 0x3 NOT ADD SLT PUSH2 0x3BD JUMPI PUSH1 0x1 PUSH1 0x1 PUSH1 0xA0 SHL SUB DUP1 PUSH2 0x3E4 PUSH2 0x38DA JUMP JUMPDEST AND PUSH1 0x0 MSTORE PUSH1 0x6 PUSH1 0x20 MSTORE PUSH1 0x40 PUSH1 0x0 KECCAK256 SWAP1 PUSH2 0x481 DUP3 SLOAD SWAP3 PUSH1 0x1 PUSH1 0x1 PUSH1 0x40 SHL SUB PUSH1 0x1 DUP3 ADD SLOAD AND SWAP1 PUSH1 0x2 DUP2 ADD SLOAD SWAP4 PUSH1 0x3 DUP3 ADD SLOAD SWAP6 PUSH1 0x4 DUP4 ADD SLOAD PUSH1 0x5 DUP5 ADD SLOAD PUSH1 0x1 PUSH1 0x1 PUSH1 0x40 SHL SUB PUSH1 0x6 DUP7 ADD SLOAD AND PUSH1 0x7 DUP7 ADD SLOAD SWAP2 PUSH1 0x8 DUP8 ADD SLOAD SWAP4 PUSH1 0x9 DUP9 ADD SLOAD SWAP7 PUSH1 0xB PUSH2 0x44C PUSH1 0xA DUP12 ADD PUSH2 0x3AFC JUMP JUMPDEST SWAP10 ADD SLOAD AND SWAP9 PUSH1 0x40 MLOAD SWAP13 DUP14 SWAP13 DUP14 SWAP3 PUSH1 0xFF PUSH1 0x1 PUSH1 0x1 PUSH1 0x40 SHL SUB DUP13 PUSH1 0x8 SHR AND SWAP12 AND SWAP10 PUSH1 0x1 PUSH1 0x1 PUSH1 0x40 SHL SUB DUP1 DUP8 PUSH1 0x40 SHR AND SWAP7 AND SWAP5 PUSH2 0x3CCF JUMP JUMPDEST SUB SWAP1 RETURN JUMPDEST CALLVALUE PUSH2 0x3BD JUMPI PUSH1 0x0 CALLDATASIZE PUSH1 0x3 NOT ADD SLT PUSH2 0x3BD JUMPI PUSH1 0x20 PUSH1 0x40 MLOAD PUSH32 0x36FD43EDE163045B10E1F0ABD16F62F165FCE3FA7B6CDE217BCEA3BC47663ACC DUP2 MSTORE RETURN JUMPDEST CALLVALUE PUSH2 0x3BD JUMPI PUSH1 0x0 CALLDATASIZE PUSH1 0x3 NOT ADD SLT PUSH2 0x3BD JUMPI PUSH1 0x9 PUSH1 0x20 SWAP1 DUP2 MSTORE PUSH1 0x40 MLOAD PUSH32 0xEC8156718A8372B1DB44BB411437D0870F3E3790D4A08526D024CE1B0B668F6B DUP1 SLOAD DUP1 DUP4 MSTORE PUSH1 0x0 SWAP2 DUP3 MSTORE PUSH32 0x67EF11C6B6E72BED28DF18C3C4B2E4BABB6F289ABC7D1EDC03515DEAFA274CE SWAP2 DUP4 SWAP2 DUP3 DUP7 ADD SWAP2 JUMPDEST DUP7 DUP3 DUP3 LT PUSH2 0x5A3 JUMPI DUP5 PUSH2 0x544 DUP2 DUP7 SUB DUP3 PUSH2 0x3ADB JUMP JUMPDEST PUSH2 0x54E DUP2 MLOAD PUSH2 0x4D4C JUMP JUMPDEST SWAP2 PUSH1 0x0 JUMPDEST DUP3 MLOAD DUP2 LT ISZERO PUSH2 0x595 JUMPI PUSH2 0x590 SWAP1 PUSH1 0x1 PUSH1 0x1 PUSH1 0xA0 SHL SUB PUSH2 0x571 DUP3 DUP7 PUSH2 0x494A JUMP JUMPDEST MLOAD AND PUSH1 0x0 MSTORE PUSH1 0x5 DUP4 MSTORE PUSH1 0x40 PUSH1 0x0 KECCAK256 SLOAD PUSH2 0x58A DUP3 DUP8 PUSH2 0x494A JUMP JUMPDEST MSTORE PUSH2 0x493B JUMP JUMPDEST PUSH2 0x552 JUMP JUMPDEST PUSH1 0x40 MLOAD DUP1 PUSH2 0x481 DUP7 DUP3 PUSH2 0x3D9D JUMP JUMPDEST DUP6 SLOAD PUSH1 0x1 PUSH1 0x1 PUSH1 0xA0 SHL SUB AND DUP5 MSTORE PUSH1 0x1 SWAP6 DUP7 ADD SWAP6 DUP8 SWAP6 POP SWAP4 ADD SWAP3 ADD PUSH2 0x52F JUMP JUMPDEST CALLVALUE PUSH2 0x3BD JUMPI PUSH1 0x20 CALLDATASIZE PUSH1 0x3 NOT ADD SLT PUSH2 0x3BD JUMPI PUSH2 0x481 PUSH2 0x5E1 PUSH1 0x4 CALLDATALOAD PUSH2 0x4A85 JUMP JUMPDEST SWAP10 PUSH1 0x40 SWAP14 SWAP12 SWAP14 SWAP10 SWAP2 SWAP10 SWAP9 SWAP3 SWAP9 SWAP8 SWAP4 SWAP8 SWAP7 SWAP5 SWAP7 MLOAD SWAP14 DUP15 SWAP14 DUP15 PUSH2 0x3E06 JUMP JUMPDEST CALLVALUE PUSH2 0x3BD JUMPI PUSH1 0x0 CALLDATASIZE PUSH1 0x3 NOT ADD SLT PUSH2 0x3BD JUMPI PUSH1 0x20 PUSH1 0x4 SLOAD PUSH1 0x40 MLOAD SWAP1 DUP2 MSTORE RETURN JUMPDEST CALLVALUE PUSH2 0x3BD JUMPI PUSH1 0x20 CALLDATASIZE PUSH1 0x3 NOT ADD SLT PUSH2 0x3BD JUMPI PUSH1 0x1 PUSH1 0x1 PUSH1 0xA0 SHL SUB PUSH2 0x63C PUSH2 0x38DA JUMP JUMPDEST AND PUSH1 0x0 MSTORE PUSH1 0x14 PUSH1 0x20 MSTORE PUSH1 0x20 PUSH1 0x40 PUSH1 0x0 KECCAK256 SLOAD PUSH1 0x40 MLOAD SWAP1 DUP2 MSTORE RETURN JUMPDEST CALLVALUE PUSH2 0x3BD JUMPI PUSH1 0x0 CALLDATASIZE PUSH1 0x3 NOT ADD SLT PUSH2 0x3BD JUMPI PUSH1 0x20 PUSH1 0x40 MLOAD PUSH32 0x71840DC4906352362B0CDAF79870196C8E42ACAFADE72D5D5A6D59291253CEB1 DUP2 MSTORE RETURN JUMPDEST CALLVALUE PUSH2 0x3BD JUMPI PUSH1 0x20 CALLDATASIZE PUSH1 0x3 NOT ADD SLT PUSH2 0x3BD JUMPI PUSH2 0x180 PUSH1 0x1 PUSH1 0x1 PUSH1 0x40 SHL SUB DUP1 PUSH2 0x6B5 PUSH2 0x3A0D JUMP JUMPDEST AND PUSH1 0x0 MSTORE PUSH1 0x8 PUSH1 0x20 MSTORE PUSH1 0x40 PUSH1 0x0 KECCAK256 SWAP1 DUP2 SLOAD SWAP2 PUSH1 0xFF PUSH1 0x1 DUP3 ADD SLOAD AND SWAP2 PUSH1 0x2 DUP3 ADD SLOAD SWAP1 PUSH1 0x3 DUP4 ADD SLOAD PUSH1 0x4 DUP5 ADD SLOAD SWAP3 PUSH1 0x6 PUSH1 0x5 DUP7 ADD SLOAD SWAP6 ADD SLOAD SWAP6 PUSH1 0x40 MLOAD SWAP8 DUP5 DUP2 AND DUP10 MSTORE DUP5 DUP2 PUSH1 0x40 SHR AND PUSH1 0x20 DUP11 ADD MSTORE DUP5 DUP2 PUSH1 0x80 SHR AND PUSH1 0x40 DUP11 ADD MSTORE PUSH1 0xC0 SHR PUSH1 0x60 DUP10 ADD MSTORE PUSH1 0x80 DUP9 ADD MSTORE PUSH1 0xA0 DUP8 ADD MSTORE DUP2 DUP2 AND PUSH1 0xC0 DUP8 ADD MSTORE PUSH1 0x40 SHR AND PUSH1 0xE0 DUP6 ADD MSTORE PUSH2 0x100 DUP5 ADD MSTORE PUSH2 0x120 DUP4 ADD MSTORE PUSH4 0xFFFFFFFF SWAP1 DUP2 DUP2 AND PUSH2 0x140 DUP5 ADD MSTORE PUSH1 0x20 SHR AND PUSH2 0x160 DUP3 ADD MSTORE RETURN JUMPDEST CALLVALUE PUSH2 0x3BD JUMPI PUSH1 0x40 CALLDATASIZE PUSH1 0x3 NOT ADD SLT PUSH2 0x3BD JUMPI PUSH2 0x76E PUSH2 0x3A0D JUMP JUMPDEST PUSH1 0x1 PUSH1 0x1 PUSH1 0x40 SHL SUB PUSH1 0x24 CALLDATALOAD SWAP2 AND PUSH1 0x0 MSTORE PUSH1 0x9 PUSH1 0x20 MSTORE PUSH1 0x40 PUSH1 0x0 KECCAK256 DUP1 SLOAD DUP3 LT ISZERO PUSH2 0x3BD JUMPI PUSH1 0x20 SWAP2 PUSH2 0x79D SWAP2 PUSH2 0x3DD8 JUMP JUMPDEST SWAP1 SLOAD PUSH1 0x40 MLOAD PUSH1 0x3 SWAP3 SWAP1 SWAP3 SHL SHR PUSH1 0x1 PUSH1 0x1 PUSH1 0xA0 SHL SUB AND DUP2 MSTORE RETURN JUMPDEST CALLVALUE PUSH2 0x3BD JUMPI PUSH1 0x0 CALLDATASIZE PUSH1 0x3 NOT ADD SLT PUSH2 0x3BD JUMPI PUSH1 0x20 PUSH1 0x1 PUSH1 0x1 PUSH1 0x40 SHL SUB PUSH1 0x2 SLOAD AND PUSH1 0x40 MLOAD SWAP1 DUP2 MSTORE RETURN JUMPDEST CALLVALUE PUSH2 0x3BD JUMPI PUSH1 0x40 CALLDATASIZE PUSH1 0x3 NOT ADD SLT PUSH2 0x3BD JUMPI PUSH2 0x81C PUSH1 0x4 CALLDATALOAD PUSH2 0x7FC PUSH2 0x38F0 JUMP JUMPDEST SWAP1 DUP1 PUSH1 0x0 MSTORE PUSH1 0x1 PUSH1 0x20 MSTORE PUSH2 0x817 PUSH1 0x1 PUSH1 0x40 PUSH1 0x0 KECCAK256 ADD SLOAD PUSH2 0x41D9 JUMP JUMPDEST PUSH2 0x42E2 JUMP JUMPDEST STOP JUMPDEST CALLVALUE PUSH2 0x3BD JUMPI PUSH1 0x0 CALLDATASIZE PUSH1 0x3 NOT ADD SLT PUSH2 0x3BD JUMPI PUSH1 0x20 PUSH1 0x40 MLOAD PUSH2 0xFFFF DUP2 MSTORE RETURN JUMPDEST CALLVALUE PUSH2 0x3BD JUMPI PUSH1 0x0 CALLDATASIZE PUSH1 0x3 NOT ADD SLT PUSH2 0x3BD JUMPI PUSH1 0x20 PUSH1 0x40 MLOAD PUSH2 0x3E8 DUP2 MSTORE RETURN JUMPDEST CALLVALUE PUSH2 0x3BD JUMPI PUSH1 0x0 CALLDATASIZE PUSH1 0x3 NOT ADD SLT PUSH2 0x3BD JUMPI PUSH1 0x20 PUSH1 0x40 MLOAD PUSH32 0x21702C8AF46127C7FA207F89D0B0A8441BB32959A0AC7DF790E9AB1A25C98926 DUP2 MSTORE RETURN JUMPDEST CALLVALUE PUSH2 0x3BD JUMPI PUSH1 0x0 CALLDATASIZE PUSH1 0x3 NOT ADD SLT PUSH2 0x3BD JUMPI PUSH1 0x20 PUSH1 0x40 MLOAD PUSH1 0x1 PUSH1 0x1 PUSH1 0x40 SHL SUB DUP2 MSTORE RETURN JUMPDEST CALLVALUE PUSH2 0x3BD JUMPI PUSH1 0x20 CALLDATASIZE PUSH1 0x3 NOT ADD SLT PUSH2 0x3BD JUMPI PUSH2 0x481 PUSH2 0x5E1 PUSH1 0x4 CALLDATALOAD PUSH2 0x4C2E JUMP JUMPDEST CALLVALUE PUSH2 0x3BD JUMPI PUSH1 0x40 CALLDATASIZE PUSH1 0x3 NOT ADD SLT PUSH2 0x3BD JUMPI PUSH2 0x8ED PUSH2 0x3A0D JUMP JUMPDEST PUSH1 0x1 PUSH1 0x1 PUSH1 0x40 SHL SUB PUSH1 0x24 CALLDATALOAD SWAP2 AND PUSH1 0x0 MSTORE PUSH1 0xA PUSH1 0x20 MSTORE PUSH1 0x40 PUSH1 0x0 KECCAK256 DUP1 SLOAD DUP3 LT ISZERO PUSH2 0x3BD JUMPI PUSH1 0x20 SWAP2 PUSH2 0x79D SWAP2 PUSH2 0x3DD8 JUMP JUMPDEST CALLVALUE PUSH2 0x3BD JUMPI PUSH1 0x0 CALLDATASIZE PUSH1 0x3 NOT ADD SLT PUSH2 0x3BD JUMPI PUSH1 0xA PUSH1 0x20 SWAP1 DUP2 MSTORE PUSH1 0x40 MLOAD PUSH32 0x13DA86008BA1C6922DAEE3E07DB95305EF49EBCED9F5467A0B8613FCC6B343E3 DUP1 SLOAD DUP1 DUP4 MSTORE PUSH1 0x0 SWAP2 DUP3 MSTORE PUSH32 0xE53A0B972C470F18F842C35C712F9B9BEAAC1E8E838C1BA491D0D478900E81CA SWAP2 DUP4 SWAP2 DUP3 DUP7 ADD SWAP2 JUMPDEST DUP7 DUP3 DUP3 LT PUSH2 0x9EB JUMPI DUP5 PUSH2 0x9A0 DUP2 DUP7 SUB DUP3 PUSH2 0x3ADB JUMP JUMPDEST PUSH2 0x9AA DUP2 MLOAD PUSH2 0x4D4C JUMP JUMPDEST SWAP2 PUSH1 0x0 JUMPDEST DUP3 MLOAD DUP2 LT ISZERO PUSH2 0x595 JUMPI PUSH2 0x9E6 SWAP1 PUSH1 0x1 PUSH1 0x1 PUSH1 0xA0 SHL SUB PUSH2 0x9CD DUP3 DUP7 PUSH2 0x494A JUMP JUMPDEST MLOAD AND PUSH1 0x0 MSTORE PUSH1 0x6 DUP4 MSTORE PUSH1 0x40 PUSH1 0x0 KECCAK256 SLOAD PUSH2 0x58A DUP3 DUP8 PUSH2 0x494A JUMP JUMPDEST PUSH2 0x9AE JUMP JUMPDEST DUP6 SLOAD PUSH1 0x1 PUSH1 0x1 PUSH1 0xA0 SHL SUB AND DUP5 MSTORE PUSH1 0x1 SWAP6 DUP7 ADD SWAP6 DUP8 SWAP6 POP SWAP4 ADD SWAP3 ADD PUSH2 0x98B JUMP JUMPDEST CALLVALUE PUSH2 0x3BD JUMPI PUSH1 0x60 CALLDATASIZE PUSH1 0x3 NOT ADD SLT PUSH2 0x3BD JUMPI PUSH2 0xA23 PUSH2 0x38DA JUMP JUMPDEST PUSH2 0xA2B PUSH2 0x3A23 JUMP JUMPDEST SWAP1 PUSH32 0x5A24B67363D3A8EC85A2ACBD037E1606BF9847E9A87308D2AF106336E4BD09C4 PUSH2 0xA55 PUSH2 0x3A39 JUMP JUMPDEST SWAP2 PUSH2 0xA5E PUSH2 0x3E7D JUMP JUMPDEST PUSH1 0x1 DUP1 PUSH1 0xA0 SHL SUB AND SWAP2 DUP3 PUSH1 0x0 MSTORE PUSH1 0x5 PUSH1 0x20 MSTORE PUSH2 0xA80 PUSH1 0x40 PUSH1 0x0 KECCAK256 SLOAD ISZERO ISZERO PUSH2 0x4D7E JUMP JUMPDEST PUSH1 0x1 PUSH1 0x1 PUSH1 0x40 SHL SUB DUP1 DUP6 AND SWAP1 PUSH2 0xAA9 PUSH3 0xF4240 PUSH2 0xA9F DUP2 DUP6 GT ISZERO PUSH2 0x4DBC JUMP JUMPDEST DUP3 DUP6 AND GT ISZERO PUSH2 0x4DFE JUMP JUMPDEST DUP5 PUSH1 0x0 MSTORE PUSH1 0x5 PUSH1 0x20 MSTORE PUSH1 0x40 PUSH1 0x0 KECCAK256 SWAP2 PUSH2 0xAD6 DUP5 PUSH1 0x4 DUP6 ADD PUSH1 0x1 PUSH1 0x1 PUSH1 0x40 SHL SUB NOT SWAP4 DUP5 DUP3 SLOAD AND OR DUP2 SSTORE PUSH2 0x44B2 JUMP JUMPDEST PUSH1 0x6 DUP4 ADD SWAP2 TIMESTAMP AND SWAP1 DUP3 SLOAD AND OR SWAP1 SSTORE SLOAD SWAP4 PUSH2 0xB0F PUSH1 0x40 MLOAD SWAP3 DUP4 SWAP3 DUP4 SWAP1 PUSH1 0x20 SWAP1 SWAP4 SWAP3 SWAP4 PUSH1 0x40 DUP4 ADD SWAP5 PUSH1 0x1 PUSH1 0x1 PUSH1 0x40 SHL SUB DUP1 SWAP3 AND DUP5 MSTORE AND SWAP2 ADD MSTORE JUMP JUMPDEST SUB SWAP1 LOG3 STOP JUMPDEST CALLVALUE PUSH2 0x3BD JUMPI PUSH1 0x40 CALLDATASIZE PUSH1 0x3 NOT ADD SLT PUSH2 0x3BD JUMPI PUSH1 0x20 PUSH2 0xB2F PUSH2 0x3A0D JUMP JUMPDEST PUSH2 0xB37 PUSH2 0x38F0 JUMP JUMPDEST PUSH1 0x1 PUSH1 0x1 PUSH1 0x40 SHL SUB DUP1 SWAP3 AND PUSH1 0x0 MSTORE PUSH1 0xE DUP4 MSTORE PUSH1 0x40 PUSH1 0x0 KECCAK256 SWAP1 PUSH1 0x1 DUP1 PUSH1 0xA0 SHL SUB AND PUSH1 0x0 MSTORE DUP3 MSTORE PUSH1 0x40 PUSH1 0x0 KECCAK256 SLOAD AND PUSH1 0x40 MLOAD SWAP1 DUP2 MSTORE RETURN JUMPDEST CALLVALUE PUSH2 0x3BD JUMPI PUSH1 0x20 DUP1 PUSH1 0x3 NOT CALLDATASIZE ADD SLT PUSH2 0x3BD JUMPI PUSH1 0x1 PUSH1 0x1 PUSH1 0x40 SHL SUB PUSH2 0xB8D PUSH2 0x3A0D JUMP JUMPDEST AND PUSH1 0x0 MSTORE PUSH1 0x9 DUP2 MSTORE PUSH1 0x40 PUSH1 0x0 KECCAK256 SWAP1 PUSH1 0x40 MLOAD SWAP1 DUP2 DUP2 DUP5 SLOAD SWAP2 DUP3 DUP2 MSTORE ADD SWAP4 PUSH1 0x0 MSTORE DUP2 PUSH1 0x0 KECCAK256 SWAP2 PUSH1 0x0 SWAP1 JUMPDEST DUP3 DUP3 LT PUSH2 0xBD8 JUMPI PUSH2 0x481 DUP6 PUSH2 0xBCC DUP2 DUP10 SUB DUP3 PUSH2 0x3ADB JUMP JUMPDEST PUSH1 0x40 MLOAD SWAP2 DUP3 SWAP2 DUP3 PUSH2 0x3C06 JUMP JUMPDEST DUP4 SLOAD PUSH1 0x1 PUSH1 0x1 PUSH1 0xA0 SHL SUB AND DUP7 MSTORE SWAP5 DUP6 ADD SWAP5 PUSH1 0x1 SWAP4 DUP5 ADD SWAP4 SWAP1 SWAP2 ADD SWAP1 PUSH2 0xBB5 JUMP JUMPDEST CALLVALUE PUSH2 0x3BD JUMPI PUSH1 0x0 CALLDATASIZE PUSH1 0x3 NOT ADD SLT PUSH2 0x3BD JUMPI PUSH1 0x20 PUSH1 0x40 MLOAD PUSH1 0x0 DUP2 MSTORE RETURN JUMPDEST CALLVALUE PUSH2 0x3BD JUMPI PUSH1 0x0 CALLDATASIZE PUSH1 0x3 NOT ADD SLT PUSH2 0x3BD JUMPI PUSH1 0x20 PUSH1 0x40 MLOAD PUSH2 0x1C20 DUP2 MSTORE RETURN JUMPDEST CALLVALUE PUSH2 0x3BD JUMPI PUSH1 0x20 DUP1 PUSH1 0x3 NOT CALLDATASIZE ADD SLT PUSH2 0x3BD JUMPI PUSH1 0x1 PUSH1 0x1 PUSH1 0x40 SHL SUB PUSH1 0x4 CALLDATALOAD DUP2 DUP2 GT PUSH2 0x3BD JUMPI PUSH2 0xC63 SWAP1 CALLDATASIZE SWAP1 PUSH1 0x4 ADD PUSH2 0x3BE8 JUMP JUMPDEST CALLER PUSH1 0x0 MSTORE PUSH1 0x6 DUP4 MSTORE PUSH1 0x40 PUSH1 0x0 KECCAK256 SLOAD ISZERO PUSH2 0xEDD JUMPI CALLER PUSH1 0x0 MSTORE PUSH1 0x6 DUP4 MSTORE PUSH1 0xA PUSH1 0x40 PUSH1 0x0 KECCAK256 ADD SWAP2 DUP2 MLOAD SWAP3 DUP2 DUP5 GT PUSH2 0xE16 JUMPI PUSH2 0xC9B DUP2 SLOAD PUSH2 0x3A4F JUMP JUMPDEST SWAP4 PUSH1 0x1F SWAP5 DUP6 DUP2 GT PUSH2 0xE9A JUMPI JUMPDEST POP DUP1 DUP7 DUP7 DUP3 GT PUSH1 0x1 EQ PUSH2 0xE37 JUMPI PUSH1 0x0 SWAP2 PUSH2 0xE2C JUMPI JUMPDEST POP DUP2 PUSH1 0x1 SHL SWAP2 PUSH1 0x0 NOT SWAP1 PUSH1 0x3 SHL SHR NOT AND OR SWAP1 SSTORE JUMPDEST CALLER PUSH1 0x0 MSTORE PUSH1 0x12 DUP5 MSTORE PUSH1 0x40 PUSH1 0x0 KECCAK256 SWAP1 DUP3 MLOAD SWAP1 DUP2 GT PUSH2 0xE16 JUMPI PUSH2 0xCF1 DUP3 SLOAD PUSH2 0x3A4F JUMP JUMPDEST DUP5 DUP2 GT PUSH2 0xDD3 JUMPI JUMPDEST POP DUP5 SWAP4 DUP2 GT PUSH1 0x1 EQ PUSH2 0xD5B JUMPI SWAP1 DUP2 PUSH2 0xD4B SWAP4 SWAP3 PUSH1 0x0 DUP1 MLOAD PUSH1 0x20 PUSH2 0x4E94 DUP4 CODECOPY DUP2 MLOAD SWAP2 MSTORE SWAP6 PUSH1 0x0 SWAP2 PUSH2 0xD50 JUMPI JUMPDEST POP DUP2 PUSH1 0x1 SHL SWAP2 PUSH1 0x0 NOT SWAP1 PUSH1 0x3 SHL SHR NOT AND OR SWAP1 SSTORE JUMPDEST PUSH1 0x40 MLOAD SWAP2 DUP3 SWAP2 DUP6 DUP4 MSTORE CALLER SWAP6 DUP4 ADD SWAP1 PUSH2 0x3929 JUMP JUMPDEST SUB SWAP1 LOG2 STOP JUMPDEST SWAP1 POP DUP4 ADD MLOAD DUP8 PUSH2 0xD24 JUMP JUMPDEST PUSH1 0x1F NOT DUP2 AND SWAP4 DUP3 PUSH1 0x0 MSTORE DUP6 PUSH1 0x0 KECCAK256 SWAP5 PUSH1 0x0 JUMPDEST DUP8 DUP3 DUP3 LT PUSH2 0xDBD JUMPI POP POP SWAP2 PUSH1 0x0 DUP1 MLOAD PUSH1 0x20 PUSH2 0x4E94 DUP4 CODECOPY DUP2 MLOAD SWAP2 MSTORE SWAP6 PUSH1 0x1 SWAP3 DUP3 PUSH2 0xD4B SWAP8 SWAP7 SWAP6 LT PUSH2 0xDA4 JUMPI JUMPDEST POP POP DUP2 SHL ADD SWAP1 SSTORE PUSH2 0xD38 JUMP JUMPDEST DUP6 ADD MLOAD PUSH1 0x0 NOT PUSH1 0xF8 DUP5 PUSH1 0x3 SHL AND SHR NOT AND SWAP1 SSTORE DUP8 DUP1 PUSH2 0xD98 JUMP JUMPDEST DUP4 DUP8 ADD MLOAD DUP9 SSTORE PUSH1 0x1 SWAP1 SWAP8 ADD SWAP7 SWAP3 DUP4 ADD SWAP3 ADD PUSH2 0xD6D JUMP JUMPDEST DUP3 PUSH1 0x0 MSTORE DUP6 PUSH1 0x0 KECCAK256 DUP6 DUP1 DUP5 ADD PUSH1 0x5 SHR DUP3 ADD SWAP3 DUP9 DUP6 LT PUSH2 0xE0D JUMPI JUMPDEST ADD PUSH1 0x5 SHR ADD SWAP1 JUMPDEST DUP2 DUP2 LT PUSH2 0xE01 JUMPI POP PUSH2 0xCF9 JUMP JUMPDEST PUSH1 0x0 DUP2 SSTORE PUSH1 0x1 ADD PUSH2 0xDF4 JUMP JUMPDEST SWAP3 POP DUP2 SWAP3 PUSH2 0xDED JUMP JUMPDEST PUSH4 0x4E487B71 PUSH1 0xE0 SHL PUSH1 0x0 MSTORE PUSH1 0x41 PUSH1 0x4 MSTORE PUSH1 0x24 PUSH1 0x0 REVERT JUMPDEST SWAP1 POP DUP5 ADD MLOAD DUP8 PUSH2 0xCBC JUMP JUMPDEST PUSH1 0x0 DUP5 DUP2 MSTORE DUP9 DUP2 KECCAK256 SWAP3 POP PUSH1 0x1F NOT DUP5 AND SWAP1 JUMPDEST DUP10 DUP3 DUP3 LT PUSH2 0xE84 JUMPI POP POP SWAP1 DUP4 PUSH1 0x1 SWAP5 SWAP4 SWAP3 LT PUSH2 0xE6B JUMPI JUMPDEST POP POP DUP2 SHL ADD SWAP1 SSTORE PUSH2 0xCD0 JUMP JUMPDEST DUP7 ADD MLOAD PUSH1 0x0 NOT PUSH1 0xF8 DUP5 PUSH1 0x3 SHL AND SHR NOT AND SWAP1 SSTORE DUP8 DUP1 PUSH2 0xE5F JUMP JUMPDEST PUSH1 0x1 DUP5 SWAP6 DUP3 SWAP4 SWAP6 DUP12 ADD MLOAD DUP2 SSTORE ADD SWAP5 ADD SWAP3 ADD PUSH2 0xE48 JUMP JUMPDEST DUP3 PUSH1 0x0 MSTORE DUP7 PUSH1 0x0 KECCAK256 DUP7 DUP1 DUP5 ADD PUSH1 0x5 SHR DUP3 ADD SWAP3 DUP10 DUP6 LT PUSH2 0xED4 JUMPI JUMPDEST ADD PUSH1 0x5 SHR ADD SWAP1 JUMPDEST DUP2 DUP2 LT PUSH2 0xEC8 JUMPI POP PUSH2 0xCA7 JUMP JUMPDEST PUSH1 0x0 DUP2 SSTORE PUSH1 0x1 ADD PUSH2 0xEBB JUMP JUMPDEST SWAP3 POP DUP2 SWAP3 PUSH2 0xEB4 JUMP JUMPDEST PUSH1 0x40 MLOAD PUSH3 0x461BCD PUSH1 0xE5 SHL DUP2 MSTORE PUSH1 0x4 DUP2 ADD DUP5 SWAP1 MSTORE PUSH1 0x1A PUSH1 0x24 DUP3 ADD MSTORE PUSH32 0x4E6F74206120726567697374657265642076616C696461746F72000000000000 PUSH1 0x44 DUP3 ADD MSTORE PUSH1 0x64 SWAP1 REVERT JUMPDEST CALLVALUE PUSH2 0x3BD JUMPI PUSH2 0xF30 CALLDATASIZE PUSH2 0x3D5D JUMP JUMPDEST SWAP2 SWAP1 SWAP3 PUSH2 0xF3B PUSH2 0x485B JUMP JUMPDEST PUSH1 0x1 PUSH1 0x1 PUSH1 0x40 SHL SUB DUP2 AND PUSH1 0x0 MSTORE PUSH1 0x7 PUSH1 0x20 MSTORE PUSH2 0xF66 PUSH1 0x1 PUSH1 0x1 PUSH1 0x40 SHL SUB PUSH1 0x40 PUSH1 0x0 KECCAK256 SLOAD AND ISZERO ISZERO PUSH2 0x44DA JUMP JUMPDEST PUSH1 0x1 PUSH1 0x1 PUSH1 0x40 SHL SUB DUP2 AND PUSH1 0x0 MSTORE PUSH1 0x8 PUSH1 0x20 MSTORE PUSH2 0xF8E PUSH1 0x1 PUSH1 0xFF DUP2 PUSH1 0x40 PUSH1 0x0 KECCAK256 ADD SLOAD AND EQ PUSH2 0x4519 JUMP JUMPDEST PUSH1 0x1 PUSH1 0x1 PUSH1 0x40 SHL SUB DUP2 AND PUSH1 0x0 MSTORE PUSH1 0x7 PUSH1 0x20 MSTORE PUSH2 0xFB4 PUSH1 0x7 PUSH1 0x40 PUSH1 0x0 KECCAK256 ADD SLOAD DUP4 LT ISZERO PUSH2 0x455B JUMP JUMPDEST CALLER PUSH1 0x0 MSTORE PUSH1 0x6 PUSH1 0x20 MSTORE PUSH2 0xFCC PUSH1 0x40 PUSH1 0x0 KECCAK256 SLOAD ISZERO PUSH2 0x45A7 JUMP JUMPDEST PUSH1 0x40 MLOAD SWAP3 PUSH1 0x20 DUP5 ADD CALLER PUSH1 0x60 SHL DUP2 MSTORE PUSH1 0x1 PUSH1 0x1 PUSH1 0x40 SHL SUB PUSH1 0xC0 SHL DUP4 PUSH1 0xC0 SHL AND PUSH1 0x34 DUP7 ADD MSTORE TIMESTAMP PUSH1 0x3C DUP7 ADD MSTORE NUMBER PUSH1 0x5C DUP7 ADD MSTORE PUSH9 0x3B30B634B230BA37B9 PUSH1 0xB9 SHL PUSH1 0x7C DUP7 ADD MSTORE PUSH1 0x65 DUP6 MSTORE DUP5 PUSH1 0xA0 DUP2 ADD LT PUSH1 0x1 PUSH1 0x1 PUSH1 0x40 SHL SUB PUSH1 0xA0 DUP8 ADD GT OR PUSH2 0xE16 JUMPI PUSH1 0xA0 DUP6 ADD PUSH1 0x40 MSTORE DUP5 MLOAD SWAP1 KECCAK256 SWAP4 DUP4 PUSH2 0x150B JUMPI JUMPDEST POP DUP5 ISZERO ISZERO SWAP3 DUP4 PUSH2 0x143B JUMPI JUMPDEST DUP1 PUSH2 0x1054 DUP8 PUSH2 0x11E9 SWAP4 PUSH2 0x4E40 JUMP JUMPDEST CALLER PUSH1 0x0 MSTORE PUSH1 0x13 PUSH1 0x20 MSTORE PUSH1 0x40 PUSH1 0x0 KECCAK256 SSTORE PUSH2 0x1114 PUSH1 0x1 PUSH1 0x1 PUSH1 0x40 SHL SUB TIMESTAMP AND PUSH1 0x40 MLOAD PUSH1 0x20 DUP2 ADD SWAP1 CALLER PUSH1 0x60 SHL DUP3 MSTORE PUSH1 0x14 DUP2 MSTORE PUSH2 0x108B DUP2 PUSH2 0x3AA5 JUMP JUMPDEST MLOAD SWAP1 KECCAK256 SWAP1 PUSH1 0x40 MLOAD SWAP2 PUSH2 0x109C DUP4 PUSH2 0x3A89 JUMP JUMPDEST DUP10 DUP4 MSTORE PUSH1 0x1 PUSH1 0x1 PUSH1 0x40 SHL SUB DUP9 AND PUSH1 0x20 DUP5 ADD MSTORE DUP5 PUSH1 0x40 DUP5 ADD MSTORE DUP11 PUSH1 0x60 DUP5 ADD MSTORE PUSH1 0x0 PUSH1 0x80 DUP5 ADD MSTORE PUSH3 0xF4240 PUSH1 0xA0 DUP5 ADD MSTORE PUSH1 0x0 PUSH1 0xC0 DUP5 ADD MSTORE DUP2 PUSH1 0xE0 DUP5 ADD MSTORE PUSH1 0x0 PUSH2 0x100 DUP5 ADD MSTORE PUSH2 0x120 DUP4 ADD MSTORE PUSH1 0x1 PUSH2 0x140 DUP4 ADD MSTORE PUSH2 0x160 DUP3 ADD MSTORE DUP5 PUSH2 0x180 DUP3 ADD MSTORE CALLER PUSH2 0x1A0 DUP3 ADD MSTORE CALLER PUSH1 0x0 MSTORE PUSH1 0x6 PUSH1 0x20 MSTORE PUSH1 0x40 PUSH1 0x0 KECCAK256 PUSH2 0x4600 JUMP JUMPDEST PUSH1 0x1 PUSH1 0x1 PUSH1 0x40 SHL SUB DUP5 AND PUSH1 0x0 MSTORE PUSH1 0xA PUSH1 0x20 MSTORE PUSH2 0x1134 CALLER PUSH1 0x40 PUSH1 0x0 KECCAK256 PUSH2 0x480B JUMP JUMPDEST CALLER PUSH1 0x0 MSTORE PUSH1 0xC PUSH1 0x20 MSTORE PUSH1 0x40 PUSH1 0x0 KECCAK256 PUSH1 0x1 PUSH1 0x1 PUSH1 0x40 SHL SUB DUP6 AND PUSH1 0x1 PUSH1 0x1 PUSH1 0x40 SHL SUB NOT DUP3 SLOAD AND OR SWAP1 SSTORE PUSH1 0x1 PUSH1 0x1 PUSH1 0x40 SHL SUB DUP5 AND PUSH1 0x0 MSTORE PUSH1 0x8 PUSH1 0x20 MSTORE PUSH1 0x6 PUSH1 0x40 PUSH1 0x0 KECCAK256 ADD DUP1 SLOAD PUSH4 0xFFFFFFFF PUSH2 0x1187 DUP2 DUP4 AND PUSH2 0x4846 JUMP JUMPDEST AND SWAP1 PUSH4 0xFFFFFFFF NOT AND OR SWAP1 SSTORE PUSH1 0x1 PUSH1 0x1 PUSH1 0x40 SHL SUB DUP5 AND PUSH1 0x0 MSTORE PUSH1 0x8 PUSH1 0x20 MSTORE PUSH1 0x4 PUSH1 0x40 PUSH1 0x0 KECCAK256 ADD PUSH2 0x11B8 DUP3 DUP3 SLOAD PUSH2 0x4358 JUMP JUMPDEST SWAP1 SSTORE PUSH1 0x1 PUSH1 0x1 PUSH1 0x40 SHL SUB DUP5 AND PUSH1 0x0 MSTORE PUSH1 0x8 PUSH1 0x20 MSTORE PUSH1 0x5 PUSH1 0x40 PUSH1 0x0 KECCAK256 ADD PUSH2 0x11DF DUP9 DUP3 SLOAD PUSH2 0x4358 JUMP JUMPDEST SWAP1 SSTORE PUSH1 0x3 SLOAD PUSH2 0x4358 JUMP JUMPDEST PUSH1 0x3 SSTORE CALLER PUSH1 0x0 MSTORE PUSH1 0x12 PUSH1 0x20 MSTORE PUSH1 0x40 PUSH1 0x0 KECCAK256 SWAP1 DUP1 MLOAD SWAP1 PUSH1 0x1 PUSH1 0x1 PUSH1 0x40 SHL SUB DUP3 GT PUSH2 0xE16 JUMPI DUP2 SWAP1 PUSH2 0x1218 DUP5 SLOAD PUSH2 0x3A4F JUMP JUMPDEST PUSH1 0x1F DUP2 GT PUSH2 0x13E8 JUMPI JUMPDEST POP PUSH1 0x20 SWAP1 PUSH1 0x1F DUP4 GT PUSH1 0x1 EQ PUSH2 0x1382 JUMPI PUSH1 0x0 SWAP3 PUSH2 0x1377 JUMPI JUMPDEST POP POP DUP2 PUSH1 0x1 SHL SWAP2 PUSH1 0x0 NOT SWAP1 PUSH1 0x3 SHL SHR NOT AND OR SWAP1 SSTORE JUMPDEST CALLER PUSH1 0x0 SWAP1 DUP2 MSTORE PUSH32 0x54FA744D02E0CD6FEB2B438B7701C241F85EF8AA84993C058C9ED46B60F00EDC PUSH1 0x20 MSTORE PUSH1 0x40 SWAP1 KECCAK256 SLOAD PUSH32 0x21702C8AF46127C7FA207F89D0B0A8441BB32959A0AC7DF790E9AB1A25C98926 SWAP1 PUSH1 0xFF AND ISZERO PUSH2 0x1323 JUMPI JUMPDEST POP PUSH1 0x1 PUSH1 0x1 PUSH1 0x40 SHL SUB PUSH1 0x40 MLOAD SWAP2 DUP5 DUP4 MSTORE AND SWAP1 PUSH32 0x338E3EBE1C2BA26A4D625509A131C0851BEF421C36C85148374933E3D1610207 PUSH1 0x20 CALLER SWAP3 LOG3 PUSH2 0x12EB JUMPI JUMPDEST PUSH1 0x1 PUSH1 0x0 SSTORE STOP JUMPDEST PUSH1 0x40 MLOAD SWAP2 DUP3 MSTORE PUSH1 0x20 DUP3 ADD MSTORE PUSH32 0x1EA4411AB96CB263F76479DE6158313581D59DD7A739466723E1B180AAFDD4E PUSH1 0x40 CALLER SWAP3 LOG2 DUP1 DUP1 PUSH2 0x12E4 JUMP JUMPDEST DUP1 PUSH1 0x0 MSTORE PUSH1 0x1 PUSH1 0x20 MSTORE PUSH1 0x40 PUSH1 0x0 KECCAK256 CALLER PUSH1 0x0 MSTORE PUSH1 0x20 MSTORE PUSH1 0x40 PUSH1 0x0 KECCAK256 PUSH1 0x1 PUSH1 0xFF NOT DUP3 SLOAD AND OR SWAP1 SSTORE CALLER SWAP1 CALLER SWAP1 PUSH32 0x2F8788117E7EFF1D82E926EC794901D17C78024A50270940304540A733656F0D PUSH1 0x0 DUP1 LOG4 DUP5 PUSH2 0x12A7 JUMP JUMPDEST ADD MLOAD SWAP1 POP DUP8 DUP1 PUSH2 0x1238 JUMP JUMPDEST PUSH1 0x0 DUP6 DUP2 MSTORE PUSH1 0x20 DUP2 KECCAK256 SWAP4 POP PUSH1 0x1F NOT DUP6 AND SWAP1 JUMPDEST DUP2 DUP2 LT PUSH2 0x13D0 JUMPI POP SWAP1 DUP5 PUSH1 0x1 SWAP6 SWAP5 SWAP4 SWAP3 LT PUSH2 0x13B7 JUMPI JUMPDEST POP POP POP DUP2 SHL ADD SWAP1 SSTORE PUSH2 0x124D JUMP JUMPDEST ADD MLOAD PUSH1 0x0 NOT PUSH1 0xF8 DUP5 PUSH1 0x3 SHL AND SHR NOT AND SWAP1 SSTORE DUP8 DUP1 DUP1 PUSH2 0x13AA JUMP JUMPDEST SWAP3 SWAP4 PUSH1 0x20 PUSH1 0x1 DUP2 SWAP3 DUP8 DUP7 ADD MLOAD DUP2 SSTORE ADD SWAP6 ADD SWAP4 ADD PUSH2 0x1394 JUMP JUMPDEST SWAP1 SWAP2 POP DUP4 PUSH1 0x0 MSTORE PUSH1 0x20 PUSH1 0x0 KECCAK256 PUSH1 0x1F DUP5 ADD PUSH1 0x5 SHR DUP2 ADD SWAP2 PUSH1 0x20 DUP6 LT PUSH2 0x1431 JUMPI JUMPDEST SWAP1 PUSH1 0x1F DUP6 SWAP5 SWAP4 SWAP3 ADD PUSH1 0x5 SHR ADD SWAP1 JUMPDEST DUP2 DUP2 LT PUSH2 0x1422 JUMPI POP PUSH2 0x1221 JUMP JUMPDEST PUSH1 0x0 DUP2 SSTORE DUP5 SWAP4 POP PUSH1 0x1 ADD PUSH2 0x1415 JUMP JUMPDEST SWAP1 SWAP2 POP DUP2 SWAP1 PUSH2 0x1407 JUMP JUMPDEST PUSH1 0x40 MLOAD PUSH4 0x23B872DD PUSH1 0xE0 SHL DUP2 MSTORE CALLER PUSH1 0x4 DUP3 ADD MSTORE ADDRESS PUSH1 0x24 DUP3 ADD MSTORE PUSH1 0x44 DUP2 ADD DUP8 SWAP1 MSTORE SWAP1 PUSH1 0x20 DUP3 PUSH1 0x64 DUP2 PUSH1 0x0 PUSH1 0x1 PUSH1 0x1 PUSH1 0xA0 SHL SUB PUSH32 0x0 AND GAS CALL SWAP2 DUP3 ISZERO PUSH2 0x14FF JUMPI PUSH2 0x11E9 SWAP3 PUSH2 0x14D0 JUMPI JUMPDEST POP CALLER PUSH1 0x0 MSTORE PUSH1 0x15 PUSH1 0x20 MSTORE PUSH1 0x40 PUSH1 0x0 KECCAK256 PUSH1 0x1 PUSH1 0xFF NOT DUP3 SLOAD AND OR SWAP1 SSTORE PUSH2 0x14C6 DUP8 PUSH1 0x4 SLOAD PUSH2 0x4358 JUMP JUMPDEST PUSH1 0x4 SSTORE SWAP1 POP PUSH2 0x1046 JUMP JUMPDEST PUSH2 0x14F1 SWAP1 PUSH1 0x20 RETURNDATASIZE PUSH1 0x20 GT PUSH2 0x14F8 JUMPI JUMPDEST PUSH2 0x14E9 DUP2 DUP4 PUSH2 0x3ADB JUMP JUMPDEST DUP2 ADD SWAP1 PUSH2 0x45E8 JUMP JUMPDEST POP DUP8 PUSH2 0x14A0 JUMP JUMPDEST POP RETURNDATASIZE PUSH2 0x14DF JUMP JUMPDEST PUSH1 0x40 MLOAD RETURNDATASIZE PUSH1 0x0 DUP3 RETURNDATACOPY RETURNDATASIZE SWAP1 REVERT JUMPDEST PUSH4 0x23B872DD PUSH1 0xE0 SHL PUSH1 0xA0 DUP3 ADD SWAP1 DUP2 MSTORE CALLER PUSH1 0xA4 DUP4 ADD MSTORE ADDRESS PUSH1 0xC4 DUP4 ADD MSTORE PUSH1 0xE4 DUP3 ADD DUP6 SWAP1 MSTORE PUSH1 0x20 SWAP1 PUSH1 0x64 DUP2 PUSH1 0x0 PUSH1 0x1 PUSH1 0x1 PUSH1 0xA0 SHL SUB PUSH32 0x0 AND GAS CALL DUP1 ISZERO PUSH2 0x14FF JUMPI ISZERO PUSH2 0x103B JUMPI PUSH2 0x1595 SWAP1 PUSH1 0x20 RETURNDATASIZE PUSH1 0x20 GT PUSH2 0x159C JUMPI JUMPDEST PUSH1 0xA0 DUP2 PUSH2 0x158B DUP3 SWAP4 DUP4 DUP7 ADD PUSH2 0x3ADB JUMP JUMPDEST DUP4 ADD ADD SWAP2 ADD PUSH2 0x45E8 JUMP JUMPDEST POP DUP6 PUSH2 0x103B JUMP JUMPDEST POP RETURNDATASIZE PUSH2 0x157B JUMP JUMPDEST CALLVALUE PUSH2 0x3BD JUMPI PUSH1 0x0 CALLDATASIZE PUSH1 0x3 NOT ADD SLT PUSH2 0x3BD JUMPI PUSH1 0x20 PUSH1 0x40 MLOAD PUSH2 0x4B0 DUP2 MSTORE RETURN JUMPDEST CALLVALUE PUSH2 0x3BD JUMPI PUSH1 0x0 CALLDATASIZE PUSH1 0x3 NOT ADD SLT PUSH2 0x3BD JUMPI PUSH1 0x20 PUSH1 0x40 MLOAD PUSH2 0x7D0 DUP2 MSTORE RETURN JUMPDEST CALLVALUE PUSH2 0x3BD JUMPI PUSH1 0x60 CALLDATASIZE PUSH1 0x3 NOT ADD SLT PUSH2 0x3BD JUMPI PUSH1 0x4 CALLDATALOAD PUSH2 0x15F9 PUSH2 0x3A23 JUMP JUMPDEST SWAP1 PUSH2 0x1602 PUSH2 0x3A39 JUMP JUMPDEST PUSH2 0x160A PUSH2 0x3E7D JUMP JUMPDEST PUSH1 0x9 PUSH1 0x20 SWAP1 DUP2 MSTORE PUSH1 0x40 MLOAD PUSH32 0xEC8156718A8372B1DB44BB411437D0870F3E3790D4A08526D024CE1B0B668F6B DUP1 SLOAD DUP1 DUP4 MSTORE PUSH1 0x0 SWAP2 DUP3 MSTORE SWAP2 SWAP5 SWAP3 SWAP4 SWAP3 SWAP2 PUSH32 0x67EF11C6B6E72BED28DF18C3C4B2E4BABB6F289ABC7D1EDC03515DEAFA274CE SWAP2 DUP7 SWAP2 DUP3 DUP8 ADD SWAP2 JUMPDEST DUP8 DUP3 DUP3 LT PUSH2 0x1791 JUMPI POP POP POP PUSH2 0x1685 SWAP3 POP SUB DUP6 PUSH2 0x3ADB JUMP JUMPDEST PUSH1 0x0 SWAP4 PUSH1 0x0 JUMPDEST DUP2 MLOAD DUP2 LT ISZERO PUSH2 0x1766 JUMPI PUSH1 0x1 PUSH1 0x1 PUSH1 0xA0 SHL SUB DUP1 PUSH2 0x16A7 DUP4 DUP6 PUSH2 0x494A JUMP JUMPDEST MLOAD AND PUSH1 0x0 MSTORE PUSH1 0x5 DUP7 MSTORE DUP4 PUSH1 0x40 PUSH1 0x0 KECCAK256 SLOAD EQ PUSH2 0x16CB JUMPI POP PUSH2 0x16C6 SWAP1 PUSH2 0x493B JUMP JUMPDEST PUSH2 0x168B JUMP JUMPDEST SWAP3 POP PUSH32 0x5A24B67363D3A8EC85A2ACBD037E1606BF9847E9A87308D2AF106336E4BD09C4 SWAP5 SWAP6 POP PUSH2 0x16FA SWAP2 PUSH2 0x494A JUMP JUMPDEST MLOAD AND JUMPDEST PUSH1 0x1 PUSH1 0x1 PUSH1 0xA0 SHL SUB AND SWAP3 PUSH2 0x1712 DUP5 ISZERO ISZERO PUSH2 0x4D7E JUMP JUMPDEST PUSH1 0x1 PUSH1 0x1 PUSH1 0x40 SHL SUB PUSH1 0x5 DUP2 DUP8 AND SWAP3 PUSH2 0x173D PUSH3 0xF4240 PUSH2 0x1733 DUP2 DUP8 GT ISZERO PUSH2 0x4DBC JUMP JUMPDEST DUP5 DUP8 AND GT ISZERO PUSH2 0x4DFE JUMP JUMPDEST DUP7 PUSH1 0x0 MSTORE MSTORE PUSH1 0x40 PUSH1 0x0 KECCAK256 SWAP2 PUSH2 0xAD6 DUP5 PUSH1 0x4 DUP6 ADD PUSH1 0x1 PUSH1 0x1 PUSH1 0x40 SHL SUB NOT SWAP4 DUP5 DUP3 SLOAD AND OR DUP2 SSTORE PUSH2 0x44B2 JUMP JUMPDEST POP POP POP PUSH32 0x5A24B67363D3A8EC85A2ACBD037E1606BF9847E9A87308D2AF106336E4BD09C4 SWAP2 SWAP3 PUSH2 0x16FD JUMP JUMPDEST DUP6 SLOAD PUSH1 0x1 PUSH1 0x1 PUSH1 0xA0 SHL SUB AND DUP5 MSTORE PUSH1 0x1 SWAP6 DUP7 ADD SWAP6 DUP11 SWAP6 POP SWAP4 ADD SWAP3 ADD PUSH2 0x166E JUMP JUMPDEST CALLVALUE PUSH2 0x3BD JUMPI PUSH1 0x40 CALLDATASIZE PUSH1 0x3 NOT ADD SLT PUSH2 0x3BD JUMPI PUSH2 0x17C9 PUSH2 0x38F0 JUMP JUMPDEST PUSH1 0x4 CALLDATALOAD PUSH1 0x0 MSTORE PUSH1 0x1 PUSH1 0x20 MSTORE PUSH1 0x40 PUSH1 0x0 KECCAK256 SWAP1 PUSH1 0x1 DUP1 PUSH1 0xA0 SHL SUB AND PUSH1 0x0 MSTORE PUSH1 0x20 MSTORE PUSH1 0x20 PUSH1 0xFF PUSH1 0x40 PUSH1 0x0 KECCAK256 SLOAD AND PUSH1 0x40 MLOAD SWAP1 ISZERO ISZERO DUP2 MSTORE RETURN JUMPDEST CALLVALUE PUSH2 0x3BD JUMPI PUSH1 0x20 DUP1 PUSH1 0x3 NOT CALLDATASIZE ADD SLT PUSH2 0x3BD JUMPI PUSH1 0x1 PUSH1 0x1 PUSH1 0x40 SHL SUB SWAP1 DUP2 PUSH2 0x1821 PUSH2 0x3A0D JUMP JUMPDEST AND PUSH1 0x0 MSTORE PUSH1 0x9 DUP2 MSTORE PUSH1 0x40 PUSH1 0x0 KECCAK256 SWAP1 PUSH1 0x40 MLOAD DUP1 DUP4 DUP4 DUP3 SWAP6 SLOAD SWAP4 DUP5 DUP2 MSTORE ADD SWAP1 PUSH1 0x0 MSTORE DUP4 PUSH1 0x0 KECCAK256 SWAP3 PUSH1 0x0 JUMPDEST DUP6 DUP3 DUP3 LT PUSH2 0x1919 JUMPI POP POP POP PUSH2 0x1860 SWAP3 POP SUB DUP4 PUSH2 0x3ADB JUMP JUMPDEST DUP2 MLOAD SWAP1 PUSH2 0x1885 PUSH2 0x186F DUP4 PUSH2 0x3C4A JUMP JUMPDEST SWAP3 PUSH2 0x187D PUSH1 0x40 MLOAD SWAP5 DUP6 PUSH2 0x3ADB JUMP JUMPDEST DUP1 DUP5 MSTORE PUSH2 0x3C4A JUMP JUMPDEST DUP3 DUP3 ADD SWAP4 SWAP1 PUSH1 0x1F NOT ADD CALLDATASIZE DUP6 CALLDATACOPY PUSH1 0x0 JUMPDEST DUP2 MLOAD DUP2 LT ISZERO PUSH2 0x18D9 JUMPI PUSH2 0x18D4 SWAP1 PUSH1 0x1 PUSH1 0x1 PUSH1 0xA0 SHL SUB PUSH2 0x18B3 DUP3 DUP6 PUSH2 0x494A JUMP JUMPDEST MLOAD AND PUSH1 0x0 MSTORE PUSH1 0x5 DUP5 MSTORE DUP7 PUSH1 0x4 PUSH1 0x40 PUSH1 0x0 KECCAK256 ADD SLOAD PUSH1 0x40 SHR AND PUSH2 0x58A DUP3 DUP8 PUSH2 0x494A JUMP JUMPDEST PUSH2 0x1894 JUMP JUMPDEST POP POP SWAP2 SWAP1 SWAP2 PUSH1 0x40 MLOAD SWAP3 DUP2 DUP5 ADD SWAP1 DUP3 DUP6 MSTORE MLOAD DUP1 SWAP2 MSTORE PUSH1 0x40 DUP5 ADD SWAP3 SWAP2 PUSH1 0x0 JUMPDEST DUP3 DUP2 LT PUSH2 0x1903 JUMPI DUP6 DUP6 SUB DUP7 RETURN JUMPDEST DUP4 MLOAD DUP8 AND DUP6 MSTORE SWAP4 DUP2 ADD SWAP4 SWAP3 DUP2 ADD SWAP3 PUSH1 0x1 ADD PUSH2 0x18F6 JUMP JUMPDEST DUP6 SLOAD PUSH1 0x1 PUSH1 0x1 PUSH1 0xA0 SHL SUB AND DUP5 MSTORE PUSH1 0x1 SWAP6 DUP7 ADD SWAP6 DUP9 SWAP6 POP SWAP4 ADD SWAP3 ADD PUSH2 0x1849 JUMP JUMPDEST CALLVALUE PUSH2 0x3BD JUMPI PUSH1 0x20 CALLDATASIZE PUSH1 0x3 NOT ADD SLT PUSH2 0x3BD JUMPI PUSH2 0x1951 PUSH2 0x38DA JUMP JUMPDEST PUSH2 0x1959 PUSH2 0x495E JUMP JUMPDEST POP PUSH1 0x1 DUP1 PUSH1 0xA0 SHL SUB AND PUSH1 0x0 MSTORE PUSH1 0x6 PUSH1 0x20 MSTORE PUSH2 0x481 PUSH2 0x197A PUSH1 0x40 PUSH1 0x0 KECCAK256 PUSH2 0x49C7 JUMP JUMPDEST PUSH1 0x40 MLOAD SWAP2 DUP3 SWAP2 PUSH1 0x20 DUP4 MSTORE PUSH1 0x20 DUP4 ADD SWAP1 PUSH2 0x394E JUMP JUMPDEST CALLVALUE PUSH2 0x3BD JUMPI PUSH1 0x40 CALLDATASIZE PUSH1 0x3 NOT ADD SLT PUSH2 0x3BD JUMPI PUSH1 0x20 PUSH2 0x19A9 PUSH2 0x3A0D JUMP JUMPDEST PUSH2 0x19B1 PUSH2 0x38F0 JUMP JUMPDEST PUSH1 0x1 PUSH1 0x1 PUSH1 0x40 SHL SUB DUP1 SWAP3 AND PUSH1 0x0 MSTORE PUSH1 0xD DUP4 MSTORE PUSH1 0x40 PUSH1 0x0 KECCAK256 SWAP1 PUSH1 0x1 DUP1 PUSH1 0xA0 SHL SUB AND PUSH1 0x0 MSTORE DUP3 MSTORE PUSH1 0x40 PUSH1 0x0 KECCAK256 SLOAD AND PUSH1 0x40 MLOAD SWAP1 DUP2 MSTORE RETURN JUMPDEST CALLVALUE PUSH2 0x3BD JUMPI PUSH1 0x60 CALLDATASIZE PUSH1 0x3 NOT ADD SLT PUSH2 0x3BD JUMPI PUSH1 0x4 CALLDATALOAD PUSH1 0x24 CALLDATALOAD PUSH1 0x1 PUSH1 0x1 PUSH1 0x40 SHL SUB PUSH1 0x44 CALLDATALOAD DUP2 DUP2 GT PUSH2 0x3BD JUMPI CALLDATASIZE PUSH1 0x23 DUP3 ADD SLT ISZERO PUSH2 0x3BD JUMPI PUSH2 0x1A2D SWAP1 CALLDATASIZE SWAP1 PUSH1 0x24 DUP2 PUSH1 0x4 ADD CALLDATALOAD SWAP2 ADD PUSH2 0x3BA2 JUMP JUMPDEST POP CALLER PUSH1 0x0 MSTORE PUSH1 0x5 PUSH1 0x20 SWAP2 DUP2 DUP4 MSTORE PUSH1 0x40 PUSH1 0x0 KECCAK256 SLOAD ISZERO DUP1 ISZERO SWAP1 PUSH2 0x1C12 JUMPI JUMPDEST ISZERO PUSH2 0x1BDC JUMPI DUP4 ISZERO PUSH2 0x1BA7 JUMPI CALLER PUSH1 0x0 SWAP1 DUP2 MSTORE PUSH1 0x14 DUP5 MSTORE PUSH1 0x40 DUP1 DUP3 KECCAK256 DUP7 SWAP1 SSTORE PUSH1 0x15 DUP6 MSTORE DUP1 DUP3 KECCAK256 DUP1 SLOAD PUSH1 0xFF NOT AND PUSH1 0x1 OR SWAP1 SSTORE DUP4 DUP6 MSTORE SWAP1 KECCAK256 SLOAD ISZERO PUSH2 0x1B5C JUMPI CALLER PUSH1 0x0 MSTORE DUP2 DUP4 MSTORE PUSH1 0x3 PUSH1 0x40 PUSH1 0x0 KECCAK256 ADD PUSH2 0x1A9D DUP7 DUP3 SLOAD PUSH2 0x4358 JUMP JUMPDEST SWAP1 SSTORE CALLER PUSH1 0x0 MSTORE DUP2 DUP4 MSTORE PUSH1 0x1 PUSH1 0x40 PUSH1 0x0 KECCAK256 ADD SLOAD AND PUSH1 0x0 MSTORE PUSH1 0x8 DUP3 MSTORE DUP1 PUSH1 0x40 PUSH1 0x0 KECCAK256 ADD PUSH2 0x1AC9 DUP6 DUP3 SLOAD PUSH2 0x4358 JUMP JUMPDEST SWAP1 SSTORE JUMPDEST PUSH2 0x1AD8 DUP5 PUSH1 0x4 SLOAD PUSH2 0x4358 JUMP JUMPDEST PUSH1 0x4 SSTORE CALLER PUSH1 0x0 SWAP1 DUP2 MSTORE DUP2 DUP4 MSTORE PUSH1 0x40 SWAP1 KECCAK256 SLOAD ISZERO PUSH2 0x1B45 JUMPI CALLER PUSH1 0x0 MSTORE DUP2 MSTORE PUSH2 0x1B06 DUP4 PUSH1 0x2 PUSH1 0x40 PUSH1 0x0 KECCAK256 ADD SLOAD PUSH2 0x4E40 JUMP JUMPDEST CALLER PUSH1 0x0 MSTORE PUSH1 0x13 DUP3 MSTORE PUSH1 0x40 PUSH1 0x0 KECCAK256 SSTORE PUSH1 0x40 MLOAD SWAP3 DUP4 MSTORE DUP3 ADD MSTORE PUSH32 0x1EA4411AB96CB263F76479DE6158313581D59DD7A739466723E1B180AAFDD4E PUSH1 0x40 CALLER SWAP3 LOG2 STOP JUMPDEST POP PUSH1 0x6 DUP2 MSTORE PUSH2 0x1B06 DUP4 PUSH1 0x2 PUSH1 0x40 PUSH1 0x0 KECCAK256 ADD SLOAD PUSH2 0x4E40 JUMP JUMPDEST PUSH1 0x6 DUP4 MSTORE PUSH1 0x3 PUSH1 0x40 PUSH1 0x0 KECCAK256 ADD PUSH2 0x1B73 DUP7 DUP3 SLOAD PUSH2 0x4358 JUMP JUMPDEST SWAP1 SSTORE CALLER PUSH1 0x0 MSTORE PUSH1 0x6 DUP4 MSTORE PUSH1 0x1 PUSH1 0x40 PUSH1 0x0 KECCAK256 ADD SLOAD AND PUSH1 0x0 MSTORE PUSH1 0x8 DUP3 MSTORE DUP1 PUSH1 0x40 PUSH1 0x0 KECCAK256 ADD PUSH2 0x1BA0 DUP6 DUP3 SLOAD PUSH2 0x4358 JUMP JUMPDEST SWAP1 SSTORE PUSH2 0x1ACC JUMP JUMPDEST PUSH1 0x40 MLOAD PUSH3 0x461BCD PUSH1 0xE5 SHL DUP2 MSTORE PUSH1 0x4 DUP2 ADD DUP5 SWAP1 MSTORE PUSH1 0xD PUSH1 0x24 DUP3 ADD MSTORE PUSH13 0x24B73B30B634B210383937B7B3 PUSH1 0x99 SHL PUSH1 0x44 DUP3 ADD MSTORE PUSH1 0x64 SWAP1 REVERT JUMPDEST PUSH1 0x40 MLOAD PUSH3 0x461BCD PUSH1 0xE5 SHL DUP2 MSTORE PUSH1 0x4 DUP2 ADD DUP5 SWAP1 MSTORE PUSH1 0xE PUSH1 0x24 DUP3 ADD MSTORE PUSH14 0x139BDD081C9959DA5CDD195C9959 PUSH1 0x92 SHL PUSH1 0x44 DUP3 ADD MSTORE PUSH1 0x64 SWAP1 REVERT JUMPDEST POP PUSH1 0x6 DUP4 MSTORE PUSH1 0x40 PUSH1 0x0 KECCAK256 SLOAD ISZERO ISZERO PUSH2 0x1A49 JUMP JUMPDEST CALLVALUE PUSH2 0x3BD JUMPI PUSH1 0x0 CALLDATASIZE PUSH1 0x3 NOT ADD SLT PUSH2 0x3BD JUMPI PUSH1 0x20 PUSH1 0x1 PUSH1 0x1 PUSH1 0x40 SHL SUB PUSH1 0x2 SLOAD PUSH1 0x40 SHR AND PUSH1 0x40 MLOAD SWAP1 DUP2 MSTORE RETURN JUMPDEST CALLVALUE PUSH2 0x3BD JUMPI PUSH2 0x1C5C CALLDATASIZE PUSH2 0x3D5D JUMP JUMPDEST SWAP2 SWAP1 SWAP3 PUSH2 0x1C67 PUSH2 0x485B JUMP JUMPDEST PUSH1 0x1 PUSH1 0x1 PUSH1 0x40 SHL SUB DUP2 AND PUSH1 0x0 MSTORE PUSH1 0x7 PUSH1 0x20 MSTORE PUSH2 0x1C92 PUSH1 0x1 PUSH1 0x1 PUSH1 0x40 SHL SUB PUSH1 0x40 PUSH1 0x0 KECCAK256 SLOAD AND ISZERO ISZERO PUSH2 0x44DA JUMP JUMPDEST PUSH1 0x1 PUSH1 0x1 PUSH1 0x40 SHL SUB DUP2 AND PUSH1 0x0 MSTORE PUSH1 0x8 PUSH1 0x20 MSTORE PUSH2 0x1CBA PUSH1 0x1 PUSH1 0xFF DUP2 PUSH1 0x40 PUSH1 0x0 KECCAK256 ADD SLOAD AND EQ PUSH2 0x4519 JUMP JUMPDEST PUSH1 0x1 PUSH1 0x1 PUSH1 0x40 SHL SUB DUP2 AND PUSH1 0x0 MSTORE PUSH1 0x7 PUSH1 0x20 MSTORE PUSH2 0x1CE0 PUSH1 0x6 PUSH1 0x40 PUSH1 0x0 KECCAK256 ADD SLOAD DUP4 LT ISZERO PUSH2 0x455B JUMP JUMPDEST CALLER PUSH1 0x0 MSTORE PUSH1 0x5 PUSH1 0x20 MSTORE PUSH2 0x1CF8 PUSH1 0x40 PUSH1 0x0 KECCAK256 SLOAD ISZERO PUSH2 0x45A7 JUMP JUMPDEST PUSH1 0x40 MLOAD SWAP3 PUSH1 0x20 DUP5 ADD CALLER PUSH1 0x60 SHL DUP2 MSTORE PUSH1 0x1 PUSH1 0x1 PUSH1 0x40 SHL SUB PUSH1 0xC0 SHL DUP4 PUSH1 0xC0 SHL AND PUSH1 0x34 DUP7 ADD MSTORE TIMESTAMP PUSH1 0x3C DUP7 ADD MSTORE NUMBER PUSH1 0x5C DUP7 ADD MSTORE PUSH1 0x5C DUP6 MSTORE DUP5 PUSH1 0x80 DUP2 ADD LT PUSH1 0x1 PUSH1 0x1 PUSH1 0x40 SHL SUB PUSH1 0x80 DUP8 ADD GT OR PUSH2 0xE16 JUMPI PUSH1 0x80 DUP6 ADD PUSH1 0x40 MSTORE DUP5 MLOAD SWAP1 KECCAK256 SWAP4 DUP4 PUSH2 0x2109 JUMPI JUMPDEST POP DUP5 ISZERO ISZERO SWAP3 DUP4 PUSH2 0x2055 JUMPI JUMPDEST DUP1 PUSH2 0x1D6E DUP8 PUSH2 0x1EEB SWAP4 PUSH2 0x4E40 JUMP JUMPDEST CALLER PUSH1 0x0 MSTORE PUSH1 0x13 PUSH1 0x20 MSTORE PUSH1 0x40 PUSH1 0x0 KECCAK256 SSTORE PUSH2 0x1E2E PUSH1 0x1 PUSH1 0x1 PUSH1 0x40 SHL SUB TIMESTAMP AND PUSH1 0x40 MLOAD PUSH1 0x20 DUP2 ADD SWAP1 CALLER PUSH1 0x60 SHL DUP3 MSTORE PUSH1 0x14 DUP2 MSTORE PUSH2 0x1DA5 DUP2 PUSH2 0x3AA5 JUMP JUMPDEST MLOAD SWAP1 KECCAK256 SWAP1 PUSH1 0x40 MLOAD SWAP2 PUSH2 0x1DB6 DUP4 PUSH2 0x3A89 JUMP JUMPDEST DUP10 DUP4 MSTORE PUSH1 0x1 PUSH1 0x1 PUSH1 0x40 SHL SUB DUP9 AND PUSH1 0x20 DUP5 ADD MSTORE DUP5 PUSH1 0x40 DUP5 ADD MSTORE DUP11 PUSH1 0x60 DUP5 ADD MSTORE PUSH1 0x0 PUSH1 0x80 DUP5 ADD MSTORE PUSH3 0x7A120 PUSH1 0xA0 DUP5 ADD MSTORE PUSH1 0x0 PUSH1 0xC0 DUP5 ADD MSTORE DUP2 PUSH1 0xE0 DUP5 ADD MSTORE PUSH1 0x0 PUSH2 0x100 DUP5 ADD MSTORE PUSH2 0x120 DUP4 ADD MSTORE PUSH1 0x1 PUSH2 0x140 DUP4 ADD MSTORE PUSH2 0x160 DUP3 ADD MSTORE DUP5 PUSH2 0x180 DUP3 ADD MSTORE CALLER PUSH2 0x1A0 DUP3 ADD MSTORE CALLER PUSH1 0x0 MSTORE PUSH1 0x5 PUSH1 0x20 MSTORE PUSH1 0x40 PUSH1 0x0 KECCAK256 PUSH2 0x4600 JUMP JUMPDEST PUSH1 0x1 PUSH1 0x1 PUSH1 0x40 SHL SUB DUP5 AND PUSH1 0x0 MSTORE PUSH1 0x9 PUSH1 0x20 MSTORE PUSH2 0x1E4E CALLER PUSH1 0x40 PUSH1 0x0 KECCAK256 PUSH2 0x480B JUMP JUMPDEST CALLER PUSH1 0x0 MSTORE PUSH1 0xB PUSH1 0x20 MSTORE PUSH1 0x40 PUSH1 0x0 KECCAK256 PUSH1 0x1 PUSH1 0x1 PUSH1 0x40 SHL SUB DUP6 AND PUSH1 0x1 PUSH1 0x1 PUSH1 0x40 SHL SUB NOT DUP3 SLOAD AND OR SWAP1 SSTORE PUSH1 0x1 PUSH1 0x1 PUSH1 0x40 SHL SUB DUP5 AND PUSH1 0x0 MSTORE PUSH1 0x8 PUSH1 0x20 MSTORE PUSH2 0x1EC6 PUSH1 0x6 PUSH1 0x40 PUSH1 0x0 KECCAK256 ADD PUSH2 0x1EA5 PUSH4 0xFFFFFFFF DUP3 SLOAD PUSH1 0x20 SHR AND PUSH2 0x4846 JUMP JUMPDEST PUSH8 0xFFFFFFFF00000000 DUP3 SLOAD SWAP2 PUSH1 0x20 SHL AND SWAP1 PUSH8 0xFFFFFFFF00000000 NOT AND OR SWAP1 SSTORE JUMP JUMPDEST PUSH1 0x1 PUSH1 0x1 PUSH1 0x40 SHL SUB DUP5 AND PUSH1 0x0 MSTORE PUSH1 0x8 PUSH1 0x20 MSTORE PUSH1 0x4 PUSH1 0x40 PUSH1 0x0 KECCAK256 ADD PUSH2 0x11B8 DUP3 DUP3 SLOAD PUSH2 0x4358 JUMP JUMPDEST PUSH1 0x3 SSTORE CALLER PUSH1 0x0 MSTORE PUSH1 0x11 PUSH1 0x20 MSTORE PUSH1 0x40 PUSH1 0x0 KECCAK256 SWAP1 DUP1 MLOAD SWAP1 PUSH1 0x1 PUSH1 0x1 PUSH1 0x40 SHL SUB DUP3 GT PUSH2 0xE16 JUMPI DUP2 SWAP1 PUSH2 0x1F1A DUP5 SLOAD PUSH2 0x3A4F JUMP JUMPDEST PUSH1 0x1F DUP2 GT PUSH2 0x2002 JUMPI JUMPDEST POP PUSH1 0x20 SWAP1 PUSH1 0x1F DUP4 GT PUSH1 0x1 EQ PUSH2 0x1F9C JUMPI PUSH1 0x0 SWAP3 PUSH2 0x1F91 JUMPI JUMPDEST POP POP DUP2 PUSH1 0x1 SHL SWAP2 PUSH1 0x0 NOT SWAP1 PUSH1 0x3 SHL SHR NOT AND OR SWAP1 SSTORE JUMPDEST PUSH1 0x1 PUSH1 0x1 PUSH1 0x40 SHL SUB PUSH1 0x40 MLOAD SWAP2 DUP5 DUP4 MSTORE AND SWAP1 PUSH32 0x529E56400F4728C5A98A3EFC79E8094D1DFE08248021C690F9F393E7353C84EF PUSH1 0x20 CALLER SWAP3 LOG3 PUSH2 0x12EB JUMPI PUSH1 0x1 PUSH1 0x0 SSTORE STOP JUMPDEST ADD MLOAD SWAP1 POP DUP8 DUP1 PUSH2 0x1F3A JUMP JUMPDEST PUSH1 0x0 DUP6 DUP2 MSTORE PUSH1 0x20 DUP2 KECCAK256 SWAP4 POP PUSH1 0x1F NOT DUP6 AND SWAP1 JUMPDEST DUP2 DUP2 LT PUSH2 0x1FEA JUMPI POP SWAP1 DUP5 PUSH1 0x1 SWAP6 SWAP5 SWAP4 SWAP3 LT PUSH2 0x1FD1 JUMPI JUMPDEST POP POP POP DUP2 SHL ADD SWAP1 SSTORE PUSH2 0x1F4F JUMP JUMPDEST ADD MLOAD PUSH1 0x0 NOT PUSH1 0xF8 DUP5 PUSH1 0x3 SHL AND SHR NOT AND SWAP1 SSTORE DUP8 DUP1 DUP1 PUSH2 0x1FC4 JUMP JUMPDEST SWAP3 SWAP4 PUSH1 0x20 PUSH1 0x1 DUP2 SWAP3 DUP8 DUP7 ADD MLOAD DUP2 SSTORE ADD SWAP6 ADD SWAP4 ADD PUSH2 0x1FAE JUMP JUMPDEST SWAP1 SWAP2 POP DUP4 PUSH1 0x0 MSTORE PUSH1 0x20 PUSH1 0x0 KECCAK256 PUSH1 0x1F DUP5 ADD PUSH1 0x5 SHR DUP2 ADD SWAP2 PUSH1 0x20 DUP6 LT PUSH2 0x204B JUMPI JUMPDEST SWAP1 PUSH1 0x1F DUP6 SWAP5 SWAP4 SWAP3 ADD PUSH1 0x5 SHR ADD SWAP1 JUMPDEST DUP2 DUP2 LT PUSH2 0x203C JUMPI POP PUSH2 0x1F23 JUMP JUMPDEST PUSH1 0x0 DUP2 SSTORE DUP5 SWAP4 POP PUSH1 0x1 ADD PUSH2 0x202F JUMP JUMPDEST SWAP1 SWAP2 POP DUP2 SWAP1 PUSH2 0x2021 JUMP JUMPDEST PUSH1 0x40 MLOAD PUSH4 0x23B872DD PUSH1 0xE0 SHL DUP2 MSTORE CALLER PUSH1 0x4 DUP3 ADD MSTORE ADDRESS PUSH1 0x24 DUP3 ADD MSTORE PUSH1 0x44 DUP2 ADD DUP8 SWAP1 MSTORE SWAP1 PUSH1 0x20 DUP3 PUSH1 0x64 DUP2 PUSH1 0x0 PUSH1 0x1 PUSH1 0x1 PUSH1 0xA0 SHL SUB PUSH32 0x0 AND GAS CALL SWAP2 DUP3 ISZERO PUSH2 0x14FF JUMPI PUSH2 0x1EEB SWAP3 PUSH2 0x20EA JUMPI JUMPDEST POP CALLER PUSH1 0x0 MSTORE PUSH1 0x15 PUSH1 0x20 MSTORE PUSH1 0x40 PUSH1 0x0 KECCAK256 PUSH1 0x1 PUSH1 0xFF NOT DUP3 SLOAD AND OR SWAP1 SSTORE PUSH2 0x20E0 DUP8 PUSH1 0x4 SLOAD PUSH2 0x4358 JUMP JUMPDEST PUSH1 0x4 SSTORE SWAP1 POP PUSH2 0x1D60 JUMP JUMPDEST PUSH2 0x2102 SWAP1 PUSH1 0x20 RETURNDATASIZE PUSH1 0x20 GT PUSH2 0x14F8 JUMPI PUSH2 0x14E9 DUP2 DUP4 PUSH2 0x3ADB JUMP JUMPDEST POP DUP8 PUSH2 0x20BA JUMP JUMPDEST PUSH4 0x23B872DD PUSH1 0xE0 SHL PUSH1 0x80 DUP3 ADD SWAP1 DUP2 MSTORE CALLER PUSH1 0x84 DUP4 ADD MSTORE ADDRESS PUSH1 0xA4 DUP4 ADD MSTORE PUSH1 0xC4 DUP3 ADD DUP6 SWAP1 MSTORE PUSH1 0x20 SWAP1 PUSH1 0x64 DUP2 PUSH1 0x0 PUSH1 0x1 PUSH1 0x1 PUSH1 0xA0 SHL SUB PUSH32 0x0 AND GAS CALL DUP1 ISZERO PUSH2 0x14FF JUMPI ISZERO PUSH2 0x1D55 JUMPI PUSH2 0x2189 SWAP1 PUSH1 0x20 RETURNDATASIZE PUSH1 0x20 GT PUSH2 0x2190 JUMPI JUMPDEST PUSH1 0x80 DUP2 PUSH2 0x158B DUP3 SWAP4 DUP4 DUP7 ADD PUSH2 0x3ADB JUMP JUMPDEST POP DUP6 PUSH2 0x1D55 JUMP JUMPDEST POP RETURNDATASIZE PUSH2 0x2179 JUMP JUMPDEST CALLVALUE PUSH2 0x3BD JUMPI PUSH1 0x20 DUP1 PUSH1 0x3 NOT CALLDATASIZE ADD SLT PUSH2 0x3BD JUMPI PUSH1 0x1 PUSH1 0x1 PUSH1 0x40 SHL SUB PUSH1 0x4 CALLDATALOAD DUP2 DUP2 GT PUSH2 0x3BD JUMPI PUSH2 0x21C9 SWAP1 CALLDATASIZE SWAP1 PUSH1 0x4 ADD PUSH2 0x3BE8 JUMP JUMPDEST CALLER PUSH1 0x0 MSTORE PUSH1 0x5 DUP1 DUP5 MSTORE PUSH1 0x40 PUSH1 0x0 KECCAK256 SLOAD ISZERO PUSH2 0x23FB JUMPI CALLER PUSH1 0x0 MSTORE DUP1 DUP5 MSTORE PUSH1 0xA PUSH1 0x40 PUSH1 0x0 KECCAK256 ADD SWAP3 DUP3 MLOAD SWAP4 DUP2 DUP6 GT PUSH2 0xE16 JUMPI PUSH2 0x2201 DUP2 SLOAD PUSH2 0x3A4F JUMP JUMPDEST SWAP5 PUSH1 0x1F SWAP6 DUP7 DUP2 GT PUSH2 0x23BA JUMPI JUMPDEST POP DUP1 DUP8 DUP8 DUP3 GT PUSH1 0x1 EQ PUSH2 0x2357 JUMPI PUSH1 0x0 SWAP2 PUSH2 0x234C JUMPI JUMPDEST POP DUP2 PUSH1 0x1 SHL SWAP2 PUSH1 0x0 NOT SWAP1 PUSH1 0x3 SHL SHR NOT AND OR SWAP1 SSTORE JUMPDEST CALLER PUSH1 0x0 MSTORE PUSH1 0x11 DUP6 MSTORE PUSH1 0x40 PUSH1 0x0 KECCAK256 SWAP2 DUP4 MLOAD SWAP2 DUP3 GT PUSH2 0xE16 JUMPI PUSH2 0x2257 DUP4 SLOAD PUSH2 0x3A4F JUMP JUMPDEST SWAP1 DUP6 DUP3 GT PUSH2 0x230F JUMPI JUMPDEST POP POP DUP5 SWAP4 DUP2 GT PUSH1 0x1 EQ PUSH2 0x22B1 JUMPI SWAP1 DUP2 PUSH2 0xD4B SWAP4 SWAP3 PUSH1 0x0 DUP1 MLOAD PUSH1 0x20 PUSH2 0x4E94 DUP4 CODECOPY DUP2 MLOAD SWAP2 MSTORE SWAP6 PUSH1 0x0 SWAP2 PUSH2 0xD50 JUMPI POP DUP2 PUSH1 0x1 SHL SWAP2 PUSH1 0x0 NOT SWAP1 PUSH1 0x3 SHL SHR NOT AND OR SWAP1 SSTORE PUSH1 0x40 MLOAD SWAP2 DUP3 SWAP2 DUP6 DUP4 MSTORE CALLER SWAP6 DUP4 ADD SWAP1 PUSH2 0x3929 JUMP JUMPDEST PUSH1 0x1F NOT DUP2 AND SWAP4 DUP3 PUSH1 0x0 MSTORE DUP6 PUSH1 0x0 KECCAK256 SWAP5 PUSH1 0x0 JUMPDEST DUP8 DUP3 DUP3 LT PUSH2 0x22F9 JUMPI POP POP SWAP2 PUSH1 0x0 DUP1 MLOAD PUSH1 0x20 PUSH2 0x4E94 DUP4 CODECOPY DUP2 MLOAD SWAP2 MSTORE SWAP6 PUSH1 0x1 SWAP3 DUP3 PUSH2 0xD4B SWAP8 SWAP7 SWAP6 LT PUSH2 0xDA4 JUMPI POP POP DUP2 SHL ADD SWAP1 SSTORE PUSH2 0xD38 JUMP JUMPDEST DUP4 DUP8 ADD MLOAD DUP9 SSTORE PUSH1 0x1 SWAP1 SWAP8 ADD SWAP7 SWAP3 DUP4 ADD SWAP3 ADD PUSH2 0x22C3 JUMP JUMPDEST DUP4 PUSH1 0x0 MSTORE DUP7 PUSH1 0x0 KECCAK256 SWAP1 DUP7 DUP1 DUP6 ADD DUP3 SHR DUP4 ADD SWAP4 DUP10 DUP7 LT PUSH2 0x2343 JUMPI JUMPDEST ADD SWAP1 SHR ADD SWAP1 JUMPDEST DUP2 DUP2 LT ISZERO PUSH2 0x2260 JUMPI PUSH1 0x0 DUP2 SSTORE PUSH1 0x1 ADD PUSH2 0x232F JUMP JUMPDEST SWAP4 POP DUP3 SWAP4 PUSH2 0x2329 JUMP JUMPDEST SWAP1 POP DUP6 ADD MLOAD DUP9 PUSH2 0x2222 JUMP JUMPDEST PUSH1 0x0 DUP5 DUP2 MSTORE DUP10 DUP2 KECCAK256 SWAP3 POP PUSH1 0x1F NOT DUP5 AND SWAP1 JUMPDEST DUP11 DUP3 DUP3 LT PUSH2 0x23A4 JUMPI POP POP SWAP1 DUP4 PUSH1 0x1 SWAP5 SWAP4 SWAP3 LT PUSH2 0x238B JUMPI JUMPDEST POP POP DUP2 SHL ADD SWAP1 SSTORE PUSH2 0x2236 JUMP JUMPDEST DUP8 ADD MLOAD PUSH1 0x0 NOT PUSH1 0xF8 DUP5 PUSH1 0x3 SHL AND SHR NOT AND SWAP1 SSTORE DUP9 DUP1 PUSH2 0x237F JUMP JUMPDEST PUSH1 0x1 DUP5 SWAP6 DUP3 SWAP4 SWAP6 DUP13 ADD MLOAD DUP2 SSTORE ADD SWAP5 ADD SWAP3 ADD PUSH2 0x2368 JUMP JUMPDEST DUP3 PUSH1 0x0 MSTORE DUP8 PUSH1 0x0 KECCAK256 DUP8 DUP1 DUP5 ADD DUP8 SHR DUP3 ADD SWAP3 DUP11 DUP6 LT PUSH2 0x23F2 JUMPI JUMPDEST ADD DUP7 SHR ADD SWAP1 JUMPDEST DUP2 DUP2 LT PUSH2 0x23E6 JUMPI POP PUSH2 0x220D JUMP JUMPDEST PUSH1 0x0 DUP2 SSTORE PUSH1 0x1 ADD PUSH2 0x23D9 JUMP JUMPDEST SWAP3 POP DUP2 SWAP3 PUSH2 0x23D3 JUMP JUMPDEST PUSH1 0x40 MLOAD PUSH3 0x461BCD PUSH1 0xE5 SHL DUP2 MSTORE PUSH1 0x4 DUP2 ADD DUP6 SWAP1 MSTORE PUSH1 0x16 PUSH1 0x24 DUP3 ADD MSTORE PUSH22 0x2737BA1030903932B3B4B9BA32B932B21036B4B732B9 PUSH1 0x51 SHL PUSH1 0x44 DUP3 ADD MSTORE PUSH1 0x64 SWAP1 REVERT JUMPDEST CALLVALUE PUSH2 0x3BD JUMPI PUSH1 0x20 CALLDATASIZE PUSH1 0x3 NOT ADD SLT PUSH2 0x3BD JUMPI PUSH1 0x1 PUSH1 0x1 PUSH1 0xA0 SHL SUB PUSH2 0x245A PUSH2 0x38DA JUMP JUMPDEST AND PUSH1 0x0 MSTORE PUSH1 0x11 PUSH1 0x20 MSTORE PUSH2 0x481 PUSH2 0x2473 PUSH1 0x40 PUSH1 0x0 KECCAK256 PUSH2 0x3AFC JUMP JUMPDEST PUSH1 0x40 MLOAD SWAP2 DUP3 SWAP2 PUSH1 0x20 DUP4 MSTORE PUSH1 0x20 DUP4 ADD SWAP1 PUSH2 0x3929 JUMP JUMPDEST CALLVALUE PUSH2 0x3BD JUMPI PUSH1 0x20 CALLDATASIZE PUSH1 0x3 NOT ADD SLT PUSH2 0x3BD JUMPI PUSH1 0x1 PUSH1 0x1 PUSH1 0xA0 SHL SUB DUP1 PUSH2 0x24A9 PUSH2 0x38DA JUMP JUMPDEST AND PUSH1 0x0 MSTORE PUSH1 0x5 PUSH1 0x20 MSTORE PUSH1 0x40 PUSH1 0x0 KECCAK256 SWAP1 PUSH2 0x481 DUP3 SLOAD SWAP3 PUSH1 0x1 PUSH1 0x1 PUSH1 0x40 SHL SUB PUSH1 0x1 DUP3 ADD SLOAD AND SWAP1 PUSH1 0x2 DUP2 ADD SLOAD SWAP4 PUSH1 0x3 DUP3 ADD SLOAD SWAP6 PUSH1 0x4 DUP4 ADD SLOAD PUSH1 0x5 DUP5 ADD SLOAD PUSH1 0x1 PUSH1 0x1 PUSH1 0x40 SHL SUB PUSH1 0x6 DUP7 ADD SLOAD AND PUSH1 0x7 DUP7 ADD SLOAD SWAP2 PUSH1 0x8 DUP8 ADD SLOAD SWAP4 PUSH1 0x9 DUP9 ADD SLOAD SWAP7 PUSH1 0xB PUSH2 0x44C PUSH1 0xA DUP12 ADD PUSH2 0x3AFC JUMP JUMPDEST CALLVALUE PUSH2 0x3BD JUMPI PUSH1 0xA0 CALLDATASIZE PUSH1 0x3 NOT ADD SLT PUSH2 0x3BD JUMPI PUSH2 0x252A PUSH2 0x3A0D JUMP JUMPDEST PUSH1 0x24 CALLDATALOAD PUSH1 0x1 PUSH1 0x1 PUSH1 0x40 SHL SUB DUP1 DUP3 GT PUSH2 0x3BD JUMPI CALLDATASIZE PUSH1 0x23 DUP4 ADD SLT ISZERO PUSH2 0x3BD JUMPI DUP2 PUSH1 0x4 ADD CALLDATALOAD SWAP2 PUSH2 0x2556 DUP4 PUSH2 0x3C4A JUMP JUMPDEST SWAP1 PUSH2 0x2564 PUSH1 0x40 MLOAD SWAP3 DUP4 PUSH2 0x3ADB JUMP JUMPDEST DUP4 DUP3 MSTORE PUSH1 0x20 SWAP4 PUSH1 0x24 DUP6 DUP5 ADD SWAP2 PUSH1 0x5 SHL DUP4 ADD ADD SWAP2 CALLDATASIZE DUP4 GT PUSH2 0x3BD JUMPI PUSH1 0x24 ADD SWAP1 JUMPDEST DUP3 DUP3 LT PUSH2 0x275B JUMPI POP POP POP PUSH1 0x44 CALLDATALOAD DUP3 DUP2 GT PUSH2 0x3BD JUMPI PUSH2 0x25A5 SWAP1 CALLDATASIZE SWAP1 PUSH1 0x4 ADD PUSH2 0x3C61 JUMP JUMPDEST SWAP3 PUSH1 0x64 CALLDATALOAD DUP4 DUP2 GT PUSH2 0x3BD JUMPI PUSH2 0x25BE SWAP1 CALLDATASIZE SWAP1 PUSH1 0x4 ADD PUSH2 0x3C61 JUMP JUMPDEST PUSH1 0x84 CALLDATALOAD SWAP6 DUP5 DUP8 GT PUSH2 0x3BD JUMPI CALLDATASIZE PUSH1 0x23 DUP9 ADD SLT ISZERO PUSH2 0x3BD JUMPI DUP7 PUSH1 0x4 ADD CALLDATALOAD SWAP7 PUSH2 0x25E3 DUP9 PUSH2 0x3C4A JUMP JUMPDEST SWAP8 PUSH2 0x25F1 PUSH1 0x40 MLOAD SWAP10 DUP11 PUSH2 0x3ADB JUMP JUMPDEST DUP1 DUP10 MSTORE PUSH1 0x24 DUP6 DUP11 ADD SWAP2 PUSH1 0x5 SHL DUP4 ADD ADD SWAP2 CALLDATASIZE DUP4 GT PUSH2 0x3BD JUMPI SWAP1 DUP6 PUSH1 0x24 DUP10 SWAP6 SWAP5 SWAP4 ADD SWAP2 JUMPDEST DUP4 DUP4 LT PUSH2 0x2748 JUMPI POP POP POP POP PUSH2 0x2626 PUSH2 0x4094 JUMP JUMPDEST AND SWAP4 DUP5 PUSH1 0x0 MSTORE PUSH1 0x10 SWAP1 DUP2 DUP5 MSTORE PUSH2 0x264A PUSH1 0xFF PUSH1 0x5 PUSH1 0x40 PUSH1 0x0 KECCAK256 ADD SLOAD PUSH1 0x40 SHR AND ISZERO PUSH2 0x48B1 JUMP JUMPDEST PUSH2 0x2657 DUP6 MLOAD DUP9 MLOAD EQ PUSH2 0x48FD JUMP JUMPDEST PUSH2 0x2664 DUP6 MLOAD DUP5 MLOAD EQ PUSH2 0x48FD JUMP JUMPDEST PUSH2 0x2671 DUP6 MLOAD DUP10 MLOAD EQ PUSH2 0x48FD JUMP JUMPDEST PUSH1 0x0 JUMPDEST DUP6 MLOAD DUP2 LT ISZERO PUSH2 0x81C JUMPI DUP1 DUP3 PUSH2 0x268C PUSH2 0x2743 SWAP4 DUP12 PUSH2 0x494A JUMP JUMPDEST MLOAD PUSH1 0x0 DUP11 DUP2 MSTORE DUP7 DUP10 MSTORE PUSH1 0x40 SWAP1 KECCAK256 PUSH1 0x1 PUSH1 0x1 PUSH1 0xA0 SHL SUB SWAP3 SWAP1 SWAP2 AND SWAP1 PUSH1 0x1 ADD DUP3 PUSH2 0x26B4 DUP6 DUP13 PUSH2 0x494A JUMP JUMPDEST MLOAD AND PUSH1 0x0 MSTORE DUP9 MSTORE PUSH1 0x40 PUSH1 0x0 KECCAK256 PUSH1 0x1 PUSH1 0x1 PUSH1 0x40 SHL SUB NOT SWAP2 DUP3 DUP3 SLOAD AND OR SWAP1 SSTORE DUP5 PUSH2 0x26DC DUP5 DUP10 PUSH2 0x494A JUMP JUMPDEST MLOAD AND DUP11 PUSH1 0x0 MSTORE DUP7 DUP10 MSTORE PUSH1 0x2 PUSH1 0x40 PUSH1 0x0 KECCAK256 ADD DUP4 PUSH2 0x26F8 DUP7 DUP14 PUSH2 0x494A JUMP JUMPDEST MLOAD AND PUSH1 0x0 MSTORE DUP10 MSTORE PUSH1 0x40 PUSH1 0x0 KECCAK256 SWAP2 DUP3 SLOAD AND OR SWAP1 SSTORE PUSH2 0x2715 DUP3 DUP13 PUSH2 0x494A JUMP JUMPDEST MLOAD SWAP1 DUP10 PUSH1 0x0 MSTORE DUP6 DUP9 MSTORE PUSH1 0x3 PUSH1 0x40 PUSH1 0x0 KECCAK256 ADD SWAP1 PUSH2 0x2731 DUP5 DUP12 PUSH2 0x494A JUMP JUMPDEST MLOAD AND PUSH1 0x0 MSTORE DUP8 MSTORE PUSH1 0x40 PUSH1 0x0 KECCAK256 SSTORE PUSH2 0x493B JUMP JUMPDEST PUSH2 0x2674 JUMP JUMPDEST DUP3 CALLDATALOAD DUP2 MSTORE DUP10 SWAP6 POP SWAP2 DUP2 ADD SWAP2 DUP8 SWAP2 ADD PUSH2 0x2613 JUMP JUMPDEST DUP2 CALLDATALOAD PUSH1 0x1 PUSH1 0x1 PUSH1 0xA0 SHL SUB DUP2 AND DUP2 SUB PUSH2 0x3BD JUMPI DUP2 MSTORE SWAP1 DUP6 ADD SWAP1 DUP6 ADD PUSH2 0x2583 JUMP JUMPDEST CALLVALUE PUSH2 0x3BD JUMPI PUSH1 0x20 CALLDATASIZE PUSH1 0x3 NOT ADD SLT PUSH2 0x3BD JUMPI PUSH1 0x1 PUSH1 0x1 PUSH1 0xA0 SHL SUB PUSH2 0x279B PUSH2 0x38DA JUMP JUMPDEST AND PUSH1 0x0 MSTORE PUSH1 0x15 PUSH1 0x20 MSTORE PUSH1 0x20 PUSH1 0xFF PUSH1 0x40 PUSH1 0x0 KECCAK256 SLOAD AND PUSH1 0x40 MLOAD SWAP1 ISZERO ISZERO DUP2 MSTORE RETURN JUMPDEST CALLVALUE PUSH2 0x3BD JUMPI PUSH1 0x0 CALLDATASIZE PUSH1 0x3 NOT ADD SLT PUSH2 0x3BD JUMPI PUSH1 0x20 PUSH1 0x3 SLOAD PUSH1 0x40 MLOAD SWAP1 DUP2 MSTORE RETURN JUMPDEST CALLVALUE PUSH2 0x3BD JUMPI PUSH1 0x20 CALLDATASIZE PUSH1 0x3 NOT ADD SLT PUSH2 0x3BD JUMPI PUSH1 0xA0 PUSH1 0x1 PUSH1 0x1 PUSH1 0x40 SHL SUB DUP1 PUSH2 0x27FB PUSH2 0x3A0D JUMP JUMPDEST AND PUSH1 0x0 MSTORE PUSH1 0x10 PUSH1 0x20 MSTORE PUSH1 0xFF PUSH1 0x40 PUSH1 0x0 KECCAK256 DUP1 SLOAD SWAP3 PUSH1 0x5 PUSH1 0x4 DUP4 ADD SLOAD SWAP3 ADD SLOAD SWAP2 DUP2 PUSH1 0x40 MLOAD SWAP6 DUP2 DUP2 AND DUP8 MSTORE PUSH1 0x40 SHR AND PUSH1 0x20 DUP7 ADD MSTORE PUSH1 0x40 DUP6 ADD MSTORE DUP2 AND PUSH1 0x60 DUP5 ADD MSTORE PUSH1 0x40 SHR AND ISZERO ISZERO PUSH1 0x80 DUP3 ADD MSTORE RETURN JUMPDEST CALLVALUE PUSH2 0x3BD JUMPI PUSH1 0x0 CALLDATASIZE PUSH1 0x3 NOT ADD SLT PUSH2 0x3BD JUMPI PUSH1 0x2 SLOAD PUSH1 0x0 SWAP1 PUSH1 0x1 PUSH1 0x1 PUSH1 0x40 SHL SUB AND DUP2 DUP1 DUP1 JUMPDEST DUP4 PUSH1 0x1 PUSH1 0x1 PUSH1 0x40 SHL SUB DUP3 AND LT ISZERO PUSH2 0x293C JUMPI PUSH1 0x1 PUSH1 0x1 PUSH1 0x40 SHL SUB DUP2 AND PUSH1 0x0 MSTORE PUSH1 0x7 PUSH1 0x20 MSTORE PUSH1 0x1 PUSH1 0x1 PUSH1 0x40 SHL SUB PUSH1 0x40 PUSH1 0x0 KECCAK256 SLOAD AND PUSH2 0x28AE JUMPI JUMPDEST PUSH2 0x28A9 SWAP1 PUSH2 0x449A JUMP JUMPDEST PUSH2 0x2869 JUMP JUMPDEST SWAP1 SWAP2 SWAP4 PUSH2 0x2934 PUSH2 0x2903 PUSH2 0x28DB PUSH2 0x28A9 SWAP4 PUSH1 0x8 PUSH1 0x20 MSTORE PUSH4 0xFFFFFFFF PUSH1 0x6 PUSH1 0x40 PUSH1 0x0 KECCAK256 ADD SLOAD PUSH1 0x20 SHR AND SWAP1 PUSH2 0x4358 JUMP JUMPDEST SWAP7 PUSH1 0x1 PUSH1 0x1 PUSH1 0x40 SHL SUB DUP6 AND PUSH1 0x0 MSTORE PUSH1 0x8 PUSH1 0x20 MSTORE PUSH4 0xFFFFFFFF PUSH1 0x6 PUSH1 0x40 PUSH1 0x0 KECCAK256 ADD SLOAD AND SWAP1 PUSH2 0x4358 JUMP JUMPDEST SWAP4 PUSH1 0x1 PUSH1 0x1 PUSH1 0x40 SHL SUB DUP5 AND PUSH1 0x0 MSTORE PUSH1 0x8 PUSH1 0x20 MSTORE PUSH2 0x292E PUSH1 0x40 PUSH1 0x0 KECCAK256 PUSH1 0x5 PUSH1 0x4 DUP3 ADD SLOAD SWAP2 ADD SLOAD SWAP1 PUSH2 0x4358 JUMP JUMPDEST SWAP1 PUSH2 0x4358 JUMP JUMPDEST SWAP2 SWAP1 POP PUSH2 0x28A0 JUMP JUMPDEST PUSH1 0x80 DUP6 DUP5 DUP5 PUSH2 0x2950 PUSH1 0x3 SLOAD PUSH1 0x4 SLOAD SWAP1 PUSH2 0x4358 JUMP JUMPDEST SWAP2 PUSH1 0x40 MLOAD SWAP4 DUP5 MSTORE PUSH1 0x20 DUP5 ADD MSTORE PUSH1 0x40 DUP4 ADD MSTORE PUSH1 0x60 DUP3 ADD MSTORE RETURN JUMPDEST CALLVALUE PUSH2 0x3BD JUMPI PUSH1 0x20 DUP1 PUSH1 0x3 NOT CALLDATASIZE ADD SLT PUSH2 0x3BD JUMPI PUSH1 0x1 PUSH1 0x1 PUSH1 0x40 SHL SUB PUSH2 0x298A PUSH2 0x3A0D JUMP JUMPDEST AND PUSH1 0x0 MSTORE PUSH1 0xA DUP2 MSTORE PUSH1 0x40 PUSH1 0x0 KECCAK256 SWAP1 PUSH1 0x40 MLOAD SWAP1 DUP2 DUP2 DUP5 SLOAD SWAP2 DUP3 DUP2 MSTORE ADD SWAP4 PUSH1 0x0 MSTORE DUP2 PUSH1 0x0 KECCAK256 SWAP2 PUSH1 0x0 SWAP1 JUMPDEST DUP3 DUP3 LT PUSH2 0x29C9 JUMPI PUSH2 0x481 DUP6 PUSH2 0xBCC DUP2 DUP10 SUB DUP3 PUSH2 0x3ADB JUMP JUMPDEST DUP4 SLOAD PUSH1 0x1 PUSH1 0x1 PUSH1 0xA0 SHL SUB AND DUP7 MSTORE SWAP5 DUP6 ADD SWAP5 PUSH1 0x1 SWAP4 DUP5 ADD SWAP4 SWAP1 SWAP2 ADD SWAP1 PUSH2 0x29B2 JUMP JUMPDEST CALLVALUE PUSH2 0x3BD JUMPI PUSH1 0x0 CALLDATASIZE PUSH1 0x3 NOT ADD SLT PUSH2 0x3BD JUMPI PUSH1 0x20 PUSH1 0x40 MLOAD PUSH1 0x1 DUP2 MSTORE RETURN JUMPDEST CALLVALUE PUSH2 0x3BD JUMPI PUSH1 0x20 CALLDATASIZE PUSH1 0x3 NOT ADD SLT PUSH2 0x3BD JUMPI PUSH1 0x1 PUSH1 0x1 PUSH1 0x40 SHL SUB PUSH2 0x2A26 PUSH2 0x3A0D JUMP JUMPDEST AND PUSH1 0x0 MSTORE PUSH1 0xF PUSH1 0x20 MSTORE PUSH1 0x20 PUSH1 0x40 PUSH1 0x0 KECCAK256 SLOAD PUSH1 0x40 MLOAD SWAP1 DUP2 MSTORE RETURN JUMPDEST CALLVALUE PUSH2 0x3BD JUMPI PUSH1 0x20 CALLDATASIZE PUSH1 0x3 NOT ADD SLT PUSH2 0x3BD JUMPI PUSH1 0x1 PUSH1 0x1 PUSH1 0xA0 SHL SUB PUSH2 0x2A60 PUSH2 0x38DA JUMP JUMPDEST AND PUSH1 0x0 MSTORE PUSH1 0x12 PUSH1 0x20 MSTORE PUSH2 0x481 PUSH2 0x2473 PUSH1 0x40 PUSH1 0x0 KECCAK256 PUSH2 0x3AFC JUMP JUMPDEST CALLVALUE PUSH2 0x3BD JUMPI PUSH1 0x0 CALLDATASIZE PUSH1 0x3 NOT ADD SLT PUSH2 0x3BD JUMPI PUSH1 0x20 PUSH1 0x1 PUSH1 0x1 PUSH1 0x40 SHL SUB PUSH1 0x2 SLOAD PUSH1 0x80 SHR AND PUSH1 0x40 MLOAD SWAP1 DUP2 MSTORE RETURN JUMPDEST CALLVALUE PUSH2 0x3BD JUMPI PUSH1 0x0 CALLDATASIZE PUSH1 0x3 NOT ADD SLT PUSH2 0x3BD JUMPI PUSH1 0x20 PUSH1 0x40 MLOAD PUSH2 0x5DC DUP2 MSTORE RETURN JUMPDEST CALLVALUE PUSH2 0x3BD JUMPI PUSH1 0x0 CALLDATASIZE PUSH1 0x3 NOT ADD SLT PUSH2 0x3BD JUMPI PUSH1 0x20 PUSH1 0x40 MLOAD PUSH3 0xF4240 DUP2 MSTORE RETURN JUMPDEST CALLVALUE PUSH2 0x3BD JUMPI PUSH1 0x40 CALLDATASIZE PUSH1 0x3 NOT ADD SLT PUSH2 0x3BD JUMPI PUSH2 0x2AF7 PUSH2 0x38F0 JUMP JUMPDEST CALLER PUSH1 0x1 PUSH1 0x1 PUSH1 0xA0 SHL SUB DUP3 AND SUB PUSH2 0x2B13 JUMPI PUSH2 0x81C SWAP1 PUSH1 0x4 CALLDATALOAD PUSH2 0x42E2 JUMP JUMPDEST PUSH1 0x40 MLOAD PUSH3 0x461BCD PUSH1 0xE5 SHL DUP2 MSTORE PUSH1 0x20 PUSH1 0x4 DUP3 ADD MSTORE PUSH1 0x2F PUSH1 0x24 DUP3 ADD MSTORE PUSH32 0x416363657373436F6E74726F6C3A2063616E206F6E6C792072656E6F756E6365 PUSH1 0x44 DUP3 ADD MSTORE PUSH15 0x103937B632B9903337B91039B2B633 PUSH1 0x89 SHL PUSH1 0x64 DUP3 ADD MSTORE PUSH1 0x84 SWAP1 REVERT JUMPDEST CALLVALUE PUSH2 0x3BD JUMPI PUSH1 0x40 CALLDATASIZE PUSH1 0x3 NOT ADD SLT PUSH2 0x3BD JUMPI PUSH1 0x4 CALLDATALOAD PUSH2 0x2B8C PUSH2 0x38F0 JUMP JUMPDEST DUP2 PUSH1 0x0 MSTORE PUSH1 0x1 PUSH1 0x20 MSTORE PUSH2 0x2BA6 PUSH1 0x1 PUSH1 0x40 PUSH1 0x0 KECCAK256 ADD SLOAD PUSH2 0x41D9 JUMP JUMPDEST DUP2 PUSH1 0x0 MSTORE PUSH1 0x1 PUSH1 0x20 MSTORE PUSH1 0x40 PUSH1 0x0 KECCAK256 SWAP1 PUSH1 0x1 DUP1 PUSH1 0xA0 SHL SUB AND SWAP1 DUP2 PUSH1 0x0 MSTORE PUSH1 0x20 MSTORE PUSH1 0xFF PUSH1 0x40 PUSH1 0x0 KECCAK256 SLOAD AND ISZERO PUSH2 0x2BD5 JUMPI STOP JUMPDEST DUP2 PUSH1 0x0 MSTORE PUSH1 0x1 PUSH1 0x20 MSTORE PUSH1 0x40 PUSH1 0x0 KECCAK256 DUP2 PUSH1 0x0 MSTORE PUSH1 0x20 MSTORE PUSH1 0x40 PUSH1 0x0 KECCAK256 PUSH1 0x1 PUSH1 0xFF NOT DUP3 SLOAD AND OR SWAP1 SSTORE CALLER SWAP2 PUSH32 0x2F8788117E7EFF1D82E926EC794901D17C78024A50270940304540A733656F0D PUSH1 0x0 DUP1 LOG4 STOP JUMPDEST CALLVALUE PUSH2 0x3BD JUMPI PUSH1 0x0 CALLDATASIZE PUSH1 0x3 NOT ADD SLT PUSH2 0x3BD JUMPI PUSH1 0x20 PUSH1 0x40 MLOAD PUSH32 0xDEA1430C130E6626C2AA0A1A7A664882AB62C2E44EBA35C994DBD707C7B70AB9 DUP2 MSTORE RETURN JUMPDEST CALLVALUE PUSH2 0x3BD JUMPI PUSH1 0x20 CALLDATASIZE PUSH1 0x3 NOT ADD SLT PUSH2 0x3BD JUMPI PUSH2 0x2C77 PUSH2 0x3A0D JUMP JUMPDEST POP PUSH2 0x2C80 PUSH2 0x4094 JUMP JUMPDEST PUSH1 0x20 PUSH1 0x2 SLOAD PUSH1 0x1 PUSH1 0x1 PUSH1 0x40 SHL SUB PUSH2 0x2C9B DUP2 DUP4 PUSH1 0x80 SHR AND PUSH2 0x449A JUMP JUMPDEST DUP2 DUP2 AND SWAP3 SWAP1 PUSH1 0x80 SHL PUSH8 0xFFFFFFFFFFFFFFFF PUSH1 0x80 SHL AND PUSH8 0xFFFFFFFFFFFFFFFF PUSH1 0x40 SHL PUSH2 0x2CDA PUSH8 0xFFFFFFFFFFFFFFFF PUSH1 0x80 SHL NOT DUP5 AND DUP4 OR PUSH1 0x40 SHR DUP6 AND PUSH2 0x449A JUMP JUMPDEST PUSH1 0x40 SHL AND SWAP2 PUSH24 0xFFFFFFFFFFFFFFFFFFFFFFFFFFFFFFFF0000000000000000 NOT AND OR OR PUSH1 0x2 SSTORE DUP2 PUSH1 0x0 MSTORE PUSH1 0x10 DUP4 MSTORE PUSH1 0x5 PUSH1 0x40 PUSH1 0x0 KECCAK256 DUP4 PUSH1 0x1 PUSH1 0x1 PUSH1 0x40 SHL SUB NOT DUP3 SLOAD AND OR DUP2 SSTORE PUSH2 0x2D2F DUP4 PUSH1 0x2 SLOAD PUSH1 0x40 SHR AND DUP3 PUSH2 0x44B2 JUMP JUMPDEST ADD DUP2 TIMESTAMP AND PUSH9 0xFFFFFFFFFFFFFFFFFF NOT DUP3 SLOAD AND OR SWAP1 SSTORE PUSH1 0x2 SLOAD PUSH1 0x40 SHR AND SWAP1 PUSH1 0x40 MLOAD SWAP2 DUP2 PUSH32 0x2F5155A3A89E1A88BE3E86B95125CE62EFBBB8C8B3136D65342347C46848D2BB PUSH1 0x0 DUP1 LOG3 DUP2 MSTORE RETURN JUMPDEST CALLVALUE PUSH2 0x3BD JUMPI PUSH1 0x60 CALLDATASIZE PUSH1 0x3 NOT ADD SLT PUSH2 0x3BD JUMPI PUSH2 0x2D93 PUSH2 0x38DA JUMP JUMPDEST PUSH2 0x2D9B PUSH2 0x3A23 JUMP JUMPDEST SWAP1 PUSH2 0x2DA4 PUSH2 0x3A39 JUMP JUMPDEST SWAP1 PUSH2 0x2DAD PUSH2 0x3E7D JUMP JUMPDEST PUSH1 0x1 PUSH1 0x1 PUSH1 0xA0 SHL SUB AND PUSH1 0x0 DUP2 DUP2 MSTORE PUSH1 0x6 PUSH1 0x20 MSTORE PUSH1 0x40 SWAP1 KECCAK256 SLOAD SWAP1 SWAP2 SWAP1 ISZERO PUSH2 0x2E3B JUMPI PUSH32 0x5C6E2770EAF2BF15B68801EE9C69B373FC1B89F11B20C683F8BFCCB369B0BC25 SWAP1 PUSH1 0x1 PUSH1 0x1 PUSH1 0x40 SHL SUB DUP1 DUP6 AND SWAP1 PUSH2 0x2E0E PUSH3 0xF4240 PUSH2 0xA9F DUP2 DUP6 GT ISZERO PUSH2 0x4DBC JUMP JUMPDEST DUP5 PUSH1 0x0 MSTORE PUSH1 0x6 PUSH1 0x20 MSTORE PUSH1 0x40 PUSH1 0x0 KECCAK256 SWAP2 PUSH2 0xAD6 DUP5 PUSH1 0x4 DUP6 ADD PUSH1 0x1 PUSH1 0x1 PUSH1 0x40 SHL SUB NOT SWAP4 DUP5 DUP3 SLOAD AND OR DUP2 SSTORE PUSH2 0x44B2 JUMP JUMPDEST PUSH1 0x40 MLOAD PUSH3 0x461BCD PUSH1 0xE5 SHL DUP2 MSTORE PUSH1 0x20 PUSH1 0x4 DUP3 ADD MSTORE PUSH1 0x13 PUSH1 0x24 DUP3 ADD MSTORE PUSH19 0x15985B1A59185D1BDC881B9BDD08199BDD5B99 PUSH1 0x6A SHL PUSH1 0x44 DUP3 ADD MSTORE PUSH1 0x64 SWAP1 REVERT JUMPDEST SUB SWAP1 REVERT JUMPDEST CALLVALUE PUSH2 0x3BD JUMPI PUSH1 0x0 CALLDATASIZE PUSH1 0x3 NOT ADD SLT PUSH2 0x3BD JUMPI PUSH1 0x20 PUSH1 0x40 MLOAD PUSH1 0x2 DUP2 MSTORE RETURN JUMPDEST CALLVALUE PUSH2 0x3BD JUMPI PUSH1 0x20 CALLDATASIZE PUSH1 0x3 NOT ADD SLT PUSH2 0x3BD JUMPI PUSH1 0x1 PUSH1 0x1 PUSH1 0xA0 SHL SUB PUSH2 0x2EB7 PUSH2 0x38DA JUMP JUMPDEST AND PUSH1 0x0 MSTORE PUSH1 0xC PUSH1 0x20 MSTORE PUSH1 0x20 PUSH1 0x1 PUSH1 0x1 PUSH1 0x40 SHL SUB PUSH1 0x40 PUSH1 0x0 KECCAK256 SLOAD AND PUSH1 0x40 MLOAD SWAP1 DUP2 MSTORE RETURN JUMPDEST CALLVALUE PUSH2 0x3BD JUMPI PUSH1 0x20 CALLDATASIZE PUSH1 0x3 NOT ADD SLT PUSH2 0x3BD JUMPI PUSH1 0x4 CALLDATALOAD PUSH1 0x0 MSTORE PUSH1 0x1 PUSH1 0x20 MSTORE PUSH1 0x20 PUSH1 0x1 PUSH1 0x40 PUSH1 0x0 KECCAK256 ADD SLOAD PUSH1 0x40 MLOAD SWAP1 DUP2 MSTORE RETURN JUMPDEST CALLVALUE PUSH2 0x3BD JUMPI PUSH1 0x20 CALLDATASIZE PUSH1 0x3 NOT ADD SLT PUSH2 0x3BD JUMPI PUSH1 0x1 PUSH1 0x1 PUSH1 0xA0 SHL SUB PUSH2 0x2F29 PUSH2 0x38DA JUMP JUMPDEST AND PUSH1 0x0 MSTORE PUSH1 0xB PUSH1 0x20 MSTORE PUSH1 0x20 PUSH1 0x1 PUSH1 0x1 PUSH1 0x40 SHL SUB PUSH1 0x40 PUSH1 0x0 KECCAK256 SLOAD AND PUSH1 0x40 MLOAD SWAP1 DUP2 MSTORE RETURN JUMPDEST CALLVALUE PUSH2 0x3BD JUMPI PUSH1 0xC0 CALLDATASIZE PUSH1 0x3 NOT ADD SLT PUSH2 0x3BD JUMPI PUSH1 0x4 CALLDATALOAD PUSH1 0x1 PUSH1 0x1 PUSH1 0x40 SHL SUB DUP2 GT PUSH2 0x3BD JUMPI PUSH2 0x2F7B SWAP1 CALLDATASIZE SWAP1 PUSH1 0x4 ADD PUSH2 0x3BE8 JUMP JUMPDEST PUSH1 0x24 CALLDATALOAD PUSH1 0x1 PUSH1 0x1 PUSH1 0x40 SHL SUB DUP2 GT PUSH2 0x3BD JUMPI PUSH2 0x2F9A SWAP1 CALLDATASIZE SWAP1 PUSH1 0x4 ADD PUSH2 0x3BE8 JUMP JUMPDEST PUSH1 0x44 CALLDATALOAD SWAP1 PUSH4 0xFFFFFFFF DUP3 AND DUP3 SUB PUSH2 0x3BD JUMPI PUSH1 0x64 CALLDATALOAD SWAP1 PUSH4 0xFFFFFFFF DUP3 AND DUP3 SUB PUSH2 0x3BD JUMPI DUP4 MLOAD ISZERO PUSH2 0x3660 JUMPI PUSH1 0x2 SLOAD SWAP3 PUSH1 0x1 PUSH1 0x1 PUSH1 0x40 SHL SUB PUSH2 0x2FDA DUP2 DUP7 AND PUSH2 0x449A JUMP JUMPDEST AND PUSH1 0x1 PUSH1 0x1 PUSH1 0x40 SHL SUB NOT DUP6 AND OR PUSH1 0x2 SSTORE PUSH1 0x40 MLOAD SWAP3 PUSH2 0x160 DUP5 ADD DUP5 DUP2 LT PUSH1 0x1 PUSH1 0x1 PUSH1 0x40 SHL SUB DUP3 GT OR PUSH2 0xE16 JUMPI PUSH4 0xFFFFFFFF SWAP3 DUP4 SWAP2 PUSH1 0x40 MSTORE PUSH1 0x1 PUSH1 0x1 PUSH1 0x40 SHL SUB DUP8 AND DUP7 MSTORE DUP8 PUSH1 0x20 DUP8 ADD MSTORE CALLER PUSH1 0x40 DUP8 ADD MSTORE AND PUSH1 0x60 DUP6 ADD MSTORE AND PUSH1 0x80 DUP4 ADD MSTORE PUSH2 0x1C20 PUSH1 0xA0 DUP4 ADD MSTORE PUSH1 0x1 PUSH1 0x1 PUSH1 0x40 SHL SUB TIMESTAMP AND PUSH1 0xC0 DUP4 ADD MSTORE PUSH1 0xE0 DUP3 ADD MSTORE PUSH1 0x1 PUSH2 0x100 DUP3 ADD MSTORE PUSH1 0x84 CALLDATALOAD PUSH2 0x120 DUP3 ADD MSTORE PUSH1 0xA4 CALLDATALOAD PUSH2 0x140 DUP3 ADD MSTORE PUSH1 0x1 PUSH1 0x1 PUSH1 0x40 SHL SUB DUP3 AND PUSH1 0x0 MSTORE PUSH1 0x7 PUSH1 0x20 MSTORE PUSH1 0x40 PUSH1 0x0 KECCAK256 SWAP1 PUSH1 0x1 PUSH1 0x1 PUSH1 0x40 SHL SUB DUP2 MLOAD AND PUSH1 0x1 PUSH1 0x1 PUSH1 0x40 SHL SUB NOT DUP4 SLOAD AND OR DUP3 SSTORE PUSH1 0x20 DUP2 ADD MLOAD DUP1 MLOAD SWAP1 PUSH1 0x1 PUSH1 0x1 PUSH1 0x40 SHL SUB DUP3 GT PUSH2 0xE16 JUMPI DUP2 SWAP1 PUSH2 0x30C1 PUSH1 0x1 DUP7 ADD SLOAD PUSH2 0x3A4F JUMP JUMPDEST PUSH1 0x1F DUP2 GT PUSH2 0x360D JUMPI JUMPDEST POP PUSH1 0x20 SWAP1 PUSH1 0x1F DUP4 GT PUSH1 0x1 EQ PUSH2 0x359B JUMPI PUSH1 0x0 SWAP3 PUSH2 0x3590 JUMPI JUMPDEST POP POP DUP2 PUSH1 0x1 SHL SWAP2 PUSH1 0x0 NOT SWAP1 PUSH1 0x3 SHL SHR NOT AND OR PUSH1 0x1 DUP4 ADD SSTORE JUMPDEST PUSH1 0x2 DUP3 ADD PUSH1 0x1 DUP1 PUSH1 0xA0 SHL SUB PUSH1 0x40 DUP4 ADD MLOAD AND DUP2 SLOAD SWAP1 PUSH4 0xFFFFFFFF PUSH1 0xA0 SHL PUSH1 0x60 DUP6 ADD MLOAD PUSH1 0xA0 SHL AND SWAP1 PUSH4 0xFFFFFFFF PUSH1 0xC0 SHL PUSH1 0x80 DUP7 ADD MLOAD PUSH1 0xC0 SHL AND SWAP3 PUSH4 0xFFFFFFFF PUSH1 0xE0 SHL AND OR OR OR SWAP1 SSTORE PUSH2 0x3177 PUSH1 0x3 DUP4 ADD PUSH1 0x1 PUSH1 0x1 PUSH1 0x40 SHL SUB PUSH1 0xA0 DUP5 ADD MLOAD AND PUSH1 0x1 PUSH1 0x1 PUSH1 0x40 SHL SUB NOT DUP3 SLOAD AND OR DUP2 SSTORE PUSH1 0x1 PUSH1 0x1 PUSH1 0x40 SHL SUB PUSH1 0xC0 DUP5 ADD MLOAD AND SWAP1 PUSH2 0x44B2 JUMP JUMPDEST PUSH1 0xE0 DUP2 ADD MLOAD DUP1 MLOAD SWAP1 PUSH1 0x1 PUSH1 0x1 PUSH1 0x40 SHL SUB DUP3 GT PUSH2 0xE16 JUMPI PUSH2 0x319A PUSH1 0x4 DUP6 ADD SLOAD PUSH2 0x3A4F JUMP JUMPDEST PUSH1 0x1F DUP2 GT PUSH2 0x3549 JUMPI JUMPDEST POP PUSH1 0x20 SWAP1 PUSH1 0x1F DUP4 GT PUSH1 0x1 EQ PUSH2 0x34D3 JUMPI SWAP2 DUP1 PUSH1 0x7 SWAP5 SWAP3 PUSH2 0x140 SWAP5 PUSH1 0x0 SWAP3 PUSH2 0x34C8 JUMPI JUMPDEST POP POP DUP2 PUSH1 0x1 SHL SWAP2 PUSH1 0x0 NOT SWAP1 PUSH1 0x3 SHL SHR NOT AND OR PUSH1 0x4 DUP6 ADD SSTORE JUMPDEST PUSH4 0xFFFFFFFF PUSH2 0x100 DUP3 ADD MLOAD AND PUSH4 0xFFFFFFFF NOT PUSH1 0x5 DUP7 ADD SLOAD AND OR PUSH1 0x5 DUP6 ADD SSTORE PUSH2 0x120 DUP2 ADD MLOAD PUSH1 0x6 DUP6 ADD SSTORE ADD MLOAD SWAP2 ADD SSTORE PUSH1 0x40 MLOAD SWAP2 DUP3 PUSH2 0x180 DUP2 ADD LT PUSH1 0x1 PUSH1 0x1 PUSH1 0x40 SHL SUB PUSH2 0x180 DUP6 ADD GT OR PUSH2 0xE16 JUMPI PUSH2 0x33D6 DUP4 PUSH2 0x180 PUSH1 0x20 SWAP6 ADD PUSH1 0x40 MSTORE PUSH1 0x1 PUSH1 0x1 PUSH1 0x40 SHL SUB DUP5 AND DUP2 MSTORE PUSH3 0xF4240 DUP6 DUP3 ADD MSTORE PUSH1 0x0 PUSH1 0x40 DUP3 ADD MSTORE PUSH1 0x0 PUSH1 0x60 DUP3 ADD MSTORE PUSH1 0x1 PUSH1 0x80 DUP3 ADD MSTORE PUSH1 0x0 PUSH1 0xA0 DUP3 ADD MSTORE PUSH3 0xF4240 PUSH1 0xC0 DUP3 ADD MSTORE PUSH1 0x1 PUSH1 0x1 PUSH1 0x40 SHL SUB TIMESTAMP AND PUSH1 0xE0 DUP3 ADD MSTORE PUSH1 0x0 PUSH2 0x100 DUP3 ADD MSTORE PUSH1 0x0 PUSH2 0x120 DUP3 ADD MSTORE PUSH1 0x0 PUSH2 0x140 DUP3 ADD MSTORE PUSH1 0x0 PUSH2 0x160 DUP3 ADD MSTORE PUSH1 0x1 PUSH1 0x1 PUSH1 0x40 SHL SUB DUP5 AND PUSH1 0x0 MSTORE PUSH1 0x8 DUP6 MSTORE PUSH4 0xFFFFFFFF PUSH2 0x160 PUSH1 0x6 PUSH1 0x40 PUSH1 0x0 KECCAK256 PUSH1 0x1 PUSH1 0x1 PUSH1 0x40 SHL SUB DUP6 MLOAD AND PUSH1 0x1 PUSH1 0x1 PUSH1 0x40 SHL SUB NOT DUP3 SLOAD AND OR DUP2 SSTORE PUSH2 0x32EE PUSH1 0x1 PUSH1 0x1 PUSH1 0x40 SHL SUB DUP11 DUP8 ADD MLOAD AND DUP3 PUSH2 0x44B2 JUMP JUMPDEST PUSH1 0x40 DUP6 ADD MLOAD DUP2 SLOAD PUSH16 0xFFFFFFFFFFFFFFFFFFFFFFFFFFFFFFFF PUSH1 0x1 PUSH1 0x1 PUSH1 0x40 SHL SUB PUSH1 0xC0 SHL PUSH1 0x60 DUP10 ADD MLOAD PUSH1 0xC0 SHL AND SWAP3 PUSH1 0x1 PUSH1 0x1 PUSH1 0x40 SHL SUB PUSH1 0x80 SHL SWAP1 PUSH1 0x80 SHL AND SWAP2 AND OR OR DUP2 SSTORE PUSH1 0xFF PUSH1 0x80 DUP7 ADD MLOAD AND PUSH1 0xFF NOT PUSH1 0x1 DUP4 ADD SLOAD AND OR PUSH1 0x1 DUP3 ADD SSTORE PUSH1 0xA0 DUP6 ADD MLOAD PUSH1 0x2 DUP3 ADD SSTORE PUSH2 0x338A PUSH1 0x3 DUP3 ADD PUSH1 0x1 PUSH1 0x1 PUSH1 0x40 SHL SUB PUSH1 0xC0 DUP9 ADD MLOAD AND PUSH1 0x1 PUSH1 0x1 PUSH1 0x40 SHL SUB NOT DUP3 SLOAD AND OR DUP2 SSTORE PUSH1 0x1 PUSH1 0x1 PUSH1 0x40 SHL SUB PUSH1 0xE0 DUP9 ADD MLOAD AND SWAP1 PUSH2 0x44B2 JUMP JUMPDEST PUSH2 0x100 DUP6 ADD MLOAD PUSH1 0x4 DUP3 ADD SSTORE PUSH2 0x120 DUP6 ADD MLOAD PUSH1 0x5 DUP3 ADD SSTORE ADD SWAP3 DUP3 PUSH2 0x140 DUP3 ADD MLOAD AND DUP4 NOT DUP6 SLOAD AND OR DUP5 SSTORE ADD MLOAD AND PUSH8 0xFFFFFFFF00000000 DUP3 SLOAD SWAP2 PUSH1 0x20 SHL AND SWAP1 PUSH8 0xFFFFFFFF00000000 NOT AND OR SWAP1 SSTORE JUMP JUMPDEST PUSH32 0xDEA1430C130E6626C2AA0A1A7A664882AB62C2E44EBA35C994DBD707C7B70AB9 DUP1 PUSH1 0x0 MSTORE PUSH1 0x1 DUP5 MSTORE PUSH1 0x40 PUSH1 0x0 KECCAK256 CALLER PUSH1 0x0 MSTORE DUP5 MSTORE PUSH1 0xFF PUSH1 0x40 PUSH1 0x0 KECCAK256 SLOAD AND ISZERO PUSH2 0x3476 JUMPI JUMPDEST POP PUSH32 0x5D6943EED6B28B798177BCB465658CCA4E137E72861014A967333BF23AB2846B PUSH2 0x3450 PUSH1 0x40 MLOAD SWAP3 PUSH1 0x40 DUP5 MSTORE PUSH1 0x40 DUP5 ADD SWAP1 PUSH2 0x3929 JUMP JUMPDEST SWAP2 CALLER DUP6 DUP3 ADD MSTORE DUP1 PUSH1 0x1 PUSH1 0x1 PUSH1 0x40 SHL SUB DUP6 AND SWAP4 SUB SWAP1 LOG2 PUSH1 0x1 PUSH1 0x1 PUSH1 0x40 SHL SUB PUSH1 0x40 MLOAD SWAP2 AND DUP2 MSTORE RETURN JUMPDEST DUP1 PUSH1 0x0 MSTORE PUSH1 0x1 DUP5 MSTORE PUSH1 0x40 PUSH1 0x0 KECCAK256 CALLER PUSH1 0x0 MSTORE DUP5 MSTORE PUSH1 0x40 PUSH1 0x0 KECCAK256 PUSH1 0x1 PUSH1 0xFF NOT DUP3 SLOAD AND OR SWAP1 SSTORE CALLER SWAP1 CALLER SWAP1 PUSH32 0x2F8788117E7EFF1D82E926EC794901D17C78024A50270940304540A733656F0D PUSH1 0x0 DUP1 LOG4 DUP4 PUSH2 0x3419 JUMP JUMPDEST ADD MLOAD SWAP1 POP DUP9 DUP1 PUSH2 0x31C4 JUMP JUMPDEST SWAP1 PUSH1 0x4 DUP6 ADD PUSH1 0x0 MSTORE PUSH1 0x20 PUSH1 0x0 KECCAK256 SWAP2 PUSH1 0x0 JUMPDEST PUSH1 0x1F NOT DUP6 AND DUP2 LT PUSH2 0x3531 JUMPI POP SWAP3 PUSH1 0x7 SWAP5 SWAP3 PUSH1 0x1 SWAP3 PUSH2 0x140 SWAP6 DUP4 PUSH1 0x1F NOT DUP2 AND LT PUSH2 0x3518 JUMPI JUMPDEST POP POP POP DUP2 SHL ADD PUSH1 0x4 DUP6 ADD SSTORE PUSH2 0x31DC JUMP JUMPDEST ADD MLOAD PUSH1 0x0 NOT PUSH1 0xF8 DUP5 PUSH1 0x3 SHL AND SHR NOT AND SWAP1 SSTORE DUP9 DUP1 DUP1 PUSH2 0x3508 JUMP JUMPDEST SWAP2 SWAP3 PUSH1 0x20 PUSH1 0x1 DUP2 SWAP3 DUP7 DUP6 ADD MLOAD DUP2 SSTORE ADD SWAP5 ADD SWAP3 ADD PUSH2 0x34E4 JUMP JUMPDEST PUSH1 0x4 DUP6 ADD PUSH1 0x0 MSTORE PUSH1 0x20 PUSH1 0x0 KECCAK256 PUSH1 0x1F DUP5 ADD PUSH1 0x5 SHR DUP2 ADD PUSH1 0x20 DUP6 LT PUSH2 0x3589 JUMPI JUMPDEST PUSH1 0x1F DUP4 ADD PUSH1 0x5 SHR DUP3 ADD DUP2 LT PUSH2 0x357D JUMPI POP POP PUSH2 0x31A3 JUMP JUMPDEST PUSH1 0x0 DUP2 SSTORE PUSH1 0x1 ADD PUSH2 0x3567 JUMP JUMPDEST POP DUP1 PUSH2 0x3567 JUMP JUMPDEST ADD MLOAD SWAP1 POP DUP7 DUP1 PUSH2 0x30E1 JUMP JUMPDEST SWAP3 POP PUSH1 0x1 DUP6 ADD PUSH1 0x0 MSTORE PUSH1 0x20 PUSH1 0x0 KECCAK256 SWAP1 PUSH1 0x0 SWAP4 JUMPDEST PUSH1 0x1F NOT DUP5 AND DUP6 LT PUSH2 0x35F2 JUMPI PUSH1 0x1 SWAP5 POP DUP4 PUSH1 0x1F NOT DUP2 AND LT PUSH2 0x35D9 JUMPI JUMPDEST POP POP POP DUP2 SHL ADD PUSH1 0x1 DUP4 ADD SSTORE PUSH2 0x30F9 JUMP JUMPDEST ADD MLOAD PUSH1 0x0 NOT PUSH1 0xF8 DUP5 PUSH1 0x3 SHL AND SHR NOT AND SWAP1 SSTORE DUP7 DUP1 DUP1 PUSH2 0x35C9 JUMP JUMPDEST DUP2 DUP2 ADD MLOAD DUP4 SSTORE PUSH1 0x20 SWAP5 DUP6 ADD SWAP5 PUSH1 0x1 SWAP1 SWAP4 ADD SWAP3 SWAP1 SWAP2 ADD SWAP1 PUSH2 0x35AE JUMP JUMPDEST SWAP1 SWAP2 POP PUSH1 0x1 DUP6 ADD PUSH1 0x0 MSTORE PUSH1 0x20 PUSH1 0x0 KECCAK256 PUSH1 0x1F DUP5 ADD PUSH1 0x5 SHR DUP2 ADD PUSH1 0x20 DUP6 LT PUSH2 0x3659 JUMPI JUMPDEST SWAP1 DUP5 SWAP4 SWAP3 SWAP2 JUMPDEST PUSH1 0x1F DUP4 ADD PUSH1 0x5 SHR DUP3 ADD DUP2 LT PUSH2 0x364A JUMPI POP POP PUSH2 0x30CA JUMP JUMPDEST PUSH1 0x0 DUP2 SSTORE DUP6 SWAP5 POP PUSH1 0x1 ADD PUSH2 0x3634 JUMP JUMPDEST POP DUP1 PUSH2 0x362E JUMP JUMPDEST PUSH1 0x40 MLOAD PUSH3 0x461BCD PUSH1 0xE5 SHL DUP2 MSTORE PUSH1 0x20 PUSH1 0x4 DUP3 ADD MSTORE PUSH1 0xD PUSH1 0x24 DUP3 ADD MSTORE PUSH13 0x13985B59481C995C5D5A5C9959 PUSH1 0x9A SHL PUSH1 0x44 DUP3 ADD MSTORE PUSH1 0x64 SWAP1 REVERT JUMPDEST CALLVALUE PUSH2 0x3BD JUMPI PUSH1 0x20 CALLDATASIZE PUSH1 0x3 NOT ADD SLT PUSH2 0x3BD JUMPI PUSH1 0x1 PUSH1 0x1 PUSH1 0x40 SHL SUB DUP1 PUSH2 0x36B7 PUSH2 0x3A0D JUMP JUMPDEST AND PUSH1 0x0 MSTORE PUSH1 0x7 PUSH1 0x20 MSTORE PUSH1 0x40 PUSH1 0x0 KECCAK256 DUP2 DUP2 SLOAD AND SWAP1 PUSH2 0x36D6 PUSH1 0x1 DUP3 ADD PUSH2 0x3AFC JUMP JUMPDEST SWAP3 PUSH1 0x2 DUP3 ADD SLOAD SWAP2 PUSH2 0x376A PUSH1 0x3 DUP3 ADD SLOAD SWAP4 PUSH2 0x36F2 PUSH1 0x4 DUP5 ADD PUSH2 0x3AFC JUMP JUMPDEST PUSH4 0xFFFFFFFF SWAP5 DUP6 PUSH1 0x5 DUP7 ADD SLOAD AND SWAP7 PUSH1 0x7 PUSH1 0x6 DUP8 ADD SLOAD SWAP7 ADD SLOAD SWAP7 PUSH2 0x3729 PUSH1 0x40 MLOAD SWAP12 DUP13 SWAP12 DUP13 MSTORE PUSH1 0x20 DUP13 PUSH2 0x160 SWAP2 DUP3 SWAP2 ADD MSTORE DUP13 ADD SWAP1 PUSH2 0x3929 JUMP JUMPDEST SWAP5 PUSH1 0x1 DUP1 PUSH1 0xA0 SHL SUB DUP2 AND PUSH1 0x40 DUP13 ADD MSTORE DUP2 DUP2 PUSH1 0xA0 SHR AND PUSH1 0x60 DUP13 ADD MSTORE PUSH1 0xC0 SHR AND PUSH1 0x80 DUP11 ADD MSTORE DUP2 DUP2 AND PUSH1 0xA0 DUP11 ADD MSTORE PUSH1 0x40 SHR AND PUSH1 0xC0 DUP9 ADD MSTORE DUP7 DUP3 SUB PUSH1 0xE0 DUP9 ADD MSTORE PUSH2 0x3929 JUMP JUMPDEST SWAP3 PUSH2 0x100 DUP6 ADD MSTORE PUSH2 0x120 DUP5 ADD MSTORE PUSH2 0x140 DUP4 ADD MSTORE SUB SWAP1 RETURN JUMPDEST CALLVALUE PUSH2 0x3BD JUMPI PUSH1 0x20 CALLDATASIZE PUSH1 0x3 NOT ADD SLT PUSH2 0x3BD JUMPI PUSH1 0x1 PUSH1 0x1 PUSH1 0xA0 SHL SUB PUSH2 0x37A2 PUSH2 0x38DA JUMP JUMPDEST AND PUSH1 0x0 MSTORE PUSH1 0x13 PUSH1 0x20 MSTORE PUSH1 0x20 PUSH1 0x40 PUSH1 0x0 KECCAK256 SLOAD PUSH1 0x40 MLOAD SWAP1 DUP2 MSTORE RETURN JUMPDEST CALLVALUE PUSH2 0x3BD JUMPI PUSH1 0x0 CALLDATASIZE PUSH1 0x3 NOT ADD SLT PUSH2 0x3BD JUMPI PUSH1 0x40 MLOAD PUSH32 0x0 PUSH1 0x1 PUSH1 0x1 PUSH1 0xA0 SHL SUB AND DUP2 MSTORE PUSH1 0x20 SWAP1 RETURN JUMPDEST CALLVALUE PUSH2 0x3BD JUMPI PUSH1 0x20 CALLDATASIZE PUSH1 0x3 NOT ADD SLT PUSH2 0x3BD JUMPI PUSH2 0x3819 PUSH2 0x38DA JUMP JUMPDEST PUSH2 0x3821 PUSH2 0x495E JUMP JUMPDEST POP PUSH1 0x1 DUP1 PUSH1 0xA0 SHL SUB AND PUSH1 0x0 MSTORE PUSH1 0x5 PUSH1 0x20 MSTORE PUSH2 0x481 PUSH2 0x197A PUSH1 0x40 PUSH1 0x0 KECCAK256 PUSH2 0x49C7 JUMP JUMPDEST CALLVALUE PUSH2 0x3BD JUMPI PUSH1 0x0 CALLDATASIZE PUSH1 0x3 NOT ADD SLT PUSH2 0x3BD JUMPI PUSH1 0x40 MLOAD PUSH32 0x0 PUSH1 0x1 PUSH1 0x1 PUSH1 0xA0 SHL SUB AND DUP2 MSTORE PUSH1 0x20 SWAP1 RETURN JUMPDEST CALLVALUE PUSH2 0x3BD JUMPI PUSH1 0x20 CALLDATASIZE PUSH1 0x3 NOT ADD SLT PUSH2 0x3BD JUMPI PUSH1 0x4 CALLDATALOAD SWAP1 PUSH4 0xFFFFFFFF PUSH1 0xE0 SHL DUP3 AND DUP1 SWAP3 SUB PUSH2 0x3BD JUMPI PUSH1 0x20 SWAP2 PUSH4 0x7965DB0B PUSH1 0xE0 SHL DUP2 EQ SWAP1 DUP2 ISZERO PUSH2 0x38C9 JUMPI JUMPDEST POP ISZERO ISZERO DUP2 MSTORE RETURN JUMPDEST PUSH4 0x1FFC9A7 PUSH1 0xE0 SHL EQ SWAP1 POP DUP4 PUSH2 0x38C2 JUMP JUMPDEST PUSH1 0x4 CALLDATALOAD SWAP1 PUSH1 0x1 PUSH1 0x1 PUSH1 0xA0 SHL SUB DUP3 AND DUP3 SUB PUSH2 0x3BD JUMPI JUMP JUMPDEST PUSH1 0x24 CALLDATALOAD SWAP1 PUSH1 0x1 PUSH1 0x1 PUSH1 0xA0 SHL SUB DUP3 AND DUP3 SUB PUSH2 0x3BD JUMPI JUMP JUMPDEST PUSH1 0x0 JUMPDEST DUP4 DUP2 LT PUSH2 0x3919 JUMPI POP POP PUSH1 0x0 SWAP2 ADD MSTORE JUMP JUMPDEST DUP2 DUP2 ADD MLOAD DUP4 DUP3 ADD MSTORE PUSH1 0x20 ADD PUSH2 0x3909 JUMP JUMPDEST SWAP1 PUSH1 0x20 SWAP2 PUSH2 0x3942 DUP2 MLOAD DUP1 SWAP3 DUP2 DUP6 MSTORE DUP6 DUP1 DUP7 ADD SWAP2 ADD PUSH2 0x3906 JUMP JUMPDEST PUSH1 0x1F ADD PUSH1 0x1F NOT AND ADD ADD SWAP1 JUMP JUMPDEST SWAP1 DUP2 MLOAD DUP2 MSTORE PUSH1 0x1 PUSH1 0x1 PUSH1 0x40 SHL SUB DUP1 PUSH1 0x20 DUP5 ADD MLOAD AND PUSH1 0x20 DUP4 ADD MSTORE PUSH1 0x40 DUP4 ADD MLOAD PUSH1 0x40 DUP4 ADD MSTORE PUSH1 0x60 DUP4 ADD MLOAD PUSH1 0x60 DUP4 ADD MSTORE DUP1 PUSH1 0x80 DUP5 ADD MLOAD AND PUSH1 0x80 DUP4 ADD MSTORE DUP1 PUSH1 0xA0 DUP5 ADD MLOAD AND PUSH1 0xA0 DUP4 ADD MSTORE PUSH1 0xC0 DUP4 ADD MLOAD PUSH1 0xC0 DUP4 ADD MSTORE DUP1 PUSH1 0xE0 DUP5 ADD MLOAD AND PUSH1 0xE0 DUP4 ADD MSTORE PUSH2 0x100 DUP1 DUP5 ADD MLOAD SWAP1 DUP4 ADD MSTORE PUSH2 0x120 DUP1 DUP5 ADD MLOAD SWAP1 DUP4 ADD MSTORE PUSH2 0x140 PUSH1 0xFF DUP2 DUP6 ADD MLOAD AND SWAP1 DUP4 ADD MSTORE PUSH2 0x160 SWAP1 DUP2 DUP5 ADD MLOAD AND SWAP1 DUP3 ADD MSTORE PUSH2 0x39F5 PUSH2 0x180 DUP1 DUP5 ADD MLOAD SWAP1 PUSH2 0x1C0 DUP1 SWAP2 DUP6 ADD MSTORE DUP4 ADD SWAP1 PUSH2 0x3929 JUMP JUMPDEST PUSH2 0x1A0 SWAP3 DUP4 ADD MLOAD PUSH1 0x1 PUSH1 0x1 PUSH1 0xA0 SHL SUB AND SWAP2 SWAP1 SWAP3 ADD MSTORE SWAP1 JUMP JUMPDEST PUSH1 0x4 CALLDATALOAD SWAP1 PUSH1 0x1 PUSH1 0x1 PUSH1 0x40 SHL SUB DUP3 AND DUP3 SUB PUSH2 0x3BD JUMPI JUMP JUMPDEST PUSH1 0x24 CALLDATALOAD SWAP1 PUSH1 0x1 PUSH1 0x1 PUSH1 0x40 SHL SUB DUP3 AND DUP3 SUB PUSH2 0x3BD JUMPI JUMP JUMPDEST PUSH1 0x44 CALLDATALOAD SWAP1 PUSH1 0x1 PUSH1 0x1 PUSH1 0x40 SHL SUB DUP3 AND DUP3 SUB PUSH2 0x3BD JUMPI JUMP JUMPDEST SWAP1 PUSH1 0x1 DUP3 DUP2 SHR SWAP3 AND DUP1 ISZERO PUSH2 0x3A7F JUMPI JUMPDEST PUSH1 0x20 DUP4 LT EQ PUSH2 0x3A69 JUMPI JUMP JUMPDEST PUSH4 0x4E487B71 PUSH1 0xE0 SHL PUSH1 0x0 MSTORE PUSH1 0x22 PUSH1 0x4 MSTORE PUSH1 0x24 PUSH1 0x0 REVERT JUMPDEST SWAP2 PUSH1 0x7F AND SWAP2 PUSH2 0x3A5E JUMP JUMPDEST PUSH2 0x1C0 DUP2 ADD SWAP1 DUP2 LT PUSH1 0x1 PUSH1 0x1 PUSH1 0x40 SHL SUB DUP3 GT OR PUSH2 0xE16 JUMPI PUSH1 0x40 MSTORE JUMP JUMPDEST PUSH1 0x40 DUP2 ADD SWAP1 DUP2 LT PUSH1 0x1 PUSH1 0x1 PUSH1 0x40 SHL SUB DUP3 GT OR PUSH2 0xE16 JUMPI PUSH1 0x40 MSTORE JUMP JUMPDEST PUSH1 0x80 DUP2 ADD SWAP1 DUP2 LT PUSH1 0x1 PUSH1 0x1 PUSH1 0x40 SHL SUB DUP3 GT OR PUSH2 0xE16 JUMPI PUSH1 0x40 MSTORE JUMP JUMPDEST SWAP1 PUSH1 0x1F DUP1 NOT SWAP2 ADD AND DUP2 ADD SWAP1 DUP2 LT PUSH1 0x1 PUSH1 0x1 PUSH1 0x40 SHL SUB DUP3 GT OR PUSH2 0xE16 JUMPI PUSH1 0x40 MSTORE JUMP JUMPDEST SWAP1 PUSH1 0x40 MLOAD SWAP2 DUP3 PUSH1 0x0 DUP3 SLOAD SWAP3 PUSH2 0x3B10 DUP5 PUSH2 0x3A4F JUMP JUMPDEST SWAP1 DUP2 DUP5 MSTORE PUSH1 0x1 SWAP5 DUP6 DUP2 AND SWAP1 DUP2 PUSH1 0x0 EQ PUSH2 0x3B7F JUMPI POP PUSH1 0x1 EQ PUSH2 0x3B3C JUMPI JUMPDEST POP POP PUSH2 0x3B3A SWAP3 POP SUB DUP4 PUSH2 0x3ADB JUMP JUMPDEST JUMP JUMPDEST SWAP1 SWAP4 SWAP2 POP PUSH1 0x0 MSTORE PUSH1 0x20 SWAP1 DUP2 PUSH1 0x0 KECCAK256 SWAP4 PUSH1 0x0 SWAP2 JUMPDEST DUP2 DUP4 LT PUSH2 0x3B67 JUMPI POP POP PUSH2 0x3B3A SWAP4 POP DUP3 ADD ADD CODESIZE DUP1 PUSH2 0x3B2C JUMP JUMPDEST DUP6 SLOAD DUP9 DUP5 ADD DUP6 ADD MSTORE SWAP5 DUP6 ADD SWAP5 DUP8 SWAP5 POP SWAP2 DUP4 ADD SWAP2 PUSH2 0x3B4F JUMP JUMPDEST SWAP2 POP POP PUSH2 0x3B3A SWAP5 POP PUSH1 0x20 SWAP3 POP PUSH1 0xFF NOT AND DUP3 DUP5 ADD MSTORE ISZERO ISZERO PUSH1 0x5 SHL DUP3 ADD ADD CODESIZE DUP1 PUSH2 0x3B2C JUMP JUMPDEST SWAP3 SWAP2 SWAP3 PUSH1 0x1 PUSH1 0x1 PUSH1 0x40 SHL SUB DUP3 GT PUSH2 0xE16 JUMPI PUSH1 0x40 MLOAD SWAP2 PUSH2 0x3BCB PUSH1 0x1F DUP3 ADD PUSH1 0x1F NOT AND PUSH1 0x20 ADD DUP5 PUSH2 0x3ADB JUMP JUMPDEST DUP3 SWAP5 DUP2 DUP5 MSTORE DUP2 DUP4 ADD GT PUSH2 0x3BD JUMPI DUP3 DUP2 PUSH1 0x20 SWAP4 DUP5 PUSH1 0x0 SWAP7 ADD CALLDATACOPY ADD ADD MSTORE JUMP JUMPDEST SWAP1 DUP1 PUSH1 0x1F DUP4 ADD SLT ISZERO PUSH2 0x3BD JUMPI DUP2 PUSH1 0x20 PUSH2 0x3C03 SWAP4 CALLDATALOAD SWAP2 ADD PUSH2 0x3BA2 JUMP JUMPDEST SWAP1 JUMP JUMPDEST PUSH1 0x20 SWAP1 DUP2 PUSH1 0x40 DUP2 DUP4 ADD SWAP3 DUP3 DUP2 MSTORE DUP6 MLOAD DUP1 SWAP5 MSTORE ADD SWAP4 ADD SWAP2 PUSH1 0x0 JUMPDEST DUP3 DUP2 LT PUSH2 0x3C2D JUMPI POP POP POP POP SWAP1 JUMP JUMPDEST DUP4 MLOAD PUSH1 0x1 PUSH1 0x1 PUSH1 0xA0 SHL SUB AND DUP6 MSTORE SWAP4 DUP2 ADD SWAP4 SWAP3 DUP2 ADD SWAP3 PUSH1 0x1 ADD PUSH2 0x3C1F JUMP JUMPDEST PUSH1 0x1 PUSH1 0x1 PUSH1 0x40 SHL SUB DUP2 GT PUSH2 0xE16 JUMPI PUSH1 0x5 SHL PUSH1 0x20 ADD SWAP1 JUMP JUMPDEST DUP2 PUSH1 0x1F DUP3 ADD SLT ISZERO PUSH2 0x3BD JUMPI DUP1 CALLDATALOAD SWAP2 PUSH2 0x3C78 DUP4 PUSH2 0x3C4A JUMP JUMPDEST SWAP3 PUSH2 0x3C86 PUSH1 0x40 MLOAD SWAP5 DUP6 PUSH2 0x3ADB JUMP JUMPDEST DUP1 DUP5 MSTORE PUSH1 0x20 SWAP3 DUP4 DUP1 DUP7 ADD SWAP3 PUSH1 0x5 SHL DUP3 ADD ADD SWAP3 DUP4 GT PUSH2 0x3BD JUMPI DUP4 ADD SWAP1 JUMPDEST DUP3 DUP3 LT PUSH2 0x3CB0 JUMPI POP POP POP POP SWAP1 JUMP JUMPDEST DUP2 CALLDATALOAD PUSH1 0x1 PUSH1 0x1 PUSH1 0x40 SHL SUB DUP2 AND DUP2 SUB PUSH2 0x3BD JUMPI DUP2 MSTORE SWAP1 DUP4 ADD SWAP1 DUP4 ADD PUSH2 0x3CA2 JUMP JUMPDEST SWAP14 SWAP15 SWAP14 PUSH1 0xA0 DUP2 SWAP15 SWAP12 SWAP7 SWAP11 SWAP6 SWAP5 PUSH2 0x3D4D SWAP14 SWAP9 PUSH2 0x1A0 SWAP16 SWAP12 SWAP6 PUSH1 0xFF SWAP12 SWAP6 DUP6 MSTORE PUSH1 0x1 PUSH1 0x1 PUSH1 0x40 SHL SUB SWAP14 DUP15 SWAP9 DUP10 SWAP5 DUP6 DUP1 SWAP5 AND PUSH1 0x20 DUP10 ADD MSTORE PUSH1 0x40 DUP9 ADD MSTORE PUSH1 0x60 DUP8 ADD MSTORE AND PUSH1 0x80 DUP6 ADD MSTORE AND SWAP2 ADD MSTORE PUSH1 0xC0 DUP14 ADD MSTORE AND PUSH1 0xE0 DUP12 ADD MSTORE PUSH2 0x100 DUP11 ADD MSTORE PUSH2 0x120 DUP10 ADD MSTORE AND PUSH2 0x140 DUP8 ADD MSTORE AND PUSH2 0x160 DUP6 ADD MSTORE PUSH2 0x1C0 DUP1 PUSH2 0x180 DUP7 ADD MSTORE DUP5 ADD SWAP1 PUSH2 0x3929 JUMP JUMPDEST PUSH1 0x1 PUSH1 0x1 PUSH1 0xA0 SHL SUB SWAP1 SWAP5 AND SWAP2 ADD MSTORE JUMP JUMPDEST PUSH1 0x80 PUSH1 0x3 NOT DUP3 ADD SLT PUSH2 0x3BD JUMPI PUSH1 0x1 PUSH1 0x1 PUSH1 0x40 SHL SUB SWAP1 PUSH1 0x4 CALLDATALOAD DUP3 DUP2 AND DUP2 SUB PUSH2 0x3BD JUMPI SWAP3 PUSH1 0x24 CALLDATALOAD SWAP3 PUSH1 0x44 CALLDATALOAD SWAP3 PUSH1 0x64 CALLDATALOAD SWAP2 DUP3 GT PUSH2 0x3BD JUMPI PUSH2 0x3C03 SWAP2 PUSH1 0x4 ADD PUSH2 0x3BE8 JUMP JUMPDEST PUSH1 0x20 SWAP1 DUP2 PUSH1 0x40 DUP2 DUP4 ADD SWAP3 DUP3 DUP2 MSTORE DUP6 MLOAD DUP1 SWAP5 MSTORE ADD SWAP4 ADD SWAP2 PUSH1 0x0 JUMPDEST DUP3 DUP2 LT PUSH2 0x3DC4 JUMPI POP POP POP POP SWAP1 JUMP JUMPDEST DUP4 MLOAD DUP6 MSTORE SWAP4 DUP2 ADD SWAP4 SWAP3 DUP2 ADD SWAP3 PUSH1 0x1 ADD PUSH2 0x3DB6 JUMP JUMPDEST DUP1 SLOAD DUP3 LT ISZERO PUSH2 0x3DF0 JUMPI PUSH1 0x0 MSTORE PUSH1 0x20 PUSH1 0x0 KECCAK256 ADD SWAP1 PUSH1 0x0 SWAP1 JUMP JUMPDEST PUSH4 0x4E487B71 PUSH1 0xE0 SHL PUSH1 0x0 MSTORE PUSH1 0x32 PUSH1 0x4 MSTORE PUSH1 0x24 PUSH1 0x0 REVERT JUMPDEST SWAP12 SWAP9 SWAP4 SWAP3 PUSH1 0xFF SWAP7 SWAP14 SWAP15 SWAP14 DUP14 PUSH1 0x80 PUSH2 0x3D4D SWAP14 SWAP9 SWAP12 SWAP6 PUSH2 0x180 SWAP16 SWAP12 SWAP6 DUP4 MSTORE PUSH1 0x1 PUSH1 0x1 PUSH1 0x40 SHL SUB SWAP13 DUP14 SWAP9 DUP10 SWAP7 DUP8 DUP1 SWAP5 AND PUSH1 0x20 DUP8 ADD MSTORE PUSH1 0x40 DUP7 ADD MSTORE PUSH1 0x60 DUP6 ADD MSTORE AND SWAP2 ADD MSTORE AND PUSH1 0xA0 DUP14 ADD MSTORE PUSH1 0xC0 DUP13 ADD MSTORE AND PUSH1 0xE0 DUP11 ADD MSTORE PUSH2 0x100 DUP10 ADD MSTORE AND PUSH2 0x120 DUP8 ADD MSTORE AND PUSH2 0x140 DUP6 ADD MSTORE PUSH2 0x1A0 DUP1 PUSH2 0x160 DUP7 ADD MSTORE DUP5 ADD SWAP1 PUSH2 0x3929 JUMP JUMPDEST CALLER PUSH1 0x0 SWAP1 DUP2 MSTORE PUSH32 0x54FA744D02E0CD6FEB2B438B7701C241F85EF8AA84993C058C9ED46B60F00EDC PUSH1 0x20 SWAP1 DUP2 MSTORE PUSH1 0x40 DUP1 DUP4 KECCAK256 SLOAD SWAP1 SWAP3 PUSH32 0x21702C8AF46127C7FA207F89D0B0A8441BB32959A0AC7DF790E9AB1A25C98926 SWAP2 PUSH1 0x1 SWAP1 PUSH1 0xFF AND ISZERO PUSH2 0x3EE5 JUMPI POP POP POP POP POP JUMP JUMPDEST PUSH2 0x3EEE CALLER PUSH2 0x438C JUMP JUMPDEST SWAP3 DUP6 MLOAD SWAP2 PUSH2 0x3EFB DUP4 PUSH2 0x3AC0 JUMP JUMPDEST PUSH1 0x42 DUP4 MSTORE DUP6 DUP4 ADD SWAP4 PUSH1 0x60 CALLDATASIZE DUP7 CALLDATACOPY DUP4 MLOAD ISZERO PUSH2 0x4080 JUMPI PUSH1 0x30 DUP6 MSTORE8 DUP4 MLOAD DUP3 LT ISZERO PUSH2 0x4080 JUMPI SWAP1 PUSH1 0x78 PUSH1 0x21 DUP6 ADD MSTORE8 PUSH1 0x41 SWAP2 JUMPDEST DUP2 DUP4 GT PUSH2 0x4012 JUMPI POP POP POP PUSH2 0x3FD0 JUMPI PUSH1 0x48 PUSH2 0x2E76 SWAP4 DUP7 SWAP4 PUSH2 0x3FB4 SWAP4 PUSH2 0x3FA5 SWAP9 MLOAD SWAP9 DUP10 SWAP4 PUSH23 0x20B1B1B2B9B9A1B7B73A3937B61D1030B1B1B7BAB73A1 PUSH1 0x4D SHL DUP11 DUP7 ADD MSTORE PUSH2 0x3F7C DUP2 MLOAD DUP1 SWAP3 DUP13 PUSH1 0x37 DUP10 ADD SWAP2 ADD PUSH2 0x3906 JUMP JUMPDEST DUP5 ADD SWAP2 PUSH17 0x1034B99036B4B9B9B4B733903937B6329 PUSH1 0x7D SHL PUSH1 0x37 DUP5 ADD MSTORE MLOAD DUP1 SWAP4 DUP7 DUP5 ADD SWAP1 PUSH2 0x3906 JUMP JUMPDEST ADD SUB PUSH1 0x28 DUP2 ADD DUP8 MSTORE ADD DUP6 PUSH2 0x3ADB JUMP JUMPDEST MLOAD SWAP3 DUP4 SWAP3 PUSH3 0x461BCD PUSH1 0xE5 SHL DUP5 MSTORE PUSH1 0x4 DUP5 ADD MSTORE PUSH1 0x24 DUP4 ADD SWAP1 PUSH2 0x3929 JUMP JUMPDEST PUSH1 0x64 DUP5 DUP7 MLOAD SWAP1 PUSH3 0x461BCD PUSH1 0xE5 SHL DUP3 MSTORE DUP1 PUSH1 0x4 DUP4 ADD MSTORE PUSH1 0x24 DUP3 ADD MSTORE PUSH32 0x537472696E67733A20686578206C656E67746820696E73756666696369656E74 PUSH1 0x44 DUP3 ADD MSTORE REVERT JUMPDEST SWAP1 SWAP2 SWAP3 PUSH1 0xF DUP2 AND PUSH1 0x10 DUP2 LT ISZERO PUSH2 0x406C JUMPI PUSH16 0x181899199A1A9B1B9C1CB0B131B232B3 PUSH1 0x81 SHL SWAP1 BYTE PUSH2 0x4042 DUP6 DUP8 PUSH2 0x437B JUMP JUMPDEST MSTORE8 PUSH1 0x4 SHR SWAP3 DUP1 ISZERO PUSH2 0x4058 JUMPI PUSH1 0x0 NOT ADD SWAP2 SWAP1 PUSH2 0x3F28 JUMP JUMPDEST PUSH4 0x4E487B71 PUSH1 0xE0 SHL DUP3 MSTORE PUSH1 0x11 PUSH1 0x4 MSTORE PUSH1 0x24 DUP3 REVERT JUMPDEST PUSH4 0x4E487B71 PUSH1 0xE0 SHL DUP4 MSTORE PUSH1 0x32 PUSH1 0x4 MSTORE PUSH1 0x24 DUP4 REVERT JUMPDEST PUSH4 0x4E487B71 PUSH1 0xE0 SHL DUP2 MSTORE PUSH1 0x32 PUSH1 0x4 MSTORE PUSH1 0x24 SWAP1 REVERT JUMPDEST CALLER PUSH1 0x0 SWAP1 DUP2 MSTORE PUSH32 0xEB08EE940D1AC9662E9A9716182C59A5990CEF3B0E0128641FC5BDD20AC78A52 PUSH1 0x20 SWAP1 DUP2 MSTORE PUSH1 0x40 DUP1 DUP4 KECCAK256 SLOAD SWAP1 SWAP3 PUSH32 0x36FD43EDE163045B10E1F0ABD16F62F165FCE3FA7B6CDE217BCEA3BC47663ACC SWAP2 PUSH1 0x1 SWAP1 PUSH1 0xFF AND ISZERO PUSH2 0x40FC JUMPI POP POP POP POP POP JUMP JUMPDEST PUSH2 0x4105 CALLER PUSH2 0x438C JUMP JUMPDEST SWAP3 DUP6 MLOAD SWAP2 PUSH2 0x4112 DUP4 PUSH2 0x3AC0 JUMP JUMPDEST PUSH1 0x42 DUP4 MSTORE DUP6 DUP4 ADD SWAP4 PUSH1 0x60 CALLDATASIZE DUP7 CALLDATACOPY DUP4 MLOAD ISZERO PUSH2 0x4080 JUMPI PUSH1 0x30 DUP6 MSTORE8 DUP4 MLOAD DUP3 LT ISZERO PUSH2 0x4080 JUMPI SWAP1 PUSH1 0x78 PUSH1 0x21 DUP6 ADD MSTORE8 PUSH1 0x41 SWAP2 JUMPDEST DUP2 DUP4 GT PUSH2 0x4193 JUMPI POP POP POP PUSH2 0x3FD0 JUMPI PUSH1 0x48 PUSH2 0x2E76 SWAP4 DUP7 SWAP4 PUSH2 0x3FB4 SWAP4 PUSH2 0x3FA5 SWAP9 MLOAD SWAP9 DUP10 SWAP4 PUSH23 0x20B1B1B2B9B9A1B7B73A3937B61D1030B1B1B7BAB73A1 PUSH1 0x4D SHL DUP11 DUP7 ADD MSTORE PUSH2 0x3F7C DUP2 MLOAD DUP1 SWAP3 DUP13 PUSH1 0x37 DUP10 ADD SWAP2 ADD PUSH2 0x3906 JUMP JUMPDEST SWAP1 SWAP2 SWAP3 PUSH1 0xF DUP2 AND PUSH1 0x10 DUP2 LT ISZERO PUSH2 0x406C JUMPI PUSH16 0x181899199A1A9B1B9C1CB0B131B232B3 PUSH1 0x81 SHL SWAP1 BYTE PUSH2 0x41C3 DUP6 DUP8 PUSH2 0x437B JUMP JUMPDEST MSTORE8 PUSH1 0x4 SHR SWAP3 DUP1 ISZERO PUSH2 0x4058 JUMPI PUSH1 0x0 NOT ADD SWAP2 SWAP1 PUSH2 0x413F JUMP JUMPDEST PUSH1 0x0 DUP2 DUP2 MSTORE PUSH1 0x1 SWAP2 PUSH1 0x20 SWAP2 DUP4 DUP4 MSTORE PUSH1 0x40 SWAP4 DUP5 DUP3 KECCAK256 CALLER DUP4 MSTORE DUP5 MSTORE PUSH1 0xFF DUP6 DUP4 KECCAK256 SLOAD AND ISZERO PUSH2 0x4205 JUMPI POP POP POP POP POP JUMP JUMPDEST PUSH2 0x420E CALLER PUSH2 0x438C JUMP JUMPDEST SWAP3 DUP6 MLOAD SWAP2 PUSH2 0x421B DUP4 PUSH2 0x3AC0 JUMP JUMPDEST PUSH1 0x42 DUP4 MSTORE DUP6 DUP4 ADD SWAP4 PUSH1 0x60 CALLDATASIZE DUP7 CALLDATACOPY DUP4 MLOAD ISZERO PUSH2 0x4080 JUMPI PUSH1 0x30 DUP6 MSTORE8 DUP4 MLOAD DUP3 LT ISZERO PUSH2 0x4080 JUMPI SWAP1 PUSH1 0x78 PUSH1 0x21 DUP6 ADD MSTORE8 PUSH1 0x41 SWAP2 JUMPDEST DUP2 DUP4 GT PUSH2 0x429C JUMPI POP POP POP PUSH2 0x3FD0 JUMPI PUSH1 0x48 PUSH2 0x2E76 SWAP4 DUP7 SWAP4 PUSH2 0x3FB4 SWAP4 PUSH2 0x3FA5 SWAP9 MLOAD SWAP9 DUP10 SWAP4 PUSH23 0x20B1B1B2B9B9A1B7B73A3937B61D1030B1B1B7BAB73A1 PUSH1 0x4D SHL DUP11 DUP7 ADD MSTORE PUSH2 0x3F7C DUP2 MLOAD DUP1 SWAP3 DUP13 PUSH1 0x37 DUP10 ADD SWAP2 ADD PUSH2 0x3906 JUMP JUMPDEST SWAP1 SWAP2 SWAP3 PUSH1 0xF DUP2 AND PUSH1 0x10 DUP2 LT ISZERO PUSH2 0x406C JUMPI PUSH16 0x181899199A1A9B1B9C1CB0B131B232B3 PUSH1 0x81 SHL SWAP1 BYTE PUSH2 0x42CC DUP6 DUP8 PUSH2 0x437B JUMP JUMPDEST MSTORE8 PUSH1 0x4 SHR SWAP3 DUP1 ISZERO PUSH2 0x4058 JUMPI PUSH1 0x0 NOT ADD SWAP2 SWAP1 PUSH2 0x4248 JUMP JUMPDEST SWAP1 PUSH1 0x0 SWAP2 DUP1 DUP4 MSTORE PUSH1 0x1 PUSH1 0x20 MSTORE PUSH1 0x40 DUP4 KECCAK256 SWAP2 PUSH1 0x1 DUP1 PUSH1 0xA0 SHL SUB AND SWAP2 DUP3 DUP5 MSTORE PUSH1 0x20 MSTORE PUSH1 0xFF PUSH1 0x40 DUP5 KECCAK256 SLOAD AND PUSH2 0x4313 JUMPI POP POP POP JUMP JUMPDEST DUP1 DUP4 MSTORE PUSH1 0x1 PUSH1 0x20 MSTORE PUSH1 0x40 DUP4 KECCAK256 DUP3 DUP5 MSTORE PUSH1 0x20 MSTORE PUSH1 0x40 DUP4 KECCAK256 PUSH1 0xFF NOT DUP2 SLOAD AND SWAP1 SSTORE PUSH32 0xF6391F5C32D9C69D2A47EA670B442974B53935D1EDC7FD64EB21E047A839171B CALLER SWAP4 DUP1 LOG4 JUMP JUMPDEST SWAP2 SWAP1 DUP3 ADD DUP1 SWAP3 GT PUSH2 0x4365 JUMPI JUMP JUMPDEST PUSH4 0x4E487B71 PUSH1 0xE0 SHL PUSH1 0x0 MSTORE PUSH1 0x11 PUSH1 0x4 MSTORE PUSH1 0x24 PUSH1 0x0 REVERT JUMPDEST SWAP1 DUP2 MLOAD DUP2 LT ISZERO PUSH2 0x3DF0 JUMPI ADD PUSH1 0x20 ADD SWAP1 JUMP JUMPDEST PUSH1 0x40 MLOAD SWAP1 PUSH1 0x60 DUP3 ADD DUP3 DUP2 LT PUSH1 0x1 PUSH1 0x1 PUSH1 0x40 SHL SUB DUP3 GT OR PUSH2 0xE16 JUMPI PUSH1 0x40 MSTORE PUSH1 0x2A DUP3 MSTORE PUSH1 0x20 DUP3 ADD PUSH1 0x40 CALLDATASIZE DUP3 CALLDATACOPY DUP3 MLOAD ISZERO PUSH2 0x3DF0 JUMPI PUSH1 0x30 SWAP1 MSTORE8 DUP2 MLOAD PUSH1 0x1 SWAP1 DUP2 LT ISZERO PUSH2 0x3DF0 JUMPI PUSH1 0x78 PUSH1 0x21 DUP5 ADD MSTORE8 PUSH1 0x29 SWAP1 JUMPDEST DUP1 DUP3 GT PUSH2 0x442C JUMPI POP POP PUSH2 0x43E8 JUMPI SWAP1 JUMP JUMPDEST PUSH1 0x64 PUSH1 0x40 MLOAD PUSH3 0x461BCD PUSH1 0xE5 SHL DUP2 MSTORE PUSH1 0x20 PUSH1 0x4 DUP3 ADD MSTORE PUSH1 0x20 PUSH1 0x24 DUP3 ADD MSTORE PUSH32 0x537472696E67733A20686578206C656E67746820696E73756666696369656E74 PUSH1 0x44 DUP3 ADD MSTORE REVERT JUMPDEST SWAP1 SWAP2 PUSH1 0xF DUP2 AND PUSH1 0x10 DUP2 LT ISZERO PUSH2 0x4485 JUMPI PUSH16 0x181899199A1A9B1B9C1CB0B131B232B3 PUSH1 0x81 SHL SWAP1 BYTE PUSH2 0x445B DUP5 DUP7 PUSH2 0x437B JUMP JUMPDEST MSTORE8 PUSH1 0x4 SHR SWAP2 DUP1 ISZERO PUSH2 0x4470 JUMPI PUSH1 0x0 NOT ADD SWAP1 PUSH2 0x43D8 JUMP JUMPDEST PUSH1 0x24 PUSH1 0x0 PUSH4 0x4E487B71 PUSH1 0xE0 SHL DUP2 MSTORE PUSH1 0x11 PUSH1 0x4 MSTORE REVERT JUMPDEST PUSH1 0x24 PUSH1 0x0 PUSH4 0x4E487B71 PUSH1 0xE0 SHL DUP2 MSTORE PUSH1 0x32 PUSH1 0x4 MSTORE REVERT JUMPDEST PUSH1 0x1 PUSH1 0x1 PUSH1 0x40 SHL SUB DUP1 SWAP2 AND SWAP1 DUP2 EQ PUSH2 0x4365 JUMPI PUSH1 0x1 ADD SWAP1 JUMP JUMPDEST SWAP1 PUSH8 0xFFFFFFFFFFFFFFFF PUSH1 0x40 SHL DUP3 SLOAD SWAP2 PUSH1 0x40 SHL AND SWAP1 PUSH8 0xFFFFFFFFFFFFFFFF PUSH1 0x40 SHL NOT AND OR SWAP1 SSTORE JUMP JUMPDEST ISZERO PUSH2 0x44E1 JUMPI JUMP JUMPDEST PUSH1 0x40 MLOAD PUSH3 0x461BCD PUSH1 0xE5 SHL DUP2 MSTORE PUSH1 0x20 PUSH1 0x4 DUP3 ADD MSTORE PUSH1 0x10 PUSH1 0x24 DUP3 ADD MSTORE PUSH16 0x14DD589B995D081B9BDD08199BDD5B99 PUSH1 0x82 SHL PUSH1 0x44 DUP3 ADD MSTORE PUSH1 0x64 SWAP1 REVERT JUMPDEST ISZERO PUSH2 0x4520 JUMPI JUMP JUMPDEST PUSH1 0x40 MLOAD PUSH3 0x461BCD PUSH1 0xE5 SHL DUP2 MSTORE PUSH1 0x20 PUSH1 0x4 DUP3 ADD MSTORE PUSH1 0x13 PUSH1 0x24 DUP3 ADD MSTORE PUSH19 0x149959DA5CDD1C985D1A5BDB8818DB1BDCD959 PUSH1 0x6A SHL PUSH1 0x44 DUP3 ADD MSTORE PUSH1 0x64 SWAP1 REVERT JUMPDEST ISZERO PUSH2 0x4562 JUMPI JUMP JUMPDEST PUSH1 0x40 MLOAD PUSH3 0x461BCD PUSH1 0xE5 SHL DUP2 MSTORE PUSH1 0x20 PUSH1 0x4 DUP3 ADD MSTORE PUSH1 0x17 PUSH1 0x24 DUP3 ADD MSTORE PUSH32 0x496E73756666696369656E7420434F5245207374616B65000000000000000000 PUSH1 0x44 DUP3 ADD MSTORE PUSH1 0x64 SWAP1 REVERT JUMPDEST ISZERO PUSH2 0x45AE JUMPI JUMP JUMPDEST PUSH1 0x40 MLOAD PUSH3 0x461BCD PUSH1 0xE5 SHL DUP2 MSTORE PUSH1 0x20 PUSH1 0x4 DUP3 ADD MSTORE PUSH1 0x12 PUSH1 0x24 DUP3 ADD MSTORE PUSH18 0x105B1C9958591E481C9959DA5CDD195C9959 PUSH1 0x72 SHL PUSH1 0x44 DUP3 ADD MSTORE PUSH1 0x64 SWAP1 REVERT JUMPDEST SWAP1 DUP2 PUSH1 0x20 SWAP2 SUB SLT PUSH2 0x3BD JUMPI MLOAD DUP1 ISZERO ISZERO DUP2 SUB PUSH2 0x3BD JUMPI SWAP1 JUMP JUMPDEST SWAP2 SWAP1 DUP1 MLOAD DUP4 SSTORE PUSH1 0x1 SWAP3 DUP4 DUP2 ADD PUSH1 0x1 PUSH1 0x1 PUSH1 0x40 SHL SUB SWAP5 PUSH1 0x20 SWAP2 DUP7 DUP4 DUP7 ADD MLOAD AND SWAP1 PUSH1 0x1 PUSH1 0x1 PUSH1 0x40 SHL SUB NOT SWAP2 DUP3 DUP3 SLOAD AND OR SWAP1 SSTORE PUSH1 0x40 DUP6 ADD MLOAD PUSH1 0x2 DUP6 ADD SSTORE PUSH1 0x60 DUP6 ADD MLOAD PUSH1 0x3 DUP6 ADD SSTORE PUSH2 0x4666 PUSH1 0x4 DUP6 ADD DUP9 PUSH1 0x80 DUP9 ADD MLOAD AND DUP4 DUP3 SLOAD AND OR DUP2 SSTORE DUP9 PUSH1 0xA0 DUP9 ADD MLOAD AND SWAP1 PUSH2 0x44B2 JUMP JUMPDEST PUSH1 0xC0 DUP6 ADD MLOAD PUSH1 0x5 DUP6 ADD SSTORE PUSH1 0x6 DUP5 ADD SWAP1 DUP8 PUSH1 0xE0 DUP8 ADD MLOAD AND SWAP1 DUP3 SLOAD AND OR SWAP1 SSTORE PUSH2 0x100 DUP5 ADD MLOAD PUSH1 0x7 DUP5 ADD SSTORE PUSH2 0x120 DUP5 ADD MLOAD PUSH1 0x8 DUP5 ADD SSTORE PUSH1 0x9 DUP4 ADD PUSH1 0xFF PUSH2 0x140 DUP7 ADD MLOAD AND DUP2 SLOAD SWAP1 PUSH9 0xFFFFFFFFFFFFFFFF00 PUSH2 0x160 DUP9 ADD MLOAD PUSH1 0x8 SHL AND SWAP2 PUSH9 0xFFFFFFFFFFFFFFFFFF NOT AND OR OR SWAP1 SSTORE PUSH1 0xA DUP4 ADD SWAP2 PUSH2 0x180 DUP6 ADD MLOAD DUP1 MLOAD SWAP8 DUP9 GT PUSH2 0xE16 JUMPI PUSH2 0x46EC DUP5 SLOAD PUSH2 0x3A4F JUMP JUMPDEST PUSH1 0x1F DUP2 GT PUSH2 0x47C2 JUMPI JUMPDEST POP DUP2 PUSH1 0x1F DUP10 GT PUSH1 0x1 EQ PUSH2 0x475A JUMPI POP SWAP7 DUP1 SWAP3 DUP2 SWAP3 PUSH1 0xB SWAP8 SWAP9 SWAP10 PUSH1 0x0 SWAP5 PUSH2 0x474F JUMPI JUMPDEST POP POP SHL SWAP2 PUSH1 0x0 NOT SWAP1 PUSH1 0x3 SHL SHR NOT AND OR SWAP1 SSTORE JUMPDEST ADD SWAP1 PUSH2 0x1A0 PUSH1 0x1 DUP1 PUSH1 0xA0 SHL SUB SWAP2 ADD MLOAD AND PUSH12 0xFFFFFFFFFFFFFFFFFFFFFFFF PUSH1 0xA0 SHL DUP3 SLOAD AND OR SWAP1 SSTORE JUMP JUMPDEST ADD MLOAD SWAP3 POP CODESIZE DUP1 PUSH2 0x4715 JUMP JUMPDEST SWAP1 SWAP8 SWAP2 PUSH1 0x1F NOT DUP4 AND SWAP9 DUP6 PUSH1 0x0 MSTORE DUP3 PUSH1 0x0 KECCAK256 SWAP3 PUSH1 0x0 SWAP1 JUMPDEST DUP12 DUP3 LT PUSH2 0x47AB JUMPI POP POP DUP4 PUSH1 0xB SWAP9 SWAP10 SWAP11 LT PUSH2 0x4792 JUMPI JUMPDEST POP POP POP DUP2 SHL ADD SWAP1 SSTORE PUSH2 0x4727 JUMP JUMPDEST ADD MLOAD PUSH1 0x0 NOT PUSH1 0xF8 DUP5 PUSH1 0x3 SHL AND SHR NOT AND SWAP1 SSTORE CODESIZE DUP1 DUP1 PUSH2 0x4785 JUMP JUMPDEST DUP1 DUP8 DUP6 SWAP7 DUP3 SWAP5 SWAP7 DUP7 ADD MLOAD DUP2 SSTORE ADD SWAP6 ADD SWAP4 ADD SWAP1 PUSH2 0x4770 JUMP JUMPDEST PUSH1 0x0 DUP6 DUP2 MSTORE DUP4 DUP2 KECCAK256 PUSH1 0x1F DUP12 ADD PUSH1 0x5 SHR DUP2 ADD SWAP3 DUP6 DUP13 LT PUSH2 0x4801 JUMPI JUMPDEST PUSH1 0x1F ADD PUSH1 0x5 SHR ADD SWAP2 DUP6 SWAP1 JUMPDEST DUP4 DUP2 LT PUSH2 0x47F6 JUMPI POP POP POP PUSH2 0x46F5 JUMP JUMPDEST DUP3 DUP2 SSTORE ADD DUP6 SWAP1 PUSH2 0x47E7 JUMP JUMPDEST SWAP1 SWAP3 POP DUP3 SWAP1 PUSH2 0x47DC JUMP JUMPDEST DUP1 SLOAD PUSH1 0x1 PUSH1 0x40 SHL DUP2 LT ISZERO PUSH2 0xE16 JUMPI PUSH2 0x4828 SWAP2 PUSH1 0x1 DUP3 ADD DUP2 SSTORE PUSH2 0x3DD8 JUMP JUMPDEST DUP2 SWAP3 SWAP2 SLOAD SWAP1 PUSH1 0x3 SHL SWAP2 PUSH1 0x1 DUP1 PUSH1 0xA0 SHL SUB DUP1 SWAP2 AND DUP4 SHL SWAP3 SHL NOT AND OR SWAP1 SSTORE JUMP JUMPDEST PUSH4 0xFFFFFFFF DUP1 SWAP2 AND SWAP1 DUP2 EQ PUSH2 0x4365 JUMPI PUSH1 0x1 ADD SWAP1 JUMP JUMPDEST PUSH1 0x2 PUSH1 0x0 SLOAD EQ PUSH2 0x486C JUMPI PUSH1 0x2 PUSH1 0x0 SSTORE JUMP JUMPDEST PUSH1 0x40 MLOAD PUSH3 0x461BCD PUSH1 0xE5 SHL DUP2 MSTORE PUSH1 0x20 PUSH1 0x4 DUP3 ADD MSTORE PUSH1 0x1F PUSH1 0x24 DUP3 ADD MSTORE PUSH32 0x5265656E7472616E637947756172643A207265656E7472616E742063616C6C00 PUSH1 0x44 DUP3 ADD MSTORE PUSH1 0x64 SWAP1 REVERT JUMPDEST ISZERO PUSH2 0x48B8 JUMPI JUMP JUMPDEST PUSH1 0x40 MLOAD PUSH3 0x461BCD PUSH1 0xE5 SHL DUP2 MSTORE PUSH1 0x20 PUSH1 0x4 DUP3 ADD MSTORE PUSH1 0x17 PUSH1 0x24 DUP3 ADD MSTORE PUSH32 0x526F756E6420616C72656164792066696E616C697A6564000000000000000000 PUSH1 0x44 DUP3 ADD MSTORE PUSH1 0x64 SWAP1 REVERT JUMPDEST ISZERO PUSH2 0x4904 JUMPI JUMP JUMPDEST PUSH1 0x40 MLOAD PUSH3 0x461BCD PUSH1 0xE5 SHL DUP2 MSTORE PUSH1 0x20 PUSH1 0x4 DUP3 ADD MSTORE PUSH1 0xF PUSH1 0x24 DUP3 ADD MSTORE PUSH15 0x98CADCCEE8D040DAD2E6DAC2E8C6D PUSH1 0x8B SHL PUSH1 0x44 DUP3 ADD MSTORE PUSH1 0x64 SWAP1 REVERT JUMPDEST PUSH1 0x0 NOT DUP2 EQ PUSH2 0x4365 JUMPI PUSH1 0x1 ADD SWAP1 JUMP JUMPDEST DUP1 MLOAD DUP3 LT ISZERO PUSH2 0x3DF0 JUMPI PUSH1 0x20 SWAP2 PUSH1 0x5 SHL ADD ADD SWAP1 JUMP JUMPDEST PUSH1 0x40 MLOAD SWAP1 PUSH2 0x496B DUP3 PUSH2 0x3A89 JUMP JUMPDEST DUP2 PUSH2 0x1A0 PUSH1 0x0 SWAP2 DUP3 DUP2 MSTORE DUP3 PUSH1 0x20 DUP3 ADD MSTORE DUP3 PUSH1 0x40 DUP3 ADD MSTORE DUP3 PUSH1 0x60 DUP3 ADD MSTORE DUP3 PUSH1 0x80 DUP3 ADD MSTORE DUP3 PUSH1 0xA0 DUP3 ADD MSTORE DUP3 PUSH1 0xC0 DUP3 ADD MSTORE DUP3 PUSH1 0xE0 DUP3 ADD MSTORE DUP3 PUSH2 0x100 DUP3 ADD MSTORE DUP3 PUSH2 0x120 DUP3 ADD MSTORE DUP3 PUSH2 0x140 DUP3 ADD MSTORE DUP3 PUSH2 0x160 DUP3 ADD MSTORE PUSH1 0x60 PUSH2 0x180 DUP3 ADD MSTORE ADD MSTORE JUMP JUMPDEST SWAP1 PUSH1 0x40 MLOAD PUSH2 0x49D4 DUP2 PUSH2 0x3A89 JUMP JUMPDEST PUSH2 0x1A0 DUP2 SWAP4 DUP1 SLOAD DUP4 MSTORE PUSH1 0x1 PUSH1 0x1 PUSH1 0x40 SHL SUB DUP1 PUSH1 0x1 DUP4 ADD SLOAD AND PUSH1 0x20 DUP6 ADD MSTORE PUSH1 0x2 DUP3 ADD SLOAD PUSH1 0x40 DUP6 ADD MSTORE PUSH1 0x3 DUP3 ADD SLOAD PUSH1 0x60 DUP6 ADD MSTORE DUP1 PUSH1 0x4 DUP4 ADD SLOAD DUP2 DUP2 AND PUSH1 0x80 DUP8 ADD MSTORE PUSH1 0x40 SHR AND PUSH1 0xA0 DUP6 ADD MSTORE PUSH1 0x5 DUP3 ADD SLOAD PUSH1 0xC0 DUP6 ADD MSTORE DUP1 PUSH1 0x6 DUP4 ADD SLOAD AND PUSH1 0xE0 DUP6 ADD MSTORE PUSH1 0x7 DUP3 ADD SLOAD PUSH2 0x100 DUP6 ADD MSTORE PUSH1 0x8 DUP3 ADD SLOAD PUSH2 0x120 DUP6 ADD MSTORE PUSH1 0x9 DUP3 ADD SLOAD PUSH1 0xFF DUP2 AND PUSH2 0x140 DUP7 ADD MSTORE PUSH1 0x8 SHR AND PUSH2 0x160 DUP5 ADD MSTORE PUSH2 0x4A6D PUSH1 0xA DUP3 ADD PUSH2 0x3AFC JUMP JUMPDEST PUSH2 0x180 DUP5 ADD MSTORE PUSH1 0xB ADD SLOAD PUSH1 0x1 PUSH1 0x1 PUSH1 0xA0 SHL SUB AND SWAP2 ADD MSTORE JUMP JUMPDEST PUSH1 0x9 PUSH1 0x20 SWAP1 DUP2 MSTORE PUSH1 0x40 DUP1 MLOAD PUSH32 0xEC8156718A8372B1DB44BB411437D0870F3E3790D4A08526D024CE1B0B668F6B DUP1 SLOAD DUP1 DUP4 MSTORE PUSH1 0x0 SWAP2 DUP3 MSTORE SWAP3 SWAP6 PUSH1 0x60 SWAP5 SWAP1 SWAP4 SWAP1 SWAP3 SWAP2 SWAP1 PUSH32 0x67EF11C6B6E72BED28DF18C3C4B2E4BABB6F289ABC7D1EDC03515DEAFA274CE SWAP1 DUP4 SWAP1 DUP2 DUP7 ADD SWAP1 DUP5 JUMPDEST DUP8 DUP3 DUP3 LT PUSH2 0x4C0F JUMPI POP POP POP PUSH2 0x4B07 SWAP3 POP SUB DUP4 PUSH2 0x3ADB JUMP JUMPDEST DUP1 JUMPDEST DUP3 MLOAD DUP2 LT ISZERO PUSH2 0x4BD9 JUMPI PUSH1 0x1 PUSH1 0x1 PUSH1 0xA0 SHL SUB DUP1 PUSH2 0x4B25 DUP4 DUP7 PUSH2 0x494A JUMP JUMPDEST MLOAD AND DUP4 MSTORE DUP9 PUSH1 0x5 DUP1 DUP8 MSTORE DUP10 DUP3 DUP7 KECCAK256 SLOAD EQ PUSH2 0x4B4A JUMPI POP POP POP PUSH2 0x4B45 SWAP1 PUSH2 0x493B JUMP JUMPDEST PUSH2 0x4B09 JUMP JUMPDEST SWAP2 SWAP6 SWAP7 SWAP8 SWAP9 POP SWAP3 SWAP2 PUSH2 0x4B60 DUP7 SWAP2 PUSH2 0x4B6C SWAP7 PUSH2 0x494A JUMP JUMPDEST MLOAD AND DUP3 MSTORE DUP6 MSTORE KECCAK256 PUSH2 0x49C7 JUMP JUMPDEST DUP1 MLOAD PUSH1 0x1 PUSH1 0x1 PUSH1 0x40 SHL SUB DUP1 SWAP5 DUP4 ADD MLOAD AND SWAP7 DUP3 ADD MLOAD SWAP6 DUP3 ADD MLOAD SWAP5 DUP5 PUSH1 0x80 DUP5 ADD MLOAD AND SWAP5 DUP1 PUSH1 0xA0 DUP6 ADD MLOAD AND SWAP5 PUSH1 0xC0 DUP6 ADD MLOAD SWAP5 DUP3 PUSH1 0xE0 DUP3 ADD MLOAD AND SWAP5 PUSH2 0x100 DUP3 ADD MLOAD SWAP5 PUSH1 0xFF PUSH2 0x140 DUP5 ADD MLOAD AND SWAP5 PUSH2 0x160 DUP5 ADD MLOAD AND SWAP4 PUSH2 0x1A0 PUSH2 0x180 DUP6 ADD MLOAD SWAP5 ADD MLOAD AND SWAP2 SWAP13 SWAP12 SWAP11 SWAP10 SWAP9 SWAP8 SWAP7 SWAP6 SWAP5 SWAP4 SWAP3 SWAP2 SWAP1 JUMP JUMPDEST DUP8 MLOAD PUSH3 0x461BCD PUSH1 0xE5 SHL DUP2 MSTORE PUSH1 0x20 PUSH1 0x4 DUP3 ADD MSTORE PUSH1 0xF PUSH1 0x24 DUP3 ADD MSTORE PUSH15 0x135A5B995C881B9BDD08199BDD5B99 PUSH1 0x8A SHL PUSH1 0x44 DUP3 ADD MSTORE PUSH1 0x64 SWAP1 REVERT JUMPDEST DUP6 SLOAD PUSH1 0x1 PUSH1 0x1 PUSH1 0xA0 SHL SUB AND DUP5 MSTORE PUSH1 0x1 SWAP6 DUP7 ADD SWAP6 DUP9 SWAP6 POP SWAP4 ADD SWAP3 ADD PUSH2 0x4AF0 JUMP JUMPDEST PUSH1 0xA PUSH1 0x20 SWAP1 DUP2 MSTORE PUSH1 0x40 DUP1 MLOAD PUSH32 0x13DA86008BA1C6922DAEE3E07DB95305EF49EBCED9F5467A0B8613FCC6B343E3 DUP1 SLOAD DUP1 DUP4 MSTORE PUSH1 0x0 SWAP2 DUP3 MSTORE SWAP3 SWAP6 PUSH1 0x60 SWAP5 SWAP1 SWAP4 SWAP1 SWAP3 SWAP2 SWAP1 PUSH32 0xE53A0B972C470F18F842C35C712F9B9BEAAC1E8E838C1BA491D0D478900E81CA SWAP1 DUP4 SWAP1 DUP2 DUP7 ADD SWAP1 DUP5 JUMPDEST DUP8 DUP3 DUP3 LT PUSH2 0x4D2D JUMPI POP POP POP PUSH2 0x4CB0 SWAP3 POP SUB DUP4 PUSH2 0x3ADB JUMP JUMPDEST DUP1 JUMPDEST DUP3 MLOAD DUP2 LT ISZERO PUSH2 0x4CF3 JUMPI PUSH1 0x1 PUSH1 0x1 PUSH1 0xA0 SHL SUB DUP1 PUSH2 0x4CCE DUP4 DUP7 PUSH2 0x494A JUMP JUMPDEST MLOAD AND DUP4 MSTORE DUP9 PUSH1 0x6 DUP1 DUP8 MSTORE DUP10 DUP3 DUP7 KECCAK256 SLOAD EQ PUSH2 0x4B4A JUMPI POP POP POP PUSH2 0x4CEE SWAP1 PUSH2 0x493B JUMP JUMPDEST PUSH2 0x4CB2 JUMP JUMPDEST DUP8 MLOAD PUSH3 0x461BCD PUSH1 0xE5 SHL DUP2 MSTORE PUSH1 0x20 PUSH1 0x4 DUP3 ADD MSTORE PUSH1 0x13 PUSH1 0x24 DUP3 ADD MSTORE PUSH19 0x15985B1A59185D1BDC881B9BDD08199BDD5B99 PUSH1 0x6A SHL PUSH1 0x44 DUP3 ADD MSTORE PUSH1 0x64 SWAP1 REVERT JUMPDEST DUP6 SLOAD PUSH1 0x1 PUSH1 0x1 PUSH1 0xA0 SHL SUB AND DUP5 MSTORE PUSH1 0x1 SWAP6 DUP7 ADD SWAP6 DUP9 SWAP6 POP SWAP4 ADD SWAP3 ADD PUSH2 0x4C99 JUMP JUMPDEST SWAP1 PUSH2 0x4D56 DUP3 PUSH2 0x3C4A JUMP JUMPDEST PUSH2 0x4D63 PUSH1 0x40 MLOAD SWAP2 DUP3 PUSH2 0x3ADB JUMP JUMPDEST DUP3 DUP2 MSTORE DUP1 SWAP3 PUSH2 0x4D74 PUSH1 0x1F NOT SWAP2 PUSH2 0x3C4A JUMP JUMPDEST ADD SWAP1 PUSH1 0x20 CALLDATASIZE SWAP2 ADD CALLDATACOPY JUMP JUMPDEST ISZERO PUSH2 0x4D85 JUMPI JUMP JUMPDEST PUSH1 0x40 MLOAD PUSH3 0x461BCD PUSH1 0xE5 SHL DUP2 MSTORE PUSH1 0x20 PUSH1 0x4 DUP3 ADD MSTORE PUSH1 0xF PUSH1 0x24 DUP3 ADD MSTORE PUSH15 0x135A5B995C881B9BDD08199BDD5B99 PUSH1 0x8A SHL PUSH1 0x44 DUP3 ADD MSTORE PUSH1 0x64 SWAP1 REVERT JUMPDEST ISZERO PUSH2 0x4DC3 JUMPI JUMP JUMPDEST PUSH1 0x40 MLOAD PUSH3 0x461BCD PUSH1 0xE5 SHL DUP2 MSTORE PUSH1 0x20 PUSH1 0x4 DUP3 ADD MSTORE PUSH1 0x13 PUSH1 0x24 DUP3 ADD MSTORE PUSH19 0x496E76616C696420706572666F726D616E6365 PUSH1 0x68 SHL PUSH1 0x44 DUP3 ADD MSTORE PUSH1 0x64 SWAP1 REVERT JUMPDEST ISZERO PUSH2 0x4E05 JUMPI JUMP JUMPDEST PUSH1 0x40 MLOAD PUSH3 0x461BCD PUSH1 0xE5 SHL DUP2 MSTORE PUSH1 0x20 PUSH1 0x4 DUP3 ADD MSTORE PUSH1 0x13 PUSH1 0x24 DUP3 ADD MSTORE PUSH19 0x496E76616C69642074727573742073636F7265 PUSH1 0x68 SHL PUSH1 0x44 DUP3 ADD MSTORE PUSH1 0x64 SWAP1 REVERT JUMPDEST SWAP1 DUP1 ISZERO PUSH2 0x4E8B JUMPI PUSH2 0x3E8 SWAP2 DUP3 DUP2 MUL SWAP1 DUP1 DUP3 DIV DUP5 EQ SWAP1 ISZERO OR ISZERO PUSH2 0x4365 JUMPI DIV DUP2 DUP2 LT PUSH2 0x4E6C JUMPI POP POP PUSH2 0x7D0 SWAP1 JUMP JUMPDEST PUSH2 0x1F4 DUP2 LT PUSH2 0x4E7D JUMPI POP POP PUSH2 0x5DC SWAP1 JUMP JUMPDEST PUSH1 0x64 GT PUSH2 0x3C03 JUMPI POP PUSH2 0x4B0 SWAP1 JUMP JUMPDEST POP POP PUSH2 0x3E8 SWAP1 JUMP INVALID MOD EXP AND 0xD1 0x2D 0xD 0xFC PUSH23 0xA33A2D280E8544990981E010744DB7750FEB63A17041C5 PUSH18 0xA26469706673582212204310CB21634CB2B6 0xDE 0xEE 0x26 CREATE SLT 0xE6 0x4D 0x4B SWAP7 MSIZE 0xBD 0x22 ADDMOD EXP SWAP13 0x24 LOG3 0xFC 0xCA 0xEF COINBASE 0x4B PUSH22 0x6364736F6C634300081300332F8788117E7EFF1D82E9 0x26 0xEC PUSH26 0x4901D17C78024A50270940304540A733656F0DA6EEF7E35ABE70 0x26 PUSH19 0x9641147F7915573C7E97B47EFA546F5F6E3230 0x26 EXTCODESIZE 0xCB 0x49 "},"methodIdentifiers":{"BASE_TIER_MULTIPLIER()":"cf616c93","BOOST_TIER_MULTIPLIER()":"92ef70da","CONSENSUS_ROLE()":"fa2dabad","DEFAULT_ADMIN_ROLE()":"a217fddf","DIVISOR()":"3410fe6e","DIVISOR_64()":"37a9d4fb","GOVERNANCE_ROLE()":"f36c8f5c","IMMUNITY_PERIOD()":"9d144554","MAX_REPUTATION()":"d213c0f2","MAX_SUBNET_UID()":"c3223656","SATOSHI_TIER_MULTIPLIER()":"92e58c75","STATUS_ACTIVE()":"4389cc22","STATUS_INACTIVE()":"02429742","STATUS_JAILED()":"2ac9fcf9","SUBNET_OWNER_ROLE()":"2ccd0e3e","SUPER_TIER_MULTIPLIER()":"3843bc22","VALIDATOR_ROLE()":"c49baebe","bitcoinStakeProofs(address)":"f44df8a8","btcToken()":"074bc101","consensusRounds(uint64)":"51c95e73","coreToken()":"0c2b72e9","createSubnet(string,string,uint32,uint32,uint256,uint256)":"19cd66f3","currentConsensusRound()":"38699443","currentEpoch()":"76671808","emissionRates(uint64)":"3fb6dcb3","finalizeConsensusRound(uint64,bytes32)":"fb20817a","getActiveMinerUids()":"f8ce3dd9","getActiveValidatorUids()":"b8046aaf","getMinerData(uint256)":"f538f7f3","getMinerInfo(address)":"0b34d553","getNetworkStats()":"4a662f48","getRoleAdmin(bytes32)":"248a9ca3","getSubnetMiners(uint64)":"a7547022","getSubnetValidators(uint64)":"4419dd10","getTrustScores(uint64)":"8a536346","getValidatorData(uint256)":"c0951451","getValidatorInfo(address)":"8a11d7c9","grantRole(bytes32,address)":"2f2ff15d","hasBitcoinStake(address)":"63cc5ef2","hasRole(bytes32,address)":"91d14854","incentiveWeights(uint64,address)":"a81a7c8b","minerEndpoints(address)":"6888f0c7","minerToSubnet(address)":"20857e1c","miners(address)":"648ec7b9","nextSubnetId()":"d929ff05","registerBitcoinStake(uint256,bytes32,bytes)":"823753bf","registerMiner(uint64,uint256,uint256,string)":"6f9e03b4","registerValidator(uint64,uint256,uint256,string)":"96fd4a1e","renounceRole(bytes32,address)":"36568abe","revokeRole(bytes32,address)":"d547741f","stakingTierMultipliers(address)":"0f71d74d","startConsensusRound(uint64)":"2c0db471","submitConsensusResults(uint64,address[],uint64[],uint64[],uint256[])":"64856c77","subnetDynamic(uint64)":"ebfd4af0","subnetMiners(uint64,uint256)":"df656763","subnetStatic(uint64)":"155aef5f","subnetValidators(uint64,uint256)":"bff4eb25","supportsInterface(bytes4)":"01ffc9a7","totalBitcoinStake()":"f4916cc9","totalNetworkStake()":"5a2a5b9a","trustScores(uint64,address)":"854ee3b8","updateMinerEndpoint(string)":"6ba56725","updateMinerPerformance(uint256,uint64,uint64)":"92cc068d","updateMinerScores(address,uint64,uint64)":"b01c4bcd","updateValidatorEndpoint(string)":"9996eb8f","updateValidatorScores(address,uint64,uint64)":"2b8c394d","validatorEndpoints(address)":"3c0f86e1","validatorToSubnet(address)":"26c97eae","validators(address)":"fa52c7d8"}}}}}