{
  "_format": "hh-sol-artifact-1",
  "contractName": "ModernTensor",
  "sourceName": "contracts/ModernTensor.sol",
  "abi": [
    {
      "inputs": [
        {
          "internalType": "address",
          "name": "_coreToken",
          "type": "address"
        },
        {
          "internalType": "address",
          "name": "_btcToken",
          "type": "address"
        },
        {
          "internalType": "uint256",
          "name": "_minMinerStake",
          "type": "uint256"
        },
        {
          "internalType": "uint256",
          "name": "_minValidatorStake",
          "type": "uint256"
        }
      ],
      "stateMutability": "nonpayable",
      "type": "constructor"
    },
    {
      "anonymous": false,
      "inputs": [
        {
          "indexed": true,
          "internalType": "address",
          "name": "staker",
          "type": "address"
        },
        {
          "indexed": false,
          "internalType": "uint256",
          "name": "amount",
          "type": "uint256"
        },
        {
          "indexed": false,
          "internalType": "bytes32",
          "name": "proofHash",
          "type": "bytes32"
        }
      ],
      "name": "BitcoinStakeRegistered",
      "type": "event"
    },
    {
      "anonymous": false,
      "inputs": [
        {
          "indexed": true,
          "internalType": "uint64",
          "name": "subnetId",
          "type": "uint64"
        },
        {
          "indexed": false,
          "internalType": "uint64",
          "name": "epoch",
          "type": "uint64"
        },
        {
          "indexed": false,
          "internalType": "bytes32",
          "name": "consensusHash",
          "type": "bytes32"
        }
      ],
      "name": "ConsensusReached",
      "type": "event"
    },
    {
      "anonymous": false,
      "inputs": [
        {
          "indexed": true,
          "internalType": "uint64",
          "name": "roundId",
          "type": "uint64"
        },
        {
          "indexed": false,
          "internalType": "bytes32",
          "name": "consensusHash",
          "type": "bytes32"
        }
      ],
      "name": "ConsensusRoundFinalized",
      "type": "event"
    },
    {
      "anonymous": false,
      "inputs": [
        {
          "indexed": true,
          "internalType": "uint64",
          "name": "roundId",
          "type": "uint64"
        },
        {
          "indexed": true,
          "internalType": "uint64",
          "name": "epoch",
          "type": "uint64"
        }
      ],
      "name": "ConsensusRoundStarted",
      "type": "event"
    },
    {
      "anonymous": false,
      "inputs": [
        {
          "indexed": true,
          "internalType": "address",
          "name": "entity",
          "type": "address"
        },
        {
          "indexed": false,
          "internalType": "string",
          "name": "newEndpoint",
          "type": "string"
        }
      ],
      "name": "EndpointUpdated",
      "type": "event"
    },
    {
      "anonymous": false,
      "inputs": [
        {
          "indexed": true,
          "internalType": "uint64",
          "name": "subnetId",
          "type": "uint64"
        },
        {
          "indexed": true,
          "internalType": "address",
          "name": "recipient",
          "type": "address"
        },
        {
          "indexed": false,
          "internalType": "uint256",
          "name": "amount",
          "type": "uint256"
        }
      ],
      "name": "IncentiveDistributed",
      "type": "event"
    },
    {
      "anonymous": false,
      "inputs": [
        {
          "indexed": true,
          "internalType": "address",
          "name": "minerAddr",
          "type": "address"
        },
        {
          "indexed": false,
          "internalType": "string",
          "name": "reason",
          "type": "string"
        }
      ],
      "name": "MetagraphUpdateSkipped",
      "type": "event"
    },
    {
      "anonymous": false,
      "inputs": [
        {
          "indexed": true,
          "internalType": "address",
          "name": "validator",
          "type": "address"
        },
        {
          "indexed": false,
          "internalType": "uint256",
          "name": "totalMiners",
          "type": "uint256"
        },
        {
          "indexed": false,
          "internalType": "uint256",
          "name": "successCount",
          "type": "uint256"
        },
        {
          "indexed": false,
          "internalType": "uint64",
          "name": "updateTime",
          "type": "uint64"
        }
      ],
      "name": "MetagraphUpdated",
      "type": "event"
    },
    {
      "anonymous": false,
      "inputs": [
        {
          "indexed": true,
          "internalType": "address",
          "name": "validator",
          "type": "address"
        },
        {
          "indexed": true,
          "internalType": "uint64",
          "name": "roundId",
          "type": "uint64"
        },
        {
          "indexed": false,
          "internalType": "uint256",
          "name": "totalMiners",
          "type": "uint256"
        },
        {
          "indexed": false,
          "internalType": "uint256",
          "name": "successCount",
          "type": "uint256"
        },
        {
          "indexed": false,
          "internalType": "uint64",
          "name": "updateTime",
          "type": "uint64"
        }
      ],
      "name": "MetagraphUpdatedWithConsensus",
      "type": "event"
    },
    {
      "anonymous": false,
      "inputs": [
        {
          "indexed": true,
          "internalType": "address",
          "name": "miner",
          "type": "address"
        },
        {
          "indexed": true,
          "internalType": "uint64",
          "name": "subnetId",
          "type": "uint64"
        },
        {
          "indexed": false,
          "internalType": "bytes32",
          "name": "uid",
          "type": "bytes32"
        }
      ],
      "name": "MinerRegistered",
      "type": "event"
    },
    {
      "anonymous": false,
      "inputs": [
        {
          "indexed": true,
          "internalType": "address",
          "name": "miner",
          "type": "address"
        },
        {
          "indexed": true,
          "internalType": "bytes32",
          "name": "uid",
          "type": "bytes32"
        },
        {
          "indexed": false,
          "internalType": "uint64",
          "name": "newPerformance",
          "type": "uint64"
        },
        {
          "indexed": false,
          "internalType": "uint64",
          "name": "newTrustScore",
          "type": "uint64"
        }
      ],
      "name": "MinerScoreUpdated",
      "type": "event"
    },
    {
      "anonymous": false,
      "inputs": [
        {
          "indexed": true,
          "internalType": "bytes32",
          "name": "role",
          "type": "bytes32"
        },
        {
          "indexed": true,
          "internalType": "bytes32",
          "name": "previousAdminRole",
          "type": "bytes32"
        },
        {
          "indexed": true,
          "internalType": "bytes32",
          "name": "newAdminRole",
          "type": "bytes32"
        }
      ],
      "name": "RoleAdminChanged",
      "type": "event"
    },
    {
      "anonymous": false,
      "inputs": [
        {
          "indexed": true,
          "internalType": "bytes32",
          "name": "role",
          "type": "bytes32"
        },
        {
          "indexed": true,
          "internalType": "address",
          "name": "account",
          "type": "address"
        },
        {
          "indexed": true,
          "internalType": "address",
          "name": "sender",
          "type": "address"
        }
      ],
      "name": "RoleGranted",
      "type": "event"
    },
    {
      "anonymous": false,
      "inputs": [
        {
          "indexed": true,
          "internalType": "bytes32",
          "name": "role",
          "type": "bytes32"
        },
        {
          "indexed": true,
          "internalType": "address",
          "name": "account",
          "type": "address"
        },
        {
          "indexed": true,
          "internalType": "address",
          "name": "sender",
          "type": "address"
        }
      ],
      "name": "RoleRevoked",
      "type": "event"
    },
    {
      "anonymous": false,
      "inputs": [
        {
          "indexed": true,
          "internalType": "uint64",
          "name": "subnetId",
          "type": "uint64"
        },
        {
          "indexed": false,
          "internalType": "string",
          "name": "name",
          "type": "string"
        },
        {
          "indexed": false,
          "internalType": "address",
          "name": "owner",
          "type": "address"
        }
      ],
      "name": "SubnetCreated",
      "type": "event"
    },
    {
      "anonymous": false,
      "inputs": [
        {
          "indexed": true,
          "internalType": "uint64",
          "name": "subnetId",
          "type": "uint64"
        },
        {
          "indexed": true,
          "internalType": "address",
          "name": "miner",
          "type": "address"
        },
        {
          "indexed": false,
          "internalType": "uint64",
          "name": "newScore",
          "type": "uint64"
        }
      ],
      "name": "TrustScoreUpdated",
      "type": "event"
    },
    {
      "anonymous": false,
      "inputs": [
        {
          "indexed": true,
          "internalType": "address",
          "name": "validator",
          "type": "address"
        },
        {
          "indexed": true,
          "internalType": "uint64",
          "name": "subnetId",
          "type": "uint64"
        },
        {
          "indexed": false,
          "internalType": "bytes32",
          "name": "uid",
          "type": "bytes32"
        }
      ],
      "name": "ValidatorRegistered",
      "type": "event"
    },
    {
      "anonymous": false,
      "inputs": [
        {
          "indexed": true,
          "internalType": "address",
          "name": "validator",
          "type": "address"
        },
        {
          "indexed": true,
          "internalType": "bytes32",
          "name": "uid",
          "type": "bytes32"
        },
        {
          "indexed": false,
          "internalType": "uint64",
          "name": "newPerformance",
          "type": "uint64"
        },
        {
          "indexed": false,
          "internalType": "uint64",
          "name": "newTrustScore",
          "type": "uint64"
        }
      ],
      "name": "ValidatorScoreUpdated",
      "type": "event"
    },
    {
      "inputs": [],
      "name": "BASE_TIER_MULTIPLIER",
      "outputs": [
        {
          "internalType": "uint256",
          "name": "",
          "type": "uint256"
        }
      ],
      "stateMutability": "view",
      "type": "function"
    },
    {
      "inputs": [],
      "name": "BOOST_TIER_MULTIPLIER",
      "outputs": [
        {
          "internalType": "uint256",
          "name": "",
          "type": "uint256"
        }
      ],
      "stateMutability": "view",
      "type": "function"
    },
    {
      "inputs": [],
      "name": "CONSENSUS_ROLE",
      "outputs": [
        {
          "internalType": "bytes32",
          "name": "",
          "type": "bytes32"
        }
      ],
      "stateMutability": "view",
      "type": "function"
    },
    {
      "inputs": [],
      "name": "DEFAULT_ADMIN_ROLE",
      "outputs": [
        {
          "internalType": "bytes32",
          "name": "",
          "type": "bytes32"
        }
      ],
      "stateMutability": "view",
      "type": "function"
    },
    {
      "inputs": [],
      "name": "DIVISOR",
      "outputs": [
        {
          "internalType": "uint256",
          "name": "",
          "type": "uint256"
        }
      ],
      "stateMutability": "view",
      "type": "function"
    },
    {
      "inputs": [],
      "name": "DIVISOR_64",
      "outputs": [
        {
          "internalType": "uint64",
          "name": "",
          "type": "uint64"
        }
      ],
      "stateMutability": "view",
      "type": "function"
    },
    {
      "inputs": [],
      "name": "GOVERNANCE_ROLE",
      "outputs": [
        {
          "internalType": "bytes32",
          "name": "",
          "type": "bytes32"
        }
      ],
      "stateMutability": "view",
      "type": "function"
    },
    {
      "inputs": [],
      "name": "IMMUNITY_PERIOD",
      "outputs": [
        {
          "internalType": "uint32",
          "name": "",
          "type": "uint32"
        }
      ],
      "stateMutability": "view",
      "type": "function"
    },
    {
      "inputs": [],
      "name": "MAX_REPUTATION",
      "outputs": [
        {
          "internalType": "uint16",
          "name": "",
          "type": "uint16"
        }
      ],
      "stateMutability": "view",
      "type": "function"
    },
    {
      "inputs": [],
      "name": "MAX_SUBNET_UID",
      "outputs": [
        {
          "internalType": "uint64",
          "name": "",
          "type": "uint64"
        }
      ],
      "stateMutability": "view",
      "type": "function"
    },
    {
      "inputs": [],
      "name": "SATOSHI_TIER_MULTIPLIER",
      "outputs": [
        {
          "internalType": "uint256",
          "name": "",
          "type": "uint256"
        }
      ],
      "stateMutability": "view",
      "type": "function"
    },
    {
      "inputs": [],
      "name": "STATUS_ACTIVE",
      "outputs": [
        {
          "internalType": "uint8",
          "name": "",
          "type": "uint8"
        }
      ],
      "stateMutability": "view",
      "type": "function"
    },
    {
      "inputs": [],
      "name": "STATUS_INACTIVE",
      "outputs": [
        {
          "internalType": "uint8",
          "name": "",
          "type": "uint8"
        }
      ],
      "stateMutability": "view",
      "type": "function"
    },
    {
      "inputs": [],
      "name": "STATUS_JAILED",
      "outputs": [
        {
          "internalType": "uint8",
          "name": "",
          "type": "uint8"
        }
      ],
      "stateMutability": "view",
      "type": "function"
    },
    {
      "inputs": [],
      "name": "SUBNET_OWNER_ROLE",
      "outputs": [
        {
          "internalType": "bytes32",
          "name": "",
          "type": "bytes32"
        }
      ],
      "stateMutability": "view",
      "type": "function"
    },
    {
      "inputs": [],
      "name": "SUPER_TIER_MULTIPLIER",
      "outputs": [
        {
          "internalType": "uint256",
          "name": "",
          "type": "uint256"
        }
      ],
      "stateMutability": "view",
      "type": "function"
    },
    {
      "inputs": [],
      "name": "VALIDATOR_ROLE",
      "outputs": [
        {
          "internalType": "bytes32",
          "name": "",
          "type": "bytes32"
        }
      ],
      "stateMutability": "view",
      "type": "function"
    },
    {
      "inputs": [
        {
          "internalType": "address",
          "name": "",
          "type": "address"
        }
      ],
      "name": "bitcoinStakeProofs",
      "outputs": [
        {
          "internalType": "bytes32",
          "name": "",
          "type": "bytes32"
        }
      ],
      "stateMutability": "view",
      "type": "function"
    },
    {
      "inputs": [],
      "name": "btcToken",
      "outputs": [
        {
          "internalType": "contract IERC20",
          "name": "",
          "type": "address"
        }
      ],
      "stateMutability": "view",
      "type": "function"
    },
    {
      "inputs": [
        {
          "internalType": "uint64",
          "name": "",
          "type": "uint64"
        }
      ],
      "name": "consensusRounds",
      "outputs": [
        {
          "internalType": "uint64",
          "name": "round_id",
          "type": "uint64"
        },
        {
          "internalType": "uint64",
          "name": "epoch",
          "type": "uint64"
        },
        {
          "internalType": "bytes32",
          "name": "consensus_hash",
          "type": "bytes32"
        },
        {
          "internalType": "uint64",
          "name": "timestamp",
          "type": "uint64"
        },
        {
          "internalType": "bool",
          "name": "finalized",
          "type": "bool"
        }
      ],
      "stateMutability": "view",
      "type": "function"
    },
    {
      "inputs": [],
      "name": "coreToken",
      "outputs": [
        {
          "internalType": "contract IERC20",
          "name": "",
          "type": "address"
        }
      ],
      "stateMutability": "view",
      "type": "function"
    },
    {
      "inputs": [
        {
          "internalType": "string",
          "name": "name",
          "type": "string"
        },
        {
          "internalType": "string",
          "name": "description",
          "type": "string"
        },
        {
          "internalType": "uint32",
          "name": "maxMiners",
          "type": "uint32"
        },
        {
          "internalType": "uint32",
          "name": "maxValidators",
          "type": "uint32"
        },
        {
          "internalType": "uint256",
          "name": "minStakeMiner",
          "type": "uint256"
        },
        {
          "internalType": "uint256",
          "name": "minStakeValidator",
          "type": "uint256"
        }
      ],
      "name": "createSubnet",
      "outputs": [
        {
          "internalType": "uint64",
          "name": "subnetId",
          "type": "uint64"
        }
      ],
      "stateMutability": "nonpayable",
      "type": "function"
    },
    {
      "inputs": [],
      "name": "currentConsensusRound",
      "outputs": [
        {
          "internalType": "uint64",
          "name": "",
          "type": "uint64"
        }
      ],
      "stateMutability": "view",
      "type": "function"
    },
    {
      "inputs": [],
      "name": "currentEpoch",
      "outputs": [
        {
          "internalType": "uint64",
          "name": "",
          "type": "uint64"
        }
      ],
      "stateMutability": "view",
      "type": "function"
    },
    {
      "inputs": [
        {
          "internalType": "uint64",
          "name": "",
          "type": "uint64"
        }
      ],
      "name": "emissionRates",
      "outputs": [
        {
          "internalType": "uint256",
          "name": "",
          "type": "uint256"
        }
      ],
      "stateMutability": "view",
      "type": "function"
    },
    {
      "inputs": [
        {
          "internalType": "uint64",
          "name": "roundId",
          "type": "uint64"
        },
        {
          "internalType": "bytes32",
          "name": "consensusHash",
          "type": "bytes32"
        }
      ],
      "name": "finalizeConsensusRound",
      "outputs": [],
      "stateMutability": "nonpayable",
      "type": "function"
    },
    {
      "inputs": [],
      "name": "getActiveMinerUids",
      "outputs": [
        {
          "internalType": "uint256[]",
          "name": "",
          "type": "uint256[]"
        }
      ],
      "stateMutability": "view",
      "type": "function"
    },
    {
      "inputs": [],
      "name": "getActiveValidatorUids",
      "outputs": [
        {
          "internalType": "uint256[]",
          "name": "",
          "type": "uint256[]"
        }
      ],
      "stateMutability": "view",
      "type": "function"
    },
    {
      "inputs": [],
      "name": "getAllSubnetIds",
      "outputs": [
        {
          "internalType": "uint64[]",
          "name": "",
          "type": "uint64[]"
        }
      ],
      "stateMutability": "view",
      "type": "function"
    },
    {
      "inputs": [
        {
          "internalType": "uint256",
          "name": "uid",
          "type": "uint256"
        }
      ],
      "name": "getMinerData",
      "outputs": [
        {
          "internalType": "bytes32",
          "name": "minerUid",
          "type": "bytes32"
        },
        {
          "internalType": "uint64",
          "name": "subnetUid",
          "type": "uint64"
        },
        {
          "internalType": "uint256",
          "name": "stake",
          "type": "uint256"
        },
        {
          "internalType": "uint256",
          "name": "bitcoinStake",
          "type": "uint256"
        },
        {
          "internalType": "uint64",
          "name": "performance",
          "type": "uint64"
        },
        {
          "internalType": "uint64",
          "name": "trustScore",
          "type": "uint64"
        },
        {
          "internalType": "uint256",
          "name": "rewards",
          "type": "uint256"
        },
        {
          "internalType": "uint64",
          "name": "lastUpdate",
          "type": "uint64"
        },
        {
          "internalType": "bytes32",
          "name": "perfHash",
          "type": "bytes32"
        },
        {
          "internalType": "uint8",
          "name": "status",
          "type": "uint8"
        },
        {
          "internalType": "uint64",
          "name": "regTime",
          "type": "uint64"
        },
        {
          "internalType": "string",
          "name": "endpoint",
          "type": "string"
        },
        {
          "internalType": "address",
          "name": "owner",
          "type": "address"
        }
      ],
      "stateMutability": "view",
      "type": "function"
    },
    {
      "inputs": [
        {
          "internalType": "address",
          "name": "minerAddress",
          "type": "address"
        }
      ],
      "name": "getMinerInfo",
      "outputs": [
        {
          "components": [
            {
              "internalType": "bytes32",
              "name": "uid",
              "type": "bytes32"
            },
            {
              "internalType": "uint64",
              "name": "subnet_uid",
              "type": "uint64"
            },
            {
              "internalType": "uint256",
              "name": "stake",
              "type": "uint256"
            },
            {
              "internalType": "uint256",
              "name": "bitcoin_stake",
              "type": "uint256"
            },
            {
              "internalType": "uint64",
              "name": "scaled_last_performance",
              "type": "uint64"
            },
            {
              "internalType": "uint64",
              "name": "scaled_trust_score",
              "type": "uint64"
            },
            {
              "internalType": "uint256",
              "name": "accumulated_rewards",
              "type": "uint256"
            },
            {
              "internalType": "uint64",
              "name": "last_update_time",
              "type": "uint64"
            },
            {
              "internalType": "bytes32",
              "name": "performance_history_hash",
              "type": "bytes32"
            },
            {
              "internalType": "bytes32",
              "name": "wallet_addr_hash",
              "type": "bytes32"
            },
            {
              "internalType": "uint8",
              "name": "status",
              "type": "uint8"
            },
            {
              "internalType": "uint64",
              "name": "registration_time",
              "type": "uint64"
            },
            {
              "internalType": "string",
              "name": "api_endpoint",
              "type": "string"
            },
            {
              "internalType": "address",
              "name": "owner",
              "type": "address"
            }
          ],
          "internalType": "struct ModernTensor.MinerData",
          "name": "",
          "type": "tuple"
        }
      ],
      "stateMutability": "view",
      "type": "function"
    },
    {
      "inputs": [],
      "name": "getNetworkStats",
      "outputs": [
        {
          "internalType": "uint256",
          "name": "totalMiners",
          "type": "uint256"
        },
        {
          "internalType": "uint256",
          "name": "totalValidators",
          "type": "uint256"
        },
        {
          "internalType": "uint256",
          "name": "totalStaked",
          "type": "uint256"
        },
        {
          "internalType": "uint256",
          "name": "totalRewards",
          "type": "uint256"
        }
      ],
      "stateMutability": "view",
      "type": "function"
    },
    {
      "inputs": [
        {
          "internalType": "bytes32",
          "name": "role",
          "type": "bytes32"
        }
      ],
      "name": "getRoleAdmin",
      "outputs": [
        {
          "internalType": "bytes32",
          "name": "",
          "type": "bytes32"
        }
      ],
      "stateMutability": "view",
      "type": "function"
    },
    {
      "inputs": [
        {
          "internalType": "uint64",
          "name": "subnetId",
          "type": "uint64"
        }
      ],
      "name": "getSubnet",
      "outputs": [
        {
          "components": [
            {
              "internalType": "uint64",
              "name": "net_uid",
              "type": "uint64"
            },
            {
              "internalType": "string",
              "name": "name",
              "type": "string"
            },
            {
              "internalType": "address",
              "name": "owner_addr",
              "type": "address"
            },
            {
              "internalType": "uint32",
              "name": "max_miners",
              "type": "uint32"
            },
            {
              "internalType": "uint32",
              "name": "max_validators",
              "type": "uint32"
            },
            {
              "internalType": "uint64",
              "name": "immunity_period",
              "type": "uint64"
            },
            {
              "internalType": "uint64",
              "name": "creation_time",
              "type": "uint64"
            },
            {
              "internalType": "string",
              "name": "description",
              "type": "string"
            },
            {
              "internalType": "uint32",
              "name": "version",
              "type": "uint32"
            },
            {
              "internalType": "uint256",
              "name": "min_stake_miner",
              "type": "uint256"
            },
            {
              "internalType": "uint256",
              "name": "min_stake_validator",
              "type": "uint256"
            }
          ],
          "internalType": "struct ModernTensor.SubnetStaticData",
          "name": "staticData",
          "type": "tuple"
        },
        {
          "components": [
            {
              "internalType": "uint64",
              "name": "net_uid",
              "type": "uint64"
            },
            {
              "internalType": "uint64",
              "name": "scaled_weight",
              "type": "uint64"
            },
            {
              "internalType": "uint64",
              "name": "scaled_performance",
              "type": "uint64"
            },
            {
              "internalType": "uint64",
              "name": "current_epoch",
              "type": "uint64"
            },
            {
              "internalType": "uint8",
              "name": "registration_open",
              "type": "uint8"
            },
            {
              "internalType": "uint256",
              "name": "reg_cost",
              "type": "uint256"
            },
            {
              "internalType": "uint64",
              "name": "scaled_incentive_ratio",
              "type": "uint64"
            },
            {
              "internalType": "uint64",
              "name": "last_update_time",
              "type": "uint64"
            },
            {
              "internalType": "uint256",
              "name": "total_stake",
              "type": "uint256"
            },
            {
              "internalType": "uint256",
              "name": "total_bitcoin_stake",
              "type": "uint256"
            },
            {
              "internalType": "uint32",
              "name": "validator_count",
              "type": "uint32"
            },
            {
              "internalType": "uint32",
              "name": "miner_count",
              "type": "uint32"
            }
          ],
          "internalType": "struct ModernTensor.SubnetDynamicData",
          "name": "dynamicData",
          "type": "tuple"
        },
        {
          "internalType": "address[]",
          "name": "minerAddresses",
          "type": "address[]"
        },
        {
          "internalType": "address[]",
          "name": "validatorAddresses",
          "type": "address[]"
        }
      ],
      "stateMutability": "view",
      "type": "function"
    },
    {
      "inputs": [
        {
          "internalType": "uint64",
          "name": "subnetId",
          "type": "uint64"
        }
      ],
      "name": "getSubnetDynamic",
      "outputs": [
        {
          "components": [
            {
              "internalType": "uint64",
              "name": "net_uid",
              "type": "uint64"
            },
            {
              "internalType": "uint64",
              "name": "scaled_weight",
              "type": "uint64"
            },
            {
              "internalType": "uint64",
              "name": "scaled_performance",
              "type": "uint64"
            },
            {
              "internalType": "uint64",
              "name": "current_epoch",
              "type": "uint64"
            },
            {
              "internalType": "uint8",
              "name": "registration_open",
              "type": "uint8"
            },
            {
              "internalType": "uint256",
              "name": "reg_cost",
              "type": "uint256"
            },
            {
              "internalType": "uint64",
              "name": "scaled_incentive_ratio",
              "type": "uint64"
            },
            {
              "internalType": "uint64",
              "name": "last_update_time",
              "type": "uint64"
            },
            {
              "internalType": "uint256",
              "name": "total_stake",
              "type": "uint256"
            },
            {
              "internalType": "uint256",
              "name": "total_bitcoin_stake",
              "type": "uint256"
            },
            {
              "internalType": "uint32",
              "name": "validator_count",
              "type": "uint32"
            },
            {
              "internalType": "uint32",
              "name": "miner_count",
              "type": "uint32"
            }
          ],
          "internalType": "struct ModernTensor.SubnetDynamicData",
          "name": "",
          "type": "tuple"
        }
      ],
      "stateMutability": "view",
      "type": "function"
    },
    {
      "inputs": [
        {
          "internalType": "uint64",
          "name": "subnetId",
          "type": "uint64"
        }
      ],
      "name": "getSubnetMiners",
      "outputs": [
        {
          "internalType": "address[]",
          "name": "",
          "type": "address[]"
        }
      ],
      "stateMutability": "view",
      "type": "function"
    },
    {
      "inputs": [
        {
          "internalType": "uint64",
          "name": "subnetId",
          "type": "uint64"
        }
      ],
      "name": "getSubnetStatic",
      "outputs": [
        {
          "components": [
            {
              "internalType": "uint64",
              "name": "net_uid",
              "type": "uint64"
            },
            {
              "internalType": "string",
              "name": "name",
              "type": "string"
            },
            {
              "internalType": "address",
              "name": "owner_addr",
              "type": "address"
            },
            {
              "internalType": "uint32",
              "name": "max_miners",
              "type": "uint32"
            },
            {
              "internalType": "uint32",
              "name": "max_validators",
              "type": "uint32"
            },
            {
              "internalType": "uint64",
              "name": "immunity_period",
              "type": "uint64"
            },
            {
              "internalType": "uint64",
              "name": "creation_time",
              "type": "uint64"
            },
            {
              "internalType": "string",
              "name": "description",
              "type": "string"
            },
            {
              "internalType": "uint32",
              "name": "version",
              "type": "uint32"
            },
            {
              "internalType": "uint256",
              "name": "min_stake_miner",
              "type": "uint256"
            },
            {
              "internalType": "uint256",
              "name": "min_stake_validator",
              "type": "uint256"
            }
          ],
          "internalType": "struct ModernTensor.SubnetStaticData",
          "name": "",
          "type": "tuple"
        }
      ],
      "stateMutability": "view",
      "type": "function"
    },
    {
      "inputs": [
        {
          "internalType": "uint64",
          "name": "subnetId",
          "type": "uint64"
        }
      ],
      "name": "getSubnetValidators",
      "outputs": [
        {
          "internalType": "address[]",
          "name": "",
          "type": "address[]"
        }
      ],
      "stateMutability": "view",
      "type": "function"
    },
    {
      "inputs": [
        {
          "internalType": "uint64",
          "name": "subnetId",
          "type": "uint64"
        }
      ],
      "name": "getTrustScores",
      "outputs": [
        {
          "internalType": "uint64[]",
          "name": "scores",
          "type": "uint64[]"
        }
      ],
      "stateMutability": "view",
      "type": "function"
    },
    {
      "inputs": [
        {
          "internalType": "uint256",
          "name": "uid",
          "type": "uint256"
        }
      ],
      "name": "getValidatorData",
      "outputs": [
        {
          "internalType": "bytes32",
          "name": "validatorUid",
          "type": "bytes32"
        },
        {
          "internalType": "uint64",
          "name": "subnetUid",
          "type": "uint64"
        },
        {
          "internalType": "uint256",
          "name": "stake",
          "type": "uint256"
        },
        {
          "internalType": "uint256",
          "name": "bitcoinStake",
          "type": "uint256"
        },
        {
          "internalType": "uint64",
          "name": "performance",
          "type": "uint64"
        },
        {
          "internalType": "uint64",
          "name": "trustScore",
          "type": "uint64"
        },
        {
          "internalType": "uint256",
          "name": "rewards",
          "type": "uint256"
        },
        {
          "internalType": "uint64",
          "name": "lastUpdate",
          "type": "uint64"
        },
        {
          "internalType": "bytes32",
          "name": "perfHash",
          "type": "bytes32"
        },
        {
          "internalType": "uint8",
          "name": "status",
          "type": "uint8"
        },
        {
          "internalType": "uint64",
          "name": "regTime",
          "type": "uint64"
        },
        {
          "internalType": "string",
          "name": "endpoint",
          "type": "string"
        },
        {
          "internalType": "address",
          "name": "owner",
          "type": "address"
        }
      ],
      "stateMutability": "view",
      "type": "function"
    },
    {
      "inputs": [
        {
          "internalType": "address",
          "name": "validatorAddress",
          "type": "address"
        }
      ],
      "name": "getValidatorInfo",
      "outputs": [
        {
          "components": [
            {
              "internalType": "bytes32",
              "name": "uid",
              "type": "bytes32"
            },
            {
              "internalType": "uint64",
              "name": "subnet_uid",
              "type": "uint64"
            },
            {
              "internalType": "uint256",
              "name": "stake",
              "type": "uint256"
            },
            {
              "internalType": "uint256",
              "name": "bitcoin_stake",
              "type": "uint256"
            },
            {
              "internalType": "uint64",
              "name": "scaled_last_performance",
              "type": "uint64"
            },
            {
              "internalType": "uint64",
              "name": "scaled_trust_score",
              "type": "uint64"
            },
            {
              "internalType": "uint256",
              "name": "accumulated_rewards",
              "type": "uint256"
            },
            {
              "internalType": "uint64",
              "name": "last_update_time",
              "type": "uint64"
            },
            {
              "internalType": "bytes32",
              "name": "performance_history_hash",
              "type": "bytes32"
            },
            {
              "internalType": "bytes32",
              "name": "wallet_addr_hash",
              "type": "bytes32"
            },
            {
              "internalType": "uint8",
              "name": "status",
              "type": "uint8"
            },
            {
              "internalType": "uint64",
              "name": "registration_time",
              "type": "uint64"
            },
            {
              "internalType": "string",
              "name": "api_endpoint",
              "type": "string"
            },
            {
              "internalType": "address",
              "name": "owner",
              "type": "address"
            }
          ],
          "internalType": "struct ModernTensor.ValidatorData",
          "name": "",
          "type": "tuple"
        }
      ],
      "stateMutability": "view",
      "type": "function"
    },
    {
      "inputs": [
        {
          "internalType": "bytes32",
          "name": "role",
          "type": "bytes32"
        },
        {
          "internalType": "address",
          "name": "account",
          "type": "address"
        }
      ],
      "name": "grantRole",
      "outputs": [],
      "stateMutability": "nonpayable",
      "type": "function"
    },
    {
      "inputs": [
        {
          "internalType": "address",
          "name": "",
          "type": "address"
        }
      ],
      "name": "hasBitcoinStake",
      "outputs": [
        {
          "internalType": "bool",
          "name": "",
          "type": "bool"
        }
      ],
      "stateMutability": "view",
      "type": "function"
    },
    {
      "inputs": [
        {
          "internalType": "bytes32",
          "name": "role",
          "type": "bytes32"
        },
        {
          "internalType": "address",
          "name": "account",
          "type": "address"
        }
      ],
      "name": "hasRole",
      "outputs": [
        {
          "internalType": "bool",
          "name": "",
          "type": "bool"
        }
      ],
      "stateMutability": "view",
      "type": "function"
    },
    {
      "inputs": [
        {
          "internalType": "uint64",
          "name": "",
          "type": "uint64"
        },
        {
          "internalType": "address",
          "name": "",
          "type": "address"
        }
      ],
      "name": "incentiveWeights",
      "outputs": [
        {
          "internalType": "uint64",
          "name": "",
          "type": "uint64"
        }
      ],
      "stateMutability": "view",
      "type": "function"
    },
    {
      "inputs": [
        {
          "internalType": "address",
          "name": "",
          "type": "address"
        }
      ],
      "name": "minerEndpoints",
      "outputs": [
        {
          "internalType": "string",
          "name": "",
          "type": "string"
        }
      ],
      "stateMutability": "view",
      "type": "function"
    },
    {
      "inputs": [
        {
          "internalType": "address",
          "name": "",
          "type": "address"
        }
      ],
      "name": "minerToSubnet",
      "outputs": [
        {
          "internalType": "uint64",
          "name": "",
          "type": "uint64"
        }
      ],
      "stateMutability": "view",
      "type": "function"
    },
    {
      "inputs": [
        {
          "internalType": "address",
          "name": "",
          "type": "address"
        }
      ],
      "name": "miners",
      "outputs": [
        {
          "internalType": "bytes32",
          "name": "uid",
          "type": "bytes32"
        },
        {
          "internalType": "uint64",
          "name": "subnet_uid",
          "type": "uint64"
        },
        {
          "internalType": "uint256",
          "name": "stake",
          "type": "uint256"
        },
        {
          "internalType": "uint256",
          "name": "bitcoin_stake",
          "type": "uint256"
        },
        {
          "internalType": "uint64",
          "name": "scaled_last_performance",
          "type": "uint64"
        },
        {
          "internalType": "uint64",
          "name": "scaled_trust_score",
          "type": "uint64"
        },
        {
          "internalType": "uint256",
          "name": "accumulated_rewards",
          "type": "uint256"
        },
        {
          "internalType": "uint64",
          "name": "last_update_time",
          "type": "uint64"
        },
        {
          "internalType": "bytes32",
          "name": "performance_history_hash",
          "type": "bytes32"
        },
        {
          "internalType": "bytes32",
          "name": "wallet_addr_hash",
          "type": "bytes32"
        },
        {
          "internalType": "uint8",
          "name": "status",
          "type": "uint8"
        },
        {
          "internalType": "uint64",
          "name": "registration_time",
          "type": "uint64"
        },
        {
          "internalType": "string",
          "name": "api_endpoint",
          "type": "string"
        },
        {
          "internalType": "address",
          "name": "owner",
          "type": "address"
        }
      ],
      "stateMutability": "view",
      "type": "function"
    },
    {
      "inputs": [],
      "name": "nextSubnetId",
      "outputs": [
        {
          "internalType": "uint64",
          "name": "",
          "type": "uint64"
        }
      ],
      "stateMutability": "view",
      "type": "function"
    },
    {
      "inputs": [
        {
          "internalType": "uint256",
          "name": "amount",
          "type": "uint256"
        },
        {
          "internalType": "bytes32",
          "name": "proofHash",
          "type": "bytes32"
        },
        {
          "internalType": "bytes",
          "name": "",
          "type": "bytes"
        }
      ],
      "name": "registerBitcoinStake",
      "outputs": [],
      "stateMutability": "nonpayable",
      "type": "function"
    },
    {
      "inputs": [
        {
          "internalType": "uint64",
          "name": "subnetId",
          "type": "uint64"
        },
        {
          "internalType": "uint256",
          "name": "coreStake",
          "type": "uint256"
        },
        {
          "internalType": "uint256",
          "name": "btcStake",
          "type": "uint256"
        },
        {
          "internalType": "string",
          "name": "apiEndpoint",
          "type": "string"
        }
      ],
      "name": "registerMiner",
      "outputs": [],
      "stateMutability": "nonpayable",
      "type": "function"
    },
    {
      "inputs": [
        {
          "internalType": "uint64",
          "name": "subnetId",
          "type": "uint64"
        },
        {
          "internalType": "uint256",
          "name": "coreStake",
          "type": "uint256"
        },
        {
          "internalType": "uint256",
          "name": "btcStake",
          "type": "uint256"
        },
        {
          "internalType": "string",
          "name": "apiEndpoint",
          "type": "string"
        }
      ],
      "name": "registerValidator",
      "outputs": [],
      "stateMutability": "nonpayable",
      "type": "function"
    },
    {
      "inputs": [
        {
          "internalType": "bytes32",
          "name": "role",
          "type": "bytes32"
        },
        {
          "internalType": "address",
          "name": "account",
          "type": "address"
        }
      ],
      "name": "renounceRole",
      "outputs": [],
      "stateMutability": "nonpayable",
      "type": "function"
    },
    {
      "inputs": [
        {
          "internalType": "bytes32",
          "name": "role",
          "type": "bytes32"
        },
        {
          "internalType": "address",
          "name": "account",
          "type": "address"
        }
      ],
      "name": "revokeRole",
      "outputs": [],
      "stateMutability": "nonpayable",
      "type": "function"
    },
    {
      "inputs": [
        {
          "internalType": "address",
          "name": "",
          "type": "address"
        }
      ],
      "name": "stakingTierMultipliers",
      "outputs": [
        {
          "internalType": "uint256",
          "name": "",
          "type": "uint256"
        }
      ],
      "stateMutability": "view",
      "type": "function"
    },
    {
      "inputs": [
        {
          "internalType": "uint64",
          "name": "",
          "type": "uint64"
        }
      ],
      "name": "startConsensusRound",
      "outputs": [
        {
          "internalType": "uint64",
          "name": "roundId",
          "type": "uint64"
        }
      ],
      "stateMutability": "nonpayable",
      "type": "function"
    },
    {
      "inputs": [
        {
          "internalType": "uint64",
          "name": "roundId",
          "type": "uint64"
        },
        {
          "internalType": "address[]",
          "name": "participantAddresses",
          "type": "address[]"
        },
        {
          "internalType": "uint64[]",
          "name": "weights",
          "type": "uint64[]"
        },
        {
          "internalType": "uint64[]",
          "name": "scores",
          "type": "uint64[]"
        },
        {
          "internalType": "uint256[]",
          "name": "rewards",
          "type": "uint256[]"
        }
      ],
      "name": "submitConsensusResults",
      "outputs": [],
      "stateMutability": "nonpayable",
      "type": "function"
    },
    {
      "inputs": [
        {
          "internalType": "uint64",
          "name": "",
          "type": "uint64"
        }
      ],
      "name": "subnetDynamic",
      "outputs": [
        {
          "internalType": "uint64",
          "name": "net_uid",
          "type": "uint64"
        },
        {
          "internalType": "uint64",
          "name": "scaled_weight",
          "type": "uint64"
        },
        {
          "internalType": "uint64",
          "name": "scaled_performance",
          "type": "uint64"
        },
        {
          "internalType": "uint64",
          "name": "current_epoch",
          "type": "uint64"
        },
        {
          "internalType": "uint8",
          "name": "registration_open",
          "type": "uint8"
        },
        {
          "internalType": "uint256",
          "name": "reg_cost",
          "type": "uint256"
        },
        {
          "internalType": "uint64",
          "name": "scaled_incentive_ratio",
          "type": "uint64"
        },
        {
          "internalType": "uint64",
          "name": "last_update_time",
          "type": "uint64"
        },
        {
          "internalType": "uint256",
          "name": "total_stake",
          "type": "uint256"
        },
        {
          "internalType": "uint256",
          "name": "total_bitcoin_stake",
          "type": "uint256"
        },
        {
          "internalType": "uint32",
          "name": "validator_count",
          "type": "uint32"
        },
        {
          "internalType": "uint32",
          "name": "miner_count",
          "type": "uint32"
        }
      ],
      "stateMutability": "view",
      "type": "function"
    },
    {
      "inputs": [
        {
          "internalType": "uint64",
          "name": "",
          "type": "uint64"
        },
        {
          "internalType": "uint256",
          "name": "",
          "type": "uint256"
        }
      ],
      "name": "subnetMiners",
      "outputs": [
        {
          "internalType": "address",
          "name": "",
          "type": "address"
        }
      ],
      "stateMutability": "view",
      "type": "function"
    },
    {
      "inputs": [
        {
          "internalType": "uint64",
          "name": "",
          "type": "uint64"
        }
      ],
      "name": "subnetStatic",
      "outputs": [
        {
          "internalType": "uint64",
          "name": "net_uid",
          "type": "uint64"
        },
        {
          "internalType": "string",
          "name": "name",
          "type": "string"
        },
        {
          "internalType": "address",
          "name": "owner_addr",
          "type": "address"
        },
        {
          "internalType": "uint32",
          "name": "max_miners",
          "type": "uint32"
        },
        {
          "internalType": "uint32",
          "name": "max_validators",
          "type": "uint32"
        },
        {
          "internalType": "uint64",
          "name": "immunity_period",
          "type": "uint64"
        },
        {
          "internalType": "uint64",
          "name": "creation_time",
          "type": "uint64"
        },
        {
          "internalType": "string",
          "name": "description",
          "type": "string"
        },
        {
          "internalType": "uint32",
          "name": "version",
          "type": "uint32"
        },
        {
          "internalType": "uint256",
          "name": "min_stake_miner",
          "type": "uint256"
        },
        {
          "internalType": "uint256",
          "name": "min_stake_validator",
          "type": "uint256"
        }
      ],
      "stateMutability": "view",
      "type": "function"
    },
    {
      "inputs": [
        {
          "internalType": "uint64",
          "name": "",
          "type": "uint64"
        },
        {
          "internalType": "uint256",
          "name": "",
          "type": "uint256"
        }
      ],
      "name": "subnetValidators",
      "outputs": [
        {
          "internalType": "address",
          "name": "",
          "type": "address"
        }
      ],
      "stateMutability": "view",
      "type": "function"
    },
    {
      "inputs": [
        {
          "internalType": "bytes4",
          "name": "interfaceId",
          "type": "bytes4"
        }
      ],
      "name": "supportsInterface",
      "outputs": [
        {
          "internalType": "bool",
          "name": "",
          "type": "bool"
        }
      ],
      "stateMutability": "view",
      "type": "function"
    },
    {
      "inputs": [],
      "name": "totalBitcoinStake",
      "outputs": [
        {
          "internalType": "uint256",
          "name": "",
          "type": "uint256"
        }
      ],
      "stateMutability": "view",
      "type": "function"
    },
    {
      "inputs": [],
      "name": "totalNetworkStake",
      "outputs": [
        {
          "internalType": "uint256",
          "name": "",
          "type": "uint256"
        }
      ],
      "stateMutability": "view",
      "type": "function"
    },
    {
      "inputs": [
        {
          "internalType": "uint64",
          "name": "",
          "type": "uint64"
        },
        {
          "internalType": "address",
          "name": "",
          "type": "address"
        }
      ],
      "name": "trustScores",
      "outputs": [
        {
          "internalType": "uint64",
          "name": "",
          "type": "uint64"
        }
      ],
      "stateMutability": "view",
      "type": "function"
    },
    {
      "inputs": [
        {
          "internalType": "address[]",
          "name": "minerAddrs",
          "type": "address[]"
        },
        {
          "internalType": "uint64[]",
          "name": "newPerformances",
          "type": "uint64[]"
        },
        {
          "internalType": "uint64[]",
          "name": "newTrustScores",
          "type": "uint64[]"
        }
      ],
      "name": "updateMetagraph",
      "outputs": [],
      "stateMutability": "nonpayable",
      "type": "function"
    },
    {
      "inputs": [
        {
          "internalType": "uint64",
          "name": "roundId",
          "type": "uint64"
        },
        {
          "internalType": "address[]",
          "name": "minerAddrs",
          "type": "address[]"
        },
        {
          "internalType": "uint64[]",
          "name": "newPerformances",
          "type": "uint64[]"
        },
        {
          "internalType": "uint64[]",
          "name": "newTrustScores",
          "type": "uint64[]"
        },
        {
          "internalType": "uint256[]",
          "name": "rewards",
          "type": "uint256[]"
        }
      ],
      "name": "updateMetagraphWithConsensusRound",
      "outputs": [],
      "stateMutability": "nonpayable",
      "type": "function"
    },
    {
      "inputs": [
        {
          "internalType": "string",
          "name": "newEndpoint",
          "type": "string"
        }
      ],
      "name": "updateMinerEndpoint",
      "outputs": [],
      "stateMutability": "nonpayable",
      "type": "function"
    },
    {
      "inputs": [
        {
          "internalType": "uint256",
          "name": "minerUid",
          "type": "uint256"
        },
        {
          "internalType": "uint64",
          "name": "newPerformance",
          "type": "uint64"
        },
        {
          "internalType": "uint64",
          "name": "newTrustScore",
          "type": "uint64"
        }
      ],
      "name": "updateMinerPerformance",
      "outputs": [],
      "stateMutability": "nonpayable",
      "type": "function"
    },
    {
      "inputs": [
        {
          "internalType": "address",
          "name": "minerAddr",
          "type": "address"
        },
        {
          "internalType": "uint64",
          "name": "newPerformance",
          "type": "uint64"
        },
        {
          "internalType": "uint64",
          "name": "newTrustScore",
          "type": "uint64"
        }
      ],
      "name": "updateMinerScores",
      "outputs": [],
      "stateMutability": "nonpayable",
      "type": "function"
    },
    {
      "inputs": [
        {
          "internalType": "string",
          "name": "newEndpoint",
          "type": "string"
        }
      ],
      "name": "updateValidatorEndpoint",
      "outputs": [],
      "stateMutability": "nonpayable",
      "type": "function"
    },
    {
      "inputs": [
        {
          "internalType": "address",
          "name": "validatorAddr",
          "type": "address"
        },
        {
          "internalType": "uint64",
          "name": "newPerformance",
          "type": "uint64"
        },
        {
          "internalType": "uint64",
          "name": "newTrustScore",
          "type": "uint64"
        }
      ],
      "name": "updateValidatorScores",
      "outputs": [],
      "stateMutability": "nonpayable",
      "type": "function"
    },
    {
      "inputs": [
        {
          "internalType": "address",
          "name": "",
          "type": "address"
        }
      ],
      "name": "validatorEndpoints",
      "outputs": [
        {
          "internalType": "string",
          "name": "",
          "type": "string"
        }
      ],
      "stateMutability": "view",
      "type": "function"
    },
    {
      "inputs": [
        {
          "internalType": "address",
          "name": "",
          "type": "address"
        }
      ],
      "name": "validatorToSubnet",
      "outputs": [
        {
          "internalType": "uint64",
          "name": "",
          "type": "uint64"
        }
      ],
      "stateMutability": "view",
      "type": "function"
    },
    {
      "inputs": [
        {
          "internalType": "address",
          "name": "",
          "type": "address"
        }
      ],
      "name": "validators",
      "outputs": [
        {
          "internalType": "bytes32",
          "name": "uid",
          "type": "bytes32"
        },
        {
          "internalType": "uint64",
          "name": "subnet_uid",
          "type": "uint64"
        },
        {
          "internalType": "uint256",
          "name": "stake",
          "type": "uint256"
        },
        {
          "internalType": "uint256",
          "name": "bitcoin_stake",
          "type": "uint256"
        },
        {
          "internalType": "uint64",
          "name": "scaled_last_performance",
          "type": "uint64"
        },
        {
          "internalType": "uint64",
          "name": "scaled_trust_score",
          "type": "uint64"
        },
        {
          "internalType": "uint256",
          "name": "accumulated_rewards",
          "type": "uint256"
        },
        {
          "internalType": "uint64",
          "name": "last_update_time",
          "type": "uint64"
        },
        {
          "internalType": "bytes32",
          "name": "performance_history_hash",
          "type": "bytes32"
        },
        {
          "internalType": "bytes32",
          "name": "wallet_addr_hash",
          "type": "bytes32"
        },
        {
          "internalType": "uint8",
          "name": "status",
          "type": "uint8"
        },
        {
          "internalType": "uint64",
          "name": "registration_time",
          "type": "uint64"
        },
        {
          "internalType": "string",
          "name": "api_endpoint",
          "type": "string"
        },
        {
          "internalType": "address",
          "name": "owner",
          "type": "address"
        }
      ],
      "stateMutability": "view",
      "type": "function"
    }
  ],
  "bytecode": "0x60c034620008ce57601f6200634738819003918201601f19168301916001600160401b038311848410176200062357808492608094604052833981010312620008ce576200004d81620008f3565b6200005b60208301620008f3565b60408381015160609094015160016000818155600280546001600160c01b031916909217909155600381905560048190556001600160a01b039485166080529290931660a0523382526000805160206200632783398151915260205290205460ff16156200088b575b3360009081527faf2b352d373f61cd7c00141c5d498de35abbffd9743307be56c20cef1cd5da4c60205260409020547f71840dc4906352362b0cdaf79870196c8e42acafade72d5d5a6d59291253ceb19060ff161562000847575b503360009081527feb08ee940d1ac9662e9a9716182c59a5990cef3b0e0128641fc5bdd20ac78a5260205260409020547f36fd43ede163045b10e1f0abd16f62f165fce3fa7b6cde217bcea3bc47663acc9060ff161562000803575b5062000186620008d3565b6007815266111959985d5b1d60ca1b602082015260405192906001600160401b03610160850190811190851117620006235761016084016040526000845260208401523360408401526103e8606084015260646080840152611c2060a084015260018060401b03421660c0840152620001fe620008d3565b601f81527f44656661756c74207375626e657420666f72204d6f6465726e54656e736f7200602082015260e08401526001610100840152610120830152610140820152600080526007602052604060002060018060401b0382511660018060401b0319825416178155602082015191825160018060401b03811162000623576001830154600181811c91168015620007f8575b60208210146200070c57601f8111620007ac575b506020601f82116001146200073957819293946000926200072d575b50508160011b916000199060031b1c19161760018301555b604081810151600284018054606085015160808601516001600160e01b03199092166001600160a01b03949094169390931760a093841b63ffffffff60a01b161760c091821b63ffffffff60c01b161790915590830151600385018054928501516001600160801b03199093166001600160401b0392909216919091179190921b6fffffffffffffffff00000000000000001617905560e08101518051906001600160401b03821162000623576004840154600181811c9116801562000722575b60208210146200070c57601f8111620006c0575b50602090601f831160011462000645579180600794926101409460009262000639575b50508160011b916000199060031b1c19161760048501555b63ffffffff61010082015116600585019063ffffffff19825416179055610120810151600685015501519101556040518061018081011060018060401b03610180830111176200062357610180810160409081526000808352620f42406020808501828152848601849052606086018490526001608087015260a0860184905260c08601929092526001600160401b0342811660e087015261010086018490526101208601849052610140860184905261016086018490529280526008905283517f5eff886ea0ce6ca488a3d6e336d6c0f75f46d19b42c06ce5ee98e42c96d256c7805492516fffffffffffffffff0000000000000000951b9490941692166001600160801b031990911617178155600690604083810151825460608601516001600160801b03909116608092831b600160801b600160c01b03161760c091821b6001600160c01b0319161784559085015160018401805460ff191660ff9290921691909117905560a0850151600284015584015160038301805460e08701516001600160801b03199091166001600160401b0393909316929092179190921b6fffffffffffffffff00000000000000001617905561010083015160048201556101208301516005820155019063ffffffff6101408201511667ffffffff00000000610160845493015160201b169160018060401b031916171790556040516159fe908162000909823960805181818161173f015281816126f10152613d8e015260a05181818161166e0152818161263c0152613e150152f35b634e487b7160e01b600052604160045260246000fd5b015190503880620003d1565b906004850160005260206000209160005b601f1985168110620006a7575092600794926001926101409583601f198116106200068d575b505050811b016004850155620003e9565b015160001960f88460031b161c191690553880806200067c565b9192602060018192868501518155019401920162000656565b600485016000526020600020601f840160051c81016020851062000704575b601f830160051c82018110620006f7575050620003ae565b60008155600101620006df565b5080620006df565b634e487b7160e01b600052602260045260246000fd5b90607f16906200039a565b015190503880620002c1565b6001840160005260206000209060005b601f1984168110620007935750600193949583601f1981161062000779575b505050811b016001830155620002d9565b015160001960f88460031b161c1916905538808062000768565b9091602060018192858a01518155019301910162000749565b600184016000526020600020601f830160051c810160208410620007f0575b601f830160051c82018110620007e3575050620002a5565b60008155600101620007cb565b5080620007cb565b90607f169062000291565b8060005260016020526040600020336000526020526040600020600160ff198254161790553390339060008051602062006307833981519152600080a4386200017b565b8060005260016020526040600020336000526020526040600020600160ff198254161790553390339060008051602062006307833981519152600080a4386200011f565b3360008181526000805160206200632783398151915260205260408120805460ff191660011790558190600080516020620063078339815191528180a4620000c4565b600080fd5b60408051919082016001600160401b038111838210176200062357604052565b51906001600160a01b0382168203620008ce5756fe608080604052600436101561001357600080fd5b60003560e01c90816301ffc9a714613e44575080630242974214610b9c578063074bc10114613dff5780630b34d55314613dbd5780630c2b72e914613d785780630f71d74d14613d3e578063155aef5f14613c5257806319cd66f31461353857806320857e1c146134f5578063248a9ca3146134c657806326c97eae146134835780632ac9fcf9146134675780632b8c394d146133675780632c0db4711461324b5780632ccd0e3e146132105780632f2ff15d1461315d5780633369eed5146130775780633410fe6e14612fc757806336568abe14612fe557806337a9d4fb14612fc75780633843bc2214612faa5780633869944314612f805780633c0f86e114612f465780633fb6dcb314612f0c5780634389cc2214612ef05780634419dd1014612eb6578063476cc83214612dfc5780634a662f4814612cd957806351c95e7314612c6b5780635a2a5b9a14612c4d57806363cc5ef214612c0e57806364856c7714612ac5578063648ec7b914612a3b5780636888f0c7146129ed5780636ba567251461274b5780636f9e03b41461220257806371589f6c1461218e57806376671808146121645780637e25448c14611cfb578063823753bf14611abc578063854ee3b814611a655780638a11d7c914611a0f5780638a5363461461197557806391d148541461192857806392cc068d146117dd57806392e58c75146117c057806392ef70da146117a357806396fd4a1e146111225780639996eb8f14610e365780639a05e66c14610bd55780639d14455414610bb8578063a217fddf14610b9c578063a754702214610b4e578063a81a7c8b14610af7578063b01c4bcd146109ff578063b8046aaf1461096f578063bff4eb2514610927578063c095145114610908578063c26db20814610899578063c322365614610877578063c49baebe1461083c578063cf616c931461081f578063d213c0f214610802578063d547741f146107c1578063d929ff051461079a578063df65676314610739578063ebfd4af014610674578063f36c8f5c14610639578063f44df8a8146105ff578063f4916cc9146105e1578063f538f7f3146105a6578063f8ce3dd914610502578063fa2dabad146104c7578063fa52c7d8146104045763fb20817a1461035857600080fd5b346103ff5760403660031901126103ff57610371613fca565b7f60a0745e31ef991fc15438d3b23a71ccf62c0b903c71558aa999b10cb4e0c67860206001600160401b03602435936103a861494c565b169283600052601082526103ca60ff60056040600020015460401c1615615169565b83600052601082526005604060002082600482015501600160401b68ff000000000000000019825416179055604051908152a2005b600080fd5b346103ff5760203660031901126103ff576001600160a01b0380610426613e97565b1660005260066020526040600020906104c38254926001600160401b0360018201541690600281015493600382015495600483015460058401546001600160401b03600686015416600786015491600887015493600988015496600b61048e600a8b016140f1565b99015416986040519c8d9c8d9260ff6001600160401b038c60081c169b16996001600160401b03808760401c16961694614587565b0390f35b346103ff5760003660031901126103ff5760206040517f36fd43ede163045b10e1f0abd16f62f165fce3fa7b6cde217bcea3bc47663acc8152f35b346103ff5760003660031901126103ff5760008052600960209081526105477fec8156718a8372b1db44bb411437d0870f3e3790d4a08526d024ce1b0b668f6b61533d565b6105518151615562565b9160005b825181101561059857610593906001600160a01b036105748286615202565b51166000526005835260406000205461058d8287615202565b526151f3565b610555565b604051806104c38682614655565b346103ff5760203660031901126103ff576104c36105c56004356153bf565b9960409d9b9d999199989298979397969496519d8e9d8e6146be565b346103ff5760003660031901126103ff576020600454604051908152f35b346103ff5760203660031901126103ff576001600160a01b03610620613e97565b1660005260146020526020604060002054604051908152f35b346103ff5760003660031901126103ff5760206040517f71840dc4906352362b0cdaf79870196c8e42acafade72d5d5a6d59291253ceb18152f35b346103ff5760203660031901126103ff576101806001600160401b0380610699613fca565b16600052600860205260406000209081549160ff6001820154169160028201549060038301546004840154926006600586015495015495604051978481168952848160401c1660208a0152848160801c1660408a015260c01c6060890152608088015260a087015281811660c087015260401c1660e085015261010084015261012083015263ffffffff9081811661014084015260201c16610160820152f35b346103ff5760403660031901126103ff57610752613fca565b6001600160401b0360243591166000526009602052604060002080548210156103ff5760209161078191614690565b905460405160039290921b1c6001600160a01b03168152f35b346103ff5760003660031901126103ff5760206001600160401b0360025416604051908152f35b346103ff5760403660031901126103ff576108006004356107e0613ead565b908060005260016020526107fb600160406000200154614a91565b614b9a565b005b346103ff5760003660031901126103ff57602060405161ffff8152f35b346103ff5760003660031901126103ff5760206040516103e88152f35b346103ff5760003660031901126103ff5760206040517f21702c8af46127c7fa207f89d0b0a8441bb32959a0ac7df790e9ab1a25c989268152f35b346103ff5760003660031901126103ff5760206040516001600160401b038152f35b346103ff5760203660031901126103ff576108b2613fca565b6108ba6155e9565b506108e16001600160401b0380921691826000526007602052604060002054161515614d92565b60005260086020526101806108f960406000206156ea565b61090660405180926142a6565bf35b346103ff5760203660031901126103ff576104c36105c56004356154c7565b346103ff5760403660031901126103ff57610940613fca565b6001600160401b036024359116600052600a602052604060002080548210156103ff5760209161078191614690565b346103ff5760003660031901126103ff5760008052600a60209081526109b47f13da86008ba1c6922daee3e07db95305ef49ebced9f5467a0b8613fcc6b343e361533d565b6109be8151615562565b9160005b8251811015610598576109fa906001600160a01b036109e18286615202565b51166000526006835260406000205461058d8287615202565b6109c2565b346103ff5760603660031901126103ff57610a18613e97565b610a20613fe0565b90600080516020615969833981519152610a38613ff6565b91610a41614735565b60018060a01b031691826000526005602052610a636040600020541515615789565b6001600160401b0380851690610a8c620f4240610a82818511156157a9565b82851611156157eb565b846000526005602052604060002091610ab984600485016001600160401b03199384825416178155614d6a565b60068301914216908254161790555493610af2604051928392839060209093929360408301946001600160401b03809216845216910152565b0390a3005b346103ff5760403660031901126103ff576020610b12613fca565b610b1a613ead565b6001600160401b03809216600052600e835260406000209060018060a01b0316600052825260406000205416604051908152f35b346103ff5760203660031901126103ff576001600160401b03610b6f613fca565b1660005260096020526104c3610b88604060002061533d565b60405191829160208352602083019061433b565b346103ff5760003660031901126103ff57602060405160008152f35b346103ff5760003660031901126103ff576020604051611c208152f35b346103ff5760603660031901126103ff576001600160401b036004358181116103ff57610c069036906004016143d3565b906024358181116103ff57610c1f903690600401614441565b6044358281116103ff57610c37903690600401614441565b610c3f614735565b610c4c845183511461582d565b610c59845182511461582d565b610c6584511515615872565b610c736032855111156158be565b600090428416825b8651841015610de5576001600160a01b03610c968589615202565b511686610ca38688615202565b51169087610cb18787615202565b5116816000526005602081815260406000205415610dbf57620f4240808611908115610db5575b50610d5e57610d529492849260008051602061596983398151915292610d58989660005252604060002060048101610d21836001600160401b0319928884825416178155614d6a565b600682018054919091168a17905554604080516001600160401b0396871681529290951660208301529390a36151f3565b936151f3565b92610c7b565b505050610d58929591506000805160206159a983398151915260405180610dad81606090602081526013602082015272496e76616c69642073636f72652072616e676560681b60408201520190565b0390a26151f3565b905083118d610cd8565b505050610d58929591506000805160206159a983398151915260405180610dad81615395565b86516040805191825260208201929092526001600160401b0383169181019190915233907f03a4a9532edd9cecacb1c44c5273180b9ac80d719f0c596dc31d6626970cc4d39080606081015b0390a2005b346103ff576020806003193601126103ff576001600160401b036004358181116103ff57610e689036906004016141dd565b3360005260068352604060002054156110dd573360005260068352600a6040600020019181519281841161101657610ea0815461400c565b93601f9485811161109a575b5080868682116001146110375760009161102c575b508160011b916000199060031b1c19161790555b3360005260128452604060002090825190811161101657610ef6825461400c565b848111610fd3575b5084938111600114610f5b579081610e31939260008051602061598983398151915295600091610f50575b508160011b916000199060031b1c19161790555b6040519182918583523395830190613ee6565b905083015187610f29565b601f1981169382600052856000209460005b87828210610fbd575050916000805160206159898339815191529560019282610e3197969510610fa4575b5050811b019055610f3d565b85015160001960f88460031b161c191690558780610f98565b8387015188556001909701969283019201610f6d565b82600052856000208580840160051c82019288851061100d575b0160051c01905b8181106110015750610efe565b60008155600101610ff4565b92508192610fed565b634e487b7160e01b600052604160045260246000fd5b905084015187610ec1565b60008481528881209250601f198416905b89828210611084575050908360019493921061106b575b5050811b019055610ed5565b86015160001960f88460031b161c19169055878061105f565b600184958293958b015181550194019201611048565b82600052866000208680840160051c8201928985106110d4575b0160051c01905b8181106110c85750610eac565b600081556001016110bb565b925081926110b4565b60405162461bcd60e51b815260048101849052601a60248201527f4e6f74206120726567697374657265642076616c696461746f720000000000006044820152606490fd5b346103ff5761113036614615565b91909261113b615113565b6001600160401b03811660005260076020526111666001600160401b03604060002054161515614d92565b6001600160401b038116600052600860205261118e600160ff81604060002001541614614dd1565b6001600160401b03811660005260076020526111b4600760406000200154831015614e13565b3360005260066020526111cc60406000205415614e5f565b60405192602084013360601b81526001600160401b0360c01b8360c01b16603486015242603c86015243605c860152683b30b634b230ba37b960b91b607c860152606585528460a08101106001600160401b0360a0870111176110165760a0850160405284519020938361170b575b50841515928361163b575b80611254876113e993615915565b3360005260136020526040600020556113146001600160401b03421660405160208101903360601b82526014815261128b8161409a565b519020906040519161129c8361407e565b8983526001600160401b03881660208401528460408401528a606084015260006080840152620f424060a0840152600060c08401528160e08401526000610100840152610120830152600161014083015261016082015284610180820152336101a08201523360005260066020526040600020614eb8565b6001600160401b038416600052600a6020526113343360406000206150c3565b33600052600c60205260406000206001600160401b0385166001600160401b03198254161790556001600160401b03841660005260086020526006604060002001805463ffffffff6113878183166150fe565b169063ffffffff19161790556001600160401b038416600052600860205260046040600020016113b8828254614c10565b90556001600160401b038416600052600860205260056040600020016113df888254614c10565b9055600354614c10565b6003553360005260126020526040600020908051906001600160401b038211611016578190611418845461400c565b601f81116115e8575b50602090601f831160011461158257600092611577575b50508160011b916000199060031b1c19161790555b3360009081527f54fa744d02e0cd6feb2b438b7701c241f85ef8aa84993c058c9ed46b60f00edc60205260409020547f21702c8af46127c7fa207f89d0b0a8441bb32959a0ac7df790e9ab1a25c989269060ff1615611523575b506001600160401b036040519184835216907f338e3ebe1c2ba26a4d625509a131c0851bef421c36c85148374933e3d161020760203392a36114eb575b6001600055005b60405191825260208201527f01ea4411ab96cb263f76479de6158313581d59dd7a739466723e1b180aafdd4e60403392a280806114e4565b8060005260016020526040600020336000526020526040600020600160ff19825416179055339033907f2f8788117e7eff1d82e926ec794901d17c78024a50270940304540a733656f0d600080a4846114a7565b015190508780611438565b6000858152602081209350601f198516905b8181106115d057509084600195949392106115b7575b505050811b01905561144d565b015160001960f88460031b161c191690558780806115aa565b92936020600181928786015181550195019301611594565b909150836000526020600020601f840160051c81019160208510611631575b90601f859493920160051c01905b8181106116225750611421565b60008155849350600101611615565b9091508190611607565b6040516323b872dd60e01b8152336004820152306024820152604481018790529060208260648160006001600160a01b037f0000000000000000000000000000000000000000000000000000000000000000165af19182156116ff576113e9926116d0575b503360005260156020526040600020600160ff198254161790556116c687600454614c10565b6004559050611246565b6116f19060203d6020116116f8575b6116e981836140d0565b810190614ea0565b50876116a0565b503d6116df565b6040513d6000823e3d90fd5b6323b872dd60e01b60a082019081523360a48301523060c483015260e4820185905260209060648160006001600160a01b037f0000000000000000000000000000000000000000000000000000000000000000165af180156116ff571561123b576117959060203d60201161179c575b60a08161178b82938386016140d0565b8301019101614ea0565b508561123b565b503d61177b565b346103ff5760003660031901126103ff5760206040516104b08152f35b346103ff5760003660031901126103ff5760206040516107d08152f35b346103ff5760603660031901126103ff576004356117f9613fe0565b90611802613ff6565b61180a614735565b60008052600960209081529061183f7fec8156718a8372b1db44bb411437d0870f3e3790d4a08526d024ce1b0b668f6b61533d565b9260009360005b815181101561190f576001600160a01b03806118628385615202565b51166000526005865283604060002054146118865750611881906151f3565b611846565b92506000805160206159698339815191529495506118a391615202565b51165b6001600160a01b0316926118bb841515615789565b6001600160401b036005818716926118e6620f42406118dc818711156157a9565b84871611156157eb565b8660005252604060002091610ab984600485016001600160401b03199384825416178155614d6a565b50505060008051602061596983398151915291926118a6565b346103ff5760403660031901126103ff57611941613ead565b600435600052600160205260406000209060018060a01b0316600052602052602060ff604060002054166040519015158152f35b346103ff576020806003193601126103ff576001600160401b0380611998613fca565b16600052600982526119ad604060002061533d565b906119b88251615562565b9260005b8351811015611a01576119fc906001600160a01b036119db8287615202565b5116600052600583528360046040600020015460401c1661058d8288615202565b6119bc565b604051806104c38782614378565b346103ff5760203660031901126103ff57611a28613e97565b611a30615216565b5060018060a01b031660005260066020526104c3611a51604060002061527f565b604051918291602083526020830190613f0b565b346103ff5760403660031901126103ff576020611a80613fca565b611a88613ead565b6001600160401b03809216600052600d835260406000209060018060a01b0316600052825260406000205416604051908152f35b346103ff5760603660031901126103ff576004356024356001600160401b036044358181116103ff57366023820112156103ff57611b04903690602481600401359101614197565b5033600052600560209181835260406000205415801590611ce9575b15611cb3578315611c7e5733600090815260148452604080822086905560158552808220805460ff1916600117905583855290205415611c3357336000528183526003604060002001611b74868254614c10565b905533600052818352600160406000200154166000526008825280604060002001611ba0858254614c10565b90555b611baf84600454614c10565b600455336000908152818352604090205415611c1c57336000528152611bdd83600260406000200154615915565b33600052601382526040600020556040519283528201527f01ea4411ab96cb263f76479de6158313581d59dd7a739466723e1b180aafdd4e60403392a2005b5060068152611bdd83600260406000200154615915565b600683526003604060002001611c4a868254614c10565b90553360005260068352600160406000200154166000526008825280604060002001611c77858254614c10565b9055611ba3565b60405162461bcd60e51b815260048101849052600d60248201526c24b73b30b634b210383937b7b360991b6044820152606490fd5b60405162461bcd60e51b815260048101849052600e60248201526d139bdd081c9959da5cdd195c995960921b6044820152606490fd5b50600683526040600020541515611b20565b346103ff57611d09366144af565b91611d1694919394614735565b84518151036121155784518451036120c657845183510361208157611d3d85511515615872565b611d4b6032865111156158be565b6000916001600160401b038116600052601060205260406000208054906001600160401b03821615612032575b50506000925b8651841015611fde576001600160a01b03611d998589615202565b51166001600160401b03611dad8686615202565b51166001600160401b03611dc1878a615202565b511690611dce8789615202565b519183600052600560205260406000205415611fb957620f4240808311908115611faf575b50611f615791839182600080516020615969833981519152611f0e9795610d52976000526005602052604060002060056004820191611e43846001600160401b0319948986825416178155614d6a565b01611e4f878254614c10565b905583600052600560205260066040600020016001600160401b034216828254161790556001600160401b038b166000526010602052600260406000200184600052602052846040600020918254161790556001600160401b038a16600052601060205260036040600020018360005260205284604060002055600560205260406000205493611efe604051928392839060209093929360408301946001600160401b03809216845216910152565b0390a380611f14575b50506151f3565b92611d7e565b8160005260056020527f4fff737101b91b6772b7b9eb51292f1f1381a0e4eb1bc86b9068a7f72a4df2a960206001600160401b036001604060002001541692604051908152a38980611f07565b50505093611f0e91946000805160206159a983398151915260405180610dad81606090602081526013602082015272496e76616c69642073636f72652072616e676560681b60408201520190565b905081118c611df3565b50505093611f0e91946000805160206159a983398151915260405180610dad81615395565b86516040805191825260208201929092526001600160401b034281169282019290925291169033907f2af621182ccb2adae36473fe85fd919c31847770bed0c8df2bca40ab71f8de54908060608101610af2565b6005906001600160401b031992836001600160401b03861691161781556120676001600160401b0360025460401c1682614d6a565b01906001600160401b034216908254161790558680611d78565b60405162461bcd60e51b815260206004820152601d60248201527f52657761726473206172726179206c656e677468206d69736d617463680000006044820152606490fd5b60405162461bcd60e51b815260206004820152602160248201527f54727573742073636f7265206172726179206c656e677468206d69736d6174636044820152600d60fb1b6064820152608490fd5b60405162461bcd60e51b815260206004820152602160248201527f506572666f726d616e6365206172726179206c656e677468206d69736d6174636044820152600d60fb1b6064820152608490fd5b346103ff5760003660031901126103ff5760206001600160401b0360025460401c16604051908152f35b346103ff5760203660031901126103ff576121a7613fca565b6121af615594565b506121d66001600160401b0380921691826000526007602052604060002054161515614d92565b60005260076020526104c36121ee6040600020615643565b6040519182916020835260208301906141fb565b346103ff5761221036614615565b91909261221b615113565b6001600160401b03811660005260076020526122466001600160401b03604060002054161515614d92565b6001600160401b038116600052600860205261226e600160ff81604060002001541614614dd1565b6001600160401b0381166000526007602052612294600660406000200154831015614e13565b3360005260056020526122ac60406000205415614e5f565b60405192602084013360601b81526001600160401b0360c01b8360c01b16603486015242603c86015243605c860152605c85528460808101106001600160401b0360808701111761101657608085016040528451902093836126bd575b508415159283612609575b806123228761249f93615915565b3360005260136020526040600020556123e26001600160401b03421660405160208101903360601b8252601481526123598161409a565b519020906040519161236a8361407e565b8983526001600160401b03881660208401528460408401528a6060840152600060808401526207a12060a0840152600060c08401528160e08401526000610100840152610120830152600161014083015261016082015284610180820152336101a08201523360005260056020526040600020614eb8565b6001600160401b03841660005260096020526124023360406000206150c3565b33600052600b60205260406000206001600160401b0385166001600160401b03198254161790556001600160401b038416600052600860205261247a600660406000200161245963ffffffff825460201c166150fe565b67ffffffff0000000082549160201b169067ffffffff000000001916179055565b6001600160401b038416600052600860205260046040600020016113b8828254614c10565b6003553360005260116020526040600020908051906001600160401b0382116110165781906124ce845461400c565b601f81116125b6575b50602090601f831160011461255057600092612545575b50508160011b916000199060031b1c19161790555b6001600160401b036040519184835216907f529e56400f4728c5a98a3efc79e8094d1dfe08248021c690f9f393e7353c84ef60203392a36114eb576001600055005b0151905087806124ee565b6000858152602081209350601f198516905b81811061259e5750908460019594939210612585575b505050811b019055612503565b015160001960f88460031b161c19169055878080612578565b92936020600181928786015181550195019301612562565b909150836000526020600020601f840160051c810191602085106125ff575b90601f859493920160051c01905b8181106125f057506124d7565b600081558493506001016125e3565b90915081906125d5565b6040516323b872dd60e01b8152336004820152306024820152604481018790529060208260648160006001600160a01b037f0000000000000000000000000000000000000000000000000000000000000000165af19182156116ff5761249f9261269e575b503360005260156020526040600020600160ff1982541617905561269487600454614c10565b6004559050612314565b6126b69060203d6020116116f8576116e981836140d0565b508761266e565b6323b872dd60e01b608082019081523360848301523060a483015260c4820185905260209060648160006001600160a01b037f0000000000000000000000000000000000000000000000000000000000000000165af180156116ff57156123095761273d9060203d602011612744575b60808161178b82938386016140d0565b5085612309565b503d61272d565b346103ff576020806003193601126103ff576001600160401b036004358181116103ff5761277d9036906004016141dd565b336000526005808452604060002054156129af5733600052808452600a60406000200192825193818511611016576127b5815461400c565b94601f9586811161296e575b50808787821160011461290b57600091612900575b508160011b916000199060031b1c19161790555b336000526011855260406000209183519182116110165761280b835461400c565b908582116128c3575b505084938111600114612865579081610e31939260008051602061598983398151915295600091610f5057508160011b916000199060031b1c19161790556040519182918583523395830190613ee6565b601f1981169382600052856000209460005b878282106128ad575050916000805160206159898339815191529560019282610e3197969510610fa4575050811b019055610f3d565b8387015188556001909701969283019201612877565b83600052866000209086808501821c8301938986106128f7575b01901c01905b8181101561281457600081556001016128e3565b935082936128dd565b9050850151886127d6565b60008481528981209250601f198416905b8a828210612958575050908360019493921061293f575b5050811b0190556127ea565b87015160001960f88460031b161c191690558880612933565b600184958293958c01518155019401920161291c565b826000528760002087808401871c8201928a85106129a6575b01861c01905b81811061299a57506127c1565b6000815560010161298d565b92508192612987565b60405162461bcd60e51b81526004810185905260166024820152752737ba1030903932b3b4b9ba32b932b21036b4b732b960511b6044820152606490fd5b346103ff5760203660031901126103ff576001600160a01b03612a0e613e97565b1660005260116020526104c3612a2760406000206140f1565b604051918291602083526020830190613ee6565b346103ff5760203660031901126103ff576001600160a01b0380612a5d613e97565b1660005260056020526040600020906104c38254926001600160401b0360018201541690600281015493600382015495600483015460058401546001600160401b03600686015416600786015491600887015493600988015496600b61048e600a8b016140f1565b346103ff57612ad3366144af565b93612ae09391929361494c565b6001600160401b0380911692836000526010602092818452612b1060ff60056040600020015460401c1615615169565b612b1d85518851146151b5565b612b2a85518451146151b5565b612b3785518951146151b5565b60005b8551811015610800578082612b52612c09938b615202565b5160008a8152868952604090206001600160a01b03929091169060010182612b7a858c615202565b5116600052885260406000206001600160401b0319918282541617905584612ba28489615202565b51168a600052868952600260406000200183612bbe868d615202565b51166000528952604060002091825416179055612bdb828c615202565b519089600052858852600360406000200190612bf7848b615202565b511660005287526040600020556151f3565b612b3a565b346103ff5760203660031901126103ff576001600160a01b03612c2f613e97565b166000526015602052602060ff604060002054166040519015158152f35b346103ff5760003660031901126103ff576020600354604051908152f35b346103ff5760203660031901126103ff5760a06001600160401b0380612c8f613fca565b16600052601060205260ff604060002080549260056004830154920154918160405195818116875260401c16602086015260408501528116606084015260401c1615156080820152f35b346103ff5760003660031901126103ff576002546000906001600160401b03168180805b836001600160401b0382161015612dd0576001600160401b03811660005260076020526001600160401b0360406000205416612d42575b612d3d90614d52565b612cfd565b909193612dc8612d97612d6f612d3d93600860205263ffffffff60066040600020015460201c1690614c10565b966001600160401b038516600052600860205263ffffffff6006604060002001541690614c10565b936001600160401b0384166000526008602052612dc260406000206005600482015491015490614c10565b90614c10565b919050612d34565b6080858484612de460035460045490614c10565b91604051938452602084015260408301526060820152f35b346103ff5760003660031901126103ff576001600160401b038060025416612e2381615562565b6000805b84811684811015612e71578060005260076020528560406000205416612e57575b50612e5290614d52565b612e27565b82612e6a9161058d612e52949587615202565b9190612e48565b505083612e7d82615562565b9260005b838110612e9657604051806104c38782614378565b8083612ea5612eb19385615202565b511661058d8288615202565b612e81565b346103ff5760203660031901126103ff576001600160401b03612ed7613fca565b16600052600a6020526104c3610b88604060002061533d565b346103ff5760003660031901126103ff57602060405160018152f35b346103ff5760203660031901126103ff576001600160401b03612f2d613fca565b16600052600f6020526020604060002054604051908152f35b346103ff5760203660031901126103ff576001600160a01b03612f67613e97565b1660005260126020526104c3612a2760406000206140f1565b346103ff5760003660031901126103ff5760206001600160401b0360025460801c16604051908152f35b346103ff5760003660031901126103ff5760206040516105dc8152f35b346103ff5760003660031901126103ff576020604051620f42408152f35b346103ff5760403660031901126103ff57612ffe613ead565b336001600160a01b0382160361301a5761080090600435614b9a565b60405162461bcd60e51b815260206004820152602f60248201527f416363657373436f6e74726f6c3a2063616e206f6e6c792072656e6f756e636560448201526e103937b632b9903337b91039b2b63360891b6064820152608490fd5b346103ff576020806003193601126103ff5761313790613095613fca565b61309d615594565b506130a66155e9565b506130cc6001600160401b03809216918260005260078452604060002054161515614d92565b600052600781526104c360406000206008835261314e60406000209360098152604060002092600a825261314061312261311c613116613110604060002095615643565b996156ea565b9661533d565b9261533d565b946040519889986101e0808b528a01906141fb565b938801906142a6565b8582036101a087015261433b565b908382036101c085015261433b565b346103ff5760403660031901126103ff57600435613179613ead565b816000526001602052613193600160406000200154614a91565b81600052600160205260406000209060018060a01b0316908160005260205260ff60406000205416156131c257005b8160005260016020526040600020816000526020526040600020600160ff1982541617905533917f2f8788117e7eff1d82e926ec794901d17c78024a50270940304540a733656f0d600080a4005b346103ff5760003660031901126103ff5760206040517fdea1430c130e6626c2aa0a1a7a664882ab62c2e44eba35c994dbd707c7b70ab98152f35b346103ff5760203660031901126103ff57613264613fca565b5061326d61494c565b60206002546001600160401b03613288818360801c16614d52565b818116929060801b67ffffffffffffffff60801b1667ffffffffffffffff60401b6132c767ffffffffffffffff60801b198416831760401c8516614d52565b60401b169177ffffffffffffffffffffffffffffffff000000000000000019161717600255816000526010835260056040600020836001600160401b031982541617815561331c8360025460401c1682614d6a565b0181421668ffffffffffffffffff1982541617905560025460401c169060405191817f2f5155a3a89e1a88be3e86b95125ce62efbbb8c8b3136d65342347c46848d2bb600080a38152f35b346103ff5760603660031901126103ff57613380613e97565b613388613fe0565b90613391613ff6565b9061339a614735565b6001600160a01b031660008181526006602052604090205490919015613428577f5c6e2770eaf2bf15b68801ee9c69b373fc1b89f11b20c683f8bfccb369b0bc25906001600160401b03808516906133fb620f4240610a82818511156157a9565b846000526006602052604060002091610ab984600485016001600160401b03199384825416178155614d6a565b60405162461bcd60e51b815260206004820152601360248201527215985b1a59185d1bdc881b9bdd08199bdd5b99606a1b6044820152606490fd5b0390fd5b346103ff5760003660031901126103ff57602060405160028152f35b346103ff5760203660031901126103ff576001600160a01b036134a4613e97565b16600052600c60205260206001600160401b0360406000205416604051908152f35b346103ff5760203660031901126103ff5760043560005260016020526020600160406000200154604051908152f35b346103ff5760203660031901126103ff576001600160a01b03613516613e97565b16600052600b60205260206001600160401b0360406000205416604051908152f35b346103ff5760c03660031901126103ff576004356001600160401b0381116103ff576135689036906004016141dd565b6024356001600160401b0381116103ff576135879036906004016141dd565b6044359163ffffffff831683036103ff576064359163ffffffff831683036103ff57815115613c1d5763ffffffff600254936001600160401b036135cc818716614d52565b166001600160401b031986161760025581604051966135ea88614046565b6001600160401b0387168852856020890152336040890152166060870152166080850152611c2060a08501526001600160401b03421660c085015260e0840152600161010084015260843561012084015260a4356101408401526001600160401b038216600052600760205260406000206001600160401b038451166001600160401b031982541617815560208401518051906001600160401b03821161101657819061369a600185015461400c565b601f8111613bca575b50602090601f8311600114613b5857600092613b4d575b50508160011b916000199060031b1c19161760018201555b6002810160018060a01b0360408601511681549063ffffffff60a01b606088015160a01b169063ffffffff60c01b608089015160c01b169263ffffffff60e01b161717179055613750600382016001600160401b0360a0870151166001600160401b03198254161781556001600160401b0360c08701511690614d6a565b60e08401519384516001600160401b03811161101657613773600484015461400c565b95601f8711613b06575b602096508690601f8311600114613a925791806007949261014094600092613a87575b50508160011b916000199060031b1c19161760048501555b63ffffffff6101008201511663ffffffff19600586015416176005850155610120810151600685015501519101556139956040516137f581614062565b6001600160401b0384168152620f424085820152600060408201526000606082015260016080820152600060a0820152620f424060c08201526001600160401b03421660e082015260006101008201526000610120820152600061014082015260006101608201526001600160401b0384166000526008855263ffffffff610160600660406000206001600160401b038551166001600160401b03198254161781556138ad6001600160401b038a8701511682614d6a565b604085015181546fffffffffffffffffffffffffffffffff6001600160401b0360c01b606089015160c01b16926001600160401b0360801b9060801b1691161717815560ff60808601511660ff1960018301541617600182015560a08501516002820155613949600382016001600160401b0360c0880151166001600160401b03198254161781556001600160401b0360e08801511690614d6a565b6101008501516004820155610120850151600582015501928261014082015116831985541617845501511667ffffffff0000000082549160201b169067ffffffff000000001916179055565b7fdea1430c130e6626c2aa0a1a7a664882ab62c2e44eba35c994dbd707c7b70ab98060005260018452604060002033600052845260ff6040600020541615613a35575b507f5d6943eed6b28b798177bcb465658cca4e137e72861014a967333bf23ab2846b613a0f60405192604084526040840190613ee6565b913385820152806001600160401b038516930390a26001600160401b0360405191168152f35b806000526001845260406000203360005284526040600020600160ff19825416179055339033907f2f8788117e7eff1d82e926ec794901d17c78024a50270940304540a733656f0d600080a4836139d8565b0151905089806137a0565b9060048501600052876000209160005b601f1985168110613aef575092600794926001926101409583601f19811610613ad6575b505050811b0160048501556137b8565b015160001960f88460031b161c19169055898080613ac6565b919289600181928685015181550194019201613aa2565b600484016000526020600020601f830160051c810160208410613b46575b601f890160051c82018110613b3a57505061377d565b60008155600101613b24565b5080613b24565b0151905086806136ba565b9250600184016000526020600020906000935b601f1984168510613baf576001945083601f19811610613b96575b505050811b0160018201556136d2565b015160001960f88460031b161c19169055868080613b86565b81810151835560209485019460019093019290910190613b6b565b909150600184016000526020600020601f840160051c810160208510613c16575b90849392915b601f830160051c82018110613c075750506136a3565b60008155859450600101613bf1565b5080613beb565b60405162461bcd60e51b815260206004820152600d60248201526c13985b59481c995c5d5a5c9959609a1b6044820152606490fd5b346103ff5760203660031901126103ff576001600160401b0380613c74613fca565b16600052600760205260406000208181541690613c93600182016140f1565b92600282015491613d27600382015493613caf600484016140f1565b63ffffffff9485600586015416966007600687015496015496613ce66040519b8c9b8c5260208c61016091829101528c0190613ee6565b9460018060a01b03811660408c0152818160a01c1660608c015260c01c1660808a015281811660a08a015260401c1660c088015286820360e0880152613ee6565b926101008501526101208401526101408301520390f35b346103ff5760203660031901126103ff576001600160a01b03613d5f613e97565b1660005260136020526020604060002054604051908152f35b346103ff5760003660031901126103ff576040517f00000000000000000000000000000000000000000000000000000000000000006001600160a01b03168152602090f35b346103ff5760203660031901126103ff57613dd6613e97565b613dde615216565b5060018060a01b031660005260056020526104c3611a51604060002061527f565b346103ff5760003660031901126103ff576040517f00000000000000000000000000000000000000000000000000000000000000006001600160a01b03168152602090f35b346103ff5760203660031901126103ff576004359063ffffffff60e01b82168092036103ff57602091637965db0b60e01b8114908115613e86575b5015158152f35b6301ffc9a760e01b14905083613e7f565b600435906001600160a01b03821682036103ff57565b602435906001600160a01b03821682036103ff57565b60005b838110613ed65750506000910152565b8181015183820152602001613ec6565b90602091613eff81518092818552858086019101613ec3565b601f01601f1916010190565b90815181526001600160401b0380602084015116602083015260408301516040830152606083015160608301528060808401511660808301528060a08401511660a083015260c083015160c08301528060e08401511660e08301526101008084015190830152610120808401519083015261014060ff81850151169083015261016090818401511690820152613fb261018080840151906101c08091850152830190613ee6565b6101a0928301516001600160a01b0316919092015290565b600435906001600160401b03821682036103ff57565b602435906001600160401b03821682036103ff57565b604435906001600160401b03821682036103ff57565b90600182811c9216801561403c575b602083101461402657565b634e487b7160e01b600052602260045260246000fd5b91607f169161401b565b61016081019081106001600160401b0382111761101657604052565b61018081019081106001600160401b0382111761101657604052565b6101c081019081106001600160401b0382111761101657604052565b604081019081106001600160401b0382111761101657604052565b608081019081106001600160401b0382111761101657604052565b90601f801991011681019081106001600160401b0382111761101657604052565b90604051918260008254926141058461400c565b9081845260019485811690816000146141745750600114614131575b505061412f925003836140d0565b565b9093915060005260209081600020936000915b81831061415c57505061412f93508201013880614121565b85548884018501529485019487945091830191614144565b91505061412f94506020925060ff191682840152151560051b8201013880614121565b9291926001600160401b03821161101657604051916141c0601f8201601f1916602001846140d0565b8294818452818301116103ff578281602093846000960137010152565b9080601f830112156103ff578160206141f893359101614197565b90565b906001600160401b03918281511682526142806142276020830151610160806020870152850190613ee6565b60018060a01b03604084015116604085015263ffffffff948560608501511660608601528560808501511660808601528060a08501511660a086015260c08401511660c085015260e083015184820360e0860152613ee6565b926101009081830151169083015261012080820151908301526101408091015191015290565b6001600160401b0380825116835280602083015116602084015280604083015116604084015280606083015116606084015260ff608083015116608084015260a082015160a08401528060c08301511660c084015260e08201511660e08301526101008082015190830152610120808201519083015263ffffffff610140818184015116908401526101608092015116910152565b90815180825260208080930193019160005b82811061435b575050505090565b83516001600160a01b03168552938101939281019260010161434d565b6020908160408183019282815285518094520193019160005b82811061439f575050505090565b83516001600160401b031685529381019392810192600101614391565b6001600160401b0381116110165760051b60200190565b81601f820112156103ff578035916143ea836143bc565b926143f860405194856140d0565b808452602092838086019260051b8201019283116103ff578301905b828210614422575050505090565b81356001600160a01b03811681036103ff578152908301908301614414565b81601f820112156103ff57803591614458836143bc565b9261446660405194856140d0565b808452602092838086019260051b8201019283116103ff578301905b828210614490575050505090565b81356001600160401b03811681036103ff578152908301908301614482565b9060a06003198301126103ff576001600160401b039160043583811681036103ff57926024358181116103ff57826144e9916004016143d3565b926044358281116103ff578361450191600401614441565b926064358381116103ff578161451991600401614441565b926084359081116103ff57816023820112156103ff5780600401359161453e836143bc565b9261454c60405194856140d0565b80845260209260248486019260051b8201019283116103ff57602401905b828210614578575050505090565b8135815290830190830161456a565b9d9e9d60a0819e9b969a95946146059d986101a09f9b9560ff9b9585526001600160401b039d8e988994858094166020890152604088015260608701521660808501521691015260c08d01521660e08b01526101008a015261012089015216610140870152166101608501526101c080610180860152840190613ee6565b6001600160a01b03909416910152565b60806003198201126103ff576001600160401b039060043582811681036103ff579260243592604435926064359182116103ff576141f8916004016141dd565b6020908160408183019282815285518094520193019160005b82811061467c575050505090565b83518552938101939281019260010161466e565b80548210156146a85760005260206000200190600090565b634e487b7160e01b600052603260045260246000fd5b9b98939260ff969d9e9d8d60806146059d989b956101809f9b9583526001600160401b039c8d98899687809416602087015260408601526060850152169101521660a08d015260c08c01521660e08a015261010089015216610120870152166101408501526101a080610160860152840190613ee6565b3360009081527f54fa744d02e0cd6feb2b438b7701c241f85ef8aa84993c058c9ed46b60f00edc602090815260408083205490927f21702c8af46127c7fa207f89d0b0a8441bb32959a0ac7df790e9ab1a25c989269160019060ff161561479d575050505050565b6147a633614c44565b928551916147b3836140b5565b60428352858301936060368637835115614938576030855383518210156149385790607860218501536041915b8183116148ca5750505061488857604861346393869361486c9361485d985198899376020b1b1b2b9b9a1b7b73a3937b61d1030b1b1b7bab73a1604d1b8a860152614834815180928c603789019101613ec3565b8401917001034b99036b4b9b9b4b733903937b6329607d1b603784015251809386840190613ec3565b010360288101875201856140d0565b5192839262461bcd60e51b845260048401526024830190613ee6565b60648486519062461bcd60e51b825280600483015260248201527f537472696e67733a20686578206c656e67746820696e73756666696369656e746044820152fd5b909192600f81166010811015614924576f181899199a1a9b1b9c1cb0b131b232b360811b901a6148fa8587614c33565b5360041c928015614910576000190191906147e0565b634e487b7160e01b82526011600452602482fd5b634e487b7160e01b83526032600452602483fd5b634e487b7160e01b81526032600452602490fd5b3360009081527feb08ee940d1ac9662e9a9716182c59a5990cef3b0e0128641fc5bdd20ac78a52602090815260408083205490927f36fd43ede163045b10e1f0abd16f62f165fce3fa7b6cde217bcea3bc47663acc9160019060ff16156149b4575050505050565b6149bd33614c44565b928551916149ca836140b5565b60428352858301936060368637835115614938576030855383518210156149385790607860218501536041915b818311614a4b5750505061488857604861346393869361486c9361485d985198899376020b1b1b2b9b9a1b7b73a3937b61d1030b1b1b7bab73a1604d1b8a860152614834815180928c603789019101613ec3565b909192600f81166010811015614924576f181899199a1a9b1b9c1cb0b131b232b360811b901a614a7b8587614c33565b5360041c928015614910576000190191906149f7565b6000818152600191602091838352604093848220338352845260ff858320541615614abd575050505050565b614ac633614c44565b92855191614ad3836140b5565b60428352858301936060368637835115614938576030855383518210156149385790607860218501536041915b818311614b545750505061488857604861346393869361486c9361485d985198899376020b1b1b2b9b9a1b7b73a3937b61d1030b1b1b7bab73a1604d1b8a860152614834815180928c603789019101613ec3565b909192600f81166010811015614924576f181899199a1a9b1b9c1cb0b131b232b360811b901a614b848587614c33565b5360041c92801561491057600019019190614b00565b906000918083526001602052604083209160018060a01b03169182845260205260ff604084205416614bcb57505050565b8083526001602052604083208284526020526040832060ff1981541690557ff6391f5c32d9c69d2a47ea670b442974b53935d1edc7fd64eb21e047a839171b339380a4565b91908201809211614c1d57565b634e487b7160e01b600052601160045260246000fd5b9081518110156146a8570160200190565b60405190606082018281106001600160401b0382111761101657604052602a82526020820160403682378251156146a8576030905381516001908110156146a857607860218401536029905b808211614ce4575050614ca05790565b606460405162461bcd60e51b815260206004820152602060248201527f537472696e67733a20686578206c656e67746820696e73756666696369656e746044820152fd5b9091600f81166010811015614d3d576f181899199a1a9b1b9c1cb0b131b232b360811b901a614d138486614c33565b5360041c918015614d28576000190190614c90565b60246000634e487b7160e01b81526011600452fd5b60246000634e487b7160e01b81526032600452fd5b6001600160401b03809116908114614c1d5760010190565b9067ffffffffffffffff60401b82549160401b169067ffffffffffffffff60401b1916179055565b15614d9957565b60405162461bcd60e51b815260206004820152601060248201526f14dd589b995d081b9bdd08199bdd5b9960821b6044820152606490fd5b15614dd857565b60405162461bcd60e51b8152602060048201526013602482015272149959da5cdd1c985d1a5bdb8818db1bdcd959606a1b6044820152606490fd5b15614e1a57565b60405162461bcd60e51b815260206004820152601760248201527f496e73756666696369656e7420434f5245207374616b650000000000000000006044820152606490fd5b15614e6657565b60405162461bcd60e51b8152602060048201526012602482015271105b1c9958591e481c9959da5cdd195c995960721b6044820152606490fd5b908160209103126103ff575180151581036103ff5790565b9190805183556001928381016001600160401b0394602091868386015116906001600160401b031991828254161790556040850151600285015560608501516003850155614f1e6004850188608088015116838254161781558860a08801511690614d6a565b60c0850151600585015560068401908760e08701511690825416179055610100840151600784015561012084015160088401556009830160ff6101408601511681549068ffffffffffffffff0061016088015160081b169168ffffffffffffffffff191617179055600a830191610180850151805197881161101657614fa4845461400c565b601f811161507a575b5081601f891160011461501257509680928192600b979899600094615007575b50501b916000199060031b1c19161790555b01906101a060018060a01b03910151166bffffffffffffffffffffffff60a01b825416179055565b015192503880614fcd565b909791601f198316988560005282600020926000905b8b821061506357505083600b98999a1061504a575b505050811b019055614fdf565b015160001960f88460031b161c1916905538808061503d565b808785968294968601518155019501930190615028565b6000858152838120601f8b0160051c810192858c106150b9575b601f0160051c019185905b8381106150ae57505050614fad565b82815501859061509f565b9092508290615094565b8054600160401b811015611016576150e091600182018155614690565b819291549060031b9160018060a01b03809116831b921b1916179055565b63ffffffff809116908114614c1d5760010190565b600260005414615124576002600055565b60405162461bcd60e51b815260206004820152601f60248201527f5265656e7472616e637947756172643a207265656e7472616e742063616c6c006044820152606490fd5b1561517057565b60405162461bcd60e51b815260206004820152601760248201527f526f756e6420616c72656164792066696e616c697a65640000000000000000006044820152606490fd5b156151bc57565b60405162461bcd60e51b815260206004820152600f60248201526e098cadccee8d040dad2e6dac2e8c6d608b1b6044820152606490fd5b6000198114614c1d5760010190565b80518210156146a85760209160051b010190565b604051906152238261407e565b816101a06000918281528260208201528260408201528260608201528260808201528260a08201528260c08201528260e08201528261010082015282610120820152826101408201528261016082015260606101808201520152565b9060405161528c8161407e565b6101a08193805483526001600160401b038060018301541660208501526002820154604085015260038201546060850152806004830154818116608087015260401c1660a0850152600582015460c08501528060068301541660e085015260078201546101008501526008820154610120850152600982015460ff811661014086015260081c16610160840152615325600a82016140f1565b610180840152600b01546001600160a01b0316910152565b9060405191828154918282526020928383019160005283600020936000905b8282106153725750505061412f925003836140d0565b85546001600160a01b03168452600195860195889550938101939091019061535c565b60609060208152600f60208201526e135a5b995c881b9bdd08199bdd5b99608a1b60408201520190565b6000916060908380526020600981526040946153dc86822061533d565b90805b82518110156154af576001600160a01b03806153fb8386615202565b511683528860058087528982862054146154205750505061541b906151f3565b6153df565b9195969798509291615436869161544296615202565b5116825285522061527f565b80516001600160401b0380948301511696820151958201519484608084015116948060a0850151169460c0850151948260e082015116946101008201519460ff610140840151169461016084015116936101a061018085015194015116919c9b9a99989796959493929190565b875162461bcd60e51b81528061346360048201615395565b6000916060908380526020600a81526040946154e486822061533d565b90805b8251811015615528576001600160a01b03806155038386615202565b5116835288600680875289828620541461542057505050615523906151f3565b6154e7565b875162461bcd60e51b815260206004820152601360248201527215985b1a59185d1bdc881b9bdd08199bdd5b99606a1b6044820152606490fd5b9061556c826143bc565b61557960405191826140d0565b828152809261558a601f19916143bc565b0190602036910137565b604051906155a182614046565b81610140600091828152606060208201528260408201528260608201528260808201528260a08201528260c0820152606060e082015282610100820152826101208201520152565b604051906155f682614062565b816101606000918281528260208201528260408201528260608201528260808201528260a08201528260c08201528260e08201528261010082015282610120820152826101408201520152565b9060405161565081614046565b610140600782946001600160401b03808254168552615671600183016140f1565b602086015260028201549060018060a01b038216604087015263ffffffff8281809460a01c16606089015260c01c166080870152600383015481811660a088015260401c1660c08601526156c7600483016140f1565b60e086015260058201541661010085015260068101546101208501520154910152565b906040516156f781614062565b6101606006829480546001600160401b03908181168652818160401c166020870152818160801c16604087015260c01c606086015260ff6001830154166080860152600282015460a0860152600382015481811660c087015260401c1660e085015260048101546101008501526005810154610120850152015463ffffffff9081811661014085015260201c16910152565b1561579057565b60405162461bcd60e51b81528061346360048201615395565b156157b057565b60405162461bcd60e51b8152602060048201526013602482015272496e76616c696420706572666f726d616e636560681b6044820152606490fd5b156157f257565b60405162461bcd60e51b8152602060048201526013602482015272496e76616c69642074727573742073636f726560681b6044820152606490fd5b1561583457565b60405162461bcd60e51b8152602060048201526016602482015275082e4e4c2f2e640d8cadccee8d040dad2e6dac2e8c6d60531b6044820152606490fd5b1561587957565b60405162461bcd60e51b815260206004820152601860248201527f456d70747920617272617973206e6f7420616c6c6f77656400000000000000006044820152606490fd5b156158c557565b60405162461bcd60e51b815260206004820152602260248201527f546f6f206d616e79206d696e65727320286d6178203530207065722062617463604482015261682960f01b6064820152608490fd5b908015615960576103e89182810290808204841490151715614c1d57048181106159415750506107d090565b6101f481106159525750506105dc90565b6064116141f857506104b090565b50506103e89056fe5a24b67363d3a8ec85a2acbd037e1606bf9847e9a87308d2af106336e4bd09c4060a16d12d0dfc76a33a2d280e8544990981e010744db7750feb63a17041c571bd0bef065c6a59191d6c1a3b462252359bc6dfb348d2b4f3885c81a424ffc530a26469706673582212203da47b0b92d39baa3dacdeda54722b1e754c05fa4bf5df400bb808cabf53b03164736f6c634300081300332f8788117e7eff1d82e926ec794901d17c78024a50270940304540a733656f0da6eef7e35abe7026729641147f7915573c7e97b47efa546f5f6e3230263bcb49",
  "linkReferences": {},
  "deployedLinkReferences": {}
}