{
  "_format": "hh-sol-artifact-1",
  "contractName": "ModernTensor",
  "sourceName": "contracts/ModernTensor.sol",
  "abi": [
    {
      "inputs": [
        {
          "internalType": "address",
          "name": "_coreToken",
          "type": "address"
        }
      ],
      "stateMutability": "nonpayable",
      "type": "constructor"
    },
    {
      "anonymous": false,
      "inputs": [
        {
          "indexed": true,
          "internalType": "address",
          "name": "user",
          "type": "address"
        },
        {
          "indexed": true,
          "internalType": "bytes32",
          "name": "txHash",
          "type": "bytes32"
        },
        {
          "indexed": false,
          "internalType": "uint256",
          "name": "amount",
          "type": "uint256"
        },
        {
          "indexed": false,
          "internalType": "uint256",
          "name": "lockTime",
          "type": "uint256"
        }
      ],
      "name": "BitcoinStaked",
      "type": "event"
    },
    {
      "anonymous": false,
      "inputs": [
        {
          "indexed": true,
          "internalType": "address",
          "name": "miner",
          "type": "address"
        },
        {
          "indexed": true,
          "internalType": "bytes32",
          "name": "uid",
          "type": "bytes32"
        },
        {
          "indexed": true,
          "internalType": "uint64",
          "name": "subnetUid",
          "type": "uint64"
        },
        {
          "indexed": false,
          "internalType": "uint256",
          "name": "stake",
          "type": "uint256"
        },
        {
          "indexed": false,
          "internalType": "uint256",
          "name": "bitcoinStake",
          "type": "uint256"
        },
        {
          "indexed": false,
          "internalType": "string",
          "name": "apiEndpoint",
          "type": "string"
        }
      ],
      "name": "MinerRegistered",
      "type": "event"
    },
    {
      "anonymous": false,
      "inputs": [
        {
          "indexed": true,
          "internalType": "address",
          "name": "miner",
          "type": "address"
        },
        {
          "indexed": true,
          "internalType": "bytes32",
          "name": "uid",
          "type": "bytes32"
        },
        {
          "indexed": false,
          "internalType": "uint256",
          "name": "newPerformance",
          "type": "uint256"
        },
        {
          "indexed": false,
          "internalType": "uint256",
          "name": "newTrustScore",
          "type": "uint256"
        }
      ],
      "name": "MinerScoreUpdated",
      "type": "event"
    },
    {
      "anonymous": false,
      "inputs": [
        {
          "indexed": true,
          "internalType": "address",
          "name": "miner",
          "type": "address"
        },
        {
          "indexed": true,
          "internalType": "bytes32",
          "name": "oldUID",
          "type": "bytes32"
        },
        {
          "indexed": true,
          "internalType": "bytes32",
          "name": "newUID",
          "type": "bytes32"
        }
      ],
      "name": "MinerUIDUpdated",
      "type": "event"
    },
    {
      "anonymous": false,
      "inputs": [
        {
          "indexed": true,
          "internalType": "address",
          "name": "previousOwner",
          "type": "address"
        },
        {
          "indexed": true,
          "internalType": "address",
          "name": "newOwner",
          "type": "address"
        }
      ],
      "name": "OwnershipTransferred",
      "type": "event"
    },
    {
      "anonymous": false,
      "inputs": [
        {
          "indexed": false,
          "internalType": "address",
          "name": "account",
          "type": "address"
        }
      ],
      "name": "Paused",
      "type": "event"
    },
    {
      "anonymous": false,
      "inputs": [
        {
          "indexed": true,
          "internalType": "address",
          "name": "user",
          "type": "address"
        },
        {
          "indexed": false,
          "internalType": "uint256",
          "name": "amount",
          "type": "uint256"
        },
        {
          "indexed": false,
          "internalType": "uint256",
          "name": "tier",
          "type": "uint256"
        }
      ],
      "name": "RewardsDistributed",
      "type": "event"
    },
    {
      "anonymous": false,
      "inputs": [
        {
          "indexed": true,
          "internalType": "uint64",
          "name": "uid",
          "type": "uint64"
        },
        {
          "indexed": false,
          "internalType": "string",
          "name": "name",
          "type": "string"
        },
        {
          "indexed": true,
          "internalType": "address",
          "name": "owner",
          "type": "address"
        }
      ],
      "name": "SubnetCreated",
      "type": "event"
    },
    {
      "anonymous": false,
      "inputs": [
        {
          "indexed": false,
          "internalType": "address",
          "name": "account",
          "type": "address"
        }
      ],
      "name": "Unpaused",
      "type": "event"
    },
    {
      "anonymous": false,
      "inputs": [
        {
          "indexed": true,
          "internalType": "address",
          "name": "validator",
          "type": "address"
        },
        {
          "indexed": true,
          "internalType": "bytes32",
          "name": "uid",
          "type": "bytes32"
        },
        {
          "indexed": true,
          "internalType": "uint64",
          "name": "subnetUid",
          "type": "uint64"
        },
        {
          "indexed": false,
          "internalType": "uint256",
          "name": "stake",
          "type": "uint256"
        },
        {
          "indexed": false,
          "internalType": "uint256",
          "name": "bitcoinStake",
          "type": "uint256"
        },
        {
          "indexed": false,
          "internalType": "string",
          "name": "apiEndpoint",
          "type": "string"
        }
      ],
      "name": "ValidatorRegistered",
      "type": "event"
    },
    {
      "anonymous": false,
      "inputs": [
        {
          "indexed": true,
          "internalType": "address",
          "name": "validator",
          "type": "address"
        },
        {
          "indexed": true,
          "internalType": "bytes32",
          "name": "uid",
          "type": "bytes32"
        },
        {
          "indexed": false,
          "internalType": "uint256",
          "name": "newPerformance",
          "type": "uint256"
        },
        {
          "indexed": false,
          "internalType": "uint256",
          "name": "newTrustScore",
          "type": "uint256"
        }
      ],
      "name": "ValidatorScoreUpdated",
      "type": "event"
    },
    {
      "anonymous": false,
      "inputs": [
        {
          "indexed": true,
          "internalType": "address",
          "name": "validator",
          "type": "address"
        },
        {
          "indexed": true,
          "internalType": "bytes32",
          "name": "oldUID",
          "type": "bytes32"
        },
        {
          "indexed": true,
          "internalType": "bytes32",
          "name": "newUID",
          "type": "bytes32"
        }
      ],
      "name": "ValidatorUIDUpdated",
      "type": "event"
    },
    {
      "inputs": [],
      "name": "MAX_PERFORMANCE",
      "outputs": [
        {
          "internalType": "uint256",
          "name": "",
          "type": "uint256"
        }
      ],
      "stateMutability": "view",
      "type": "function"
    },
    {
      "inputs": [],
      "name": "MIN_STAKE",
      "outputs": [
        {
          "internalType": "uint256",
          "name": "",
          "type": "uint256"
        }
      ],
      "stateMutability": "view",
      "type": "function"
    },
    {
      "inputs": [],
      "name": "SCALE_FACTOR",
      "outputs": [
        {
          "internalType": "uint256",
          "name": "",
          "type": "uint256"
        }
      ],
      "stateMutability": "view",
      "type": "function"
    },
    {
      "inputs": [],
      "name": "STATUS_ACTIVE",
      "outputs": [
        {
          "internalType": "uint8",
          "name": "",
          "type": "uint8"
        }
      ],
      "stateMutability": "view",
      "type": "function"
    },
    {
      "inputs": [],
      "name": "STATUS_INACTIVE",
      "outputs": [
        {
          "internalType": "uint8",
          "name": "",
          "type": "uint8"
        }
      ],
      "stateMutability": "view",
      "type": "function"
    },
    {
      "inputs": [],
      "name": "STATUS_JAILED",
      "outputs": [
        {
          "internalType": "uint8",
          "name": "",
          "type": "uint8"
        }
      ],
      "stateMutability": "view",
      "type": "function"
    },
    {
      "inputs": [
        {
          "internalType": "bytes32",
          "name": "",
          "type": "bytes32"
        }
      ],
      "name": "bitcoinLockTimes",
      "outputs": [
        {
          "internalType": "uint256",
          "name": "",
          "type": "uint256"
        }
      ],
      "stateMutability": "view",
      "type": "function"
    },
    {
      "inputs": [
        {
          "internalType": "bytes32",
          "name": "",
          "type": "bytes32"
        }
      ],
      "name": "bitcoinStakeAmounts",
      "outputs": [
        {
          "internalType": "uint256",
          "name": "",
          "type": "uint256"
        }
      ],
      "stateMutability": "view",
      "type": "function"
    },
    {
      "inputs": [
        {
          "internalType": "address",
          "name": "",
          "type": "address"
        }
      ],
      "name": "bitcoinTxHashes",
      "outputs": [
        {
          "internalType": "bytes32",
          "name": "",
          "type": "bytes32"
        }
      ],
      "stateMutability": "view",
      "type": "function"
    },
    {
      "inputs": [
        {
          "internalType": "address",
          "name": "user",
          "type": "address"
        }
      ],
      "name": "calculateStakingTier",
      "outputs": [
        {
          "internalType": "uint256",
          "name": "",
          "type": "uint256"
        }
      ],
      "stateMutability": "view",
      "type": "function"
    },
    {
      "inputs": [],
      "name": "coreToken",
      "outputs": [
        {
          "internalType": "contract IERC20",
          "name": "",
          "type": "address"
        }
      ],
      "stateMutability": "view",
      "type": "function"
    },
    {
      "inputs": [
        {
          "internalType": "uint64",
          "name": "uid",
          "type": "uint64"
        },
        {
          "internalType": "string",
          "name": "name",
          "type": "string"
        },
        {
          "internalType": "string",
          "name": "description",
          "type": "string"
        },
        {
          "internalType": "uint256",
          "name": "maxMiners",
          "type": "uint256"
        },
        {
          "internalType": "uint256",
          "name": "maxValidators",
          "type": "uint256"
        },
        {
          "internalType": "uint256",
          "name": "immunityPeriod",
          "type": "uint256"
        },
        {
          "internalType": "uint256",
          "name": "minMinerStake",
          "type": "uint256"
        },
        {
          "internalType": "uint256",
          "name": "minValidatorStake",
          "type": "uint256"
        },
        {
          "internalType": "uint256",
          "name": "registrationCost",
          "type": "uint256"
        }
      ],
      "name": "createSubnet",
      "outputs": [],
      "stateMutability": "nonpayable",
      "type": "function"
    },
    {
      "inputs": [
        {
          "internalType": "address",
          "name": "user",
          "type": "address"
        },
        {
          "internalType": "uint256",
          "name": "baseReward",
          "type": "uint256"
        }
      ],
      "name": "distributeRewards",
      "outputs": [],
      "stateMutability": "nonpayable",
      "type": "function"
    },
    {
      "inputs": [
        {
          "internalType": "address",
          "name": "token",
          "type": "address"
        },
        {
          "internalType": "uint256",
          "name": "amount",
          "type": "uint256"
        }
      ],
      "name": "emergencyWithdraw",
      "outputs": [],
      "stateMutability": "nonpayable",
      "type": "function"
    },
    {
      "inputs": [],
      "name": "getAllMiners",
      "outputs": [
        {
          "internalType": "address[]",
          "name": "",
          "type": "address[]"
        }
      ],
      "stateMutability": "view",
      "type": "function"
    },
    {
      "inputs": [],
      "name": "getAllSubnets",
      "outputs": [
        {
          "internalType": "uint64[]",
          "name": "",
          "type": "uint64[]"
        }
      ],
      "stateMutability": "view",
      "type": "function"
    },
    {
      "inputs": [],
      "name": "getAllValidators",
      "outputs": [
        {
          "internalType": "address[]",
          "name": "",
          "type": "address[]"
        }
      ],
      "stateMutability": "view",
      "type": "function"
    },
    {
      "inputs": [
        {
          "internalType": "address",
          "name": "minerAddr",
          "type": "address"
        }
      ],
      "name": "getMinerInfo",
      "outputs": [
        {
          "components": [
            {
              "internalType": "bytes32",
              "name": "uid",
              "type": "bytes32"
            },
            {
              "internalType": "uint64",
              "name": "subnetUid",
              "type": "uint64"
            },
            {
              "internalType": "uint256",
              "name": "stake",
              "type": "uint256"
            },
            {
              "internalType": "uint256",
              "name": "bitcoinStake",
              "type": "uint256"
            },
            {
              "internalType": "uint256",
              "name": "lastPerformance",
              "type": "uint256"
            },
            {
              "internalType": "uint256",
              "name": "trustScore",
              "type": "uint256"
            },
            {
              "internalType": "uint256",
              "name": "accumulatedRewards",
              "type": "uint256"
            },
            {
              "internalType": "uint256",
              "name": "lastUpdateTimestamp",
              "type": "uint256"
            },
            {
              "internalType": "uint256",
              "name": "registrationTimestamp",
              "type": "uint256"
            },
            {
              "internalType": "uint8",
              "name": "status",
              "type": "uint8"
            },
            {
              "internalType": "bytes32",
              "name": "performanceHistoryHash",
              "type": "bytes32"
            },
            {
              "internalType": "string",
              "name": "apiEndpoint",
              "type": "string"
            },
            {
              "internalType": "address",
              "name": "owner",
              "type": "address"
            }
          ],
          "internalType": "struct ModernTensor.MinerInfo",
          "name": "",
          "type": "tuple"
        }
      ],
      "stateMutability": "view",
      "type": "function"
    },
    {
      "inputs": [],
      "name": "getStakingTiers",
      "outputs": [
        {
          "components": [
            {
              "internalType": "uint256",
              "name": "minCoreRatio",
              "type": "uint256"
            },
            {
              "internalType": "uint256",
              "name": "multiplier",
              "type": "uint256"
            },
            {
              "internalType": "string",
              "name": "name",
              "type": "string"
            }
          ],
          "internalType": "struct ModernTensor.StakingTier[]",
          "name": "",
          "type": "tuple[]"
        }
      ],
      "stateMutability": "view",
      "type": "function"
    },
    {
      "inputs": [
        {
          "internalType": "uint64",
          "name": "subnetUid",
          "type": "uint64"
        }
      ],
      "name": "getSubnetInfo",
      "outputs": [
        {
          "components": [
            {
              "internalType": "uint64",
              "name": "uid",
              "type": "uint64"
            },
            {
              "internalType": "string",
              "name": "name",
              "type": "string"
            },
            {
              "internalType": "string",
              "name": "description",
              "type": "string"
            },
            {
              "internalType": "uint256",
              "name": "maxMiners",
              "type": "uint256"
            },
            {
              "internalType": "uint256",
              "name": "maxValidators",
              "type": "uint256"
            },
            {
              "internalType": "uint256",
              "name": "immunityPeriod",
              "type": "uint256"
            },
            {
              "internalType": "uint256",
              "name": "minMinerStake",
              "type": "uint256"
            },
            {
              "internalType": "uint256",
              "name": "minValidatorStake",
              "type": "uint256"
            },
            {
              "internalType": "uint256",
              "name": "registrationCost",
              "type": "uint256"
            },
            {
              "internalType": "address",
              "name": "owner",
              "type": "address"
            },
            {
              "internalType": "uint256",
              "name": "creationTimestamp",
              "type": "uint256"
            }
          ],
          "internalType": "struct ModernTensor.SubnetInfo",
          "name": "",
          "type": "tuple"
        }
      ],
      "stateMutability": "view",
      "type": "function"
    },
    {
      "inputs": [
        {
          "internalType": "address",
          "name": "validatorAddr",
          "type": "address"
        }
      ],
      "name": "getValidatorInfo",
      "outputs": [
        {
          "components": [
            {
              "internalType": "bytes32",
              "name": "uid",
              "type": "bytes32"
            },
            {
              "internalType": "uint64",
              "name": "subnetUid",
              "type": "uint64"
            },
            {
              "internalType": "uint256",
              "name": "stake",
              "type": "uint256"
            },
            {
              "internalType": "uint256",
              "name": "bitcoinStake",
              "type": "uint256"
            },
            {
              "internalType": "uint256",
              "name": "lastPerformance",
              "type": "uint256"
            },
            {
              "internalType": "uint256",
              "name": "trustScore",
              "type": "uint256"
            },
            {
              "internalType": "uint256",
              "name": "accumulatedRewards",
              "type": "uint256"
            },
            {
              "internalType": "uint256",
              "name": "lastUpdateTimestamp",
              "type": "uint256"
            },
            {
              "internalType": "uint256",
              "name": "registrationTimestamp",
              "type": "uint256"
            },
            {
              "internalType": "uint8",
              "name": "status",
              "type": "uint8"
            },
            {
              "internalType": "bytes32",
              "name": "performanceHistoryHash",
              "type": "bytes32"
            },
            {
              "internalType": "string",
              "name": "apiEndpoint",
              "type": "string"
            },
            {
              "internalType": "address",
              "name": "owner",
              "type": "address"
            }
          ],
          "internalType": "struct ModernTensor.ValidatorInfo",
          "name": "",
          "type": "tuple"
        }
      ],
      "stateMutability": "view",
      "type": "function"
    },
    {
      "inputs": [
        {
          "internalType": "uint256",
          "name": "",
          "type": "uint256"
        }
      ],
      "name": "minerAddresses",
      "outputs": [
        {
          "internalType": "address",
          "name": "",
          "type": "address"
        }
      ],
      "stateMutability": "view",
      "type": "function"
    },
    {
      "inputs": [
        {
          "internalType": "address",
          "name": "",
          "type": "address"
        }
      ],
      "name": "miners",
      "outputs": [
        {
          "internalType": "bytes32",
          "name": "uid",
          "type": "bytes32"
        },
        {
          "internalType": "uint64",
          "name": "subnetUid",
          "type": "uint64"
        },
        {
          "internalType": "uint256",
          "name": "stake",
          "type": "uint256"
        },
        {
          "internalType": "uint256",
          "name": "bitcoinStake",
          "type": "uint256"
        },
        {
          "internalType": "uint256",
          "name": "lastPerformance",
          "type": "uint256"
        },
        {
          "internalType": "uint256",
          "name": "trustScore",
          "type": "uint256"
        },
        {
          "internalType": "uint256",
          "name": "accumulatedRewards",
          "type": "uint256"
        },
        {
          "internalType": "uint256",
          "name": "lastUpdateTimestamp",
          "type": "uint256"
        },
        {
          "internalType": "uint256",
          "name": "registrationTimestamp",
          "type": "uint256"
        },
        {
          "internalType": "uint8",
          "name": "status",
          "type": "uint8"
        },
        {
          "internalType": "bytes32",
          "name": "performanceHistoryHash",
          "type": "bytes32"
        },
        {
          "internalType": "string",
          "name": "apiEndpoint",
          "type": "string"
        },
        {
          "internalType": "address",
          "name": "owner",
          "type": "address"
        }
      ],
      "stateMutability": "view",
      "type": "function"
    },
    {
      "inputs": [],
      "name": "owner",
      "outputs": [
        {
          "internalType": "address",
          "name": "",
          "type": "address"
        }
      ],
      "stateMutability": "view",
      "type": "function"
    },
    {
      "inputs": [],
      "name": "pause",
      "outputs": [],
      "stateMutability": "nonpayable",
      "type": "function"
    },
    {
      "inputs": [],
      "name": "paused",
      "outputs": [
        {
          "internalType": "bool",
          "name": "",
          "type": "bool"
        }
      ],
      "stateMutability": "view",
      "type": "function"
    },
    {
      "inputs": [
        {
          "internalType": "bytes32",
          "name": "uid",
          "type": "bytes32"
        },
        {
          "internalType": "uint64",
          "name": "subnetUid",
          "type": "uint64"
        },
        {
          "internalType": "uint256",
          "name": "stakeAmount",
          "type": "uint256"
        },
        {
          "internalType": "string",
          "name": "apiEndpoint",
          "type": "string"
        }
      ],
      "name": "registerMiner",
      "outputs": [],
      "stateMutability": "payable",
      "type": "function"
    },
    {
      "inputs": [
        {
          "internalType": "bytes32",
          "name": "uid",
          "type": "bytes32"
        },
        {
          "internalType": "uint64",
          "name": "subnetUid",
          "type": "uint64"
        },
        {
          "internalType": "uint256",
          "name": "stakeAmount",
          "type": "uint256"
        },
        {
          "internalType": "string",
          "name": "apiEndpoint",
          "type": "string"
        }
      ],
      "name": "registerValidator",
      "outputs": [],
      "stateMutability": "payable",
      "type": "function"
    },
    {
      "inputs": [],
      "name": "renounceOwnership",
      "outputs": [],
      "stateMutability": "nonpayable",
      "type": "function"
    },
    {
      "inputs": [
        {
          "internalType": "address",
          "name": "minerAddr",
          "type": "address"
        },
        {
          "internalType": "uint8",
          "name": "newStatus",
          "type": "uint8"
        }
      ],
      "name": "setMinerStatus",
      "outputs": [],
      "stateMutability": "nonpayable",
      "type": "function"
    },
    {
      "inputs": [
        {
          "internalType": "address",
          "name": "validatorAddr",
          "type": "address"
        },
        {
          "internalType": "uint8",
          "name": "newStatus",
          "type": "uint8"
        }
      ],
      "name": "setValidatorStatus",
      "outputs": [],
      "stateMutability": "nonpayable",
      "type": "function"
    },
    {
      "inputs": [
        {
          "internalType": "bytes32",
          "name": "txHash",
          "type": "bytes32"
        },
        {
          "internalType": "uint256",
          "name": "amount",
          "type": "uint256"
        },
        {
          "internalType": "uint256",
          "name": "lockTime",
          "type": "uint256"
        }
      ],
      "name": "stakeBitcoin",
      "outputs": [],
      "stateMutability": "nonpayable",
      "type": "function"
    },
    {
      "inputs": [
        {
          "internalType": "uint256",
          "name": "",
          "type": "uint256"
        }
      ],
      "name": "stakingTiers",
      "outputs": [
        {
          "internalType": "uint256",
          "name": "minCoreRatio",
          "type": "uint256"
        },
        {
          "internalType": "uint256",
          "name": "multiplier",
          "type": "uint256"
        },
        {
          "internalType": "string",
          "name": "name",
          "type": "string"
        }
      ],
      "stateMutability": "view",
      "type": "function"
    },
    {
      "inputs": [
        {
          "internalType": "uint256",
          "name": "",
          "type": "uint256"
        }
      ],
      "name": "subnetIds",
      "outputs": [
        {
          "internalType": "uint64",
          "name": "",
          "type": "uint64"
        }
      ],
      "stateMutability": "view",
      "type": "function"
    },
    {
      "inputs": [
        {
          "internalType": "uint64",
          "name": "",
          "type": "uint64"
        }
      ],
      "name": "subnets",
      "outputs": [
        {
          "internalType": "uint64",
          "name": "uid",
          "type": "uint64"
        },
        {
          "internalType": "string",
          "name": "name",
          "type": "string"
        },
        {
          "internalType": "string",
          "name": "description",
          "type": "string"
        },
        {
          "internalType": "uint256",
          "name": "maxMiners",
          "type": "uint256"
        },
        {
          "internalType": "uint256",
          "name": "maxValidators",
          "type": "uint256"
        },
        {
          "internalType": "uint256",
          "name": "immunityPeriod",
          "type": "uint256"
        },
        {
          "internalType": "uint256",
          "name": "minMinerStake",
          "type": "uint256"
        },
        {
          "internalType": "uint256",
          "name": "minValidatorStake",
          "type": "uint256"
        },
        {
          "internalType": "uint256",
          "name": "registrationCost",
          "type": "uint256"
        },
        {
          "internalType": "address",
          "name": "owner",
          "type": "address"
        },
        {
          "internalType": "uint256",
          "name": "creationTimestamp",
          "type": "uint256"
        }
      ],
      "stateMutability": "view",
      "type": "function"
    },
    {
      "inputs": [],
      "name": "totalMiners",
      "outputs": [
        {
          "internalType": "uint256",
          "name": "",
          "type": "uint256"
        }
      ],
      "stateMutability": "view",
      "type": "function"
    },
    {
      "inputs": [],
      "name": "totalSubnets",
      "outputs": [
        {
          "internalType": "uint64",
          "name": "",
          "type": "uint64"
        }
      ],
      "stateMutability": "view",
      "type": "function"
    },
    {
      "inputs": [],
      "name": "totalValidators",
      "outputs": [
        {
          "internalType": "uint256",
          "name": "",
          "type": "uint256"
        }
      ],
      "stateMutability": "view",
      "type": "function"
    },
    {
      "inputs": [
        {
          "internalType": "address",
          "name": "newOwner",
          "type": "address"
        }
      ],
      "name": "transferOwnership",
      "outputs": [],
      "stateMutability": "nonpayable",
      "type": "function"
    },
    {
      "inputs": [],
      "name": "unpause",
      "outputs": [],
      "stateMutability": "nonpayable",
      "type": "function"
    },
    {
      "inputs": [
        {
          "internalType": "address",
          "name": "minerAddr",
          "type": "address"
        },
        {
          "internalType": "uint256",
          "name": "newPerformance",
          "type": "uint256"
        },
        {
          "internalType": "uint256",
          "name": "newTrustScore",
          "type": "uint256"
        }
      ],
      "name": "updateMinerScores",
      "outputs": [],
      "stateMutability": "nonpayable",
      "type": "function"
    },
    {
      "inputs": [
        {
          "internalType": "address",
          "name": "minerAddr",
          "type": "address"
        },
        {
          "internalType": "bytes32",
          "name": "newUID",
          "type": "bytes32"
        }
      ],
      "name": "updateMinerUID",
      "outputs": [],
      "stateMutability": "nonpayable",
      "type": "function"
    },
    {
      "inputs": [
        {
          "internalType": "bytes32",
          "name": "newUID",
          "type": "bytes32"
        }
      ],
      "name": "updateMinerUIDSelf",
      "outputs": [],
      "stateMutability": "nonpayable",
      "type": "function"
    },
    {
      "inputs": [
        {
          "internalType": "address",
          "name": "validatorAddr",
          "type": "address"
        },
        {
          "internalType": "uint256",
          "name": "newPerformance",
          "type": "uint256"
        },
        {
          "internalType": "uint256",
          "name": "newTrustScore",
          "type": "uint256"
        }
      ],
      "name": "updateValidatorScores",
      "outputs": [],
      "stateMutability": "nonpayable",
      "type": "function"
    },
    {
      "inputs": [
        {
          "internalType": "address",
          "name": "validatorAddr",
          "type": "address"
        },
        {
          "internalType": "bytes32",
          "name": "newUID",
          "type": "bytes32"
        }
      ],
      "name": "updateValidatorUID",
      "outputs": [],
      "stateMutability": "nonpayable",
      "type": "function"
    },
    {
      "inputs": [
        {
          "internalType": "bytes32",
          "name": "newUID",
          "type": "bytes32"
        }
      ],
      "name": "updateValidatorUIDSelf",
      "outputs": [],
      "stateMutability": "nonpayable",
      "type": "function"
    },
    {
      "inputs": [
        {
          "internalType": "uint256",
          "name": "",
          "type": "uint256"
        }
      ],
      "name": "validatorAddresses",
      "outputs": [
        {
          "internalType": "address",
          "name": "",
          "type": "address"
        }
      ],
      "stateMutability": "view",
      "type": "function"
    },
    {
      "inputs": [
        {
          "internalType": "address",
          "name": "",
          "type": "address"
        }
      ],
      "name": "validators",
      "outputs": [
        {
          "internalType": "bytes32",
          "name": "uid",
          "type": "bytes32"
        },
        {
          "internalType": "uint64",
          "name": "subnetUid",
          "type": "uint64"
        },
        {
          "internalType": "uint256",
          "name": "stake",
          "type": "uint256"
        },
        {
          "internalType": "uint256",
          "name": "bitcoinStake",
          "type": "uint256"
        },
        {
          "internalType": "uint256",
          "name": "lastPerformance",
          "type": "uint256"
        },
        {
          "internalType": "uint256",
          "name": "trustScore",
          "type": "uint256"
        },
        {
          "internalType": "uint256",
          "name": "accumulatedRewards",
          "type": "uint256"
        },
        {
          "internalType": "uint256",
          "name": "lastUpdateTimestamp",
          "type": "uint256"
        },
        {
          "internalType": "uint256",
          "name": "registrationTimestamp",
          "type": "uint256"
        },
        {
          "internalType": "uint8",
          "name": "status",
          "type": "uint8"
        },
        {
          "internalType": "bytes32",
          "name": "performanceHistoryHash",
          "type": "bytes32"
        },
        {
          "internalType": "string",
          "name": "apiEndpoint",
          "type": "string"
        },
        {
          "internalType": "address",
          "name": "owner",
          "type": "address"
        }
      ],
      "stateMutability": "view",
      "type": "function"
    }
  ],
  "bytecode": "0x60806040523480156200001157600080fd5b50604051620040a5380380620040a583398101604081905262000034916200033b565b6200003f33620002eb565b6001808055600280546001600160a81b0319166101006001600160a01b038516021790556040805160608101825260008082526103e860208084019182528451808601865260048152634261736560e01b91810191909152938301938452600980549586018155909152815160008051602062004085833981519152600390950294850190815590516000805160206200406583398151915285015591519092600080516020620040458339815191520190620000fd908262000412565b505060408051606081018252606481526104e26020808301918252835180850185526005815264109bdbdcdd60da1b91810191909152928201928352600980546001810182556000919091528251600390910260008051602062004085833981519152810191825591516000805160206200406583398151915283015592519193506000805160206200404583398151915201906200019d908262000412565b5050604080516060810182526101f481526105dc602080830191825283518085018552600581526429bab832b960d91b91810191909152928201928352600980546001810182556000919091528251600390910260008051602062004085833981519152810191825591516000805160206200406583398151915283015592519193506000805160206200404583398151915201906200023e908262000412565b5050604080516060810182526103e881526107d060208083019182528351808501855260078152665361746f73686960c81b9181019190915292820192835260098054600181018255600091909152825160039091026000805160206200408583398151915281019182559151600080516020620040658339815191528301559251919350600080516020620040458339815191520190620002e1908262000412565b50505050620004de565b600080546001600160a01b038381166001600160a01b0319831681178455604051919092169283917f8be0079c531659141344cd1fd0a4f28419497f9722a3daafe3b4186f6b6457e09190a35050565b6000602082840312156200034e57600080fd5b81516001600160a01b03811681146200036657600080fd5b9392505050565b634e487b7160e01b600052604160045260246000fd5b600181811c908216806200039857607f821691505b602082108103620003b957634e487b7160e01b600052602260045260246000fd5b50919050565b601f8211156200040d57600081815260208120601f850160051c81016020861015620003e85750805b601f850160051c820191505b818110156200040957828155600101620003f4565b5050505b505050565b81516001600160401b038111156200042e576200042e6200036d565b62000446816200043f845462000383565b84620003bf565b602080601f8311600181146200047e5760008415620004655750858301515b600019600386901b1c1916600185901b17855562000409565b600085815260208120601f198616915b82811015620004af578886015182559484019460019091019084016200048e565b5085821015620004ce5787850151600019600388901b60f8161c191681555b5050505050600190811b01905550565b613b5780620004ee6000396000f3fe6080604052600436106102935760003560e01c80638d9d8e981161015a578063cb1c2b5c116100c1578063df6e40921161007a578063df6e40921461082b578063e05709eb1461084b578063e5dcbd261461086b578063f2fde38b1461087e578063f3513a371461089e578063fa52c7d8146108b357600080fd5b8063cb1c2b5c14610773578063cd6a4dbb1461078f578063ce4b5bbe146104e9578063d50267ee146107bc578063dbb9431f146107eb578063dd1f6c681461080b57600080fd5b80639dfe8af3116101135780639dfe8af3146106a6578063a2b67158146106c6578063a8031a1d146106e6578063aaf73be114610706578063b242703f1461073d578063c81b356b1461075d57600080fd5b80638d9d8e98146105e65780638da5cb5b14610606578063929ff9711461062457806395ccea671461064657806395d671ed14610666578063997453181461068657600080fd5b80634dd7d87c116101fe578063715018a6116101b7578063715018a614610539578063764fe7d11461054e578063825a19dc146105645780638359063c146105915780638456cb59146105b15780638a11d7c9146105c657600080fd5b80634dd7d87c146104595780635c975abb1461046c5780635ddc78e41461048f578063603ed9eb146104c7578063631ad603146104e9578063648ec7b91461050057600080fd5b80633cf56053116102505780633cf56053146103a05780633d2de9e2146103cd5780633f4ba83a146103ed5780634389cc221461040257806345f358fd146104175780634b17bf301461043757600080fd5b806302429742146102985780630b34d553146102c45780630c2b72e9146102f15780631ea0d7751461032e57806320323790146103695780632ac9fcf91461038b575b600080fd5b3480156102a457600080fd5b506102ad600081565b60405160ff90911681526020015b60405180910390f35b3480156102d057600080fd5b506102e46102df36600461309a565b6108d3565b6040516102bb91906131dc565b3480156102fd57600080fd5b506002546103169061010090046001600160a01b031681565b6040516001600160a01b0390911681526020016102bb565b34801561033a57600080fd5b5061035b6103493660046131ef565b600c6020526000908152604090205481565b6040519081526020016102bb565b34801561037557600080fd5b50610389610384366004613208565b610a90565b005b34801561039757600080fd5b506102ad600281565b3480156103ac57600080fd5b506103c06103bb366004613252565b610c04565b6040516102bb919061326d565b3480156103d957600080fd5b506103896103e8366004613338565b610e2c565b3480156103f957600080fd5b50610389610fe2565b34801561040e57600080fd5b506102ad600181565b34801561042357600080fd5b506103166104323660046131ef565b610ff4565b34801561044357600080fd5b5061044c61101e565b6040516102bb9190613364565b6103896104673660046133f9565b611080565b34801561047857600080fd5b5060025460ff1660405190151581526020016102bb565b34801561049b57600080fd5b506104af6104aa3660046131ef565b61143b565b6040516001600160401b0390911681526020016102bb565b3480156104d357600080fd5b506104dc611478565b6040516102bb9190613460565b3480156104f557600080fd5b5061035b620f424081565b34801561050c57600080fd5b5061052061051b36600461309a565b61157d565b6040516102bb9d9c9b9a999897969594939291906134df565b34801561054557600080fd5b50610389611686565b34801561055a57600080fd5b5061035b600d5481565b34801561057057600080fd5b5061035b61057f3660046131ef565b600b6020526000908152604090205481565b34801561059d57600080fd5b506103896105ac366004613569565b611698565b3480156105bd57600080fd5b506103896119c5565b3480156105d257600080fd5b506102e46105e136600461309a565b6119d5565b3480156105f257600080fd5b5061038961060136600461361f565b611af5565b34801561061257600080fd5b506000546001600160a01b0316610316565b34801561063057600080fd5b50610639611ba8565b6040516102bb9190613649565b34801561065257600080fd5b5061038961066136600461361f565b611c31565b34801561067257600080fd5b5061038961068136600461368a565b611c63565b34801561069257600080fd5b506103166106a13660046131ef565b611d1e565b3480156106b257600080fd5b5061035b6106c136600461309a565b611d2e565b3480156106d257600080fd5b50600f546104af906001600160401b031681565b3480156106f257600080fd5b5061038961070136600461361f565b611e59565b34801561071257600080fd5b50610726610721366004613252565b611fcd565b6040516102bb9b9a999897969594939291906136c7565b34801561074957600080fd5b5061038961075836600461361f565b612148565b34801561076957600080fd5b5061035b600e5481565b34801561077f57600080fd5b5061035b670de0b6b3a764000081565b34801561079b57600080fd5b5061035b6107aa36600461309a565b600a6020526000908152604090205481565b3480156107c857600080fd5b506107dc6107d73660046131ef565b6121fb565b6040516102bb9392919061374b565b3480156107f757600080fd5b50610389610806366004613208565b6122bd565b34801561081757600080fd5b506103896108263660046131ef565b61241f565b34801561083757600080fd5b506103896108463660046131ef565b6124de565b34801561085757600080fd5b5061038961086636600461368a565b6125a6565b6103896108793660046133f9565b612661565b34801561088a57600080fd5b5061038961089936600461309a565b612a03565b3480156108aa57600080fd5b5061044c612a7c565b3480156108bf57600080fd5b506105206108ce36600461309a565b612adc565b604080516101a08101825260008082526020820181905291810182905260608082018390526080820183905260a0820183905260c0820183905260e082018390526101008201839052610120820183905261014082018390526101608201526101808101919091526001600160a01b03821660009081526003602081815260409283902083516101a0810185528154815260018201546001600160401b03169281019290925260028101549382019390935290820154606082015260048201546080820152600582015460a0820152600682015460c0820152600782015460e08201526008820154610100820152600982015460ff16610120820152600a820154610140820152600b82018054919291610160840191906109f390613773565b80601f0160208091040260200160405190810160405280929190818152602001828054610a1f90613773565b8015610a6c5780601f10610a4157610100808354040283529160200191610a6c565b820191906000526020600020905b815481529060010190602001808311610a4f57829003601f168201915b5050509183525050600c91909101546001600160a01b031660209091015292915050565b3360009081526004602052604090206009015460ff16600114610ace5760405162461bcd60e51b8152600401610ac5906137ad565b60405180910390fd5b6001600160a01b038316600090815260046020526040902054610b035760405162461bcd60e51b8152600401610ac5906137e4565b620f4240821115610b4c5760405162461bcd60e51b8152602060048201526013602482015272496e76616c696420706572666f726d616e636560681b6044820152606401610ac5565b620f4240811115610b955760405162461bcd60e51b8152602060048201526013602482015272496e76616c69642074727573742073636f726560681b6044820152606401610ac5565b6001600160a01b038316600081815260046020818152604092839020918201869055600582018590554260078301559054825186815291820185905292917f3feb70d0c82ba49fa8e6c2ad3d72b00c12dfd191efe4ae5793cbb6c5532016a491015b60405180910390a3505050565b610c7360405180610160016040528060006001600160401b03168152602001606081526020016060815260200160008152602001600081526020016000815260200160008152602001600081526020016000815260200160006001600160a01b03168152602001600081525090565b6001600160401b03808316600090815260056020908152604091829020825161016081019093528054909316825260018301805492939291840191610cb790613773565b80601f0160208091040260200160405190810160405280929190818152602001828054610ce390613773565b8015610d305780601f10610d0557610100808354040283529160200191610d30565b820191906000526020600020905b815481529060010190602001808311610d1357829003601f168201915b50505050508152602001600282018054610d4990613773565b80601f0160208091040260200160405190810160405280929190818152602001828054610d7590613773565b8015610dc25780601f10610d9757610100808354040283529160200191610dc2565b820191906000526020600020905b815481529060010190602001808311610da557829003601f168201915b505050918352505060038201546020820152600482015460408201526005820154606082015260068201546080820152600782015460a0820152600882015460c082015260098201546001600160a01b031660e0820152600a909101546101009091015292915050565b33600090815260036020526040902054151580610e5757503360009081526004602052604090205415155b610e945760405162461bcd60e51b815260206004820152600e60248201526d139bdd081c9959da5cdd195c995960921b6044820152606401610ac5565b6000838152600b602052604090205415610ee95760405162461bcd60e51b8152602060048201526016602482015275109a5d18dbda5b88185b1c9958591e481cdd185ad95960521b6044820152606401610ac5565b428111610f2c5760405162461bcd60e51b8152602060048201526011602482015270496e76616c6964206c6f636b2074696d6560781b6044820152606401610ac5565b336000818152600a60209081526040808320879055868352600b8252808320869055600c825280832085905592825260039052205415610f7d57336000908152600360208190526040909120018290555b3360009081526004602052604090205415610fa8573360009081526004602052604090206003018290555b6040805183815260208101839052849133917faf8f4832ee21127b492c09e9350c60903a7e5a3d33298ecaff4b0a23a071c4419101610bf7565b610fea612b52565b610ff2612bac565b565b6006818154811061100457600080fd5b6000918252602090912001546001600160a01b0316905081565b6060600680548060200260200160405190810160405280929190818152602001828054801561107657602002820191906000526020600020905b81546001600160a01b03168152600190910190602001808311611058575b5050505050905090565b611088612bfe565b6001600160401b03808516600081815260056020526040902054869216146110e35760405162461bcd60e51b815260206004820152600e60248201526d125b9d985b1a59081cdd589b995d60921b6044820152606401610ac5565b33600090815260036020526040902054156111405760405162461bcd60e51b815260206004820152601860248201527f4d696e657220616c7265616479207265676973746572656400000000000000006044820152606401610ac5565b6001600160401b0385166000908152600560205260409020600601548410156111a05760405162461bcd60e51b8152602060048201526012602482015271496e73756666696369656e74207374616b6560701b6044820152606401610ac5565b816111e45760405162461bcd60e51b8152602060048201526014602482015273125b9d985b1a590810541248195b991c1bda5b9d60621b6044820152606401610ac5565b6002546112019061010090046001600160a01b0316333087612c57565b604051806101a00160405280878152602001866001600160401b03168152602001858152602001600081526020016207a12081526020016207a120815260200160008152602001428152602001428152602001600160ff1681526020016000801b815260200184848080601f016020809104026020016040519081016040528093929190818152602001838380828437600092018290525093855250503360209384018190528252506003808352604091829020845181559284015160018401805467ffffffffffffffff19166001600160401b039092169190911790559083015160028301556060830151908201556080820151600482015560a0820151600582015560c0820151600682015560e08201516007820155610100820151600882015561012082015160098201805460ff191660ff909216919091179055610140820151600a820155610160820151600b82019061135f9082613875565b506101809190910151600c90910180546001600160a01b039092166001600160a01b03199283161790556006805460018101825560009182527ff652222313e28459528d920b65115c16c04f3efc82aaedc97be59f3f377c0d3f0180549092163317909155600d8054916113d28361394a565b9190505550846001600160401b031686336001600160a01b03167f284a2f2922cca86a4558825cf0eff580b74bdf98e8a476397c58cc8f567416f38760008888604051611422949392919061398c565b60405180910390a45061143460018055565b5050505050565b6008818154811061144b57600080fd5b9060005260206000209060049182820401919006600802915054906101000a90046001600160401b031681565b60606009805480602002602001604051908101604052809291908181526020016000905b82821015611574578382906000526020600020906003020160405180606001604052908160008201548152602001600182015481526020016002820180546114e390613773565b80601f016020809104026020016040519081016040528092919081815260200182805461150f90613773565b801561155c5780601f106115315761010080835404028352916020019161155c565b820191906000526020600020905b81548152906001019060200180831161153f57829003601f168201915b5050505050815250508152602001906001019061149c565b50505050905090565b600360208190526000918252604090912080546001820154600283015493830154600484015460058501546006860154600787015460088801546009890154600a8a0154600b8b0180549a9c6001600160401b03909a169b999a98999798969795969495939460ff9093169391926115f490613773565b80601f016020809104026020016040519081016040528092919081815260200182805461162090613773565b801561166d5780601f106116425761010080835404028352916020019161166d565b820191906000526020600020905b81548152906001019060200180831161165057829003601f168201915b505050600c90930154919250506001600160a01b03168d565b61168e612b52565b610ff26000612cc8565b6116a0612b52565b6001600160401b03808c1660009081526005602052604090205416156117005760405162461bcd60e51b81526020600482015260156024820152745375626e657420616c72656164792065786973747360581b6044820152606401610ac5565b6040518061016001604052808c6001600160401b031681526020018b8b8080601f016020809104026020016040519081016040528093929190818152602001838380828437600092019190915250505090825250604080516020601f8c018190048102820181019092528a815291810191908b908b9081908401838280828437600081840152601f19601f820116905080830192505050505050508152602001878152602001868152602001858152602001848152602001838152602001828152602001336001600160a01b0316815260200142815250600560008d6001600160401b03166001600160401b0316815260200190815260200160002060008201518160000160006101000a8154816001600160401b0302191690836001600160401b03160217905550602082015181600101908161183e9190613875565b50604082015160028201906118539082613875565b50606082015181600301556080820151816004015560a0820151816005015560c0820151816006015560e0820151816007015561010082015181600801556101208201518160090160006101000a8154816001600160a01b0302191690836001600160a01b0316021790555061014082015181600a015590505060088b90806001815401808255809150506001900390600052602060002090600491828204019190066008029091909190916101000a8154816001600160401b0302191690836001600160401b03160217905550600f600081819054906101000a90046001600160401b031680929190611946906139b6565b91906101000a8154816001600160401b0302191690836001600160401b0316021790555050336001600160a01b03168b6001600160401b03167f5d6943eed6b28b798177bcb465658cca4e137e72861014a967333bf23ab2846b8c8c6040516119b09291906139dc565b60405180910390a35050505050505050505050565b6119cd612b52565b610ff2612d18565b604080516101a08101825260008082526020820181905291810182905260608082018390526080820183905260a0820183905260c0820183905260e082018390526101008201839052610120820183905261014082018390526101608201526101808101919091526001600160a01b03821660009081526004602081815260409283902083516101a0810185528154815260018201546001600160401b03169281019290925260028101549382019390935260038301546060820152908201546080820152600582015460a0820152600682015460c0820152600782015460e08201526008820154610100820152600982015460ff16610120820152600a820154610140820152600b82018054919291610160840191906109f390613773565b611afd612b52565b6001600160a01b038216600090815260046020526040902054611b325760405162461bcd60e51b8152600401610ac5906137e4565b80611b4f5760405162461bcd60e51b8152600401610ac5906139f0565b6001600160a01b03821660008181526004602052604080822080548582554260079092019190915590519092849284927feb785381805e9d62570aae0342ef450ace88459c8f495b1c33cfb0d668baae039190a4505050565b6060600880548060200260200160405190810160405280929190818152602001828054801561107657602002820191906000526020600020906000905b82829054906101000a90046001600160401b03166001600160401b031681526020019060080190602082600701049283019260010382029150808411611be55790505050505050905090565b611c39612b52565b611c5f611c4e6000546001600160a01b031690565b6001600160a01b0384169083612d55565b5050565b611c6b612b52565b6001600160a01b038216600090815260046020526040902054611ca05760405162461bcd60e51b8152600401610ac5906137e4565b600260ff82161115611ce55760405162461bcd60e51b815260206004820152600e60248201526d496e76616c69642073746174757360901b6044820152606401610ac5565b6001600160a01b0391909116600090815260046020526040902060098101805460ff191660ff9093169290921790915542600790910155565b6007818154811061100457600080fd5b6001600160a01b0381166000908152600360205260408120548190819015611d7a5750506001600160a01b03821660009081526003602081905260409091206002810154910154611dbe565b6001600160a01b03841660009081526004602052604090205415611dbe5750506001600160a01b038216600090815260046020526040902060028101546003909101545b80600003611dd0575060009392505050565b600081611ddf846103e8613a15565b611de99190613a32565b600954909150600090611dfe90600190613a54565b90505b8015611e4d5760098181548110611e1a57611e1a613a67565b9060005260206000209060030201600001548210611e3b5795945050505050565b80611e4581613a7d565b915050611e01565b50600095945050505050565b3360009081526004602052604090206009015460ff16600114611e8e5760405162461bcd60e51b8152600401610ac5906137ad565b6000611e9983611d2e565b9050600060098281548110611eb057611eb0613a67565b6000918252602082206001600390920201015491506103e8611ed28386613a15565b611edc9190613a32565b6001600160a01b03861660009081526003602052604090205490915015611f33576001600160a01b03851660009081526003602052604081206006018054839290611f28908490613a94565b90915550611f829050565b6001600160a01b03851660009081526004602052604090205415611f82576001600160a01b03851660009081526004602052604081206006018054839290611f7c908490613a94565b90915550505b60408051828152602081018590526001600160a01b038716917fe4e801442ed461792c0bdfa7f5c25444d391d67d68422437bd9005796c67cb23910160405180910390a25050505050565b600560205260009081526040902080546001820180546001600160401b039092169291611ff990613773565b80601f016020809104026020016040519081016040528092919081815260200182805461202590613773565b80156120725780601f1061204757610100808354040283529160200191612072565b820191906000526020600020905b81548152906001019060200180831161205557829003601f168201915b50505050509080600201805461208790613773565b80601f01602080910402602001604051908101604052809291908181526020018280546120b390613773565b80156121005780601f106120d557610100808354040283529160200191612100565b820191906000526020600020905b8154815290600101906020018083116120e357829003601f168201915b505050506003830154600484015460058501546006860154600787015460088801546009890154600a9099015497989597949650929491939092916001600160a01b0316908b565b612150612b52565b6001600160a01b0382166000908152600360205260409020546121855760405162461bcd60e51b8152600401610ac590613aa7565b806121a25760405162461bcd60e51b8152600401610ac5906139f0565b6001600160a01b03821660008181526003602052604080822080548582554260079092019190915590519092849284927fcfed7a6aa9e75e550ed34e7b3dc6dcf72d3a705599580233429fb874c7975edd9190a4505050565b6009818154811061220b57600080fd5b906000526020600020906003020160009150905080600001549080600101549080600201805461223a90613773565b80601f016020809104026020016040519081016040528092919081815260200182805461226690613773565b80156122b35780601f10612288576101008083540402835291602001916122b3565b820191906000526020600020905b81548152906001019060200180831161229657829003601f168201915b5050505050905083565b3360009081526004602052604090206009015460ff166001146122f25760405162461bcd60e51b8152600401610ac5906137ad565b6001600160a01b0383166000908152600360205260409020546123275760405162461bcd60e51b8152600401610ac590613aa7565b620f42408211156123705760405162461bcd60e51b8152602060048201526013602482015272496e76616c696420706572666f726d616e636560681b6044820152606401610ac5565b620f42408111156123b95760405162461bcd60e51b8152602060048201526013602482015272496e76616c69642074727573742073636f726560681b6044820152606401610ac5565b6001600160a01b038316600081815260036020908152604091829020600481018690556005810185905542600782015554825186815291820185905292917f615fefe7f2e55954f555487b67f360c6c08bb81aa9d9ad5b6a9c1f956a6439b69101610bf7565b336000908152600360205260409020546124725760405162461bcd60e51b8152602060048201526014602482015273135a5b995c881b9bdd081c9959da5cdd195c995960621b6044820152606401610ac5565b8061248f5760405162461bcd60e51b8152600401610ac5906139f0565b3360008181526003602052604080822080548582554260079092019190915590519092849284927fcfed7a6aa9e75e550ed34e7b3dc6dcf72d3a705599580233429fb874c7975edd9190a45050565b3360009081526004602052604090205461253a5760405162461bcd60e51b815260206004820152601860248201527f56616c696461746f72206e6f74207265676973746572656400000000000000006044820152606401610ac5565b806125575760405162461bcd60e51b8152600401610ac5906139f0565b3360008181526004602052604080822080548582554260079092019190915590519092849284927feb785381805e9d62570aae0342ef450ace88459c8f495b1c33cfb0d668baae039190a45050565b6125ae612b52565b6001600160a01b0382166000908152600360205260409020546125e35760405162461bcd60e51b8152600401610ac590613aa7565b600260ff821611156126285760405162461bcd60e51b815260206004820152600e60248201526d496e76616c69642073746174757360901b6044820152606401610ac5565b6001600160a01b0391909116600090815260036020526040902060098101805460ff191660ff9093169290921790915542600790910155565b612669612bfe565b6001600160401b03808516600081815260056020526040902054869216146126c45760405162461bcd60e51b815260206004820152600e60248201526d125b9d985b1a59081cdd589b995d60921b6044820152606401610ac5565b33600090815260046020526040902054156127215760405162461bcd60e51b815260206004820152601c60248201527f56616c696461746f7220616c72656164792072656769737465726564000000006044820152606401610ac5565b6001600160401b0385166000908152600560205260409020600701548410156127815760405162461bcd60e51b8152602060048201526012602482015271496e73756666696369656e74207374616b6560701b6044820152606401610ac5565b816127c55760405162461bcd60e51b8152602060048201526014602482015273125b9d985b1a590810541248195b991c1bda5b9d60621b6044820152606401610ac5565b6002546127e29061010090046001600160a01b0316333087612c57565b604051806101a00160405280878152602001866001600160401b03168152602001858152602001600081526020016207a12081526020016207a120815260200160008152602001428152602001428152602001600160ff1681526020016000801b815260200184848080601f016020809104026020016040519081016040528093929190818152602001838380828437600092018290525093855250503360209384018190528252506004808352604091829020845181559284015160018401805467ffffffffffffffff19166001600160401b039092169190911790559083015160028301556060830151600383015560808301519082015560a0820151600582015560c0820151600682015560e08201516007820155610100820151600882015561012082015160098201805460ff191660ff909216919091179055610140820151600a820155610160820151600b8201906129409082613875565b506101809190910151600c90910180546001600160a01b039092166001600160a01b03199283161790556007805460018101825560009182527fa66cc928b5edb82af9bd49922954155ab7b0942694bea4ce44661d9a8736c6880180549092163317909155600e8054916129b38361394a565b9190505550846001600160401b031686336001600160a01b03167f644547bba6233284df8d4682414a23aad245d2e2f566af01c49187d2d40e34e58760008888604051611422949392919061398c565b612a0b612b52565b6001600160a01b038116612a705760405162461bcd60e51b815260206004820152602660248201527f4f776e61626c653a206e6577206f776e657220697320746865207a65726f206160448201526564647265737360d01b6064820152608401610ac5565b612a7981612cc8565b50565b60606007805480602002602001604051908101604052809291908181526020018280548015611076576020028201919060005260206000209081546001600160a01b03168152600190910190602001808311611058575050505050905090565b600460208190526000918252604090912080546001820154600283015460038401549484015460058501546006860154600787015460088801546009890154600a8a0154600b8b0180549a9c6001600160401b03909a169b989a9798969795969495939460ff909316939192916115f490613773565b6000546001600160a01b03163314610ff25760405162461bcd60e51b815260206004820181905260248201527f4f776e61626c653a2063616c6c6572206973206e6f7420746865206f776e65726044820152606401610ac5565b612bb4612d8a565b6002805460ff191690557f5db9ee0a495bf2e6ff9c91a7834c1ba4fdd244a5e8aa4e537bd38aeae4b073aa335b6040516001600160a01b03909116815260200160405180910390a1565b600260015403612c505760405162461bcd60e51b815260206004820152601f60248201527f5265656e7472616e637947756172643a207265656e7472616e742063616c6c006044820152606401610ac5565b6002600155565b6040516001600160a01b0380851660248301528316604482015260648101829052612cc29085906323b872dd60e01b906084015b60408051601f198184030181529190526020810180516001600160e01b03166001600160e01b031990931692909217909152612dd3565b50505050565b600080546001600160a01b038381166001600160a01b0319831681178455604051919092169283917f8be0079c531659141344cd1fd0a4f28419497f9722a3daafe3b4186f6b6457e09190a35050565b612d20612ea8565b6002805460ff191660011790557f62e78cea01bee320cd4e420270b5ea74000d11b0c9f74754ebdbfc544b05a258612be13390565b6040516001600160a01b038316602482015260448101829052612d8590849063a9059cbb60e01b90606401612c8b565b505050565b60025460ff16610ff25760405162461bcd60e51b815260206004820152601460248201527314185d5cd8589b194e881b9bdd081c185d5cd95960621b6044820152606401610ac5565b6000612e28826040518060400160405280602081526020017f5361666545524332303a206c6f772d6c6576656c2063616c6c206661696c6564815250856001600160a01b0316612eee9092919063ffffffff16565b9050805160001480612e49575080806020019051810190612e499190613ad0565b612d855760405162461bcd60e51b815260206004820152602a60248201527f5361666545524332303a204552433230206f7065726174696f6e20646964206e6044820152691bdd081cdd58d8d9595960b21b6064820152608401610ac5565b60025460ff1615610ff25760405162461bcd60e51b815260206004820152601060248201526f14185d5cd8589b194e881c185d5cd95960821b6044820152606401610ac5565b6060612efd8484600085612f05565b949350505050565b606082471015612f665760405162461bcd60e51b815260206004820152602660248201527f416464726573733a20696e73756666696369656e742062616c616e636520666f6044820152651c8818d85b1b60d21b6064820152608401610ac5565b600080866001600160a01b03168587604051612f829190613af2565b60006040518083038185875af1925050503d8060008114612fbf576040519150601f19603f3d011682016040523d82523d6000602084013e612fc4565b606091505b5091509150612fd587838387612fe0565b979650505050505050565b6060831561304f578251600003613048576001600160a01b0385163b6130485760405162461bcd60e51b815260206004820152601d60248201527f416464726573733a2063616c6c20746f206e6f6e2d636f6e74726163740000006044820152606401610ac5565b5081612efd565b612efd83838151156130645781518083602001fd5b8060405162461bcd60e51b8152600401610ac59190613b0e565b80356001600160a01b038116811461309557600080fd5b919050565b6000602082840312156130ac57600080fd5b6130b58261307e565b9392505050565b60005b838110156130d75781810151838201526020016130bf565b50506000910152565b600081518084526130f88160208601602086016130bc565b601f01601f19169290920160200192915050565b60006101a082518452602083015161312f60208601826001600160401b03169052565b5060408301516040850152606083015160608501526080830151608085015260a083015160a085015260c083015160c085015260e083015160e08501526101008084015181860152506101208084015161318d8287018260ff169052565b50506101408084015181860152506101608084015182828701526131b3838701826130e0565b92505050610180808401516131d2828701826001600160a01b03169052565b5090949350505050565b6020815260006130b5602083018461310c565b60006020828403121561320157600080fd5b5035919050565b60008060006060848603121561321d57600080fd5b6132268461307e565b95602085013595506040909401359392505050565b80356001600160401b038116811461309557600080fd5b60006020828403121561326457600080fd5b6130b58261323b565b602081526132876020820183516001600160401b03169052565b600060208301516101608060408501526132a56101808501836130e0565b91506040850151601f198584030160608601526132c283826130e0565b92505060608501516080850152608085015160a085015260a085015160c085015260c085015160e085015260e0850151610100818187015280870151915050610120818187015280870151915050610140613327818701836001600160a01b03169052565b959095015193019290925250919050565b60008060006060848603121561334d57600080fd5b505081359360208301359350604090920135919050565b6020808252825182820181905260009190848201906040850190845b818110156133a55783516001600160a01b031683529284019291840191600101613380565b50909695505050505050565b60008083601f8401126133c357600080fd5b5081356001600160401b038111156133da57600080fd5b6020830191508360208285010111156133f257600080fd5b9250929050565b60008060008060006080868803121561341157600080fd5b853594506134216020870161323b565b93506040860135925060608601356001600160401b0381111561344357600080fd5b61344f888289016133b1565b969995985093965092949392505050565b60006020808301818452808551808352604092508286019150828160051b87010184880160005b838110156134d157888303603f19018552815180518452878101518885015286015160608785018190526134bd818601836130e0565b968901969450505090860190600101613487565b509098975050505050505050565b60006101a08f83526001600160401b038f1660208401528d60408401528c60608401528b60808401528a60a08401528960c08401528860e08401528761010084015260ff87166101208401528561014084015280610160840152613545818401866130e0565b91505060018060a01b0383166101808301529e9d5050505050505050505050505050565b60008060008060008060008060008060006101208c8e03121561358b57600080fd5b6135948c61323b565b9a506001600160401b038060208e013511156135af57600080fd5b6135bf8e60208f01358f016133b1565b909b50995060408d01358110156135d557600080fd5b506135e68d60408e01358e016133b1565b9b9e9a9d50989b989a9960608a0135996080810135995060a0810135985060c0810135975060e081013596506101000135945092505050565b6000806040838503121561363257600080fd5b61363b8361307e565b946020939093013593505050565b6020808252825182820181905260009190848201906040850190845b818110156133a55783516001600160401b031683529284019291840191600101613665565b6000806040838503121561369d57600080fd5b6136a68361307e565b9150602083013560ff811681146136bc57600080fd5b809150509250929050565b60006101606001600160401b038e1683528060208401526136ea8184018e6130e0565b905082810360408401526136fe818d6130e0565b606084019b909b525050608081019790975260a087019590955260c086019390935260e08501919091526101008401526001600160a01b0316610120830152610140909101529392505050565b83815282602082015260606040820152600061376a60608301846130e0565b95945050505050565b600181811c9082168061378757607f821691505b6020821081036137a757634e487b7160e01b600052602260045260246000fd5b50919050565b60208082526017908201527f4e6f7420616e206163746976652076616c696461746f72000000000000000000604082015260600190565b60208082526013908201527215985b1a59185d1bdc881b9bdd08199bdd5b99606a1b604082015260600190565b634e487b7160e01b600052604160045260246000fd5b601f821115612d8557600081815260208120601f850160051c8101602086101561384e5750805b601f850160051c820191505b8181101561386d5782815560010161385a565b505050505050565b81516001600160401b0381111561388e5761388e613811565b6138a28161389c8454613773565b84613827565b602080601f8311600181146138d757600084156138bf5750858301515b600019600386901b1c1916600185901b17855561386d565b600085815260208120601f198616915b82811015613906578886015182559484019460019091019084016138e7565b50858210156139245787850151600019600388901b60f8161c191681555b5050505050600190811b01905550565b634e487b7160e01b600052601160045260246000fd5b60006001820161395c5761395c613934565b5060010190565b81835281816020850137506000828201602090810191909152601f909101601f19169091010190565b8481528360208201526060604082015260006139ac606083018486613963565b9695505050505050565b60006001600160401b038083168181036139d2576139d2613934565b6001019392505050565b602081526000612efd602083018486613963565b6020808252600b908201526a125b9d985b1a590815525160aa1b604082015260600190565b8082028115828204841417613a2c57613a2c613934565b92915050565b600082613a4f57634e487b7160e01b600052601260045260246000fd5b500490565b81810381811115613a2c57613a2c613934565b634e487b7160e01b600052603260045260246000fd5b600081613a8c57613a8c613934565b506000190190565b80820180821115613a2c57613a2c613934565b6020808252600f908201526e135a5b995c881b9bdd08199bdd5b99608a1b604082015260600190565b600060208284031215613ae257600080fd5b815180151581146130b557600080fd5b60008251613b048184602087016130bc565b9190910192915050565b6020815260006130b560208301846130e056fea2646970667358221220e05a0e305acdc7fefe7df4089bfbfdec0494156c100b5e99bb7031d1b31f0d6164736f6c634300081300336e1540171b6c0c960b71a7020d9f60077f6af931a8bbf590da0223dacf75c7b16e1540171b6c0c960b71a7020d9f60077f6af931a8bbf590da0223dacf75c7b06e1540171b6c0c960b71a7020d9f60077f6af931a8bbf590da0223dacf75c7af",
  "linkReferences": {},
  "deployedLinkReferences": {}
}