{
  "_format": "hh-sol-artifact-1",
  "contractName": "ModernTensor",
  "sourceName": "contracts/ModernTensor.sol",
  "abi": [
    {
      "inputs": [
        {
          "internalType": "address",
          "name": "_coreToken",
          "type": "address"
        }
      ],
      "stateMutability": "nonpayable",
      "type": "constructor"
    },
    {
      "anonymous": false,
      "inputs": [
        {
          "indexed": true,
          "internalType": "address",
          "name": "user",
          "type": "address"
        },
        {
          "indexed": true,
          "internalType": "bytes32",
          "name": "txHash",
          "type": "bytes32"
        },
        {
          "indexed": false,
          "internalType": "uint256",
          "name": "amount",
          "type": "uint256"
        },
        {
          "indexed": false,
          "internalType": "uint256",
          "name": "lockTime",
          "type": "uint256"
        }
      ],
      "name": "BitcoinStaked",
      "type": "event"
    },
    {
      "anonymous": false,
      "inputs": [
        {
          "indexed": true,
          "internalType": "address",
          "name": "miner",
          "type": "address"
        },
        {
          "indexed": true,
          "internalType": "bytes32",
          "name": "uid",
          "type": "bytes32"
        },
        {
          "indexed": true,
          "internalType": "uint64",
          "name": "subnetUid",
          "type": "uint64"
        },
        {
          "indexed": false,
          "internalType": "uint256",
          "name": "stake",
          "type": "uint256"
        },
        {
          "indexed": false,
          "internalType": "uint256",
          "name": "bitcoinStake",
          "type": "uint256"
        },
        {
          "indexed": false,
          "internalType": "string",
          "name": "apiEndpoint",
          "type": "string"
        }
      ],
      "name": "MinerRegistered",
      "type": "event"
    },
    {
      "anonymous": false,
      "inputs": [
        {
          "indexed": true,
          "internalType": "address",
          "name": "miner",
          "type": "address"
        },
        {
          "indexed": true,
          "internalType": "bytes32",
          "name": "uid",
          "type": "bytes32"
        },
        {
          "indexed": false,
          "internalType": "uint256",
          "name": "newPerformance",
          "type": "uint256"
        },
        {
          "indexed": false,
          "internalType": "uint256",
          "name": "newTrustScore",
          "type": "uint256"
        }
      ],
      "name": "MinerScoreUpdated",
      "type": "event"
    },
    {
      "anonymous": false,
      "inputs": [
        {
          "indexed": true,
          "internalType": "address",
          "name": "previousOwner",
          "type": "address"
        },
        {
          "indexed": true,
          "internalType": "address",
          "name": "newOwner",
          "type": "address"
        }
      ],
      "name": "OwnershipTransferred",
      "type": "event"
    },
    {
      "anonymous": false,
      "inputs": [
        {
          "indexed": false,
          "internalType": "address",
          "name": "account",
          "type": "address"
        }
      ],
      "name": "Paused",
      "type": "event"
    },
    {
      "anonymous": false,
      "inputs": [
        {
          "indexed": true,
          "internalType": "address",
          "name": "user",
          "type": "address"
        },
        {
          "indexed": false,
          "internalType": "uint256",
          "name": "amount",
          "type": "uint256"
        },
        {
          "indexed": false,
          "internalType": "uint256",
          "name": "tier",
          "type": "uint256"
        }
      ],
      "name": "RewardsDistributed",
      "type": "event"
    },
    {
      "anonymous": false,
      "inputs": [
        {
          "indexed": true,
          "internalType": "uint64",
          "name": "uid",
          "type": "uint64"
        },
        {
          "indexed": false,
          "internalType": "string",
          "name": "name",
          "type": "string"
        },
        {
          "indexed": true,
          "internalType": "address",
          "name": "owner",
          "type": "address"
        }
      ],
      "name": "SubnetCreated",
      "type": "event"
    },
    {
      "anonymous": false,
      "inputs": [
        {
          "indexed": false,
          "internalType": "address",
          "name": "account",
          "type": "address"
        }
      ],
      "name": "Unpaused",
      "type": "event"
    },
    {
      "anonymous": false,
      "inputs": [
        {
          "indexed": true,
          "internalType": "address",
          "name": "validator",
          "type": "address"
        },
        {
          "indexed": true,
          "internalType": "bytes32",
          "name": "uid",
          "type": "bytes32"
        },
        {
          "indexed": true,
          "internalType": "uint64",
          "name": "subnetUid",
          "type": "uint64"
        },
        {
          "indexed": false,
          "internalType": "uint256",
          "name": "stake",
          "type": "uint256"
        },
        {
          "indexed": false,
          "internalType": "uint256",
          "name": "bitcoinStake",
          "type": "uint256"
        },
        {
          "indexed": false,
          "internalType": "string",
          "name": "apiEndpoint",
          "type": "string"
        }
      ],
      "name": "ValidatorRegistered",
      "type": "event"
    },
    {
      "anonymous": false,
      "inputs": [
        {
          "indexed": true,
          "internalType": "address",
          "name": "validator",
          "type": "address"
        },
        {
          "indexed": true,
          "internalType": "bytes32",
          "name": "uid",
          "type": "bytes32"
        },
        {
          "indexed": false,
          "internalType": "uint256",
          "name": "newPerformance",
          "type": "uint256"
        },
        {
          "indexed": false,
          "internalType": "uint256",
          "name": "newTrustScore",
          "type": "uint256"
        }
      ],
      "name": "ValidatorScoreUpdated",
      "type": "event"
    },
    {
      "inputs": [],
      "name": "MAX_PERFORMANCE",
      "outputs": [
        {
          "internalType": "uint256",
          "name": "",
          "type": "uint256"
        }
      ],
      "stateMutability": "view",
      "type": "function"
    },
    {
      "inputs": [],
      "name": "MIN_STAKE",
      "outputs": [
        {
          "internalType": "uint256",
          "name": "",
          "type": "uint256"
        }
      ],
      "stateMutability": "view",
      "type": "function"
    },
    {
      "inputs": [],
      "name": "SCALE_FACTOR",
      "outputs": [
        {
          "internalType": "uint256",
          "name": "",
          "type": "uint256"
        }
      ],
      "stateMutability": "view",
      "type": "function"
    },
    {
      "inputs": [],
      "name": "STATUS_ACTIVE",
      "outputs": [
        {
          "internalType": "uint8",
          "name": "",
          "type": "uint8"
        }
      ],
      "stateMutability": "view",
      "type": "function"
    },
    {
      "inputs": [],
      "name": "STATUS_INACTIVE",
      "outputs": [
        {
          "internalType": "uint8",
          "name": "",
          "type": "uint8"
        }
      ],
      "stateMutability": "view",
      "type": "function"
    },
    {
      "inputs": [],
      "name": "STATUS_JAILED",
      "outputs": [
        {
          "internalType": "uint8",
          "name": "",
          "type": "uint8"
        }
      ],
      "stateMutability": "view",
      "type": "function"
    },
    {
      "inputs": [
        {
          "internalType": "bytes32",
          "name": "",
          "type": "bytes32"
        }
      ],
      "name": "bitcoinLockTimes",
      "outputs": [
        {
          "internalType": "uint256",
          "name": "",
          "type": "uint256"
        }
      ],
      "stateMutability": "view",
      "type": "function"
    },
    {
      "inputs": [
        {
          "internalType": "bytes32",
          "name": "",
          "type": "bytes32"
        }
      ],
      "name": "bitcoinStakeAmounts",
      "outputs": [
        {
          "internalType": "uint256",
          "name": "",
          "type": "uint256"
        }
      ],
      "stateMutability": "view",
      "type": "function"
    },
    {
      "inputs": [
        {
          "internalType": "address",
          "name": "",
          "type": "address"
        }
      ],
      "name": "bitcoinTxHashes",
      "outputs": [
        {
          "internalType": "bytes32",
          "name": "",
          "type": "bytes32"
        }
      ],
      "stateMutability": "view",
      "type": "function"
    },
    {
      "inputs": [
        {
          "internalType": "address",
          "name": "user",
          "type": "address"
        }
      ],
      "name": "calculateStakingTier",
      "outputs": [
        {
          "internalType": "uint256",
          "name": "",
          "type": "uint256"
        }
      ],
      "stateMutability": "view",
      "type": "function"
    },
    {
      "inputs": [],
      "name": "coreToken",
      "outputs": [
        {
          "internalType": "contract IERC20",
          "name": "",
          "type": "address"
        }
      ],
      "stateMutability": "view",
      "type": "function"
    },
    {
      "inputs": [
        {
          "internalType": "uint64",
          "name": "uid",
          "type": "uint64"
        },
        {
          "internalType": "string",
          "name": "name",
          "type": "string"
        },
        {
          "internalType": "string",
          "name": "description",
          "type": "string"
        },
        {
          "internalType": "uint256",
          "name": "maxMiners",
          "type": "uint256"
        },
        {
          "internalType": "uint256",
          "name": "maxValidators",
          "type": "uint256"
        },
        {
          "internalType": "uint256",
          "name": "immunityPeriod",
          "type": "uint256"
        },
        {
          "internalType": "uint256",
          "name": "minMinerStake",
          "type": "uint256"
        },
        {
          "internalType": "uint256",
          "name": "minValidatorStake",
          "type": "uint256"
        },
        {
          "internalType": "uint256",
          "name": "registrationCost",
          "type": "uint256"
        }
      ],
      "name": "createSubnet",
      "outputs": [],
      "stateMutability": "nonpayable",
      "type": "function"
    },
    {
      "inputs": [
        {
          "internalType": "address",
          "name": "user",
          "type": "address"
        },
        {
          "internalType": "uint256",
          "name": "baseReward",
          "type": "uint256"
        }
      ],
      "name": "distributeRewards",
      "outputs": [],
      "stateMutability": "nonpayable",
      "type": "function"
    },
    {
      "inputs": [
        {
          "internalType": "address",
          "name": "token",
          "type": "address"
        },
        {
          "internalType": "uint256",
          "name": "amount",
          "type": "uint256"
        }
      ],
      "name": "emergencyWithdraw",
      "outputs": [],
      "stateMutability": "nonpayable",
      "type": "function"
    },
    {
      "inputs": [],
      "name": "getAllMiners",
      "outputs": [
        {
          "internalType": "address[]",
          "name": "",
          "type": "address[]"
        }
      ],
      "stateMutability": "view",
      "type": "function"
    },
    {
      "inputs": [],
      "name": "getAllSubnets",
      "outputs": [
        {
          "internalType": "uint64[]",
          "name": "",
          "type": "uint64[]"
        }
      ],
      "stateMutability": "view",
      "type": "function"
    },
    {
      "inputs": [],
      "name": "getAllValidators",
      "outputs": [
        {
          "internalType": "address[]",
          "name": "",
          "type": "address[]"
        }
      ],
      "stateMutability": "view",
      "type": "function"
    },
    {
      "inputs": [
        {
          "internalType": "address",
          "name": "minerAddr",
          "type": "address"
        }
      ],
      "name": "getMinerInfo",
      "outputs": [
        {
          "components": [
            {
              "internalType": "bytes32",
              "name": "uid",
              "type": "bytes32"
            },
            {
              "internalType": "uint64",
              "name": "subnetUid",
              "type": "uint64"
            },
            {
              "internalType": "uint256",
              "name": "stake",
              "type": "uint256"
            },
            {
              "internalType": "uint256",
              "name": "bitcoinStake",
              "type": "uint256"
            },
            {
              "internalType": "uint256",
              "name": "lastPerformance",
              "type": "uint256"
            },
            {
              "internalType": "uint256",
              "name": "trustScore",
              "type": "uint256"
            },
            {
              "internalType": "uint256",
              "name": "accumulatedRewards",
              "type": "uint256"
            },
            {
              "internalType": "uint256",
              "name": "lastUpdateTimestamp",
              "type": "uint256"
            },
            {
              "internalType": "uint256",
              "name": "registrationTimestamp",
              "type": "uint256"
            },
            {
              "internalType": "uint8",
              "name": "status",
              "type": "uint8"
            },
            {
              "internalType": "bytes32",
              "name": "performanceHistoryHash",
              "type": "bytes32"
            },
            {
              "internalType": "string",
              "name": "apiEndpoint",
              "type": "string"
            },
            {
              "internalType": "address",
              "name": "owner",
              "type": "address"
            }
          ],
          "internalType": "struct ModernTensor.MinerInfo",
          "name": "",
          "type": "tuple"
        }
      ],
      "stateMutability": "view",
      "type": "function"
    },
    {
      "inputs": [],
      "name": "getStakingTiers",
      "outputs": [
        {
          "components": [
            {
              "internalType": "uint256",
              "name": "minCoreRatio",
              "type": "uint256"
            },
            {
              "internalType": "uint256",
              "name": "multiplier",
              "type": "uint256"
            },
            {
              "internalType": "string",
              "name": "name",
              "type": "string"
            }
          ],
          "internalType": "struct ModernTensor.StakingTier[]",
          "name": "",
          "type": "tuple[]"
        }
      ],
      "stateMutability": "view",
      "type": "function"
    },
    {
      "inputs": [
        {
          "internalType": "uint64",
          "name": "subnetUid",
          "type": "uint64"
        }
      ],
      "name": "getSubnetInfo",
      "outputs": [
        {
          "components": [
            {
              "internalType": "uint64",
              "name": "uid",
              "type": "uint64"
            },
            {
              "internalType": "string",
              "name": "name",
              "type": "string"
            },
            {
              "internalType": "string",
              "name": "description",
              "type": "string"
            },
            {
              "internalType": "uint256",
              "name": "maxMiners",
              "type": "uint256"
            },
            {
              "internalType": "uint256",
              "name": "maxValidators",
              "type": "uint256"
            },
            {
              "internalType": "uint256",
              "name": "immunityPeriod",
              "type": "uint256"
            },
            {
              "internalType": "uint256",
              "name": "minMinerStake",
              "type": "uint256"
            },
            {
              "internalType": "uint256",
              "name": "minValidatorStake",
              "type": "uint256"
            },
            {
              "internalType": "uint256",
              "name": "registrationCost",
              "type": "uint256"
            },
            {
              "internalType": "address",
              "name": "owner",
              "type": "address"
            },
            {
              "internalType": "uint256",
              "name": "creationTimestamp",
              "type": "uint256"
            }
          ],
          "internalType": "struct ModernTensor.SubnetInfo",
          "name": "",
          "type": "tuple"
        }
      ],
      "stateMutability": "view",
      "type": "function"
    },
    {
      "inputs": [
        {
          "internalType": "address",
          "name": "validatorAddr",
          "type": "address"
        }
      ],
      "name": "getValidatorInfo",
      "outputs": [
        {
          "components": [
            {
              "internalType": "bytes32",
              "name": "uid",
              "type": "bytes32"
            },
            {
              "internalType": "uint64",
              "name": "subnetUid",
              "type": "uint64"
            },
            {
              "internalType": "uint256",
              "name": "stake",
              "type": "uint256"
            },
            {
              "internalType": "uint256",
              "name": "bitcoinStake",
              "type": "uint256"
            },
            {
              "internalType": "uint256",
              "name": "lastPerformance",
              "type": "uint256"
            },
            {
              "internalType": "uint256",
              "name": "trustScore",
              "type": "uint256"
            },
            {
              "internalType": "uint256",
              "name": "accumulatedRewards",
              "type": "uint256"
            },
            {
              "internalType": "uint256",
              "name": "lastUpdateTimestamp",
              "type": "uint256"
            },
            {
              "internalType": "uint256",
              "name": "registrationTimestamp",
              "type": "uint256"
            },
            {
              "internalType": "uint8",
              "name": "status",
              "type": "uint8"
            },
            {
              "internalType": "bytes32",
              "name": "performanceHistoryHash",
              "type": "bytes32"
            },
            {
              "internalType": "string",
              "name": "apiEndpoint",
              "type": "string"
            },
            {
              "internalType": "address",
              "name": "owner",
              "type": "address"
            }
          ],
          "internalType": "struct ModernTensor.ValidatorInfo",
          "name": "",
          "type": "tuple"
        }
      ],
      "stateMutability": "view",
      "type": "function"
    },
    {
      "inputs": [
        {
          "internalType": "uint256",
          "name": "",
          "type": "uint256"
        }
      ],
      "name": "minerAddresses",
      "outputs": [
        {
          "internalType": "address",
          "name": "",
          "type": "address"
        }
      ],
      "stateMutability": "view",
      "type": "function"
    },
    {
      "inputs": [
        {
          "internalType": "address",
          "name": "",
          "type": "address"
        }
      ],
      "name": "miners",
      "outputs": [
        {
          "internalType": "bytes32",
          "name": "uid",
          "type": "bytes32"
        },
        {
          "internalType": "uint64",
          "name": "subnetUid",
          "type": "uint64"
        },
        {
          "internalType": "uint256",
          "name": "stake",
          "type": "uint256"
        },
        {
          "internalType": "uint256",
          "name": "bitcoinStake",
          "type": "uint256"
        },
        {
          "internalType": "uint256",
          "name": "lastPerformance",
          "type": "uint256"
        },
        {
          "internalType": "uint256",
          "name": "trustScore",
          "type": "uint256"
        },
        {
          "internalType": "uint256",
          "name": "accumulatedRewards",
          "type": "uint256"
        },
        {
          "internalType": "uint256",
          "name": "lastUpdateTimestamp",
          "type": "uint256"
        },
        {
          "internalType": "uint256",
          "name": "registrationTimestamp",
          "type": "uint256"
        },
        {
          "internalType": "uint8",
          "name": "status",
          "type": "uint8"
        },
        {
          "internalType": "bytes32",
          "name": "performanceHistoryHash",
          "type": "bytes32"
        },
        {
          "internalType": "string",
          "name": "apiEndpoint",
          "type": "string"
        },
        {
          "internalType": "address",
          "name": "owner",
          "type": "address"
        }
      ],
      "stateMutability": "view",
      "type": "function"
    },
    {
      "inputs": [],
      "name": "owner",
      "outputs": [
        {
          "internalType": "address",
          "name": "",
          "type": "address"
        }
      ],
      "stateMutability": "view",
      "type": "function"
    },
    {
      "inputs": [],
      "name": "pause",
      "outputs": [],
      "stateMutability": "nonpayable",
      "type": "function"
    },
    {
      "inputs": [],
      "name": "paused",
      "outputs": [
        {
          "internalType": "bool",
          "name": "",
          "type": "bool"
        }
      ],
      "stateMutability": "view",
      "type": "function"
    },
    {
      "inputs": [
        {
          "internalType": "bytes32",
          "name": "uid",
          "type": "bytes32"
        },
        {
          "internalType": "uint64",
          "name": "subnetUid",
          "type": "uint64"
        },
        {
          "internalType": "uint256",
          "name": "stakeAmount",
          "type": "uint256"
        },
        {
          "internalType": "string",
          "name": "apiEndpoint",
          "type": "string"
        }
      ],
      "name": "registerMiner",
      "outputs": [],
      "stateMutability": "payable",
      "type": "function"
    },
    {
      "inputs": [
        {
          "internalType": "bytes32",
          "name": "uid",
          "type": "bytes32"
        },
        {
          "internalType": "uint64",
          "name": "subnetUid",
          "type": "uint64"
        },
        {
          "internalType": "uint256",
          "name": "stakeAmount",
          "type": "uint256"
        },
        {
          "internalType": "string",
          "name": "apiEndpoint",
          "type": "string"
        }
      ],
      "name": "registerValidator",
      "outputs": [],
      "stateMutability": "payable",
      "type": "function"
    },
    {
      "inputs": [],
      "name": "renounceOwnership",
      "outputs": [],
      "stateMutability": "nonpayable",
      "type": "function"
    },
    {
      "inputs": [
        {
          "internalType": "address",
          "name": "minerAddr",
          "type": "address"
        },
        {
          "internalType": "uint8",
          "name": "newStatus",
          "type": "uint8"
        }
      ],
      "name": "setMinerStatus",
      "outputs": [],
      "stateMutability": "nonpayable",
      "type": "function"
    },
    {
      "inputs": [
        {
          "internalType": "address",
          "name": "validatorAddr",
          "type": "address"
        },
        {
          "internalType": "uint8",
          "name": "newStatus",
          "type": "uint8"
        }
      ],
      "name": "setValidatorStatus",
      "outputs": [],
      "stateMutability": "nonpayable",
      "type": "function"
    },
    {
      "inputs": [
        {
          "internalType": "bytes32",
          "name": "txHash",
          "type": "bytes32"
        },
        {
          "internalType": "uint256",
          "name": "amount",
          "type": "uint256"
        },
        {
          "internalType": "uint256",
          "name": "lockTime",
          "type": "uint256"
        }
      ],
      "name": "stakeBitcoin",
      "outputs": [],
      "stateMutability": "nonpayable",
      "type": "function"
    },
    {
      "inputs": [
        {
          "internalType": "uint256",
          "name": "",
          "type": "uint256"
        }
      ],
      "name": "stakingTiers",
      "outputs": [
        {
          "internalType": "uint256",
          "name": "minCoreRatio",
          "type": "uint256"
        },
        {
          "internalType": "uint256",
          "name": "multiplier",
          "type": "uint256"
        },
        {
          "internalType": "string",
          "name": "name",
          "type": "string"
        }
      ],
      "stateMutability": "view",
      "type": "function"
    },
    {
      "inputs": [
        {
          "internalType": "uint256",
          "name": "",
          "type": "uint256"
        }
      ],
      "name": "subnetIds",
      "outputs": [
        {
          "internalType": "uint64",
          "name": "",
          "type": "uint64"
        }
      ],
      "stateMutability": "view",
      "type": "function"
    },
    {
      "inputs": [
        {
          "internalType": "uint64",
          "name": "",
          "type": "uint64"
        }
      ],
      "name": "subnets",
      "outputs": [
        {
          "internalType": "uint64",
          "name": "uid",
          "type": "uint64"
        },
        {
          "internalType": "string",
          "name": "name",
          "type": "string"
        },
        {
          "internalType": "string",
          "name": "description",
          "type": "string"
        },
        {
          "internalType": "uint256",
          "name": "maxMiners",
          "type": "uint256"
        },
        {
          "internalType": "uint256",
          "name": "maxValidators",
          "type": "uint256"
        },
        {
          "internalType": "uint256",
          "name": "immunityPeriod",
          "type": "uint256"
        },
        {
          "internalType": "uint256",
          "name": "minMinerStake",
          "type": "uint256"
        },
        {
          "internalType": "uint256",
          "name": "minValidatorStake",
          "type": "uint256"
        },
        {
          "internalType": "uint256",
          "name": "registrationCost",
          "type": "uint256"
        },
        {
          "internalType": "address",
          "name": "owner",
          "type": "address"
        },
        {
          "internalType": "uint256",
          "name": "creationTimestamp",
          "type": "uint256"
        }
      ],
      "stateMutability": "view",
      "type": "function"
    },
    {
      "inputs": [],
      "name": "totalMiners",
      "outputs": [
        {
          "internalType": "uint256",
          "name": "",
          "type": "uint256"
        }
      ],
      "stateMutability": "view",
      "type": "function"
    },
    {
      "inputs": [],
      "name": "totalSubnets",
      "outputs": [
        {
          "internalType": "uint64",
          "name": "",
          "type": "uint64"
        }
      ],
      "stateMutability": "view",
      "type": "function"
    },
    {
      "inputs": [],
      "name": "totalValidators",
      "outputs": [
        {
          "internalType": "uint256",
          "name": "",
          "type": "uint256"
        }
      ],
      "stateMutability": "view",
      "type": "function"
    },
    {
      "inputs": [
        {
          "internalType": "address",
          "name": "newOwner",
          "type": "address"
        }
      ],
      "name": "transferOwnership",
      "outputs": [],
      "stateMutability": "nonpayable",
      "type": "function"
    },
    {
      "inputs": [],
      "name": "unpause",
      "outputs": [],
      "stateMutability": "nonpayable",
      "type": "function"
    },
    {
      "inputs": [
        {
          "internalType": "address",
          "name": "minerAddr",
          "type": "address"
        },
        {
          "internalType": "uint256",
          "name": "newPerformance",
          "type": "uint256"
        },
        {
          "internalType": "uint256",
          "name": "newTrustScore",
          "type": "uint256"
        }
      ],
      "name": "updateMinerScores",
      "outputs": [],
      "stateMutability": "nonpayable",
      "type": "function"
    },
    {
      "inputs": [
        {
          "internalType": "address",
          "name": "validatorAddr",
          "type": "address"
        },
        {
          "internalType": "uint256",
          "name": "newPerformance",
          "type": "uint256"
        },
        {
          "internalType": "uint256",
          "name": "newTrustScore",
          "type": "uint256"
        }
      ],
      "name": "updateValidatorScores",
      "outputs": [],
      "stateMutability": "nonpayable",
      "type": "function"
    },
    {
      "inputs": [
        {
          "internalType": "uint256",
          "name": "",
          "type": "uint256"
        }
      ],
      "name": "validatorAddresses",
      "outputs": [
        {
          "internalType": "address",
          "name": "",
          "type": "address"
        }
      ],
      "stateMutability": "view",
      "type": "function"
    },
    {
      "inputs": [
        {
          "internalType": "address",
          "name": "",
          "type": "address"
        }
      ],
      "name": "validators",
      "outputs": [
        {
          "internalType": "bytes32",
          "name": "uid",
          "type": "bytes32"
        },
        {
          "internalType": "uint64",
          "name": "subnetUid",
          "type": "uint64"
        },
        {
          "internalType": "uint256",
          "name": "stake",
          "type": "uint256"
        },
        {
          "internalType": "uint256",
          "name": "bitcoinStake",
          "type": "uint256"
        },
        {
          "internalType": "uint256",
          "name": "lastPerformance",
          "type": "uint256"
        },
        {
          "internalType": "uint256",
          "name": "trustScore",
          "type": "uint256"
        },
        {
          "internalType": "uint256",
          "name": "accumulatedRewards",
          "type": "uint256"
        },
        {
          "internalType": "uint256",
          "name": "lastUpdateTimestamp",
          "type": "uint256"
        },
        {
          "internalType": "uint256",
          "name": "registrationTimestamp",
          "type": "uint256"
        },
        {
          "internalType": "uint8",
          "name": "status",
          "type": "uint8"
        },
        {
          "internalType": "bytes32",
          "name": "performanceHistoryHash",
          "type": "bytes32"
        },
        {
          "internalType": "string",
          "name": "apiEndpoint",
          "type": "string"
        },
        {
          "internalType": "address",
          "name": "owner",
          "type": "address"
        }
      ],
      "stateMutability": "view",
      "type": "function"
    }
  ],
  "bytecode": "0x60806040523480156200001157600080fd5b5060405162003d2138038062003d2183398101604081905262000034916200033b565b6200003f33620002eb565b6001808055600280546001600160a81b0319166101006001600160a01b038516021790556040805160608101825260008082526103e860208084019182528451808601865260048152634261736560e01b91810191909152938301938452600980549586018155909152815160008051602062003d018339815191526003909502948501908155905160008051602062003ce18339815191528501559151909260008051602062003cc18339815191520190620000fd908262000412565b505060408051606081018252606481526104e26020808301918252835180850185526005815264109bdbdcdd60da1b91810191909152928201928352600980546001810182556000919091528251600390910260008051602062003d018339815191528101918255915160008051602062003ce1833981519152830155925191935060008051602062003cc183398151915201906200019d908262000412565b5050604080516060810182526101f481526105dc602080830191825283518085018552600581526429bab832b960d91b91810191909152928201928352600980546001810182556000919091528251600390910260008051602062003d018339815191528101918255915160008051602062003ce1833981519152830155925191935060008051602062003cc183398151915201906200023e908262000412565b5050604080516060810182526103e881526107d060208083019182528351808501855260078152665361746f73686960c81b91810191909152928201928352600980546001810182556000919091528251600390910260008051602062003d018339815191528101918255915160008051602062003ce1833981519152830155925191935060008051602062003cc18339815191520190620002e1908262000412565b50505050620004de565b600080546001600160a01b038381166001600160a01b0319831681178455604051919092169283917f8be0079c531659141344cd1fd0a4f28419497f9722a3daafe3b4186f6b6457e09190a35050565b6000602082840312156200034e57600080fd5b81516001600160a01b03811681146200036657600080fd5b9392505050565b634e487b7160e01b600052604160045260246000fd5b600181811c908216806200039857607f821691505b602082108103620003b957634e487b7160e01b600052602260045260246000fd5b50919050565b601f8211156200040d57600081815260208120601f850160051c81016020861015620003e85750805b601f850160051c820191505b818110156200040957828155600101620003f4565b5050505b505050565b81516001600160401b038111156200042e576200042e6200036d565b62000446816200043f845462000383565b84620003bf565b602080601f8311600181146200047e5760008415620004655750858301515b600019600386901b1c1916600185901b17855562000409565b600085815260208120601f198616915b82811015620004af578886015182559484019460019091019084016200048e565b5085821015620004ce5787850151600019600388901b60f8161c191681555b5050505050600190811b01905550565b6137d380620004ee6000396000f3fe6080604052600436106102675760003560e01c80638456cb5911610144578063c81b356b116100b6578063dbb9431f1161007a578063dbb9431f1461077f578063e05709eb1461079f578063e5dcbd26146107bf578063f2fde38b146107d2578063f3513a37146107f2578063fa52c7d81461080757600080fd5b8063c81b356b146106f1578063cb1c2b5c14610707578063cd6a4dbb14610723578063ce4b5bbe146104bd578063d50267ee1461075057600080fd5b806395d671ed1161010857806395d671ed1461061a578063997453181461063a5780639dfe8af31461065a578063a2b671581461067a578063a8031a1d1461069a578063aaf73be1146106ba57600080fd5b80638456cb59146105855780638a11d7c91461059a5780638da5cb5b146105ba578063929ff971146105d857806395ccea67146105fa57600080fd5b80634b17bf30116101dd578063631ad603116101a1578063631ad603146104bd578063648ec7b9146104d4578063715018a61461050d578063764fe7d114610522578063825a19dc146105385780638359063c1461056557600080fd5b80634b17bf301461040b5780634dd7d87c1461042d5780635c975abb146104405780635ddc78e414610463578063603ed9eb1461049b57600080fd5b80632ac9fcf91161022f5780632ac9fcf91461035f5780633cf56053146103745780633d2de9e2146103a15780633f4ba83a146103c15780634389cc22146103d657806345f358fd146103eb57600080fd5b8063024297421461026c5780630b34d553146102985780630c2b72e9146102c55780631ea0d77514610302578063203237901461033d575b600080fd5b34801561027857600080fd5b50610281600081565b60405160ff90911681526020015b60405180910390f35b3480156102a457600080fd5b506102b86102b3366004612d91565b610827565b60405161028f9190612ed3565b3480156102d157600080fd5b506002546102ea9061010090046001600160a01b031681565b6040516001600160a01b03909116815260200161028f565b34801561030e57600080fd5b5061032f61031d366004612ee6565b600c6020526000908152604090205481565b60405190815260200161028f565b34801561034957600080fd5b5061035d610358366004612eff565b6109e4565b005b34801561036b57600080fd5b50610281600281565b34801561038057600080fd5b5061039461038f366004612f49565b610b7e565b60405161028f9190612f64565b3480156103ad57600080fd5b5061035d6103bc36600461302f565b610da6565b3480156103cd57600080fd5b5061035d610f5c565b3480156103e257600080fd5b50610281600181565b3480156103f757600080fd5b506102ea610406366004612ee6565b610f6e565b34801561041757600080fd5b50610420610f98565b60405161028f919061305b565b61035d61043b3660046130f0565b610ffa565b34801561044c57600080fd5b5060025460ff16604051901515815260200161028f565b34801561046f57600080fd5b5061048361047e366004612ee6565b6113b5565b6040516001600160401b03909116815260200161028f565b3480156104a757600080fd5b506104b06113f2565b60405161028f9190613157565b3480156104c957600080fd5b5061032f620f424081565b3480156104e057600080fd5b506104f46104ef366004612d91565b6114f7565b60405161028f9d9c9b9a999897969594939291906131d6565b34801561051957600080fd5b5061035d611600565b34801561052e57600080fd5b5061032f600d5481565b34801561054457600080fd5b5061032f610553366004612ee6565b600b6020526000908152604090205481565b34801561057157600080fd5b5061035d610580366004613260565b611612565b34801561059157600080fd5b5061035d61193f565b3480156105a657600080fd5b506102b86105b5366004612d91565b61194f565b3480156105c657600080fd5b506000546001600160a01b03166102ea565b3480156105e457600080fd5b506105ed611a6f565b60405161028f9190613316565b34801561060657600080fd5b5061035d610615366004613357565b611af8565b34801561062657600080fd5b5061035d610635366004613381565b611b2a565b34801561064657600080fd5b506102ea610655366004612ee6565b611c0b565b34801561066657600080fd5b5061032f610675366004612d91565b611c1b565b34801561068657600080fd5b50600f54610483906001600160401b031681565b3480156106a657600080fd5b5061035d6106b5366004613357565b611d46565b3480156106c657600080fd5b506106da6106d5366004612f49565b611eba565b60405161028f9b9a999897969594939291906133be565b3480156106fd57600080fd5b5061032f600e5481565b34801561071357600080fd5b5061032f670de0b6b3a764000081565b34801561072f57600080fd5b5061032f61073e366004612d91565b600a6020526000908152604090205481565b34801561075c57600080fd5b5061077061076b366004612ee6565b612035565b60405161028f93929190613442565b34801561078b57600080fd5b5061035d61079a366004612eff565b6120f7565b3480156107ab57600080fd5b5061035d6107ba366004613381565b61227b565b61035d6107cd3660046130f0565b612358565b3480156107de57600080fd5b5061035d6107ed366004612d91565b6126fa565b3480156107fe57600080fd5b50610420612773565b34801561081357600080fd5b506104f4610822366004612d91565b6127d3565b604080516101a08101825260008082526020820181905291810182905260608082018390526080820183905260a0820183905260c0820183905260e082018390526101008201839052610120820183905261014082018390526101608201526101808101919091526001600160a01b03821660009081526003602081815260409283902083516101a0810185528154815260018201546001600160401b03169281019290925260028101549382019390935290820154606082015260048201546080820152600582015460a0820152600682015460c0820152600782015460e08201526008820154610100820152600982015460ff16610120820152600a820154610140820152600b82018054919291610160840191906109479061346a565b80601f01602080910402602001604051908101604052809291908181526020018280546109739061346a565b80156109c05780601f10610995576101008083540402835291602001916109c0565b820191906000526020600020905b8154815290600101906020018083116109a357829003601f168201915b5050509183525050600c91909101546001600160a01b031660209091015292915050565b3360009081526004602052604090206009015460ff16600114610a225760405162461bcd60e51b8152600401610a19906134a4565b60405180910390fd5b6001600160a01b038316600090815260046020526040902054610a7d5760405162461bcd60e51b815260206004820152601360248201527215985b1a59185d1bdc881b9bdd08199bdd5b99606a1b6044820152606401610a19565b620f4240821115610ac65760405162461bcd60e51b8152602060048201526013602482015272496e76616c696420706572666f726d616e636560681b6044820152606401610a19565b620f4240811115610b0f5760405162461bcd60e51b8152602060048201526013602482015272496e76616c69642074727573742073636f726560681b6044820152606401610a19565b6001600160a01b038316600081815260046020818152604092839020918201869055600582018590554260078301559054825186815291820185905292917f3feb70d0c82ba49fa8e6c2ad3d72b00c12dfd191efe4ae5793cbb6c5532016a491015b60405180910390a3505050565b610bed60405180610160016040528060006001600160401b03168152602001606081526020016060815260200160008152602001600081526020016000815260200160008152602001600081526020016000815260200160006001600160a01b03168152602001600081525090565b6001600160401b03808316600090815260056020908152604091829020825161016081019093528054909316825260018301805492939291840191610c319061346a565b80601f0160208091040260200160405190810160405280929190818152602001828054610c5d9061346a565b8015610caa5780601f10610c7f57610100808354040283529160200191610caa565b820191906000526020600020905b815481529060010190602001808311610c8d57829003601f168201915b50505050508152602001600282018054610cc39061346a565b80601f0160208091040260200160405190810160405280929190818152602001828054610cef9061346a565b8015610d3c5780601f10610d1157610100808354040283529160200191610d3c565b820191906000526020600020905b815481529060010190602001808311610d1f57829003601f168201915b505050918352505060038201546020820152600482015460408201526005820154606082015260068201546080820152600782015460a0820152600882015460c082015260098201546001600160a01b031660e0820152600a909101546101009091015292915050565b33600090815260036020526040902054151580610dd157503360009081526004602052604090205415155b610e0e5760405162461bcd60e51b815260206004820152600e60248201526d139bdd081c9959da5cdd195c995960921b6044820152606401610a19565b6000838152600b602052604090205415610e635760405162461bcd60e51b8152602060048201526016602482015275109a5d18dbda5b88185b1c9958591e481cdd185ad95960521b6044820152606401610a19565b428111610ea65760405162461bcd60e51b8152602060048201526011602482015270496e76616c6964206c6f636b2074696d6560781b6044820152606401610a19565b336000818152600a60209081526040808320879055868352600b8252808320869055600c825280832085905592825260039052205415610ef757336000908152600360208190526040909120018290555b3360009081526004602052604090205415610f22573360009081526004602052604090206003018290555b6040805183815260208101839052849133917faf8f4832ee21127b492c09e9350c60903a7e5a3d33298ecaff4b0a23a071c4419101610b71565b610f64612849565b610f6c6128a3565b565b60068181548110610f7e57600080fd5b6000918252602090912001546001600160a01b0316905081565b60606006805480602002602001604051908101604052809291908181526020018280548015610ff057602002820191906000526020600020905b81546001600160a01b03168152600190910190602001808311610fd2575b5050505050905090565b6110026128f5565b6001600160401b038085166000818152600560205260409020548692161461105d5760405162461bcd60e51b815260206004820152600e60248201526d125b9d985b1a59081cdd589b995d60921b6044820152606401610a19565b33600090815260036020526040902054156110ba5760405162461bcd60e51b815260206004820152601860248201527f4d696e657220616c7265616479207265676973746572656400000000000000006044820152606401610a19565b6001600160401b03851660009081526005602052604090206006015484101561111a5760405162461bcd60e51b8152602060048201526012602482015271496e73756666696369656e74207374616b6560701b6044820152606401610a19565b8161115e5760405162461bcd60e51b8152602060048201526014602482015273125b9d985b1a590810541248195b991c1bda5b9d60621b6044820152606401610a19565b60025461117b9061010090046001600160a01b031633308761294e565b604051806101a00160405280878152602001866001600160401b03168152602001858152602001600081526020016207a12081526020016207a120815260200160008152602001428152602001428152602001600160ff1681526020016000801b815260200184848080601f016020809104026020016040519081016040528093929190818152602001838380828437600092018290525093855250503360209384018190528252506003808352604091829020845181559284015160018401805467ffffffffffffffff19166001600160401b039092169190911790559083015160028301556060830151908201556080820151600482015560a0820151600582015560c0820151600682015560e08201516007820155610100820151600882015561012082015160098201805460ff191660ff909216919091179055610140820151600a820155610160820151600b8201906112d9908261353f565b506101809190910151600c90910180546001600160a01b039092166001600160a01b03199283161790556006805460018101825560009182527ff652222313e28459528d920b65115c16c04f3efc82aaedc97be59f3f377c0d3f0180549092163317909155600d80549161134c83613614565b9190505550846001600160401b031686336001600160a01b03167f284a2f2922cca86a4558825cf0eff580b74bdf98e8a476397c58cc8f567416f3876000888860405161139c9493929190613656565b60405180910390a4506113ae60018055565b5050505050565b600881815481106113c557600080fd5b9060005260206000209060049182820401919006600802915054906101000a90046001600160401b031681565b60606009805480602002602001604051908101604052809291908181526020016000905b828210156114ee5783829060005260206000209060030201604051806060016040529081600082015481526020016001820154815260200160028201805461145d9061346a565b80601f01602080910402602001604051908101604052809291908181526020018280546114899061346a565b80156114d65780601f106114ab576101008083540402835291602001916114d6565b820191906000526020600020905b8154815290600101906020018083116114b957829003601f168201915b50505050508152505081526020019060010190611416565b50505050905090565b600360208190526000918252604090912080546001820154600283015493830154600484015460058501546006860154600787015460088801546009890154600a8a0154600b8b0180549a9c6001600160401b03909a169b999a98999798969795969495939460ff90931693919261156e9061346a565b80601f016020809104026020016040519081016040528092919081815260200182805461159a9061346a565b80156115e75780601f106115bc576101008083540402835291602001916115e7565b820191906000526020600020905b8154815290600101906020018083116115ca57829003601f168201915b505050600c90930154919250506001600160a01b03168d565b611608612849565b610f6c60006129bf565b61161a612849565b6001600160401b03808c16600090815260056020526040902054161561167a5760405162461bcd60e51b81526020600482015260156024820152745375626e657420616c72656164792065786973747360581b6044820152606401610a19565b6040518061016001604052808c6001600160401b031681526020018b8b8080601f016020809104026020016040519081016040528093929190818152602001838380828437600092019190915250505090825250604080516020601f8c018190048102820181019092528a815291810191908b908b9081908401838280828437600081840152601f19601f820116905080830192505050505050508152602001878152602001868152602001858152602001848152602001838152602001828152602001336001600160a01b0316815260200142815250600560008d6001600160401b03166001600160401b0316815260200190815260200160002060008201518160000160006101000a8154816001600160401b0302191690836001600160401b0316021790555060208201518160010190816117b8919061353f565b50604082015160028201906117cd908261353f565b50606082015181600301556080820151816004015560a0820151816005015560c0820151816006015560e0820151816007015561010082015181600801556101208201518160090160006101000a8154816001600160a01b0302191690836001600160a01b0316021790555061014082015181600a015590505060088b90806001815401808255809150506001900390600052602060002090600491828204019190066008029091909190916101000a8154816001600160401b0302191690836001600160401b03160217905550600f600081819054906101000a90046001600160401b0316809291906118c090613680565b91906101000a8154816001600160401b0302191690836001600160401b0316021790555050336001600160a01b03168b6001600160401b03167f5d6943eed6b28b798177bcb465658cca4e137e72861014a967333bf23ab2846b8c8c60405161192a9291906136a6565b60405180910390a35050505050505050505050565b611947612849565b610f6c612a0f565b604080516101a08101825260008082526020820181905291810182905260608082018390526080820183905260a0820183905260c0820183905260e082018390526101008201839052610120820183905261014082018390526101608201526101808101919091526001600160a01b03821660009081526004602081815260409283902083516101a0810185528154815260018201546001600160401b03169281019290925260028101549382019390935260038301546060820152908201546080820152600582015460a0820152600682015460c0820152600782015460e08201526008820154610100820152600982015460ff16610120820152600a820154610140820152600b82018054919291610160840191906109479061346a565b60606008805480602002602001604051908101604052809291908181526020018280548015610ff057602002820191906000526020600020906000905b82829054906101000a90046001600160401b03166001600160401b031681526020019060080190602082600701049283019260010382029150808411611aac5790505050505050905090565b611b00612849565b611b26611b156000546001600160a01b031690565b6001600160a01b0384169083612a4c565b5050565b611b32612849565b6001600160a01b038216600090815260046020526040902054611b8d5760405162461bcd60e51b815260206004820152601360248201527215985b1a59185d1bdc881b9bdd08199bdd5b99606a1b6044820152606401610a19565b600260ff82161115611bd25760405162461bcd60e51b815260206004820152600e60248201526d496e76616c69642073746174757360901b6044820152606401610a19565b6001600160a01b0391909116600090815260046020526040902060098101805460ff191660ff9093169290921790915542600790910155565b60078181548110610f7e57600080fd5b6001600160a01b0381166000908152600360205260408120548190819015611c675750506001600160a01b03821660009081526003602081905260409091206002810154910154611cab565b6001600160a01b03841660009081526004602052604090205415611cab5750506001600160a01b038216600090815260046020526040902060028101546003909101545b80600003611cbd575060009392505050565b600081611ccc846103e86136ba565b611cd691906136d7565b600954909150600090611ceb906001906136f9565b90505b8015611d3a5760098181548110611d0757611d0761370c565b9060005260206000209060030201600001548210611d285795945050505050565b80611d3281613722565b915050611cee565b50600095945050505050565b3360009081526004602052604090206009015460ff16600114611d7b5760405162461bcd60e51b8152600401610a19906134a4565b6000611d8683611c1b565b9050600060098281548110611d9d57611d9d61370c565b6000918252602082206001600390920201015491506103e8611dbf83866136ba565b611dc991906136d7565b6001600160a01b03861660009081526003602052604090205490915015611e20576001600160a01b03851660009081526003602052604081206006018054839290611e15908490613739565b90915550611e6f9050565b6001600160a01b03851660009081526004602052604090205415611e6f576001600160a01b03851660009081526004602052604081206006018054839290611e69908490613739565b90915550505b60408051828152602081018590526001600160a01b038716917fe4e801442ed461792c0bdfa7f5c25444d391d67d68422437bd9005796c67cb23910160405180910390a25050505050565b600560205260009081526040902080546001820180546001600160401b039092169291611ee69061346a565b80601f0160208091040260200160405190810160405280929190818152602001828054611f129061346a565b8015611f5f5780601f10611f3457610100808354040283529160200191611f5f565b820191906000526020600020905b815481529060010190602001808311611f4257829003601f168201915b505050505090806002018054611f749061346a565b80601f0160208091040260200160405190810160405280929190818152602001828054611fa09061346a565b8015611fed5780601f10611fc257610100808354040283529160200191611fed565b820191906000526020600020905b815481529060010190602001808311611fd057829003601f168201915b505050506003830154600484015460058501546006860154600787015460088801546009890154600a9099015497989597949650929491939092916001600160a01b0316908b565b6009818154811061204557600080fd5b90600052602060002090600302016000915090508060000154908060010154908060020180546120749061346a565b80601f01602080910402602001604051908101604052809291908181526020018280546120a09061346a565b80156120ed5780601f106120c2576101008083540402835291602001916120ed565b820191906000526020600020905b8154815290600101906020018083116120d057829003601f168201915b5050505050905083565b3360009081526004602052604090206009015460ff1660011461212c5760405162461bcd60e51b8152600401610a19906134a4565b6001600160a01b0383166000908152600360205260409020546121835760405162461bcd60e51b815260206004820152600f60248201526e135a5b995c881b9bdd08199bdd5b99608a1b6044820152606401610a19565b620f42408211156121cc5760405162461bcd60e51b8152602060048201526013602482015272496e76616c696420706572666f726d616e636560681b6044820152606401610a19565b620f42408111156122155760405162461bcd60e51b8152602060048201526013602482015272496e76616c69642074727573742073636f726560681b6044820152606401610a19565b6001600160a01b038316600081815260036020908152604091829020600481018690556005810185905542600782015554825186815291820185905292917f615fefe7f2e55954f555487b67f360c6c08bb81aa9d9ad5b6a9c1f956a6439b69101610b71565b612283612849565b6001600160a01b0382166000908152600360205260409020546122da5760405162461bcd60e51b815260206004820152600f60248201526e135a5b995c881b9bdd08199bdd5b99608a1b6044820152606401610a19565b600260ff8216111561231f5760405162461bcd60e51b815260206004820152600e60248201526d496e76616c69642073746174757360901b6044820152606401610a19565b6001600160a01b0391909116600090815260036020526040902060098101805460ff191660ff9093169290921790915542600790910155565b6123606128f5565b6001600160401b03808516600081815260056020526040902054869216146123bb5760405162461bcd60e51b815260206004820152600e60248201526d125b9d985b1a59081cdd589b995d60921b6044820152606401610a19565b33600090815260046020526040902054156124185760405162461bcd60e51b815260206004820152601c60248201527f56616c696461746f7220616c72656164792072656769737465726564000000006044820152606401610a19565b6001600160401b0385166000908152600560205260409020600701548410156124785760405162461bcd60e51b8152602060048201526012602482015271496e73756666696369656e74207374616b6560701b6044820152606401610a19565b816124bc5760405162461bcd60e51b8152602060048201526014602482015273125b9d985b1a590810541248195b991c1bda5b9d60621b6044820152606401610a19565b6002546124d99061010090046001600160a01b031633308761294e565b604051806101a00160405280878152602001866001600160401b03168152602001858152602001600081526020016207a12081526020016207a120815260200160008152602001428152602001428152602001600160ff1681526020016000801b815260200184848080601f016020809104026020016040519081016040528093929190818152602001838380828437600092018290525093855250503360209384018190528252506004808352604091829020845181559284015160018401805467ffffffffffffffff19166001600160401b039092169190911790559083015160028301556060830151600383015560808301519082015560a0820151600582015560c0820151600682015560e08201516007820155610100820151600882015561012082015160098201805460ff191660ff909216919091179055610140820151600a820155610160820151600b820190612637908261353f565b506101809190910151600c90910180546001600160a01b039092166001600160a01b03199283161790556007805460018101825560009182527fa66cc928b5edb82af9bd49922954155ab7b0942694bea4ce44661d9a8736c6880180549092163317909155600e8054916126aa83613614565b9190505550846001600160401b031686336001600160a01b03167f644547bba6233284df8d4682414a23aad245d2e2f566af01c49187d2d40e34e5876000888860405161139c9493929190613656565b612702612849565b6001600160a01b0381166127675760405162461bcd60e51b815260206004820152602660248201527f4f776e61626c653a206e6577206f776e657220697320746865207a65726f206160448201526564647265737360d01b6064820152608401610a19565b612770816129bf565b50565b60606007805480602002602001604051908101604052809291908181526020018280548015610ff0576020028201919060005260206000209081546001600160a01b03168152600190910190602001808311610fd2575050505050905090565b600460208190526000918252604090912080546001820154600283015460038401549484015460058501546006860154600787015460088801546009890154600a8a0154600b8b0180549a9c6001600160401b03909a169b989a9798969795969495939460ff9093169391929161156e9061346a565b6000546001600160a01b03163314610f6c5760405162461bcd60e51b815260206004820181905260248201527f4f776e61626c653a2063616c6c6572206973206e6f7420746865206f776e65726044820152606401610a19565b6128ab612a81565b6002805460ff191690557f5db9ee0a495bf2e6ff9c91a7834c1ba4fdd244a5e8aa4e537bd38aeae4b073aa335b6040516001600160a01b03909116815260200160405180910390a1565b6002600154036129475760405162461bcd60e51b815260206004820152601f60248201527f5265656e7472616e637947756172643a207265656e7472616e742063616c6c006044820152606401610a19565b6002600155565b6040516001600160a01b03808516602483015283166044820152606481018290526129b99085906323b872dd60e01b906084015b60408051601f198184030181529190526020810180516001600160e01b03166001600160e01b031990931692909217909152612aca565b50505050565b600080546001600160a01b038381166001600160a01b0319831681178455604051919092169283917f8be0079c531659141344cd1fd0a4f28419497f9722a3daafe3b4186f6b6457e09190a35050565b612a17612b9f565b6002805460ff191660011790557f62e78cea01bee320cd4e420270b5ea74000d11b0c9f74754ebdbfc544b05a2586128d83390565b6040516001600160a01b038316602482015260448101829052612a7c90849063a9059cbb60e01b90606401612982565b505050565b60025460ff16610f6c5760405162461bcd60e51b815260206004820152601460248201527314185d5cd8589b194e881b9bdd081c185d5cd95960621b6044820152606401610a19565b6000612b1f826040518060400160405280602081526020017f5361666545524332303a206c6f772d6c6576656c2063616c6c206661696c6564815250856001600160a01b0316612be59092919063ffffffff16565b9050805160001480612b40575080806020019051810190612b40919061374c565b612a7c5760405162461bcd60e51b815260206004820152602a60248201527f5361666545524332303a204552433230206f7065726174696f6e20646964206e6044820152691bdd081cdd58d8d9595960b21b6064820152608401610a19565b60025460ff1615610f6c5760405162461bcd60e51b815260206004820152601060248201526f14185d5cd8589b194e881c185d5cd95960821b6044820152606401610a19565b6060612bf48484600085612bfc565b949350505050565b606082471015612c5d5760405162461bcd60e51b815260206004820152602660248201527f416464726573733a20696e73756666696369656e742062616c616e636520666f6044820152651c8818d85b1b60d21b6064820152608401610a19565b600080866001600160a01b03168587604051612c79919061376e565b60006040518083038185875af1925050503d8060008114612cb6576040519150601f19603f3d011682016040523d82523d6000602084013e612cbb565b606091505b5091509150612ccc87838387612cd7565b979650505050505050565b60608315612d46578251600003612d3f576001600160a01b0385163b612d3f5760405162461bcd60e51b815260206004820152601d60248201527f416464726573733a2063616c6c20746f206e6f6e2d636f6e74726163740000006044820152606401610a19565b5081612bf4565b612bf48383815115612d5b5781518083602001fd5b8060405162461bcd60e51b8152600401610a19919061378a565b80356001600160a01b0381168114612d8c57600080fd5b919050565b600060208284031215612da357600080fd5b612dac82612d75565b9392505050565b60005b83811015612dce578181015183820152602001612db6565b50506000910152565b60008151808452612def816020860160208601612db3565b601f01601f19169290920160200192915050565b60006101a0825184526020830151612e2660208601826001600160401b03169052565b5060408301516040850152606083015160608501526080830151608085015260a083015160a085015260c083015160c085015260e083015160e085015261010080840151818601525061012080840151612e848287018260ff169052565b5050610140808401518186015250610160808401518282870152612eaa83870182612dd7565b9250505061018080840151612ec9828701826001600160a01b03169052565b5090949350505050565b602081526000612dac6020830184612e03565b600060208284031215612ef857600080fd5b5035919050565b600080600060608486031215612f1457600080fd5b612f1d84612d75565b95602085013595506040909401359392505050565b80356001600160401b0381168114612d8c57600080fd5b600060208284031215612f5b57600080fd5b612dac82612f32565b60208152612f7e6020820183516001600160401b03169052565b60006020830151610160806040850152612f9c610180850183612dd7565b91506040850151601f19858403016060860152612fb98382612dd7565b92505060608501516080850152608085015160a085015260a085015160c085015260c085015160e085015260e085015161010081818701528087015191505061012081818701528087015191505061014061301e818701836001600160a01b03169052565b959095015193019290925250919050565b60008060006060848603121561304457600080fd5b505081359360208301359350604090920135919050565b6020808252825182820181905260009190848201906040850190845b8181101561309c5783516001600160a01b031683529284019291840191600101613077565b50909695505050505050565b60008083601f8401126130ba57600080fd5b5081356001600160401b038111156130d157600080fd5b6020830191508360208285010111156130e957600080fd5b9250929050565b60008060008060006080868803121561310857600080fd5b8535945061311860208701612f32565b93506040860135925060608601356001600160401b0381111561313a57600080fd5b613146888289016130a8565b969995985093965092949392505050565b60006020808301818452808551808352604092508286019150828160051b87010184880160005b838110156131c857888303603f19018552815180518452878101518885015286015160608785018190526131b481860183612dd7565b96890196945050509086019060010161317e565b509098975050505050505050565b60006101a08f83526001600160401b038f1660208401528d60408401528c60608401528b60808401528a60a08401528960c08401528860e08401528761010084015260ff8716610120840152856101408401528061016084015261323c81840186612dd7565b91505060018060a01b0383166101808301529e9d5050505050505050505050505050565b60008060008060008060008060008060006101208c8e03121561328257600080fd5b61328b8c612f32565b9a506001600160401b038060208e013511156132a657600080fd5b6132b68e60208f01358f016130a8565b909b50995060408d01358110156132cc57600080fd5b506132dd8d60408e01358e016130a8565b9b9e9a9d50989b989a9960608a0135996080810135995060a0810135985060c0810135975060e081013596506101000135945092505050565b6020808252825182820181905260009190848201906040850190845b8181101561309c5783516001600160401b031683529284019291840191600101613332565b6000806040838503121561336a57600080fd5b61337383612d75565b946020939093013593505050565b6000806040838503121561339457600080fd5b61339d83612d75565b9150602083013560ff811681146133b357600080fd5b809150509250929050565b60006101606001600160401b038e1683528060208401526133e18184018e612dd7565b905082810360408401526133f5818d612dd7565b606084019b909b525050608081019790975260a087019590955260c086019390935260e08501919091526101008401526001600160a01b0316610120830152610140909101529392505050565b8381528260208201526060604082015260006134616060830184612dd7565b95945050505050565b600181811c9082168061347e57607f821691505b60208210810361349e57634e487b7160e01b600052602260045260246000fd5b50919050565b60208082526017908201527f4e6f7420616e206163746976652076616c696461746f72000000000000000000604082015260600190565b634e487b7160e01b600052604160045260246000fd5b601f821115612a7c57600081815260208120601f850160051c810160208610156135185750805b601f850160051c820191505b8181101561353757828155600101613524565b505050505050565b81516001600160401b03811115613558576135586134db565b61356c81613566845461346a565b846134f1565b602080601f8311600181146135a157600084156135895750858301515b600019600386901b1c1916600185901b178555613537565b600085815260208120601f198616915b828110156135d0578886015182559484019460019091019084016135b1565b50858210156135ee5787850151600019600388901b60f8161c191681555b5050505050600190811b01905550565b634e487b7160e01b600052601160045260246000fd5b600060018201613626576136266135fe565b5060010190565b81835281816020850137506000828201602090810191909152601f909101601f19169091010190565b84815283602082015260606040820152600061367660608301848661362d565b9695505050505050565b60006001600160401b0380831681810361369c5761369c6135fe565b6001019392505050565b602081526000612bf460208301848661362d565b80820281158282048414176136d1576136d16135fe565b92915050565b6000826136f457634e487b7160e01b600052601260045260246000fd5b500490565b818103818111156136d1576136d16135fe565b634e487b7160e01b600052603260045260246000fd5b600081613731576137316135fe565b506000190190565b808201808211156136d1576136d16135fe565b60006020828403121561375e57600080fd5b81518015158114612dac57600080fd5b60008251613780818460208701612db3565b9190910192915050565b602081526000612dac6020830184612dd756fea26469706673582212201fcb20ccc95d3bc02e88d28f13257111e0e4091c7e1347be6c45586973c7f12964736f6c634300081300336e1540171b6c0c960b71a7020d9f60077f6af931a8bbf590da0223dacf75c7b16e1540171b6c0c960b71a7020d9f60077f6af931a8bbf590da0223dacf75c7b06e1540171b6c0c960b71a7020d9f60077f6af931a8bbf590da0223dacf75c7af",
  "linkReferences": {},
  "deployedLinkReferences": {}
}