{
  "_format": "hh-sol-artifact-1",
  "contractName": "ModernTensor",
  "sourceName": "contracts/ModernTensor.sol",
  "abi": [
    {
      "inputs": [
        {
          "internalType": "address",
          "name": "_coreToken",
          "type": "address"
        },
        {
          "internalType": "address",
          "name": "_btcToken",
          "type": "address"
        },
        {
          "internalType": "uint256",
          "name": "_minMinerStake",
          "type": "uint256"
        },
        {
          "internalType": "uint256",
          "name": "_minValidatorStake",
          "type": "uint256"
        }
      ],
      "stateMutability": "nonpayable",
      "type": "constructor"
    },
    {
      "anonymous": false,
      "inputs": [
        {
          "indexed": true,
          "internalType": "address",
          "name": "staker",
          "type": "address"
        },
        {
          "indexed": false,
          "internalType": "uint256",
          "name": "amount",
          "type": "uint256"
        },
        {
          "indexed": false,
          "internalType": "bytes32",
          "name": "proofHash",
          "type": "bytes32"
        }
      ],
      "name": "BitcoinStakeRegistered",
      "type": "event"
    },
    {
      "anonymous": false,
      "inputs": [
        {
          "indexed": true,
          "internalType": "uint64",
          "name": "subnetId",
          "type": "uint64"
        },
        {
          "indexed": false,
          "internalType": "uint64",
          "name": "epoch",
          "type": "uint64"
        },
        {
          "indexed": false,
          "internalType": "bytes32",
          "name": "consensusHash",
          "type": "bytes32"
        }
      ],
      "name": "ConsensusReached",
      "type": "event"
    },
    {
      "anonymous": false,
      "inputs": [
        {
          "indexed": true,
          "internalType": "uint64",
          "name": "roundId",
          "type": "uint64"
        },
        {
          "indexed": false,
          "internalType": "bytes32",
          "name": "consensusHash",
          "type": "bytes32"
        }
      ],
      "name": "ConsensusRoundFinalized",
      "type": "event"
    },
    {
      "anonymous": false,
      "inputs": [
        {
          "indexed": true,
          "internalType": "uint64",
          "name": "roundId",
          "type": "uint64"
        },
        {
          "indexed": true,
          "internalType": "uint64",
          "name": "epoch",
          "type": "uint64"
        }
      ],
      "name": "ConsensusRoundStarted",
      "type": "event"
    },
    {
      "anonymous": false,
      "inputs": [
        {
          "indexed": true,
          "internalType": "address",
          "name": "entity",
          "type": "address"
        },
        {
          "indexed": false,
          "internalType": "string",
          "name": "newEndpoint",
          "type": "string"
        }
      ],
      "name": "EndpointUpdated",
      "type": "event"
    },
    {
      "anonymous": false,
      "inputs": [
        {
          "indexed": true,
          "internalType": "uint64",
          "name": "subnetId",
          "type": "uint64"
        },
        {
          "indexed": true,
          "internalType": "address",
          "name": "recipient",
          "type": "address"
        },
        {
          "indexed": false,
          "internalType": "uint256",
          "name": "amount",
          "type": "uint256"
        }
      ],
      "name": "IncentiveDistributed",
      "type": "event"
    },
    {
      "anonymous": false,
      "inputs": [
        {
          "indexed": true,
          "internalType": "address",
          "name": "miner",
          "type": "address"
        },
        {
          "indexed": true,
          "internalType": "uint64",
          "name": "subnetId",
          "type": "uint64"
        },
        {
          "indexed": false,
          "internalType": "bytes32",
          "name": "uid",
          "type": "bytes32"
        }
      ],
      "name": "MinerRegistered",
      "type": "event"
    },
    {
      "anonymous": false,
      "inputs": [
        {
          "indexed": true,
          "internalType": "address",
          "name": "miner",
          "type": "address"
        },
        {
          "indexed": true,
          "internalType": "bytes32",
          "name": "uid",
          "type": "bytes32"
        },
        {
          "indexed": false,
          "internalType": "uint64",
          "name": "newPerformance",
          "type": "uint64"
        },
        {
          "indexed": false,
          "internalType": "uint64",
          "name": "newTrustScore",
          "type": "uint64"
        }
      ],
      "name": "MinerScoreUpdated",
      "type": "event"
    },
    {
      "anonymous": false,
      "inputs": [
        {
          "indexed": true,
          "internalType": "bytes32",
          "name": "role",
          "type": "bytes32"
        },
        {
          "indexed": true,
          "internalType": "bytes32",
          "name": "previousAdminRole",
          "type": "bytes32"
        },
        {
          "indexed": true,
          "internalType": "bytes32",
          "name": "newAdminRole",
          "type": "bytes32"
        }
      ],
      "name": "RoleAdminChanged",
      "type": "event"
    },
    {
      "anonymous": false,
      "inputs": [
        {
          "indexed": true,
          "internalType": "bytes32",
          "name": "role",
          "type": "bytes32"
        },
        {
          "indexed": true,
          "internalType": "address",
          "name": "account",
          "type": "address"
        },
        {
          "indexed": true,
          "internalType": "address",
          "name": "sender",
          "type": "address"
        }
      ],
      "name": "RoleGranted",
      "type": "event"
    },
    {
      "anonymous": false,
      "inputs": [
        {
          "indexed": true,
          "internalType": "bytes32",
          "name": "role",
          "type": "bytes32"
        },
        {
          "indexed": true,
          "internalType": "address",
          "name": "account",
          "type": "address"
        },
        {
          "indexed": true,
          "internalType": "address",
          "name": "sender",
          "type": "address"
        }
      ],
      "name": "RoleRevoked",
      "type": "event"
    },
    {
      "anonymous": false,
      "inputs": [
        {
          "indexed": true,
          "internalType": "uint64",
          "name": "subnetId",
          "type": "uint64"
        },
        {
          "indexed": false,
          "internalType": "string",
          "name": "name",
          "type": "string"
        },
        {
          "indexed": false,
          "internalType": "address",
          "name": "owner",
          "type": "address"
        }
      ],
      "name": "SubnetCreated",
      "type": "event"
    },
    {
      "anonymous": false,
      "inputs": [
        {
          "indexed": true,
          "internalType": "uint64",
          "name": "subnetId",
          "type": "uint64"
        },
        {
          "indexed": true,
          "internalType": "address",
          "name": "miner",
          "type": "address"
        },
        {
          "indexed": false,
          "internalType": "uint64",
          "name": "newScore",
          "type": "uint64"
        }
      ],
      "name": "TrustScoreUpdated",
      "type": "event"
    },
    {
      "anonymous": false,
      "inputs": [
        {
          "indexed": true,
          "internalType": "address",
          "name": "validator",
          "type": "address"
        },
        {
          "indexed": true,
          "internalType": "uint64",
          "name": "subnetId",
          "type": "uint64"
        },
        {
          "indexed": false,
          "internalType": "bytes32",
          "name": "uid",
          "type": "bytes32"
        }
      ],
      "name": "ValidatorRegistered",
      "type": "event"
    },
    {
      "anonymous": false,
      "inputs": [
        {
          "indexed": true,
          "internalType": "address",
          "name": "validator",
          "type": "address"
        },
        {
          "indexed": true,
          "internalType": "bytes32",
          "name": "uid",
          "type": "bytes32"
        },
        {
          "indexed": false,
          "internalType": "uint64",
          "name": "newPerformance",
          "type": "uint64"
        },
        {
          "indexed": false,
          "internalType": "uint64",
          "name": "newTrustScore",
          "type": "uint64"
        }
      ],
      "name": "ValidatorScoreUpdated",
      "type": "event"
    },
    {
      "inputs": [],
      "name": "BASE_TIER_MULTIPLIER",
      "outputs": [
        {
          "internalType": "uint256",
          "name": "",
          "type": "uint256"
        }
      ],
      "stateMutability": "view",
      "type": "function"
    },
    {
      "inputs": [],
      "name": "BOOST_TIER_MULTIPLIER",
      "outputs": [
        {
          "internalType": "uint256",
          "name": "",
          "type": "uint256"
        }
      ],
      "stateMutability": "view",
      "type": "function"
    },
    {
      "inputs": [],
      "name": "CONSENSUS_ROLE",
      "outputs": [
        {
          "internalType": "bytes32",
          "name": "",
          "type": "bytes32"
        }
      ],
      "stateMutability": "view",
      "type": "function"
    },
    {
      "inputs": [],
      "name": "DEFAULT_ADMIN_ROLE",
      "outputs": [
        {
          "internalType": "bytes32",
          "name": "",
          "type": "bytes32"
        }
      ],
      "stateMutability": "view",
      "type": "function"
    },
    {
      "inputs": [],
      "name": "DIVISOR",
      "outputs": [
        {
          "internalType": "uint256",
          "name": "",
          "type": "uint256"
        }
      ],
      "stateMutability": "view",
      "type": "function"
    },
    {
      "inputs": [],
      "name": "DIVISOR_64",
      "outputs": [
        {
          "internalType": "uint64",
          "name": "",
          "type": "uint64"
        }
      ],
      "stateMutability": "view",
      "type": "function"
    },
    {
      "inputs": [],
      "name": "GOVERNANCE_ROLE",
      "outputs": [
        {
          "internalType": "bytes32",
          "name": "",
          "type": "bytes32"
        }
      ],
      "stateMutability": "view",
      "type": "function"
    },
    {
      "inputs": [],
      "name": "IMMUNITY_PERIOD",
      "outputs": [
        {
          "internalType": "uint32",
          "name": "",
          "type": "uint32"
        }
      ],
      "stateMutability": "view",
      "type": "function"
    },
    {
      "inputs": [],
      "name": "MAX_REPUTATION",
      "outputs": [
        {
          "internalType": "uint16",
          "name": "",
          "type": "uint16"
        }
      ],
      "stateMutability": "view",
      "type": "function"
    },
    {
      "inputs": [],
      "name": "MAX_SUBNET_UID",
      "outputs": [
        {
          "internalType": "uint64",
          "name": "",
          "type": "uint64"
        }
      ],
      "stateMutability": "view",
      "type": "function"
    },
    {
      "inputs": [],
      "name": "SATOSHI_TIER_MULTIPLIER",
      "outputs": [
        {
          "internalType": "uint256",
          "name": "",
          "type": "uint256"
        }
      ],
      "stateMutability": "view",
      "type": "function"
    },
    {
      "inputs": [],
      "name": "STATUS_ACTIVE",
      "outputs": [
        {
          "internalType": "uint8",
          "name": "",
          "type": "uint8"
        }
      ],
      "stateMutability": "view",
      "type": "function"
    },
    {
      "inputs": [],
      "name": "STATUS_INACTIVE",
      "outputs": [
        {
          "internalType": "uint8",
          "name": "",
          "type": "uint8"
        }
      ],
      "stateMutability": "view",
      "type": "function"
    },
    {
      "inputs": [],
      "name": "STATUS_JAILED",
      "outputs": [
        {
          "internalType": "uint8",
          "name": "",
          "type": "uint8"
        }
      ],
      "stateMutability": "view",
      "type": "function"
    },
    {
      "inputs": [],
      "name": "SUBNET_OWNER_ROLE",
      "outputs": [
        {
          "internalType": "bytes32",
          "name": "",
          "type": "bytes32"
        }
      ],
      "stateMutability": "view",
      "type": "function"
    },
    {
      "inputs": [],
      "name": "SUPER_TIER_MULTIPLIER",
      "outputs": [
        {
          "internalType": "uint256",
          "name": "",
          "type": "uint256"
        }
      ],
      "stateMutability": "view",
      "type": "function"
    },
    {
      "inputs": [],
      "name": "VALIDATOR_ROLE",
      "outputs": [
        {
          "internalType": "bytes32",
          "name": "",
          "type": "bytes32"
        }
      ],
      "stateMutability": "view",
      "type": "function"
    },
    {
      "inputs": [
        {
          "internalType": "address",
          "name": "",
          "type": "address"
        }
      ],
      "name": "bitcoinStakeProofs",
      "outputs": [
        {
          "internalType": "bytes32",
          "name": "",
          "type": "bytes32"
        }
      ],
      "stateMutability": "view",
      "type": "function"
    },
    {
      "inputs": [],
      "name": "btcToken",
      "outputs": [
        {
          "internalType": "contract IERC20",
          "name": "",
          "type": "address"
        }
      ],
      "stateMutability": "view",
      "type": "function"
    },
    {
      "inputs": [
        {
          "internalType": "uint64",
          "name": "",
          "type": "uint64"
        }
      ],
      "name": "consensusRounds",
      "outputs": [
        {
          "internalType": "uint64",
          "name": "round_id",
          "type": "uint64"
        },
        {
          "internalType": "uint64",
          "name": "epoch",
          "type": "uint64"
        },
        {
          "internalType": "bytes32",
          "name": "consensus_hash",
          "type": "bytes32"
        },
        {
          "internalType": "uint64",
          "name": "timestamp",
          "type": "uint64"
        },
        {
          "internalType": "bool",
          "name": "finalized",
          "type": "bool"
        }
      ],
      "stateMutability": "view",
      "type": "function"
    },
    {
      "inputs": [],
      "name": "coreToken",
      "outputs": [
        {
          "internalType": "contract IERC20",
          "name": "",
          "type": "address"
        }
      ],
      "stateMutability": "view",
      "type": "function"
    },
    {
      "inputs": [
        {
          "internalType": "string",
          "name": "name",
          "type": "string"
        },
        {
          "internalType": "string",
          "name": "description",
          "type": "string"
        },
        {
          "internalType": "uint32",
          "name": "maxMiners",
          "type": "uint32"
        },
        {
          "internalType": "uint32",
          "name": "maxValidators",
          "type": "uint32"
        },
        {
          "internalType": "uint256",
          "name": "minStakeMiner",
          "type": "uint256"
        },
        {
          "internalType": "uint256",
          "name": "minStakeValidator",
          "type": "uint256"
        }
      ],
      "name": "createSubnet",
      "outputs": [
        {
          "internalType": "uint64",
          "name": "subnetId",
          "type": "uint64"
        }
      ],
      "stateMutability": "nonpayable",
      "type": "function"
    },
    {
      "inputs": [],
      "name": "currentConsensusRound",
      "outputs": [
        {
          "internalType": "uint64",
          "name": "",
          "type": "uint64"
        }
      ],
      "stateMutability": "view",
      "type": "function"
    },
    {
      "inputs": [],
      "name": "currentEpoch",
      "outputs": [
        {
          "internalType": "uint64",
          "name": "",
          "type": "uint64"
        }
      ],
      "stateMutability": "view",
      "type": "function"
    },
    {
      "inputs": [
        {
          "internalType": "uint64",
          "name": "",
          "type": "uint64"
        }
      ],
      "name": "emissionRates",
      "outputs": [
        {
          "internalType": "uint256",
          "name": "",
          "type": "uint256"
        }
      ],
      "stateMutability": "view",
      "type": "function"
    },
    {
      "inputs": [
        {
          "internalType": "uint64",
          "name": "roundId",
          "type": "uint64"
        },
        {
          "internalType": "bytes32",
          "name": "consensusHash",
          "type": "bytes32"
        }
      ],
      "name": "finalizeConsensusRound",
      "outputs": [],
      "stateMutability": "nonpayable",
      "type": "function"
    },
    {
      "inputs": [],
      "name": "getActiveMinerUids",
      "outputs": [
        {
          "internalType": "uint256[]",
          "name": "",
          "type": "uint256[]"
        }
      ],
      "stateMutability": "view",
      "type": "function"
    },
    {
      "inputs": [],
      "name": "getActiveValidatorUids",
      "outputs": [
        {
          "internalType": "uint256[]",
          "name": "",
          "type": "uint256[]"
        }
      ],
      "stateMutability": "view",
      "type": "function"
    },
    {
      "inputs": [],
      "name": "getAllSubnetIds",
      "outputs": [
        {
          "internalType": "uint64[]",
          "name": "",
          "type": "uint64[]"
        }
      ],
      "stateMutability": "view",
      "type": "function"
    },
    {
      "inputs": [
        {
          "internalType": "uint256",
          "name": "uid",
          "type": "uint256"
        }
      ],
      "name": "getMinerData",
      "outputs": [
        {
          "internalType": "bytes32",
          "name": "minerUid",
          "type": "bytes32"
        },
        {
          "internalType": "uint64",
          "name": "subnetUid",
          "type": "uint64"
        },
        {
          "internalType": "uint256",
          "name": "stake",
          "type": "uint256"
        },
        {
          "internalType": "uint256",
          "name": "bitcoinStake",
          "type": "uint256"
        },
        {
          "internalType": "uint64",
          "name": "performance",
          "type": "uint64"
        },
        {
          "internalType": "uint64",
          "name": "trustScore",
          "type": "uint64"
        },
        {
          "internalType": "uint256",
          "name": "rewards",
          "type": "uint256"
        },
        {
          "internalType": "uint64",
          "name": "lastUpdate",
          "type": "uint64"
        },
        {
          "internalType": "bytes32",
          "name": "perfHash",
          "type": "bytes32"
        },
        {
          "internalType": "uint8",
          "name": "status",
          "type": "uint8"
        },
        {
          "internalType": "uint64",
          "name": "regTime",
          "type": "uint64"
        },
        {
          "internalType": "string",
          "name": "endpoint",
          "type": "string"
        },
        {
          "internalType": "address",
          "name": "owner",
          "type": "address"
        }
      ],
      "stateMutability": "view",
      "type": "function"
    },
    {
      "inputs": [
        {
          "internalType": "address",
          "name": "minerAddress",
          "type": "address"
        }
      ],
      "name": "getMinerInfo",
      "outputs": [
        {
          "components": [
            {
              "internalType": "bytes32",
              "name": "uid",
              "type": "bytes32"
            },
            {
              "internalType": "uint64",
              "name": "subnet_uid",
              "type": "uint64"
            },
            {
              "internalType": "uint256",
              "name": "stake",
              "type": "uint256"
            },
            {
              "internalType": "uint256",
              "name": "bitcoin_stake",
              "type": "uint256"
            },
            {
              "internalType": "uint64",
              "name": "scaled_last_performance",
              "type": "uint64"
            },
            {
              "internalType": "uint64",
              "name": "scaled_trust_score",
              "type": "uint64"
            },
            {
              "internalType": "uint256",
              "name": "accumulated_rewards",
              "type": "uint256"
            },
            {
              "internalType": "uint64",
              "name": "last_update_time",
              "type": "uint64"
            },
            {
              "internalType": "bytes32",
              "name": "performance_history_hash",
              "type": "bytes32"
            },
            {
              "internalType": "bytes32",
              "name": "wallet_addr_hash",
              "type": "bytes32"
            },
            {
              "internalType": "uint8",
              "name": "status",
              "type": "uint8"
            },
            {
              "internalType": "uint64",
              "name": "registration_time",
              "type": "uint64"
            },
            {
              "internalType": "string",
              "name": "api_endpoint",
              "type": "string"
            },
            {
              "internalType": "address",
              "name": "owner",
              "type": "address"
            }
          ],
          "internalType": "struct ModernTensor.MinerData",
          "name": "",
          "type": "tuple"
        }
      ],
      "stateMutability": "view",
      "type": "function"
    },
    {
      "inputs": [],
      "name": "getNetworkStats",
      "outputs": [
        {
          "internalType": "uint256",
          "name": "totalMiners",
          "type": "uint256"
        },
        {
          "internalType": "uint256",
          "name": "totalValidators",
          "type": "uint256"
        },
        {
          "internalType": "uint256",
          "name": "totalStaked",
          "type": "uint256"
        },
        {
          "internalType": "uint256",
          "name": "totalRewards",
          "type": "uint256"
        }
      ],
      "stateMutability": "view",
      "type": "function"
    },
    {
      "inputs": [
        {
          "internalType": "bytes32",
          "name": "role",
          "type": "bytes32"
        }
      ],
      "name": "getRoleAdmin",
      "outputs": [
        {
          "internalType": "bytes32",
          "name": "",
          "type": "bytes32"
        }
      ],
      "stateMutability": "view",
      "type": "function"
    },
    {
      "inputs": [
        {
          "internalType": "uint64",
          "name": "subnetId",
          "type": "uint64"
        }
      ],
      "name": "getSubnet",
      "outputs": [
        {
          "components": [
            {
              "internalType": "uint64",
              "name": "net_uid",
              "type": "uint64"
            },
            {
              "internalType": "string",
              "name": "name",
              "type": "string"
            },
            {
              "internalType": "address",
              "name": "owner_addr",
              "type": "address"
            },
            {
              "internalType": "uint32",
              "name": "max_miners",
              "type": "uint32"
            },
            {
              "internalType": "uint32",
              "name": "max_validators",
              "type": "uint32"
            },
            {
              "internalType": "uint64",
              "name": "immunity_period",
              "type": "uint64"
            },
            {
              "internalType": "uint64",
              "name": "creation_time",
              "type": "uint64"
            },
            {
              "internalType": "string",
              "name": "description",
              "type": "string"
            },
            {
              "internalType": "uint32",
              "name": "version",
              "type": "uint32"
            },
            {
              "internalType": "uint256",
              "name": "min_stake_miner",
              "type": "uint256"
            },
            {
              "internalType": "uint256",
              "name": "min_stake_validator",
              "type": "uint256"
            }
          ],
          "internalType": "struct ModernTensor.SubnetStaticData",
          "name": "staticData",
          "type": "tuple"
        },
        {
          "components": [
            {
              "internalType": "uint64",
              "name": "net_uid",
              "type": "uint64"
            },
            {
              "internalType": "uint64",
              "name": "scaled_weight",
              "type": "uint64"
            },
            {
              "internalType": "uint64",
              "name": "scaled_performance",
              "type": "uint64"
            },
            {
              "internalType": "uint64",
              "name": "current_epoch",
              "type": "uint64"
            },
            {
              "internalType": "uint8",
              "name": "registration_open",
              "type": "uint8"
            },
            {
              "internalType": "uint256",
              "name": "reg_cost",
              "type": "uint256"
            },
            {
              "internalType": "uint64",
              "name": "scaled_incentive_ratio",
              "type": "uint64"
            },
            {
              "internalType": "uint64",
              "name": "last_update_time",
              "type": "uint64"
            },
            {
              "internalType": "uint256",
              "name": "total_stake",
              "type": "uint256"
            },
            {
              "internalType": "uint256",
              "name": "total_bitcoin_stake",
              "type": "uint256"
            },
            {
              "internalType": "uint32",
              "name": "validator_count",
              "type": "uint32"
            },
            {
              "internalType": "uint32",
              "name": "miner_count",
              "type": "uint32"
            }
          ],
          "internalType": "struct ModernTensor.SubnetDynamicData",
          "name": "dynamicData",
          "type": "tuple"
        },
        {
          "internalType": "address[]",
          "name": "minerAddresses",
          "type": "address[]"
        },
        {
          "internalType": "address[]",
          "name": "validatorAddresses",
          "type": "address[]"
        }
      ],
      "stateMutability": "view",
      "type": "function"
    },
    {
      "inputs": [
        {
          "internalType": "uint64",
          "name": "subnetId",
          "type": "uint64"
        }
      ],
      "name": "getSubnetDynamic",
      "outputs": [
        {
          "components": [
            {
              "internalType": "uint64",
              "name": "net_uid",
              "type": "uint64"
            },
            {
              "internalType": "uint64",
              "name": "scaled_weight",
              "type": "uint64"
            },
            {
              "internalType": "uint64",
              "name": "scaled_performance",
              "type": "uint64"
            },
            {
              "internalType": "uint64",
              "name": "current_epoch",
              "type": "uint64"
            },
            {
              "internalType": "uint8",
              "name": "registration_open",
              "type": "uint8"
            },
            {
              "internalType": "uint256",
              "name": "reg_cost",
              "type": "uint256"
            },
            {
              "internalType": "uint64",
              "name": "scaled_incentive_ratio",
              "type": "uint64"
            },
            {
              "internalType": "uint64",
              "name": "last_update_time",
              "type": "uint64"
            },
            {
              "internalType": "uint256",
              "name": "total_stake",
              "type": "uint256"
            },
            {
              "internalType": "uint256",
              "name": "total_bitcoin_stake",
              "type": "uint256"
            },
            {
              "internalType": "uint32",
              "name": "validator_count",
              "type": "uint32"
            },
            {
              "internalType": "uint32",
              "name": "miner_count",
              "type": "uint32"
            }
          ],
          "internalType": "struct ModernTensor.SubnetDynamicData",
          "name": "",
          "type": "tuple"
        }
      ],
      "stateMutability": "view",
      "type": "function"
    },
    {
      "inputs": [
        {
          "internalType": "uint64",
          "name": "subnetId",
          "type": "uint64"
        }
      ],
      "name": "getSubnetMiners",
      "outputs": [
        {
          "internalType": "address[]",
          "name": "",
          "type": "address[]"
        }
      ],
      "stateMutability": "view",
      "type": "function"
    },
    {
      "inputs": [
        {
          "internalType": "uint64",
          "name": "subnetId",
          "type": "uint64"
        }
      ],
      "name": "getSubnetStatic",
      "outputs": [
        {
          "components": [
            {
              "internalType": "uint64",
              "name": "net_uid",
              "type": "uint64"
            },
            {
              "internalType": "string",
              "name": "name",
              "type": "string"
            },
            {
              "internalType": "address",
              "name": "owner_addr",
              "type": "address"
            },
            {
              "internalType": "uint32",
              "name": "max_miners",
              "type": "uint32"
            },
            {
              "internalType": "uint32",
              "name": "max_validators",
              "type": "uint32"
            },
            {
              "internalType": "uint64",
              "name": "immunity_period",
              "type": "uint64"
            },
            {
              "internalType": "uint64",
              "name": "creation_time",
              "type": "uint64"
            },
            {
              "internalType": "string",
              "name": "description",
              "type": "string"
            },
            {
              "internalType": "uint32",
              "name": "version",
              "type": "uint32"
            },
            {
              "internalType": "uint256",
              "name": "min_stake_miner",
              "type": "uint256"
            },
            {
              "internalType": "uint256",
              "name": "min_stake_validator",
              "type": "uint256"
            }
          ],
          "internalType": "struct ModernTensor.SubnetStaticData",
          "name": "",
          "type": "tuple"
        }
      ],
      "stateMutability": "view",
      "type": "function"
    },
    {
      "inputs": [
        {
          "internalType": "uint64",
          "name": "subnetId",
          "type": "uint64"
        }
      ],
      "name": "getSubnetValidators",
      "outputs": [
        {
          "internalType": "address[]",
          "name": "",
          "type": "address[]"
        }
      ],
      "stateMutability": "view",
      "type": "function"
    },
    {
      "inputs": [
        {
          "internalType": "uint64",
          "name": "subnetId",
          "type": "uint64"
        }
      ],
      "name": "getTrustScores",
      "outputs": [
        {
          "internalType": "uint64[]",
          "name": "scores",
          "type": "uint64[]"
        }
      ],
      "stateMutability": "view",
      "type": "function"
    },
    {
      "inputs": [
        {
          "internalType": "uint256",
          "name": "uid",
          "type": "uint256"
        }
      ],
      "name": "getValidatorData",
      "outputs": [
        {
          "internalType": "bytes32",
          "name": "validatorUid",
          "type": "bytes32"
        },
        {
          "internalType": "uint64",
          "name": "subnetUid",
          "type": "uint64"
        },
        {
          "internalType": "uint256",
          "name": "stake",
          "type": "uint256"
        },
        {
          "internalType": "uint256",
          "name": "bitcoinStake",
          "type": "uint256"
        },
        {
          "internalType": "uint64",
          "name": "performance",
          "type": "uint64"
        },
        {
          "internalType": "uint64",
          "name": "trustScore",
          "type": "uint64"
        },
        {
          "internalType": "uint256",
          "name": "rewards",
          "type": "uint256"
        },
        {
          "internalType": "uint64",
          "name": "lastUpdate",
          "type": "uint64"
        },
        {
          "internalType": "bytes32",
          "name": "perfHash",
          "type": "bytes32"
        },
        {
          "internalType": "uint8",
          "name": "status",
          "type": "uint8"
        },
        {
          "internalType": "uint64",
          "name": "regTime",
          "type": "uint64"
        },
        {
          "internalType": "string",
          "name": "endpoint",
          "type": "string"
        },
        {
          "internalType": "address",
          "name": "owner",
          "type": "address"
        }
      ],
      "stateMutability": "view",
      "type": "function"
    },
    {
      "inputs": [
        {
          "internalType": "address",
          "name": "validatorAddress",
          "type": "address"
        }
      ],
      "name": "getValidatorInfo",
      "outputs": [
        {
          "components": [
            {
              "internalType": "bytes32",
              "name": "uid",
              "type": "bytes32"
            },
            {
              "internalType": "uint64",
              "name": "subnet_uid",
              "type": "uint64"
            },
            {
              "internalType": "uint256",
              "name": "stake",
              "type": "uint256"
            },
            {
              "internalType": "uint256",
              "name": "bitcoin_stake",
              "type": "uint256"
            },
            {
              "internalType": "uint64",
              "name": "scaled_last_performance",
              "type": "uint64"
            },
            {
              "internalType": "uint64",
              "name": "scaled_trust_score",
              "type": "uint64"
            },
            {
              "internalType": "uint256",
              "name": "accumulated_rewards",
              "type": "uint256"
            },
            {
              "internalType": "uint64",
              "name": "last_update_time",
              "type": "uint64"
            },
            {
              "internalType": "bytes32",
              "name": "performance_history_hash",
              "type": "bytes32"
            },
            {
              "internalType": "bytes32",
              "name": "wallet_addr_hash",
              "type": "bytes32"
            },
            {
              "internalType": "uint8",
              "name": "status",
              "type": "uint8"
            },
            {
              "internalType": "uint64",
              "name": "registration_time",
              "type": "uint64"
            },
            {
              "internalType": "string",
              "name": "api_endpoint",
              "type": "string"
            },
            {
              "internalType": "address",
              "name": "owner",
              "type": "address"
            }
          ],
          "internalType": "struct ModernTensor.ValidatorData",
          "name": "",
          "type": "tuple"
        }
      ],
      "stateMutability": "view",
      "type": "function"
    },
    {
      "inputs": [
        {
          "internalType": "bytes32",
          "name": "role",
          "type": "bytes32"
        },
        {
          "internalType": "address",
          "name": "account",
          "type": "address"
        }
      ],
      "name": "grantRole",
      "outputs": [],
      "stateMutability": "nonpayable",
      "type": "function"
    },
    {
      "inputs": [
        {
          "internalType": "address",
          "name": "",
          "type": "address"
        }
      ],
      "name": "hasBitcoinStake",
      "outputs": [
        {
          "internalType": "bool",
          "name": "",
          "type": "bool"
        }
      ],
      "stateMutability": "view",
      "type": "function"
    },
    {
      "inputs": [
        {
          "internalType": "bytes32",
          "name": "role",
          "type": "bytes32"
        },
        {
          "internalType": "address",
          "name": "account",
          "type": "address"
        }
      ],
      "name": "hasRole",
      "outputs": [
        {
          "internalType": "bool",
          "name": "",
          "type": "bool"
        }
      ],
      "stateMutability": "view",
      "type": "function"
    },
    {
      "inputs": [
        {
          "internalType": "uint64",
          "name": "",
          "type": "uint64"
        },
        {
          "internalType": "address",
          "name": "",
          "type": "address"
        }
      ],
      "name": "incentiveWeights",
      "outputs": [
        {
          "internalType": "uint64",
          "name": "",
          "type": "uint64"
        }
      ],
      "stateMutability": "view",
      "type": "function"
    },
    {
      "inputs": [
        {
          "internalType": "address",
          "name": "",
          "type": "address"
        }
      ],
      "name": "minerEndpoints",
      "outputs": [
        {
          "internalType": "string",
          "name": "",
          "type": "string"
        }
      ],
      "stateMutability": "view",
      "type": "function"
    },
    {
      "inputs": [
        {
          "internalType": "address",
          "name": "",
          "type": "address"
        }
      ],
      "name": "minerToSubnet",
      "outputs": [
        {
          "internalType": "uint64",
          "name": "",
          "type": "uint64"
        }
      ],
      "stateMutability": "view",
      "type": "function"
    },
    {
      "inputs": [
        {
          "internalType": "address",
          "name": "",
          "type": "address"
        }
      ],
      "name": "miners",
      "outputs": [
        {
          "internalType": "bytes32",
          "name": "uid",
          "type": "bytes32"
        },
        {
          "internalType": "uint64",
          "name": "subnet_uid",
          "type": "uint64"
        },
        {
          "internalType": "uint256",
          "name": "stake",
          "type": "uint256"
        },
        {
          "internalType": "uint256",
          "name": "bitcoin_stake",
          "type": "uint256"
        },
        {
          "internalType": "uint64",
          "name": "scaled_last_performance",
          "type": "uint64"
        },
        {
          "internalType": "uint64",
          "name": "scaled_trust_score",
          "type": "uint64"
        },
        {
          "internalType": "uint256",
          "name": "accumulated_rewards",
          "type": "uint256"
        },
        {
          "internalType": "uint64",
          "name": "last_update_time",
          "type": "uint64"
        },
        {
          "internalType": "bytes32",
          "name": "performance_history_hash",
          "type": "bytes32"
        },
        {
          "internalType": "bytes32",
          "name": "wallet_addr_hash",
          "type": "bytes32"
        },
        {
          "internalType": "uint8",
          "name": "status",
          "type": "uint8"
        },
        {
          "internalType": "uint64",
          "name": "registration_time",
          "type": "uint64"
        },
        {
          "internalType": "string",
          "name": "api_endpoint",
          "type": "string"
        },
        {
          "internalType": "address",
          "name": "owner",
          "type": "address"
        }
      ],
      "stateMutability": "view",
      "type": "function"
    },
    {
      "inputs": [],
      "name": "nextSubnetId",
      "outputs": [
        {
          "internalType": "uint64",
          "name": "",
          "type": "uint64"
        }
      ],
      "stateMutability": "view",
      "type": "function"
    },
    {
      "inputs": [
        {
          "internalType": "uint256",
          "name": "amount",
          "type": "uint256"
        },
        {
          "internalType": "bytes32",
          "name": "proofHash",
          "type": "bytes32"
        },
        {
          "internalType": "bytes",
          "name": "",
          "type": "bytes"
        }
      ],
      "name": "registerBitcoinStake",
      "outputs": [],
      "stateMutability": "nonpayable",
      "type": "function"
    },
    {
      "inputs": [
        {
          "internalType": "uint64",
          "name": "subnetId",
          "type": "uint64"
        },
        {
          "internalType": "uint256",
          "name": "coreStake",
          "type": "uint256"
        },
        {
          "internalType": "uint256",
          "name": "btcStake",
          "type": "uint256"
        },
        {
          "internalType": "string",
          "name": "apiEndpoint",
          "type": "string"
        }
      ],
      "name": "registerMiner",
      "outputs": [],
      "stateMutability": "nonpayable",
      "type": "function"
    },
    {
      "inputs": [
        {
          "internalType": "uint64",
          "name": "subnetId",
          "type": "uint64"
        },
        {
          "internalType": "uint256",
          "name": "coreStake",
          "type": "uint256"
        },
        {
          "internalType": "uint256",
          "name": "btcStake",
          "type": "uint256"
        },
        {
          "internalType": "string",
          "name": "apiEndpoint",
          "type": "string"
        }
      ],
      "name": "registerValidator",
      "outputs": [],
      "stateMutability": "nonpayable",
      "type": "function"
    },
    {
      "inputs": [
        {
          "internalType": "bytes32",
          "name": "role",
          "type": "bytes32"
        },
        {
          "internalType": "address",
          "name": "account",
          "type": "address"
        }
      ],
      "name": "renounceRole",
      "outputs": [],
      "stateMutability": "nonpayable",
      "type": "function"
    },
    {
      "inputs": [
        {
          "internalType": "bytes32",
          "name": "role",
          "type": "bytes32"
        },
        {
          "internalType": "address",
          "name": "account",
          "type": "address"
        }
      ],
      "name": "revokeRole",
      "outputs": [],
      "stateMutability": "nonpayable",
      "type": "function"
    },
    {
      "inputs": [
        {
          "internalType": "address",
          "name": "",
          "type": "address"
        }
      ],
      "name": "stakingTierMultipliers",
      "outputs": [
        {
          "internalType": "uint256",
          "name": "",
          "type": "uint256"
        }
      ],
      "stateMutability": "view",
      "type": "function"
    },
    {
      "inputs": [
        {
          "internalType": "uint64",
          "name": "",
          "type": "uint64"
        }
      ],
      "name": "startConsensusRound",
      "outputs": [
        {
          "internalType": "uint64",
          "name": "roundId",
          "type": "uint64"
        }
      ],
      "stateMutability": "nonpayable",
      "type": "function"
    },
    {
      "inputs": [
        {
          "internalType": "uint64",
          "name": "roundId",
          "type": "uint64"
        },
        {
          "internalType": "address[]",
          "name": "participantAddresses",
          "type": "address[]"
        },
        {
          "internalType": "uint64[]",
          "name": "weights",
          "type": "uint64[]"
        },
        {
          "internalType": "uint64[]",
          "name": "scores",
          "type": "uint64[]"
        },
        {
          "internalType": "uint256[]",
          "name": "rewards",
          "type": "uint256[]"
        }
      ],
      "name": "submitConsensusResults",
      "outputs": [],
      "stateMutability": "nonpayable",
      "type": "function"
    },
    {
      "inputs": [
        {
          "internalType": "uint64",
          "name": "",
          "type": "uint64"
        }
      ],
      "name": "subnetDynamic",
      "outputs": [
        {
          "internalType": "uint64",
          "name": "net_uid",
          "type": "uint64"
        },
        {
          "internalType": "uint64",
          "name": "scaled_weight",
          "type": "uint64"
        },
        {
          "internalType": "uint64",
          "name": "scaled_performance",
          "type": "uint64"
        },
        {
          "internalType": "uint64",
          "name": "current_epoch",
          "type": "uint64"
        },
        {
          "internalType": "uint8",
          "name": "registration_open",
          "type": "uint8"
        },
        {
          "internalType": "uint256",
          "name": "reg_cost",
          "type": "uint256"
        },
        {
          "internalType": "uint64",
          "name": "scaled_incentive_ratio",
          "type": "uint64"
        },
        {
          "internalType": "uint64",
          "name": "last_update_time",
          "type": "uint64"
        },
        {
          "internalType": "uint256",
          "name": "total_stake",
          "type": "uint256"
        },
        {
          "internalType": "uint256",
          "name": "total_bitcoin_stake",
          "type": "uint256"
        },
        {
          "internalType": "uint32",
          "name": "validator_count",
          "type": "uint32"
        },
        {
          "internalType": "uint32",
          "name": "miner_count",
          "type": "uint32"
        }
      ],
      "stateMutability": "view",
      "type": "function"
    },
    {
      "inputs": [
        {
          "internalType": "uint64",
          "name": "",
          "type": "uint64"
        },
        {
          "internalType": "uint256",
          "name": "",
          "type": "uint256"
        }
      ],
      "name": "subnetMiners",
      "outputs": [
        {
          "internalType": "address",
          "name": "",
          "type": "address"
        }
      ],
      "stateMutability": "view",
      "type": "function"
    },
    {
      "inputs": [
        {
          "internalType": "uint64",
          "name": "",
          "type": "uint64"
        }
      ],
      "name": "subnetStatic",
      "outputs": [
        {
          "internalType": "uint64",
          "name": "net_uid",
          "type": "uint64"
        },
        {
          "internalType": "string",
          "name": "name",
          "type": "string"
        },
        {
          "internalType": "address",
          "name": "owner_addr",
          "type": "address"
        },
        {
          "internalType": "uint32",
          "name": "max_miners",
          "type": "uint32"
        },
        {
          "internalType": "uint32",
          "name": "max_validators",
          "type": "uint32"
        },
        {
          "internalType": "uint64",
          "name": "immunity_period",
          "type": "uint64"
        },
        {
          "internalType": "uint64",
          "name": "creation_time",
          "type": "uint64"
        },
        {
          "internalType": "string",
          "name": "description",
          "type": "string"
        },
        {
          "internalType": "uint32",
          "name": "version",
          "type": "uint32"
        },
        {
          "internalType": "uint256",
          "name": "min_stake_miner",
          "type": "uint256"
        },
        {
          "internalType": "uint256",
          "name": "min_stake_validator",
          "type": "uint256"
        }
      ],
      "stateMutability": "view",
      "type": "function"
    },
    {
      "inputs": [
        {
          "internalType": "uint64",
          "name": "",
          "type": "uint64"
        },
        {
          "internalType": "uint256",
          "name": "",
          "type": "uint256"
        }
      ],
      "name": "subnetValidators",
      "outputs": [
        {
          "internalType": "address",
          "name": "",
          "type": "address"
        }
      ],
      "stateMutability": "view",
      "type": "function"
    },
    {
      "inputs": [
        {
          "internalType": "bytes4",
          "name": "interfaceId",
          "type": "bytes4"
        }
      ],
      "name": "supportsInterface",
      "outputs": [
        {
          "internalType": "bool",
          "name": "",
          "type": "bool"
        }
      ],
      "stateMutability": "view",
      "type": "function"
    },
    {
      "inputs": [],
      "name": "totalBitcoinStake",
      "outputs": [
        {
          "internalType": "uint256",
          "name": "",
          "type": "uint256"
        }
      ],
      "stateMutability": "view",
      "type": "function"
    },
    {
      "inputs": [],
      "name": "totalNetworkStake",
      "outputs": [
        {
          "internalType": "uint256",
          "name": "",
          "type": "uint256"
        }
      ],
      "stateMutability": "view",
      "type": "function"
    },
    {
      "inputs": [
        {
          "internalType": "uint64",
          "name": "",
          "type": "uint64"
        },
        {
          "internalType": "address",
          "name": "",
          "type": "address"
        }
      ],
      "name": "trustScores",
      "outputs": [
        {
          "internalType": "uint64",
          "name": "",
          "type": "uint64"
        }
      ],
      "stateMutability": "view",
      "type": "function"
    },
    {
      "inputs": [
        {
          "internalType": "string",
          "name": "newEndpoint",
          "type": "string"
        }
      ],
      "name": "updateMinerEndpoint",
      "outputs": [],
      "stateMutability": "nonpayable",
      "type": "function"
    },
    {
      "inputs": [
        {
          "internalType": "uint256",
          "name": "minerUid",
          "type": "uint256"
        },
        {
          "internalType": "uint64",
          "name": "newPerformance",
          "type": "uint64"
        },
        {
          "internalType": "uint64",
          "name": "newTrustScore",
          "type": "uint64"
        }
      ],
      "name": "updateMinerPerformance",
      "outputs": [],
      "stateMutability": "nonpayable",
      "type": "function"
    },
    {
      "inputs": [
        {
          "internalType": "address",
          "name": "minerAddr",
          "type": "address"
        },
        {
          "internalType": "uint64",
          "name": "newPerformance",
          "type": "uint64"
        },
        {
          "internalType": "uint64",
          "name": "newTrustScore",
          "type": "uint64"
        }
      ],
      "name": "updateMinerScores",
      "outputs": [],
      "stateMutability": "nonpayable",
      "type": "function"
    },
    {
      "inputs": [
        {
          "internalType": "string",
          "name": "newEndpoint",
          "type": "string"
        }
      ],
      "name": "updateValidatorEndpoint",
      "outputs": [],
      "stateMutability": "nonpayable",
      "type": "function"
    },
    {
      "inputs": [
        {
          "internalType": "address",
          "name": "validatorAddr",
          "type": "address"
        },
        {
          "internalType": "uint64",
          "name": "newPerformance",
          "type": "uint64"
        },
        {
          "internalType": "uint64",
          "name": "newTrustScore",
          "type": "uint64"
        }
      ],
      "name": "updateValidatorScores",
      "outputs": [],
      "stateMutability": "nonpayable",
      "type": "function"
    },
    {
      "inputs": [
        {
          "internalType": "address",
          "name": "",
          "type": "address"
        }
      ],
      "name": "validatorEndpoints",
      "outputs": [
        {
          "internalType": "string",
          "name": "",
          "type": "string"
        }
      ],
      "stateMutability": "view",
      "type": "function"
    },
    {
      "inputs": [
        {
          "internalType": "address",
          "name": "",
          "type": "address"
        }
      ],
      "name": "validatorToSubnet",
      "outputs": [
        {
          "internalType": "uint64",
          "name": "",
          "type": "uint64"
        }
      ],
      "stateMutability": "view",
      "type": "function"
    },
    {
      "inputs": [
        {
          "internalType": "address",
          "name": "",
          "type": "address"
        }
      ],
      "name": "validators",
      "outputs": [
        {
          "internalType": "bytes32",
          "name": "uid",
          "type": "bytes32"
        },
        {
          "internalType": "uint64",
          "name": "subnet_uid",
          "type": "uint64"
        },
        {
          "internalType": "uint256",
          "name": "stake",
          "type": "uint256"
        },
        {
          "internalType": "uint256",
          "name": "bitcoin_stake",
          "type": "uint256"
        },
        {
          "internalType": "uint64",
          "name": "scaled_last_performance",
          "type": "uint64"
        },
        {
          "internalType": "uint64",
          "name": "scaled_trust_score",
          "type": "uint64"
        },
        {
          "internalType": "uint256",
          "name": "accumulated_rewards",
          "type": "uint256"
        },
        {
          "internalType": "uint64",
          "name": "last_update_time",
          "type": "uint64"
        },
        {
          "internalType": "bytes32",
          "name": "performance_history_hash",
          "type": "bytes32"
        },
        {
          "internalType": "bytes32",
          "name": "wallet_addr_hash",
          "type": "bytes32"
        },
        {
          "internalType": "uint8",
          "name": "status",
          "type": "uint8"
        },
        {
          "internalType": "uint64",
          "name": "registration_time",
          "type": "uint64"
        },
        {
          "internalType": "string",
          "name": "api_endpoint",
          "type": "string"
        },
        {
          "internalType": "address",
          "name": "owner",
          "type": "address"
        }
      ],
      "stateMutability": "view",
      "type": "function"
    }
  ],
  "bytecode": "0x60c034620008ce57601f62005b6638819003918201601f19168301916001600160401b038311848410176200062357808492608094604052833981010312620008ce576200004d81620008f3565b6200005b60208301620008f3565b60408381015160609094015160016000818155600280546001600160c01b031916909217909155600381905560048190556001600160a01b039485166080529290931660a05233825260008051602062005b4683398151915260205290205460ff16156200088b575b3360009081527faf2b352d373f61cd7c00141c5d498de35abbffd9743307be56c20cef1cd5da4c60205260409020547f71840dc4906352362b0cdaf79870196c8e42acafade72d5d5a6d59291253ceb19060ff161562000847575b503360009081527feb08ee940d1ac9662e9a9716182c59a5990cef3b0e0128641fc5bdd20ac78a5260205260409020547f36fd43ede163045b10e1f0abd16f62f165fce3fa7b6cde217bcea3bc47663acc9060ff161562000803575b5062000186620008d3565b6007815266111959985d5b1d60ca1b602082015260405192906001600160401b03610160850190811190851117620006235761016084016040526000845260208401523360408401526103e8606084015260646080840152611c2060a084015260018060401b03421660c0840152620001fe620008d3565b601f81527f44656661756c74207375626e657420666f72204d6f6465726e54656e736f7200602082015260e08401526001610100840152610120830152610140820152600080526007602052604060002060018060401b0382511660018060401b0319825416178155602082015191825160018060401b03811162000623576001830154600181811c91168015620007f8575b60208210146200070c57601f8111620007ac575b506020601f82116001146200073957819293946000926200072d575b50508160011b916000199060031b1c19161760018301555b604081810151600284018054606085015160808601516001600160e01b03199092166001600160a01b03949094169390931760a093841b63ffffffff60a01b161760c091821b63ffffffff60c01b161790915590830151600385018054928501516001600160801b03199093166001600160401b0392909216919091179190921b6fffffffffffffffff00000000000000001617905560e08101518051906001600160401b03821162000623576004840154600181811c9116801562000722575b60208210146200070c57601f8111620006c0575b50602090601f831160011462000645579180600794926101409460009262000639575b50508160011b916000199060031b1c19161760048501555b63ffffffff61010082015116600585019063ffffffff19825416179055610120810151600685015501519101556040518061018081011060018060401b03610180830111176200062357610180810160409081526000808352620f42406020808501828152848601849052606086018490526001608087015260a0860184905260c08601929092526001600160401b0342811660e087015261010086018490526101208601849052610140860184905261016086018490529280526008905283517f5eff886ea0ce6ca488a3d6e336d6c0f75f46d19b42c06ce5ee98e42c96d256c7805492516fffffffffffffffff0000000000000000951b9490941692166001600160801b031990911617178155600690604083810151825460608601516001600160801b03909116608092831b600160801b600160c01b03161760c091821b6001600160c01b0319161784559085015160018401805460ff191660ff9290921691909117905560a0850151600284015584015160038301805460e08701516001600160801b03199091166001600160401b0393909316929092179190921b6fffffffffffffffff00000000000000001617905561010083015160048201556101208301516005820155019063ffffffff6101408201511667ffffffff00000000610160845493015160201b169160018060401b0319161717905560405161521d90816200090982396080518181816114df0152818161204c0152613809015260a05181818161140e01528181611f9701526138900152f35b634e487b7160e01b600052604160045260246000fd5b015190503880620003d1565b906004850160005260206000209160005b601f1985168110620006a7575092600794926001926101409583601f198116106200068d575b505050811b016004850155620003e9565b015160001960f88460031b161c191690553880806200067c565b9192602060018192868501518155019401920162000656565b600485016000526020600020601f840160051c81016020851062000704575b601f830160051c82018110620006f7575050620003ae565b60008155600101620006df565b5080620006df565b634e487b7160e01b600052602260045260246000fd5b90607f16906200039a565b015190503880620002c1565b6001840160005260206000209060005b601f1984168110620007935750600193949583601f1981161062000779575b505050811b016001830155620002d9565b015160001960f88460031b161c1916905538808062000768565b9091602060018192858a01518155019301910162000749565b600184016000526020600020601f830160051c810160208410620007f0575b601f830160051c82018110620007e3575050620002a5565b60008155600101620007cb565b5080620007cb565b90607f169062000291565b8060005260016020526040600020336000526020526040600020600160ff198254161790553390339060008051602062005b26833981519152600080a4386200017b565b8060005260016020526040600020336000526020526040600020600160ff198254161790553390339060008051602062005b26833981519152600080a4386200011f565b33600081815260008051602062005b4683398151915260205260408120805460ff19166001179055819060008051602062005b268339815191528180a4620000c4565b600080fd5b60408051919082016001600160401b038111838210176200062357604052565b51906001600160a01b0382168203620008ce5756fe608080604052600436101561001357600080fd5b60003560e01c90816301ffc9a7146138bf575080630242974214610b98578063074bc1011461387a5780630b34d553146138385780630c2b72e9146137f35780630f71d74d146137b9578063155aef5f146136cd57806319cd66f314612fb357806320857e1c14612f70578063248a9ca314612f4157806326c97eae14612efe5780632ac9fcf914612ee25780632b8c394d14612de25780632c0db47114612cc65780632ccd0e3e14612c8b5780632f2ff15d14612bd85780633369eed514612af25780633410fe6e14612a4257806336568abe14612a6057806337a9d4fb14612a425780633843bc2214612a2557806338699443146129fb5780633c0f86e1146129c15780633fb6dcb3146129875780634389cc221461296b5780634419dd1014612931578063476cc832146128775780634a662f481461275457806351c95e73146126e65780635a2a5b9a146126c857806363cc5ef21461268957806364856c7714612420578063648ec7b9146123965780636888f0c7146123485780636ba56725146120a65780636f9e03b414611b5d57806371589f6c14611ae95780637667180814611abf578063823753bf14611880578063854ee3b8146118295780638a11d7c9146117d35780638a5363461461173957806391d14854146116ec57806392cc068d1461157d57806392e58c751461156057806392ef70da1461154357806396fd4a1e14610ec25780639996eb8f14610bd15780639d14455414610bb4578063a217fddf14610b98578063a754702214610b4a578063a81a7c8b14610af3578063b01c4bcd146109e9578063b8046aaf14610959578063bff4eb2514610911578063c0951451146108f2578063c26db20814610883578063c322365614610861578063c49baebe14610826578063cf616c9314610809578063d213c0f2146107ec578063d547741f146107ab578063d929ff0514610784578063df65676314610723578063ebfd4af01461065e578063f36c8f5c14610623578063f44df8a8146105e9578063f4916cc9146105cb578063f538f7f314610590578063f8ce3dd9146104ec578063fa2dabad146104b1578063fa52c7d8146103ee5763fb20817a1461034257600080fd5b346103e95760403660031901126103e95761035b613a45565b7f60a0745e31ef991fc15438d3b23a71ccf62c0b903c71558aa999b10cb4e0c67860206001600160401b0360243593610392614281565b169283600052601082526103b460ff60056040600020015460401c1615614a9e565b83600052601082526005604060002082600482015501600160401b68ff000000000000000019825416179055604051908152a2005b600080fd5b346103e95760203660031901126103e9576001600160a01b0380610410613912565b1660005260066020526040600020906104ad8254926001600160401b0360018201541690600281015493600382015495600483015460058401546001600160401b03600686015416600786015491600887015493600988015496600b610478600a8b01613b6c565b99015416986040519c8d9c8d9260ff6001600160401b038c60081c169b16996001600160401b03808760401c16961694613ebc565b0390f35b346103e95760003660031901126103e95760206040517f36fd43ede163045b10e1f0abd16f62f165fce3fa7b6cde217bcea3bc47663acc8152f35b346103e95760003660031901126103e95760008052600960209081526105317fec8156718a8372b1db44bb411437d0870f3e3790d4a08526d024ce1b0b668f6b614c72565b61053b8151614e8b565b9160005b82518110156105825761057d906001600160a01b0361055e8286614b37565b5116600052600583526040600020546105778287614b37565b52614b28565b61053f565b604051806104ad8682613f8a565b346103e95760203660031901126103e9576104ad6105af600435614cca565b9960409d9b9d999199989298979397969496519d8e9d8e613ff3565b346103e95760003660031901126103e9576020600454604051908152f35b346103e95760203660031901126103e9576001600160a01b0361060a613912565b1660005260146020526020604060002054604051908152f35b346103e95760003660031901126103e95760206040517f71840dc4906352362b0cdaf79870196c8e42acafade72d5d5a6d59291253ceb18152f35b346103e95760203660031901126103e9576101806001600160401b0380610683613a45565b16600052600860205260406000209081549160ff6001820154169160028201549060038301546004840154926006600586015495015495604051978481168952848160401c1660208a0152848160801c1660408a015260c01c6060890152608088015260a087015281811660c087015260401c1660e085015261010084015261012083015263ffffffff9081811661014084015260201c16610160820152f35b346103e95760403660031901126103e95761073c613a45565b6001600160401b0360243591166000526009602052604060002080548210156103e95760209161076b91613fc5565b905460405160039290921b1c6001600160a01b03168152f35b346103e95760003660031901126103e95760206001600160401b0360025416604051908152f35b346103e95760403660031901126103e9576107ea6004356107ca613928565b908060005260016020526107e56001604060002001546143c6565b6144cf565b005b346103e95760003660031901126103e957602060405161ffff8152f35b346103e95760003660031901126103e95760206040516103e88152f35b346103e95760003660031901126103e95760206040517f21702c8af46127c7fa207f89d0b0a8441bb32959a0ac7df790e9ab1a25c989268152f35b346103e95760003660031901126103e95760206040516001600160401b038152f35b346103e95760203660031901126103e95761089c613a45565b6108a4614f12565b506108cb6001600160401b03809216918260005260076020526040600020541615156146c7565b60005260086020526101806108e36040600020615013565b6108f06040518092613d21565bf35b346103e95760203660031901126103e9576104ad6105af600435614df0565b346103e95760403660031901126103e95761092a613a45565b6001600160401b036024359116600052600a602052604060002080548210156103e95760209161076b91613fc5565b346103e95760003660031901126103e95760008052600a602090815261099e7f13da86008ba1c6922daee3e07db95305ef49ebced9f5467a0b8613fcc6b343e3614c72565b6109a88151614e8b565b9160005b8251811015610582576109e4906001600160a01b036109cb8286614b37565b5116600052600683526040600020546105778287614b37565b6109ac565b346103e95760603660031901126103e957610a02613912565b610a0a613a5b565b907f5a24b67363d3a8ec85a2acbd037e1606bf9847e9a87308d2af106336e4bd09c4610a34613a71565b91610a3d61406a565b60018060a01b031691826000526005602052610a5f60406000205415156150b2565b6001600160401b0380851690610a88620f4240610a7e818511156150f0565b8285161115615132565b846000526005602052604060002091610ab584600485016001600160401b0319938482541617815561469f565b60068301914216908254161790555493610aee604051928392839060209093929360408301946001600160401b03809216845216910152565b0390a3005b346103e95760403660031901126103e9576020610b0e613a45565b610b16613928565b6001600160401b03809216600052600e835260406000209060018060a01b0316600052825260406000205416604051908152f35b346103e95760203660031901126103e9576001600160401b03610b6b613a45565b1660005260096020526104ad610b846040600020614c72565b604051918291602083526020830190613db6565b346103e95760003660031901126103e957602060405160008152f35b346103e95760003660031901126103e9576020604051611c208152f35b346103e9576020806003193601126103e9576001600160401b036004358181116103e957610c03903690600401613c58565b336000526006835260406000205415610e7d573360005260068352600a60406000200191815192818411610db657610c3b8154613a87565b93601f94858111610e3a575b508086868211600114610dd757600091610dcc575b508160011b916000199060031b1c19161790555b33600052601284526040600020908251908111610db657610c918254613a87565b848111610d73575b5084938111600114610cfb579081610ceb93926000805160206151c883398151915295600091610cf0575b508160011b916000199060031b1c19161790555b6040519182918583523395830190613961565b0390a2005b905083015187610cc4565b601f1981169382600052856000209460005b87828210610d5d575050916000805160206151c88339815191529560019282610ceb97969510610d44575b5050811b019055610cd8565b85015160001960f88460031b161c191690558780610d38565b8387015188556001909701969283019201610d0d565b82600052856000208580840160051c820192888510610dad575b0160051c01905b818110610da15750610c99565b60008155600101610d94565b92508192610d8d565b634e487b7160e01b600052604160045260246000fd5b905084015187610c5c565b60008481528881209250601f198416905b89828210610e245750509083600194939210610e0b575b5050811b019055610c70565b86015160001960f88460031b161c191690558780610dff565b600184958293958b015181550194019201610de8565b82600052866000208680840160051c820192898510610e74575b0160051c01905b818110610e685750610c47565b60008155600101610e5b565b92508192610e54565b60405162461bcd60e51b815260048101849052601a60248201527f4e6f74206120726567697374657265642076616c696461746f720000000000006044820152606490fd5b346103e957610ed036613f4a565b919092610edb614a48565b6001600160401b0381166000526007602052610f066001600160401b036040600020541615156146c7565b6001600160401b0381166000526008602052610f2e600160ff81604060002001541614614706565b6001600160401b0381166000526007602052610f54600760406000200154831015614748565b336000526006602052610f6c60406000205415614794565b60405192602084013360601b81526001600160401b0360c01b8360c01b16603486015242603c86015243605c860152683b30b634b230ba37b960b91b607c860152606585528460a08101106001600160401b0360a087011117610db65760a085016040528451902093836114ab575b5084151592836113db575b80610ff48761118993615174565b3360005260136020526040600020556110b46001600160401b03421660405160208101903360601b82526014815261102b81613b15565b519020906040519161103c83613af9565b8983526001600160401b03881660208401528460408401528a606084015260006080840152620f424060a0840152600060c08401528160e08401526000610100840152610120830152600161014083015261016082015284610180820152336101a082015233600052600660205260406000206147ed565b6001600160401b038416600052600a6020526110d43360406000206149f8565b33600052600c60205260406000206001600160401b0385166001600160401b03198254161790556001600160401b03841660005260086020526006604060002001805463ffffffff611127818316614a33565b169063ffffffff19161790556001600160401b03841660005260086020526004604060002001611158828254614545565b90556001600160401b0384166000526008602052600560406000200161117f888254614545565b9055600354614545565b6003553360005260126020526040600020908051906001600160401b038211610db65781906111b88454613a87565b601f8111611388575b50602090601f831160011461132257600092611317575b50508160011b916000199060031b1c19161790555b3360009081527f54fa744d02e0cd6feb2b438b7701c241f85ef8aa84993c058c9ed46b60f00edc60205260409020547f21702c8af46127c7fa207f89d0b0a8441bb32959a0ac7df790e9ab1a25c989269060ff16156112c3575b506001600160401b036040519184835216907f338e3ebe1c2ba26a4d625509a131c0851bef421c36c85148374933e3d161020760203392a361128b575b6001600055005b60405191825260208201527f01ea4411ab96cb263f76479de6158313581d59dd7a739466723e1b180aafdd4e60403392a28080611284565b8060005260016020526040600020336000526020526040600020600160ff19825416179055339033907f2f8788117e7eff1d82e926ec794901d17c78024a50270940304540a733656f0d600080a484611247565b0151905087806111d8565b6000858152602081209350601f198516905b8181106113705750908460019594939210611357575b505050811b0190556111ed565b015160001960f88460031b161c1916905587808061134a565b92936020600181928786015181550195019301611334565b909150836000526020600020601f840160051c810191602085106113d1575b90601f859493920160051c01905b8181106113c257506111c1565b600081558493506001016113b5565b90915081906113a7565b6040516323b872dd60e01b8152336004820152306024820152604481018790529060208260648160006001600160a01b037f0000000000000000000000000000000000000000000000000000000000000000165af191821561149f5761118992611470575b503360005260156020526040600020600160ff1982541617905561146687600454614545565b6004559050610fe6565b6114919060203d602011611498575b6114898183613b4b565b8101906147d5565b5087611440565b503d61147f565b6040513d6000823e3d90fd5b6323b872dd60e01b60a082019081523360a48301523060c483015260e4820185905260209060648160006001600160a01b037f0000000000000000000000000000000000000000000000000000000000000000165af1801561149f5715610fdb576115359060203d60201161153c575b60a08161152b8293838601613b4b565b83010191016147d5565b5085610fdb565b503d61151b565b346103e95760003660031901126103e95760206040516104b08152f35b346103e95760003660031901126103e95760206040516107d08152f35b346103e95760603660031901126103e957600435611599613a5b565b906115a2613a71565b6115aa61406a565b6000805260096020908152906115df7fec8156718a8372b1db44bb411437d0870f3e3790d4a08526d024ce1b0b668f6b614c72565b9260009360005b81518110156116c1576001600160a01b03806116028385614b37565b5116600052600586528360406000205414611626575061162190614b28565b6115e6565b92507f5a24b67363d3a8ec85a2acbd037e1606bf9847e9a87308d2af106336e4bd09c494955061165591614b37565b51165b6001600160a01b03169261166d8415156150b2565b6001600160401b03600581871692611698620f424061168e818711156150f0565b8487161115615132565b8660005252604060002091610ab584600485016001600160401b0319938482541617815561469f565b5050507f5a24b67363d3a8ec85a2acbd037e1606bf9847e9a87308d2af106336e4bd09c49192611658565b346103e95760403660031901126103e957611705613928565b600435600052600160205260406000209060018060a01b0316600052602052602060ff604060002054166040519015158152f35b346103e9576020806003193601126103e9576001600160401b038061175c613a45565b16600052600982526117716040600020614c72565b9061177c8251614e8b565b9260005b83518110156117c5576117c0906001600160a01b0361179f8287614b37565b5116600052600583528360046040600020015460401c166105778288614b37565b611780565b604051806104ad8782613df3565b346103e95760203660031901126103e9576117ec613912565b6117f4614b4b565b5060018060a01b031660005260066020526104ad6118156040600020614bb4565b604051918291602083526020830190613986565b346103e95760403660031901126103e9576020611844613a45565b61184c613928565b6001600160401b03809216600052600d835260406000209060018060a01b0316600052825260406000205416604051908152f35b346103e95760603660031901126103e9576004356024356001600160401b036044358181116103e957366023820112156103e9576118c8903690602481600401359101613c12565b5033600052600560209181835260406000205415801590611aad575b15611a77578315611a425733600090815260148452604080822086905560158552808220805460ff19166001179055838552902054156119f757336000528183526003604060002001611938868254614545565b905533600052818352600160406000200154166000526008825280604060002001611964858254614545565b90555b61197384600454614545565b6004553360009081528183526040902054156119e0573360005281526119a183600260406000200154615174565b33600052601382526040600020556040519283528201527f01ea4411ab96cb263f76479de6158313581d59dd7a739466723e1b180aafdd4e60403392a2005b50600681526119a183600260406000200154615174565b600683526003604060002001611a0e868254614545565b90553360005260068352600160406000200154166000526008825280604060002001611a3b858254614545565b9055611967565b60405162461bcd60e51b815260048101849052600d60248201526c24b73b30b634b210383937b7b360991b6044820152606490fd5b60405162461bcd60e51b815260048101849052600e60248201526d139bdd081c9959da5cdd195c995960921b6044820152606490fd5b506006835260406000205415156118e4565b346103e95760003660031901126103e95760206001600160401b0360025460401c16604051908152f35b346103e95760203660031901126103e957611b02613a45565b611b0a614ebd565b50611b316001600160401b03809216918260005260076020526040600020541615156146c7565b60005260076020526104ad611b496040600020614f6c565b604051918291602083526020830190613c76565b346103e957611b6b36613f4a565b919092611b76614a48565b6001600160401b0381166000526007602052611ba16001600160401b036040600020541615156146c7565b6001600160401b0381166000526008602052611bc9600160ff81604060002001541614614706565b6001600160401b0381166000526007602052611bef600660406000200154831015614748565b336000526005602052611c0760406000205415614794565b60405192602084013360601b81526001600160401b0360c01b8360c01b16603486015242603c86015243605c860152605c85528460808101106001600160401b03608087011117610db65760808501604052845190209383612018575b508415159283611f64575b80611c7d87611dfa93615174565b336000526013602052604060002055611d3d6001600160401b03421660405160208101903360601b825260148152611cb481613b15565b5190209060405191611cc583613af9565b8983526001600160401b03881660208401528460408401528a6060840152600060808401526207a12060a0840152600060c08401528160e08401526000610100840152610120830152600161014083015261016082015284610180820152336101a082015233600052600560205260406000206147ed565b6001600160401b0384166000526009602052611d5d3360406000206149f8565b33600052600b60205260406000206001600160401b0385166001600160401b03198254161790556001600160401b0384166000526008602052611dd56006604060002001611db463ffffffff825460201c16614a33565b67ffffffff0000000082549160201b169067ffffffff000000001916179055565b6001600160401b03841660005260086020526004604060002001611158828254614545565b6003553360005260116020526040600020908051906001600160401b038211610db6578190611e298454613a87565b601f8111611f11575b50602090601f8311600114611eab57600092611ea0575b50508160011b916000199060031b1c19161790555b6001600160401b036040519184835216907f529e56400f4728c5a98a3efc79e8094d1dfe08248021c690f9f393e7353c84ef60203392a361128b576001600055005b015190508780611e49565b6000858152602081209350601f198516905b818110611ef95750908460019594939210611ee0575b505050811b019055611e5e565b015160001960f88460031b161c19169055878080611ed3565b92936020600181928786015181550195019301611ebd565b909150836000526020600020601f840160051c81019160208510611f5a575b90601f859493920160051c01905b818110611f4b5750611e32565b60008155849350600101611f3e565b9091508190611f30565b6040516323b872dd60e01b8152336004820152306024820152604481018790529060208260648160006001600160a01b037f0000000000000000000000000000000000000000000000000000000000000000165af191821561149f57611dfa92611ff9575b503360005260156020526040600020600160ff19825416179055611fef87600454614545565b6004559050611c6f565b6120119060203d602011611498576114898183613b4b565b5087611fc9565b6323b872dd60e01b608082019081523360848301523060a483015260c4820185905260209060648160006001600160a01b037f0000000000000000000000000000000000000000000000000000000000000000165af1801561149f5715611c64576120989060203d60201161209f575b60808161152b8293838601613b4b565b5085611c64565b503d612088565b346103e9576020806003193601126103e9576001600160401b036004358181116103e9576120d8903690600401613c58565b3360005260058084526040600020541561230a5733600052808452600a60406000200192825193818511610db6576121108154613a87565b94601f958681116122c9575b5080878782116001146122665760009161225b575b508160011b916000199060031b1c19161790555b33600052601185526040600020918351918211610db6576121668354613a87565b9085821161221e575b5050849381116001146121c0579081610ceb93926000805160206151c883398151915295600091610cf057508160011b916000199060031b1c19161790556040519182918583523395830190613961565b601f1981169382600052856000209460005b87828210612208575050916000805160206151c88339815191529560019282610ceb97969510610d44575050811b019055610cd8565b83870151885560019097019692830192016121d2565b83600052866000209086808501821c830193898610612252575b01901c01905b8181101561216f576000815560010161223e565b93508293612238565b905085015188612131565b60008481528981209250601f198416905b8a8282106122b3575050908360019493921061229a575b5050811b019055612145565b87015160001960f88460031b161c19169055888061228e565b600184958293958c015181550194019201612277565b826000528760002087808401871c8201928a8510612301575b01861c01905b8181106122f5575061211c565b600081556001016122e8565b925081926122e2565b60405162461bcd60e51b81526004810185905260166024820152752737ba1030903932b3b4b9ba32b932b21036b4b732b960511b6044820152606490fd5b346103e95760203660031901126103e9576001600160a01b03612369613912565b1660005260116020526104ad6123826040600020613b6c565b604051918291602083526020830190613961565b346103e95760203660031901126103e9576001600160a01b03806123b8613912565b1660005260056020526040600020906104ad8254926001600160401b0360018201541690600281015493600382015495600483015460058401546001600160401b03600686015416600786015491600887015493600988015496600b610478600a8b01613b6c565b346103e95760a03660031901126103e957612439613a45565b6024356001600160401b038082116103e957366023830112156103e95781600401359161246583613e37565b906124736040519283613b4b565b83825260209360248584019160051b830101913683116103e957602401905b82821061266a575050506044358281116103e9576124b4903690600401613e4e565b926064358381116103e9576124cd903690600401613e4e565b608435958487116103e957366023880112156103e9578660040135966124f288613e37565b97612500604051998a613b4b565b8089526024858a019160051b830101913683116103e957908560248995949301915b8383106126575750505050612535614281565b16938460005260109081845261255960ff60056040600020015460401c1615614a9e565b6125668551885114614aea565b6125738551845114614aea565b6125808551895114614aea565b60005b85518110156107ea57808261259b612652938b614b37565b5160008a8152868952604090206001600160a01b039290911690600101826125c3858c614b37565b5116600052885260406000206001600160401b03199182825416179055846125eb8489614b37565b51168a600052868952600260406000200183612607868d614b37565b51166000528952604060002091825416179055612624828c614b37565b519089600052858852600360406000200190612640848b614b37565b51166000528752604060002055614b28565b612583565b8235815289955091810191879101612522565b81356001600160a01b03811681036103e9578152908501908501612492565b346103e95760203660031901126103e9576001600160a01b036126aa613912565b166000526015602052602060ff604060002054166040519015158152f35b346103e95760003660031901126103e9576020600354604051908152f35b346103e95760203660031901126103e95760a06001600160401b038061270a613a45565b16600052601060205260ff604060002080549260056004830154920154918160405195818116875260401c16602086015260408501528116606084015260401c1615156080820152f35b346103e95760003660031901126103e9576002546000906001600160401b03168180805b836001600160401b038216101561284b576001600160401b03811660005260076020526001600160401b03604060002054166127bd575b6127b890614687565b612778565b9091936128436128126127ea6127b893600860205263ffffffff60066040600020015460201c1690614545565b966001600160401b038516600052600860205263ffffffff6006604060002001541690614545565b936001600160401b038416600052600860205261283d60406000206005600482015491015490614545565b90614545565b9190506127af565b608085848461285f60035460045490614545565b91604051938452602084015260408301526060820152f35b346103e95760003660031901126103e9576001600160401b03806002541661289e81614e8b565b6000805b848116848110156128ec5780600052600760205285604060002054166128d2575b506128cd90614687565b6128a2565b826128e5916105776128cd949587614b37565b91906128c3565b5050836128f882614e8b565b9260005b83811061291157604051806104ad8782613df3565b808361292061292c9385614b37565b51166105778288614b37565b6128fc565b346103e95760203660031901126103e9576001600160401b03612952613a45565b16600052600a6020526104ad610b846040600020614c72565b346103e95760003660031901126103e957602060405160018152f35b346103e95760203660031901126103e9576001600160401b036129a8613a45565b16600052600f6020526020604060002054604051908152f35b346103e95760203660031901126103e9576001600160a01b036129e2613912565b1660005260126020526104ad6123826040600020613b6c565b346103e95760003660031901126103e95760206001600160401b0360025460801c16604051908152f35b346103e95760003660031901126103e95760206040516105dc8152f35b346103e95760003660031901126103e9576020604051620f42408152f35b346103e95760403660031901126103e957612a79613928565b336001600160a01b03821603612a95576107ea906004356144cf565b60405162461bcd60e51b815260206004820152602f60248201527f416363657373436f6e74726f6c3a2063616e206f6e6c792072656e6f756e636560448201526e103937b632b9903337b91039b2b63360891b6064820152608490fd5b346103e9576020806003193601126103e957612bb290612b10613a45565b612b18614ebd565b50612b21614f12565b50612b476001600160401b038092169182600052600784526040600020541615156146c7565b600052600781526104ad604060002060088352612bc960406000209360098152604060002092600a8252612bbb612b9d612b97612b91612b8b604060002095614f6c565b99615013565b96614c72565b92614c72565b946040519889986101e0808b528a0190613c76565b93880190613d21565b8582036101a0870152613db6565b908382036101c0850152613db6565b346103e95760403660031901126103e957600435612bf4613928565b816000526001602052612c0e6001604060002001546143c6565b81600052600160205260406000209060018060a01b0316908160005260205260ff6040600020541615612c3d57005b8160005260016020526040600020816000526020526040600020600160ff1982541617905533917f2f8788117e7eff1d82e926ec794901d17c78024a50270940304540a733656f0d600080a4005b346103e95760003660031901126103e95760206040517fdea1430c130e6626c2aa0a1a7a664882ab62c2e44eba35c994dbd707c7b70ab98152f35b346103e95760203660031901126103e957612cdf613a45565b50612ce8614281565b60206002546001600160401b03612d03818360801c16614687565b818116929060801b67ffffffffffffffff60801b1667ffffffffffffffff60401b612d4267ffffffffffffffff60801b198416831760401c8516614687565b60401b169177ffffffffffffffffffffffffffffffff000000000000000019161717600255816000526010835260056040600020836001600160401b0319825416178155612d978360025460401c168261469f565b0181421668ffffffffffffffffff1982541617905560025460401c169060405191817f2f5155a3a89e1a88be3e86b95125ce62efbbb8c8b3136d65342347c46848d2bb600080a38152f35b346103e95760603660031901126103e957612dfb613912565b612e03613a5b565b90612e0c613a71565b90612e1561406a565b6001600160a01b031660008181526006602052604090205490919015612ea3577f5c6e2770eaf2bf15b68801ee9c69b373fc1b89f11b20c683f8bfccb369b0bc25906001600160401b0380851690612e76620f4240610a7e818511156150f0565b846000526006602052604060002091610ab584600485016001600160401b0319938482541617815561469f565b60405162461bcd60e51b815260206004820152601360248201527215985b1a59185d1bdc881b9bdd08199bdd5b99606a1b6044820152606490fd5b0390fd5b346103e95760003660031901126103e957602060405160028152f35b346103e95760203660031901126103e9576001600160a01b03612f1f613912565b16600052600c60205260206001600160401b0360406000205416604051908152f35b346103e95760203660031901126103e95760043560005260016020526020600160406000200154604051908152f35b346103e95760203660031901126103e9576001600160a01b03612f91613912565b16600052600b60205260206001600160401b0360406000205416604051908152f35b346103e95760c03660031901126103e9576004356001600160401b0381116103e957612fe3903690600401613c58565b6024356001600160401b0381116103e957613002903690600401613c58565b6044359163ffffffff831683036103e9576064359163ffffffff831683036103e9578151156136985763ffffffff600254936001600160401b03613047818716614687565b166001600160401b0319861617600255816040519661306588613ac1565b6001600160401b0387168852856020890152336040890152166060870152166080850152611c2060a08501526001600160401b03421660c085015260e0840152600161010084015260843561012084015260a4356101408401526001600160401b038216600052600760205260406000206001600160401b038451166001600160401b031982541617815560208401518051906001600160401b038211610db65781906131156001850154613a87565b601f8111613645575b50602090601f83116001146135d3576000926135c8575b50508160011b916000199060031b1c19161760018201555b6002810160018060a01b0360408601511681549063ffffffff60a01b606088015160a01b169063ffffffff60c01b608089015160c01b169263ffffffff60e01b1617171790556131cb600382016001600160401b0360a0870151166001600160401b03198254161781556001600160401b0360c0870151169061469f565b60e08401519384516001600160401b038111610db6576131ee6004840154613a87565b95601f8711613581575b602096508690601f831160011461350d5791806007949261014094600092613502575b50508160011b916000199060031b1c19161760048501555b63ffffffff6101008201511663ffffffff196005860154161760058501556101208101516006850155015191015561341060405161327081613add565b6001600160401b0384168152620f424085820152600060408201526000606082015260016080820152600060a0820152620f424060c08201526001600160401b03421660e082015260006101008201526000610120820152600061014082015260006101608201526001600160401b0384166000526008855263ffffffff610160600660406000206001600160401b038551166001600160401b03198254161781556133286001600160401b038a870151168261469f565b604085015181546fffffffffffffffffffffffffffffffff6001600160401b0360c01b606089015160c01b16926001600160401b0360801b9060801b1691161717815560ff60808601511660ff1960018301541617600182015560a085015160028201556133c4600382016001600160401b0360c0880151166001600160401b03198254161781556001600160401b0360e0880151169061469f565b6101008501516004820155610120850151600582015501928261014082015116831985541617845501511667ffffffff0000000082549160201b169067ffffffff000000001916179055565b7fdea1430c130e6626c2aa0a1a7a664882ab62c2e44eba35c994dbd707c7b70ab98060005260018452604060002033600052845260ff60406000205416156134b0575b507f5d6943eed6b28b798177bcb465658cca4e137e72861014a967333bf23ab2846b61348a60405192604084526040840190613961565b913385820152806001600160401b038516930390a26001600160401b0360405191168152f35b806000526001845260406000203360005284526040600020600160ff19825416179055339033907f2f8788117e7eff1d82e926ec794901d17c78024a50270940304540a733656f0d600080a483613453565b01519050898061321b565b9060048501600052876000209160005b601f198516811061356a575092600794926001926101409583601f19811610613551575b505050811b016004850155613233565b015160001960f88460031b161c19169055898080613541565b91928960018192868501518155019401920161351d565b600484016000526020600020601f830160051c8101602084106135c1575b601f890160051c820181106135b55750506131f8565b6000815560010161359f565b508061359f565b015190508680613135565b9250600184016000526020600020906000935b601f198416851061362a576001945083601f19811610613611575b505050811b01600182015561314d565b015160001960f88460031b161c19169055868080613601565b818101518355602094850194600190930192909101906135e6565b909150600184016000526020600020601f840160051c810160208510613691575b90849392915b601f830160051c8201811061368257505061311e565b6000815585945060010161366c565b5080613666565b60405162461bcd60e51b815260206004820152600d60248201526c13985b59481c995c5d5a5c9959609a1b6044820152606490fd5b346103e95760203660031901126103e9576001600160401b03806136ef613a45565b1660005260076020526040600020818154169061370e60018201613b6c565b926002820154916137a260038201549361372a60048401613b6c565b63ffffffff94856005860154169660076006870154960154966137616040519b8c9b8c5260208c61016091829101528c0190613961565b9460018060a01b03811660408c0152818160a01c1660608c015260c01c1660808a015281811660a08a015260401c1660c088015286820360e0880152613961565b926101008501526101208401526101408301520390f35b346103e95760203660031901126103e9576001600160a01b036137da613912565b1660005260136020526020604060002054604051908152f35b346103e95760003660031901126103e9576040517f00000000000000000000000000000000000000000000000000000000000000006001600160a01b03168152602090f35b346103e95760203660031901126103e957613851613912565b613859614b4b565b5060018060a01b031660005260056020526104ad6118156040600020614bb4565b346103e95760003660031901126103e9576040517f00000000000000000000000000000000000000000000000000000000000000006001600160a01b03168152602090f35b346103e95760203660031901126103e9576004359063ffffffff60e01b82168092036103e957602091637965db0b60e01b8114908115613901575b5015158152f35b6301ffc9a760e01b149050836138fa565b600435906001600160a01b03821682036103e957565b602435906001600160a01b03821682036103e957565b60005b8381106139515750506000910152565b8181015183820152602001613941565b9060209161397a8151809281855285808601910161393e565b601f01601f1916010190565b90815181526001600160401b0380602084015116602083015260408301516040830152606083015160608301528060808401511660808301528060a08401511660a083015260c083015160c08301528060e08401511660e08301526101008084015190830152610120808401519083015261014060ff81850151169083015261016090818401511690820152613a2d61018080840151906101c08091850152830190613961565b6101a0928301516001600160a01b0316919092015290565b600435906001600160401b03821682036103e957565b602435906001600160401b03821682036103e957565b604435906001600160401b03821682036103e957565b90600182811c92168015613ab7575b6020831014613aa157565b634e487b7160e01b600052602260045260246000fd5b91607f1691613a96565b61016081019081106001600160401b03821117610db657604052565b61018081019081106001600160401b03821117610db657604052565b6101c081019081106001600160401b03821117610db657604052565b604081019081106001600160401b03821117610db657604052565b608081019081106001600160401b03821117610db657604052565b90601f801991011681019081106001600160401b03821117610db657604052565b9060405191826000825492613b8084613a87565b908184526001948581169081600014613bef5750600114613bac575b5050613baa92500383613b4b565b565b9093915060005260209081600020936000915b818310613bd7575050613baa93508201013880613b9c565b85548884018501529485019487945091830191613bbf565b915050613baa94506020925060ff191682840152151560051b8201013880613b9c565b9291926001600160401b038211610db65760405191613c3b601f8201601f191660200184613b4b565b8294818452818301116103e9578281602093846000960137010152565b9080601f830112156103e957816020613c7393359101613c12565b90565b906001600160401b0391828151168252613cfb613ca26020830151610160806020870152850190613961565b60018060a01b03604084015116604085015263ffffffff948560608501511660608601528560808501511660808601528060a08501511660a086015260c08401511660c085015260e083015184820360e0860152613961565b926101009081830151169083015261012080820151908301526101408091015191015290565b6001600160401b0380825116835280602083015116602084015280604083015116604084015280606083015116606084015260ff608083015116608084015260a082015160a08401528060c08301511660c084015260e08201511660e08301526101008082015190830152610120808201519083015263ffffffff610140818184015116908401526101608092015116910152565b90815180825260208080930193019160005b828110613dd6575050505090565b83516001600160a01b031685529381019392810192600101613dc8565b6020908160408183019282815285518094520193019160005b828110613e1a575050505090565b83516001600160401b031685529381019392810192600101613e0c565b6001600160401b038111610db65760051b60200190565b81601f820112156103e957803591613e6583613e37565b92613e736040519485613b4b565b808452602092838086019260051b8201019283116103e9578301905b828210613e9d575050505090565b81356001600160401b03811681036103e9578152908301908301613e8f565b9d9e9d60a0819e9b969a9594613f3a9d986101a09f9b9560ff9b9585526001600160401b039d8e988994858094166020890152604088015260608701521660808501521691015260c08d01521660e08b01526101008a015261012089015216610140870152166101608501526101c080610180860152840190613961565b6001600160a01b03909416910152565b60806003198201126103e9576001600160401b039060043582811681036103e9579260243592604435926064359182116103e957613c7391600401613c58565b6020908160408183019282815285518094520193019160005b828110613fb1575050505090565b835185529381019392810192600101613fa3565b8054821015613fdd5760005260206000200190600090565b634e487b7160e01b600052603260045260246000fd5b9b98939260ff969d9e9d8d6080613f3a9d989b956101809f9b9583526001600160401b039c8d98899687809416602087015260408601526060850152169101521660a08d015260c08c01521660e08a015261010089015216610120870152166101408501526101a080610160860152840190613961565b3360009081527f54fa744d02e0cd6feb2b438b7701c241f85ef8aa84993c058c9ed46b60f00edc602090815260408083205490927f21702c8af46127c7fa207f89d0b0a8441bb32959a0ac7df790e9ab1a25c989269160019060ff16156140d2575050505050565b6140db33614579565b928551916140e883613b30565b6042835285830193606036863783511561426d5760308553835182101561426d5790607860218501536041915b8183116141ff575050506141bd576048612ede9386936141a193614192985198899376020b1b1b2b9b9a1b7b73a3937b61d1030b1b1b7bab73a1604d1b8a860152614169815180928c60378901910161393e565b8401917001034b99036b4b9b9b4b733903937b6329607d1b60378401525180938684019061393e565b01036028810187520185613b4b565b5192839262461bcd60e51b845260048401526024830190613961565b60648486519062461bcd60e51b825280600483015260248201527f537472696e67733a20686578206c656e67746820696e73756666696369656e746044820152fd5b909192600f81166010811015614259576f181899199a1a9b1b9c1cb0b131b232b360811b901a61422f8587614568565b5360041c92801561424557600019019190614115565b634e487b7160e01b82526011600452602482fd5b634e487b7160e01b83526032600452602483fd5b634e487b7160e01b81526032600452602490fd5b3360009081527feb08ee940d1ac9662e9a9716182c59a5990cef3b0e0128641fc5bdd20ac78a52602090815260408083205490927f36fd43ede163045b10e1f0abd16f62f165fce3fa7b6cde217bcea3bc47663acc9160019060ff16156142e9575050505050565b6142f233614579565b928551916142ff83613b30565b6042835285830193606036863783511561426d5760308553835182101561426d5790607860218501536041915b818311614380575050506141bd576048612ede9386936141a193614192985198899376020b1b1b2b9b9a1b7b73a3937b61d1030b1b1b7bab73a1604d1b8a860152614169815180928c60378901910161393e565b909192600f81166010811015614259576f181899199a1a9b1b9c1cb0b131b232b360811b901a6143b08587614568565b5360041c9280156142455760001901919061432c565b6000818152600191602091838352604093848220338352845260ff8583205416156143f2575050505050565b6143fb33614579565b9285519161440883613b30565b6042835285830193606036863783511561426d5760308553835182101561426d5790607860218501536041915b818311614489575050506141bd576048612ede9386936141a193614192985198899376020b1b1b2b9b9a1b7b73a3937b61d1030b1b1b7bab73a1604d1b8a860152614169815180928c60378901910161393e565b909192600f81166010811015614259576f181899199a1a9b1b9c1cb0b131b232b360811b901a6144b98587614568565b5360041c92801561424557600019019190614435565b906000918083526001602052604083209160018060a01b03169182845260205260ff60408420541661450057505050565b8083526001602052604083208284526020526040832060ff1981541690557ff6391f5c32d9c69d2a47ea670b442974b53935d1edc7fd64eb21e047a839171b339380a4565b9190820180921161455257565b634e487b7160e01b600052601160045260246000fd5b908151811015613fdd570160200190565b60405190606082018281106001600160401b03821117610db657604052602a8252602082016040368237825115613fdd57603090538151600190811015613fdd57607860218401536029905b8082116146195750506145d55790565b606460405162461bcd60e51b815260206004820152602060248201527f537472696e67733a20686578206c656e67746820696e73756666696369656e746044820152fd5b9091600f81166010811015614672576f181899199a1a9b1b9c1cb0b131b232b360811b901a6146488486614568565b5360041c91801561465d5760001901906145c5565b60246000634e487b7160e01b81526011600452fd5b60246000634e487b7160e01b81526032600452fd5b6001600160401b038091169081146145525760010190565b9067ffffffffffffffff60401b82549160401b169067ffffffffffffffff60401b1916179055565b156146ce57565b60405162461bcd60e51b815260206004820152601060248201526f14dd589b995d081b9bdd08199bdd5b9960821b6044820152606490fd5b1561470d57565b60405162461bcd60e51b8152602060048201526013602482015272149959da5cdd1c985d1a5bdb8818db1bdcd959606a1b6044820152606490fd5b1561474f57565b60405162461bcd60e51b815260206004820152601760248201527f496e73756666696369656e7420434f5245207374616b650000000000000000006044820152606490fd5b1561479b57565b60405162461bcd60e51b8152602060048201526012602482015271105b1c9958591e481c9959da5cdd195c995960721b6044820152606490fd5b908160209103126103e9575180151581036103e95790565b9190805183556001928381016001600160401b0394602091868386015116906001600160401b0319918282541617905560408501516002850155606085015160038501556148536004850188608088015116838254161781558860a0880151169061469f565b60c0850151600585015560068401908760e08701511690825416179055610100840151600784015561012084015160088401556009830160ff6101408601511681549068ffffffffffffffff0061016088015160081b169168ffffffffffffffffff191617179055600a8301916101808501518051978811610db6576148d98454613a87565b601f81116149af575b5081601f891160011461494757509680928192600b97989960009461493c575b50501b916000199060031b1c19161790555b01906101a060018060a01b03910151166bffffffffffffffffffffffff60a01b825416179055565b015192503880614902565b909791601f198316988560005282600020926000905b8b821061499857505083600b98999a1061497f575b505050811b019055614914565b015160001960f88460031b161c19169055388080614972565b80878596829496860151815501950193019061495d565b6000858152838120601f8b0160051c810192858c106149ee575b601f0160051c019185905b8381106149e3575050506148e2565b8281550185906149d4565b90925082906149c9565b8054600160401b811015610db657614a1591600182018155613fc5565b819291549060031b9160018060a01b03809116831b921b1916179055565b63ffffffff8091169081146145525760010190565b600260005414614a59576002600055565b60405162461bcd60e51b815260206004820152601f60248201527f5265656e7472616e637947756172643a207265656e7472616e742063616c6c006044820152606490fd5b15614aa557565b60405162461bcd60e51b815260206004820152601760248201527f526f756e6420616c72656164792066696e616c697a65640000000000000000006044820152606490fd5b15614af157565b60405162461bcd60e51b815260206004820152600f60248201526e098cadccee8d040dad2e6dac2e8c6d608b1b6044820152606490fd5b60001981146145525760010190565b8051821015613fdd5760209160051b010190565b60405190614b5882613af9565b816101a06000918281528260208201528260408201528260608201528260808201528260a08201528260c08201528260e08201528261010082015282610120820152826101408201528261016082015260606101808201520152565b90604051614bc181613af9565b6101a08193805483526001600160401b038060018301541660208501526002820154604085015260038201546060850152806004830154818116608087015260401c1660a0850152600582015460c08501528060068301541660e085015260078201546101008501526008820154610120850152600982015460ff811661014086015260081c16610160840152614c5a600a8201613b6c565b610180840152600b01546001600160a01b0316910152565b9060405191828154918282526020928383019160005283600020936000905b828210614ca757505050613baa92500383613b4b565b85546001600160a01b031684526001958601958895509381019390910190614c91565b600091606090838052602060098152604094614ce7868220614c72565b90805b8251811015614dba576001600160a01b0380614d068386614b37565b51168352886005808752898286205414614d2b57505050614d2690614b28565b614cea565b9195969798509291614d418691614d4d96614b37565b51168252855220614bb4565b80516001600160401b0380948301511696820151958201519484608084015116948060a0850151169460c0850151948260e082015116946101008201519460ff610140840151169461016084015116936101a061018085015194015116919c9b9a99989796959493929190565b875162461bcd60e51b815260206004820152600f60248201526e135a5b995c881b9bdd08199bdd5b99608a1b6044820152606490fd5b6000916060908380526020600a8152604094614e0d868220614c72565b90805b8251811015614e51576001600160a01b0380614e2c8386614b37565b51168352886006808752898286205414614d2b57505050614e4c90614b28565b614e10565b875162461bcd60e51b815260206004820152601360248201527215985b1a59185d1bdc881b9bdd08199bdd5b99606a1b6044820152606490fd5b90614e9582613e37565b614ea26040519182613b4b565b8281528092614eb3601f1991613e37565b0190602036910137565b60405190614eca82613ac1565b81610140600091828152606060208201528260408201528260608201528260808201528260a08201528260c0820152606060e082015282610100820152826101208201520152565b60405190614f1f82613add565b816101606000918281528260208201528260408201528260608201528260808201528260a08201528260c08201528260e08201528261010082015282610120820152826101408201520152565b90604051614f7981613ac1565b610140600782946001600160401b03808254168552614f9a60018301613b6c565b602086015260028201549060018060a01b038216604087015263ffffffff8281809460a01c16606089015260c01c166080870152600383015481811660a088015260401c1660c0860152614ff060048301613b6c565b60e086015260058201541661010085015260068101546101208501520154910152565b9060405161502081613add565b6101606006829480546001600160401b03908181168652818160401c166020870152818160801c16604087015260c01c606086015260ff6001830154166080860152600282015460a0860152600382015481811660c087015260401c1660e085015260048101546101008501526005810154610120850152015463ffffffff9081811661014085015260201c16910152565b156150b957565b60405162461bcd60e51b815260206004820152600f60248201526e135a5b995c881b9bdd08199bdd5b99608a1b6044820152606490fd5b156150f757565b60405162461bcd60e51b8152602060048201526013602482015272496e76616c696420706572666f726d616e636560681b6044820152606490fd5b1561513957565b60405162461bcd60e51b8152602060048201526013602482015272496e76616c69642074727573742073636f726560681b6044820152606490fd5b9080156151bf576103e8918281029080820484149015171561455257048181106151a05750506107d090565b6101f481106151b15750506105dc90565b606411613c7357506104b090565b50506103e89056fe060a16d12d0dfc76a33a2d280e8544990981e010744db7750feb63a17041c571a2646970667358221220193cb40d18196e4d1c587f2fc6bfad89e99edd03c8e59043f13a39361e5bfac464736f6c634300081300332f8788117e7eff1d82e926ec794901d17c78024a50270940304540a733656f0da6eef7e35abe7026729641147f7915573c7e97b47efa546f5f6e3230263bcb49",
  "linkReferences": {},
  "deployedLinkReferences": {}
}